:100000000C9461000C947E000C947E000C94AD0264
:100010000C947E000C9435030C947E000C947E00AE
:100020000C947E000C947E000C947E000C943E0890
:100030000C947E000C9480000C947E000C947E0046
:100040000C94E90D0C947E000C947E000C947E00C0
:100050000C947E000C946F020C947E000C947E0035
:100060000C947E000C947E00000000002400270009
:100070002A0000000000250028002B0000000000DE
:1000800023002600290004040404040404040202DA
:100090000202020203030303030301020408102007
:1000A0004080010204081020010204081020000012
:1000B0000007000201000003040600000000000029
:1000C000000011241FBECFEFD4E0DEBFCDBF11E092
:1000D000A0E0B1E0E6EEFFE102C005900D92AE387F
:1000E000B107D9F712E0AEE8B1E001C01D92A7391F
:1000F000B107E1F70E94DA0D0C94F10F0C940000A7
:100100001F920F920FB60F9211248F939F9380919D
:10011000BE019091BF0101969093BF018093BE01F3
:100120008091BE019091BF01892B29F48091C0017B
:100130008F5F8093C0019F918F910F900FBE0F90A2
:100140001F901895AF92BF92CF92DF92EF92FF92DD
:100150000F931F9328EE33E040E050E00E945E0FC3
:100160005B016C0140918400509185002091BE019B
:100170003091BF016091C001809184009091850011
:100180008427952797FDEECF8091BE019091BF0106
:100190002817390739F78091C001681719F7C90185
:1001A000A0E0B0E08C01FF24EE24CA01A0E0B0E0A2
:1001B000E82AF92A0A2B1B2B209184003091850014
:1001C000E091BE01F091BF014091C0018091840097
:1001D000909185008227932797FDEECF8091BE01F5
:1001E0009091BF01E817F90739F78091C0014817CE
:1001F00019F7CF01A0E0B0E0DC019927882740E0A3
:1002000050E0822B932BA42BB52B8E199F09A00BAA
:10021000B10B8A159B05AC05BD0570F21F910F91BE
:10022000FF90EF90DF90CF90BF90AF900895482F50
:1002300084EA8093BC002FEF30E08091BC0087FD02
:100240000EC021503040C9F78091C1019091C20188
:1002500001969093C2018093C1011092BC0040931B
:10026000BB0084E88093BC002FEF30E08091BC009D
:1002700087FD0EC021503040C9F78091C101909197
:10028000C20101969093C2018093C1011092BC00FB
:100290000895482F882311F484E801C084EC8093EA
:1002A000BC002FEF30E08091BC0087FD0EC02150D4
:1002B0003040C9F78091C1019091C201019690939D
:1002C000C2018093C1011092BC009091BB004423F5
:1002D00019F484E98093BC00892F08950F931F932C
:1002E000162F042F880F0E9417011093BB0084E87B
:1002F0008093BC002FEF30E08091BC0087FD0EC0E2
:1003000021503040C9F78091C1019091C2010196FE
:100310009093C2018093C1011092BC000093BB0076
:1003200084E88093BC002FEF30E08091BC0087FD13
:100330000EC021503040C9F78091C1019091C20197
:1003400001969093C2018093C1011092BC0084E990
:100350008093BC001F910F9108950F931F93082F56
:10036000162F880F0E9417011093BB0084E880931A
:10037000BC002FEF30E08091BC0087FD0EC0215003
:100380003040C9F78091C1019091C20101969093CC
:10039000C2018093C1011092BC00000F802F8160C8
:1003A0000E94170181E00E9449011F910F91089559
:1003B0001F93CF93DF93EB01142F880F81600E946E
:1003C000170108C0115080E011160CF481E00E9462
:1003D000490189931123B1F7DF91CF911F910895BE
:1003E000FF920F931F93CF93DF93082F162FEA01ED
:1003F000F22E880F0E9417011093BB0084E88093AF
:10040000BC002FEF30E08091BC0087FD0EC0215072
:100410003040C9F78091C1019091C201019690933B
:10042000C2018093C1011092BC00802FBE014F2DEC
:100430000E94D801CDB7DEB7E5E00C94E30F88E663
:100440006EE340E80E946E0162E370E080E090E0BD
:100450000E94A20088E66EE343E00E946E0188E6F7
:1004600066E14EE10E946E0188E660E00E94AD0107
:1004700090E08E77883609F491E0892F0895A6E000
:10048000B0E0E5E4F2E00C94C40F8C017B016A015A
:1004900088E66DE1AE014F5F5F4F26E00E94F001FC
:1004A000998180E02A8130E0822B932BF80191839F
:1004B00080839B8180E02C8130E0822B932BF7019D
:1004C000918380839D8180E02E8130E0822B932B6D
:1004D000F601918380832696E8E00C94E00F1F924A
:1004E0000F920FB60F9211242F938F939F93EF9338
:1004F000FF9390917C009770E92FF0E0EE0FFF1FC3
:10050000E95DFE4F0190F081E02D809179008083BC
:10051000292F16C0E22FF0E0EE0FFF1FE95DFE4F1E
:1005200080819181892B61F080917C00887F282BCC
:1005300020937C0080917A00806480937A0003C0CD
:100540002F5F283039F7FF91EF919F918F912F9175
:100550000F900FBE0F901F9018951F920F920FB61D
:100560000F921124AF92BF92CF92DF92EF92FF923F
:100570000F931F932F933F934F935F936F937F93AB
:100580008F939F93AF93BF93CF93DF93EF93FF939B
:1005900000918400109185008091730293B1909333
:1005A00073027894292F282780958923A3E6B1E048
:1005B000E4E7F2E060E070E0C22EDD24E82EFF24E4
:1005C00021E0CD91DC911197209769F1C601062EAB
:1005D00002C0959587950A94E2F780FF24C0C70171
:1005E000062E02C0959587950A94E2F780FF03C016
:1005F0001183008318C080819181A801481B590B89
:100600008CE7A82E8CEFB82EA40EB51E81EBA81691
:1006100084E0B80640F4598348838091CF0168177D
:1006200011F42093D0016F5F7F4F1296329668309D
:10063000710539F6FF91EF91DF91CF91BF91AF91A5
:100640009F918F917F916F915F914F913F912F91EA
:100650001F910F91FF90EF90DF90CF90BF90AF90E0
:100660000F900FBE0F901F9018951F920F920FB60C
:100670000F921124CF92DF92EF92FF920F931F936C
:100680002F933F934F935F936F937F938F939F939A
:10069000AF93BF93CF93DF93EF93FF93E0908400EA
:1006A000F09085008091620299B1909362027894F3
:1006B000292F282780958923A1EDB1E0E3E6F2E018
:1006C00060E070E0C22EDD24082F10E0CD91DC91B7
:1006D0001197209711F1C601062E02C095958795B6
:1006E0000A94E2F780FF19C0C801062E02C0959552
:1006F00087950A94E2F780FF03C0F182E0820DC083
:1007000080819181A701481B590BCA0184589340ED
:10071000815B944010F4598348836F5F7F4F12963A
:1007200032966830710591F6FF91EF91DF91CF918C
:10073000BF91AF919F918F917F916F915F914F91F9
:100740003F912F911F910F91FF90EF90DF90CF90ED
:100750000F900FBE0F901F901895A0E0B0E0E3EB54
:10076000F3E00C94BA0FEEEE2E2EE1E03E2E74EF85
:10077000672E71E0772EC0E0D0E0FE01E851FE4F19
:1007800040805180FE01EE51FE4F808191819201A7
:10079000281B390B79010027F7FC0095102FF10178
:1007A000808191819201281B390B4901AA2497FC71
:1007B000A094BA2CD501C401B7FE07C08827992799
:1007C000DC0188199909AA09BB0980509840A0400A
:1007D000B04034F0F30110821182128213823EC0C5
:1007E000FE01E55EFE4F20813181442737FD4095B3
:1007F000542FC801B7010E945E0F9B01AC0166E057
:1008000055954795379527956A95D1F7F3018081DE
:100810009181A281B381280F391F4A1F5B1F2030AD
:10082000F0E23F07F0E04F07F0E05F0724F02FEF22
:100830003FE140E050E0CA01B901603020EE7207AC
:100840002FEF82072FEF920724F460E070EE8FEF16
:100850009FEFF301608371838283938340E0C42E12
:1008600042E0D42ECC0EDD1EFE01EB5EFE4F208159
:100870003181442737FD4095542FC801B7010E94AC
:100880005E0F7B018C0133E015950795F794E79493
:100890003A95D1F7F30181919191A191B1913F01E5
:1008A000E80EF91E0A1F1B1FFE01EF5DFE4F20819F
:1008B0003181442737FD4095542FC501B4010E9472
:1008C0005E0F22E095958795779567952A95D1F7E4
:1008D000E61AF70A080B190B9AE015950795F79495
:1008E000E7949A95D1F7F601F182E082F101419205
:1008F00051921F012296C630D10509F03ECFCDB7E7
:10090000DEB7E2E10C94D60FA6E0B0E0EAE8F4E04E
:100910000C94CA0FCE010196BE016D5F7F4FAE01F0
:100920004B5F5F4F0E943F028B819C819093B5018A
:100930008093B40189819A819093B7018093B60125
:100940008D819E819093B9018093B8012696E2E053
:100950000C94E60FA0E0B0E0E0EBF4E00C94C20FE2
:100960007C018C01EB01F70160E070E02BC020817D
:10097000318188819981281739070CF4C901918345
:1009800080832085318588819981821793070CF4B3
:10099000C9019187808729913991442737FD409576
:1009A000542FD8011E96AD90BD90CD90DC905197FC
:1009B000A20EB31EC41ED51E1E96AD92BD92CD9240
:1009C000DC9251979B016F5F7F4F32960C5F1F4FF8
:1009D000D7018D919C91281739074CF2CDB7DEB71E
:1009E000EAE00C94DE0FA0E0B0E0E9EFF4E00C9454
:1009F000C40FEC016C017C0100E010E010C02AA5DE
:100A00003BA5442737FD4095542FF6016685778531
:100A1000808991890E949F0FF70131A320A398013B
:100A20000F5F1F4F84E090E0C80ED91EE2E0F0E0B7
:100A3000EE0EFF1E888199812817390704F3CDB780
:100A4000DEB7E8E00C94E00FA8E0B0E0EAE2F5E001
:100A50000C94C80F80918E0190918F019A838983A5
:100A600080919001909191019C838B838091920160
:100A7000909193019E838D83809194019091950133
:100A800098878F8386E092E0BE016F5F7F4F0E9460
:100A9000AA04809130029091310201969093310224
:100AA000809330028436910509F073C000910602EC
:100AB00010910702E8E0F2E0DF0160E040E050E082
:100AC0000FC018968D919C9119972D913C9111977B
:100AD000821B930B44970CF46F5F4F5F5F4F12962E
:100AE0004017510774F3862F992787FD909580173B
:100AF000910799F586E092E00E94F3048091280224
:100B00009091290290930E0180930D0180912A0209
:100B100090912B029093100180930F0180912C02F1
:100B200090912D02909312018093110180912E02D9
:100B300090912F02909314018093130110925E0202
:100B400080915F02811182E08093C40188EC90E083
:100B50009093CA018093C9011CC084E090E09093F7
:100B6000070280930602A8E1B2E02FEF3FE780E0A2
:100B700090E809C031832083918780871D921D9260
:100B80001D921D92329642E0E031F40799F711A2CE
:100B900010A22896E4E00C94E40FA6E0B0E0E3EDA8
:100BA000F5E00C94CA0F8091B4019091B5019A833D
:100BB00089838091B6019091B7019C838B8380914A
:100BC000B8019091B9019E838D8382E392E0BE01CA
:100BD0006F5F7F4F0E94AA0480915C0290915D023A
:100BE000019690935D0280935C028436910509F032
:100BF0008CC0A0913202B0913302E4E3F2E060E0F5
:100C000040E050E00CC08085918520813181821BBD
:100C1000930BC2970CF46F5F4F5F5F4F32964A178A
:100C20005B078CF3862F992787FD90958A179B0782
:100C300071F582E392E00E94F30480915402909156
:100C400055029093AF018093AE018091560290912E
:100C500057029093B1018093B00180915802909116
:100C600059029093B3018093B20110925F021092E7
:100C7000C40180915E02882319F081E08093C40151
:100C800088EC90E09093CA018093C9013EC083E054
:100C900090E090933302809332022FEF3FE730933E
:100CA00035022093340280E090E890933D028093D7
:100CB0003C02109244021092450210924602109299
:100CC0004702309337022093360290933F0280937D
:100CD0003E02109248021092490210924A0210926B
:100CE0004B02309339022093380290934102809353
:100CF000400210924C0210924D0210924E0210923D
:100D00004F0210925D0210925C022696E2E00C9473
:100D1000E60F4091030150910401809103019091ED
:100D200004014817590721F040918E0150918F011D
:100D300050938F0140938E0120910501309106015F
:100D400080910501909106012817390721F0209123
:100D50009001309191013093910120939001209165
:100D6000070130910801809107019091080128172F
:100D7000390721F020919201309193013093930132
:100D8000209392012091090130910A01809109017B
:100D900090910A012817390721F020919401309190
:100DA0009501309395012093940120910B0130918E
:100DB0000C0180910B0190910C012817390721F04B
:100DC00020919601309197013093970120939601DD
:100DD0008091BC019091BD01892B21F45093910128
:100DE0004093900108958091BA019091BB018130A8
:100DF000910571F18230910509F460C0892B09F0E9
:100E00009CC0209100023091010280918E0190914E
:100E10008F01820F931F9093A7018093A601809169
:100E2000900190919101820F931F9093A90180935B
:100E3000A8018091020290910302209192013091C9
:100E40009301820F931F9093AB018093AA0127C057
:100E5000209100023091010280918E0190918F01CA
:100E6000280F391F40910202509103028091920194
:100E700090919301480F591FCA01820F931F9595B6
:100E800087959093A7018093A601241B350B359578
:100E9000279524523A4F3093AB012093AA018091B9
:100EA0000402909105022091940130919501820FE6
:100EB000931F9093AD018093AC013FC0209100023D
:100EC0003091010280918E0190918F01820F931FCA
:100ED0009093A7018093A601809190019091910138
:100EE000820F931F9093A9018093A8014091020261
:100EF000509103028091920190919301480F591FE4
:100F00002091040230910502809194019091950105
:100F1000280F391FC901840F951F959587959093C8
:100F2000AB018093AA01241B350B359527952452DC
:100F30003A4F3093AD012093AC018091A60190917E
:100F4000A70123E0883E92071CF488EE93E006C0D8
:100F500027E0813D920714F080ED97E09093A70180
:100F60008093A6018091A8019091A90123E0883E79
:100F700092071CF488EE93E006C027E0813D9207BB
:100F800014F080ED97E09093A9018093A8018091DF
:100F9000AA019091AB0123E0883E92071CF488EEF1
:100FA00093E006C027E0813D920714F080ED97E0C2
:100FB0009093AB018093AA018091AC019091AD0117
:100FC00023E0883E92071CF488EE93E006C027E0F9
:100FD000813D920714F080ED97E09093AD018093EE
:100FE000AC01089581E08093E1012FB7F8948091DE
:100FF000A6019091A70190939F0180939E018091FB
:10100000A8019091A9019093A1018093A0018091E2
:10101000AA019091AB019093A3018093A2018091CA
:10102000AC019091AD019093A5018093A401EFE6EE
:10103000F0E0808182608083B19A809184009091F9
:101040008500049690938900809388002FBF0895AF
:10105000CF93DF93C0E0D0E006C0A358BE4F8C9181
:1010600061E00E94780EDE01FE01E358FE4F8081B0
:10107000219687FFF2CFDF91CF9108951F920F92B3
:101080000FB60F9211242F933F934F935F936F935B
:101090007F938F939F93AF93BF93CF93DF93EF9300
:1010A000FF93E0916102FF27E7FDF095E358FE4FC3
:1010B000808160E00E94B70EE0916002E7FD32C0DF
:1010C000C0918400D0918500FF27E7FDF095E3589B
:1010D000FE4F808161E00E94B70EA0916002EA2F6E
:1010E000FF27E7FDF095EE0FFF1FED58FE4F019033
:1010F000F081E02D0190F081E02D3297A093610204
:10110000AF5FA0936002BB27A7FDB095AA0FBB1FDE
:10111000AD58BE4F8D919C91892B69F48FEF8093D0
:10112000600209C0109260021092E10180916F008C
:101130008D7F80936F00CE0FDF1FD0938900C09307
:101140008800FF91EF91DF91CF91BF91AF919F9177
:101150008F917F916F915F914F913F912F910F9060
:101160000FBE0F901F901895A0E0B0E0EAEBF8E0FA
:101170000C94C40F8091680081608093680043E6FE
:10118000E42E41E0F42EC0E0D0E031E0C32ED12CBB
:10119000F70180819181892BB1F080916B00A601CC
:1011A0000C2E02C0440F551F0A94E2F7842B809343
:1011B0006B00CE01885F182F60E00E94780E812FAF
:1011C00061E00E94B70E2196E2E0F0E0EE0EFF1E15
:1011D000C830D105E9F681E08093CF0180916800A5
:1011E00084608093680001ED11E0C0E0D0E021E070
:1011F000E22EF12CF80180819181892BA1F02091C0
:101200006D00C7010C2E02C0880F991F0A94E2F7E7
:10121000282B20936D008C2F60E00E94780E8C2F7D
:1012200061E00E94B70E21960E5F1F4FC830D105B6
:1012300009F7CDB7DEB7E8E00C94E00F0F931F93EA
:10124000CF93DF93EC01162F062F085F88819981D9
:10125000892B41F0812F60E00E94780E812F61E0A0
:101260000E94B70E22961F5F101781F7DF91CF9172
:101270001F910F91089583E391E068E00E941E0999
:1012800083E491E06EE00E941E0983E591E060E056
:101290000E941E090895EF92FF921F93CF93DF9350
:1012A00057E2E52E51E0F52EE7011EE08881998195
:1012B000892B41F0812F60E00E94780E812F60E041
:1012C0000E94B70E22961F5F143181F780E680934B
:1012D0007C0010927B008FE880937A0020E0F70179
:1012E00080819181892B61F080917C00887F282BFF
:1012F00020937C0080917A00806480937A0007C0FC
:101300002F5F82E090E0E80EF91E283041F7DF9170
:10131000CF911F91FF90EF900895EF92FF920F935E
:101320001F937A018B01882341F082E161E00E94E2
:10133000B70E83E161E00E94B70E1092B90060E041
:1013400072E18AE790E0A80197010E947D0F205189
:10135000304040405040569547953795279520930B
:10136000B8001F910F91FF90EF90089581E040E841
:101370005AE166E070E00E948D090E941F028823F6
:1013800049F485E08093C50188EC90E09093CC010E
:101390008093CB010895FF920F931F93CF93DF9318
:1013A000FF2400E010E0F801ED5CFE4FC081D18128
:1013B000209729F08F2D885F0E940B0F8883F801FA
:1013C000ED5BFE4FC081D181209729F08F2D825F88
:1013D0000E940B0F8883F801ED5AFE4FC081D18126
:1013E000209721F08F2D0E940B0F8883F3940E5FBE
:1013F0001F4F88E0F816B9F6CDB7DEB7E5E00C94DC
:10140000E30F823011F460E009C0813011F461E033
:1014100005C08DE00E940B0F61E068278DE00E94FF
:10142000B70E0895EF92FF920F931F937B018C01EB
:101430008091840290918502A0918602B0918702EA
:101440008E199F09A00BB10B181619061A061B0658
:101450000CF454C080918802882321F5E091890220
:10146000EF5FE370E0938902FF27E7FDF095ED530E
:10147000FE4F8081992787FD9095880F991F809353
:10148000880280E492E4AFE0B0E0E80EF91E0A1FA3
:101490001B1FE0928402F092850200938602109353
:1014A00087022CC081508093880280FD02C082E0B8
:1014B00001C081E00E94010AE0918902FF27E7FD57
:1014C000F095EE0FFF1FE953FE4F80819181AA270F
:1014D00097FDA095BA2F7AE0880F991FAA1FBB1F0E
:1014E0007A95D1F78E0D9F1DA01FB11F80938402A6
:1014F00090938502A0938602B09387021F910F916B
:10150000FF90EF900895A5E1B0E0E9E8FAE00C94CF
:10151000BA0FDE011196E8E8F1E086E001900D9245
:101520008150E1F7DE011796E2E8F1E086E00190F4
:101530000D928150E1F784E090E090930702809350
:101540000602E8E0F2E0DF01509640E050E00FEFE5
:101550001FE760E070E809C011830083718760872E
:101560001D921D921D921D9232969A014F5F5F4F00
:101570008091060290910702281739076CF31092A8
:1015800031021092300241E040935E0283E090E02D
:1015900090933302809332022FEF3FE7309335026E
:1015A0002093340280E090E890933D0280933C02C7
:1015B0001092440210924502109246021092470285
:1015C000309337022093360290933F0280933E027D
:1015D000109248021092490210924A0210924B0255
:1015E0003093390220933802909341028093400255
:1015F00010924C0210924D0210924E0210924F0225
:1016000010925D0210925C0240935F0283E080932F
:10161000C40188EC90E09093CA018093C9011A8AB2
:101620001B8A1C8A1D8A1E861F86188A198A88248E
:10163000992454012224332421011D8602C016015D
:10164000270140918400509185002091BE01309186
:10165000BF016091C0018091840090918500842732
:10166000952797FDEECF8091BE019091BF0128177D
:10167000390739F78091C001681719F7C901A0E04F
:10168000B0E07C01DD24CC24CA01A0E0B0E0C82A8F
:10169000D92AEA2AFB2AC701B6010E94120A8091C0
:1016A000D001882379F4D701C6012A893B894C8966
:1016B0005D89821B930BA40BB50B81539547A0400A
:1016C000B04064F01092D0010E94890680915E02C1
:1016D000882309F4B6C10E942405B3C14D85442373
:1016E00009F44FC08091E101882309F0AFC10E9445
:1016F000F3060E94F207D701C6012E853F8548896F
:101700005989821B930BA40BB50B81519742A040C2
:10171000B040B4F10E94840480915F02882311F0EC
:101720000E94CD058091B4019091B5012091AE0148
:101730003091AF01821B930B9093B5018093B4015C
:101740008091B6019091B7012091B0013091B10123
:10175000821B930B9093B7018093B6018091B801DF
:101760009091B9012091B2013091B301821B930B8A
:101770009093B9018093B801CE86DF86E88AF98A12
:101780001D8680915E02882309F05BCF80915F0205
:10179000882309F056CFD701C60188199909AA09EB
:1017A000BB0981519742A040B0400CF411C1109286
:1017B000E3011092E2011092E5011092E40110920F
:1017C000E7011092E6018091B4019091B50150E2D9
:1017D0008030950714F08FEF9FE1E0EE80309E0798
:1017E00014F480E090EE9093E9018093E8018091F9
:1017F000B6019091B701F0E280309F0714F08FEFAF
:101800009FE120EE8030920714F480E090EE9093F8
:10181000EB018093EA018091B8019091B90130E227
:101820008030930714F08FEF9FE140EE80309407F3
:1018300014F480E090EE9093ED018093EC010E940F
:10184000AD03209190013091910180918E01909192
:101850008F01280F391F80910F0190911001281BD3
:10186000390B80910D0190910E01281B390B359594
:10187000279537FF03C0309521953F4F51E021391F
:10188000350714F020E931E080E991E0821B930BE9
:1018900098878F832091920130919301809111015B
:1018A00090911201281B390B37FF03C03095219509
:1018B0003F4F81E02139380714F020E931E080E919
:1018C00091E0821B930B9A87898720919401309134
:1018D00095018091130190911401281B390B37FF5A
:1018E00003C0309521953F4FE1E021393E0714F0C8
:1018F00020E931E080E991E0821B930B9C878B8784
:101900008091960190919701F4E08C349F071CF42C
:1019100080E090E009C027E08D3692071CF080E25D
:1019200093E002C08C549440F0E0AF2EF2E0BF2E62
:1019300000E010E03C01882477FC8094982CE1E0E2
:10194000F0E0EC0FFD1FE00FF11F6081718188272F
:1019500077FD8095982FF50120813181442737FD4F
:101960004095542F0E945E0FE7E0959587957795F7
:101970006795EA95D1F7E7E0F0E0EC0FFD1FE00F87
:10198000F11F20813181442737FD4095542F0E945B
:101990005E0F9B01AC01232F342F452F552747FDA8
:1019A0005A95C401B3010E945E0F29E09595879571
:1019B000779567952A95D1F7F501619371935F014A
:1019C0000E5F1F4F0630110509F0B9CF46015701D0
:1019D000D701C60182199309A409B5098C5197480A
:1019E000A140B0400CF42DCE809100012091010166
:1019F0004091020190E0805890409A83898330E0C2
:101A0000205830403C832B8350E0405850405E8348
:101A10004D83E7E2F1E020E080819181892B61F044
:101A200080917C00887F282B20937C0080917A0015
:101A3000806480937A0003CE2F5F3296283061F75E
:101A4000FECDCA8ADB8AEC8AFD8A4CCE21E02D8746
:101A500098CEA2E0B0E0EFE2FDE00C94C90F9FB792
:101A6000F89480E88093610011E0109361009FBFBB
:101A70008DE061E00E94780E1092800082E08093F9
:101A8000810010936F0085B5887F85BD0E943B095A
:101A90000E94CB091092BB011092BA011092BD01B5
:101AA0001092BC0180919B01882319F440E050E022
:101AB00002C042E050E020E030E080919C018823A9
:101AC00011F021E030E0CA01822B932B8130910587
:101AD00061F08230910561F0892B81F481E090E022
:101AE0009093BD018093BC0109C082E090E002C0E8
:101AF00081E090E09093BB018093BA018091BC019A
:101B00009091BD01019799F48091980125E031E011
:101B1000882329F030936A012093690108C010924C
:101B20005801109257013093D6012093D50180912E
:101B3000BA018F5F8093C30188E592E09093C8015A
:101B40008093C7010E944B090E94B4080E94280894
:101B50000E94B6090E9489061092010210920002AA
:101B600010920302109202021092050210920402D7
:101B70000E94F3068091930290919402009711F0D5
:101B80009C0102C027E932E0CE010196821B930B33
:101B9000803891054CF488E28093C6018EE190E094
:101BA0009093CE018093CD010E94830A2296E3E0B8
:101BB0000C94E50FCF93DF930E943D0E0E94290DF8
:101BC000C0E0D0E00E94830A2097E1F30E94000069
:101BD000F9CF1F920F920FB60F9211242F933F93BC
:101BE0004F935F936F937F938F939F93AF93BF9325
:101BF00020918E0230918F0240919002509191027B
:101C000070919202DA01C9010296A11DB11D672FE0
:101C10006A5F6D3730F06D57DA01C9010396A11D77
:101C2000B11D6093920280938E0290938F02A093D5
:101C30009002B093910280918A0290918B02A091C0
:101C40008C02B0918D020196A11DB11D80938A0274
:101C500090938B02A0938C02B0938D02BF91AF91B1
:101C60009F918F917F916F915F914F913F912F91B4
:101C70000F900FBE0F901F901895789484B58260D6
:101C800084BD84B5816084BD85B5826085BD85B520
:101C9000816085BDEEE6F0E0808181608083E1E8CF
:101CA000F0E0108280818260808380818160808307
:101CB000E0E8F0E0808181608083E1EBF0E080810A
:101CC00084608083E0EBF0E0808181608083EAE7DC
:101CD000F0E0808184608083808182608083808165
:101CE000816080838081806880831092C100089524
:101CF000CF93DF93482F50E0CA0186569F4FFC01D7
:101D000034914A575F4FFA018491882369F190E03A
:101D1000880F991FFC01E859FF4FA591B491FC0170
:101D2000EE58FF4FC591D491662351F42FB7F89424
:101D30008C91932F909589238C93888189230BC054
:101D4000623061F42FB7F8948C91932F909589238A
:101D50008C938881832B88832FBF06C09FB7F8940C
:101D60008C91832B8C939FBFDF91CF910895482F47
:101D700050E0CA0182559F4FFC012491CA0186564A
:101D80009F4FFC0194914A575F4FFA0134913323DE
:101D900009F440C0222351F1233071F0243028F49B
:101DA0002130A1F0223011F514C02630B1F02730D7
:101DB000C1F02430D9F404C0809180008F7703C033
:101DC000809180008F7D8093800010C084B58F77D4
:101DD00002C084B58F7D84BD09C08091B0008F772B
:101DE00003C08091B0008F7D8093B000E32FF0E0BE
:101DF000EE0FFF1FEE58FF4FA591B4912FB7F89447
:101E0000662321F48C919095892302C08C91892BB3
:101E10008C932FBF0895682F70E0CB0182559F4FA0
:101E2000FC012491CB0186569F4FFC0144916A57D7
:101E30007F4FFB019491992319F420E030E03CC0DE
:101E4000222351F1233071F0243028F42130A1F005
:101E5000223011F514C02630B1F02730C1F0243003
:101E6000D9F404C0809180008F7703C080918000F6
:101E70008F7D8093800010C084B58F7702C084B5B9
:101E80008F7D84BD09C08091B0008F7703C08091A1
:101E9000B0008F7D8093B000892F90E0880F991F4C
:101EA00084589F4FFC01A591B4918C9120E030E0C3
:101EB000842311F021E030E0C9010895629FD00130
:101EC000739FF001829FE00DF11D649FE00DF11DF5
:101ED000929FF00D839FF00D749FF00D659FF00DA4
:101EE0009927729FB00DE11DF91F639FB00DE11D91
:101EF000F91FBD01CF0111240895A1E21A2EAA1BDA
:101F0000BB1BFD010DC0AA1FBB1FEE1FFF1FA217A9
:101F1000B307E407F50720F0A21BB30BE40BF50BA6
:101F2000661F771F881F991F1A9469F7609570952F
:101F3000809590959B01AC01BD01CF01089597FB61
:101F4000092E05260ED057FD04D0D7DF0AD0001C7D
:101F500038F450954095309521953F4F4F4F5F4F46
:101F60000895F6F790958095709561957F4F8F4F06
:101F70009F4F08952F923F924F925F926F927F9260
:101F80008F929F92AF92BF92CF92DF92EF92FF9289
:101F90000F931F93CF93DF93CDB7DEB7CA1BDB0B35
:101FA0000FB6F894DEBF0FBECDBF09942A883988DA
:101FB00048885F846E847D848C849B84AA84B984E1
:101FC000C884DF80EE80FD800C811B81AA81B981ED
:101FD000CE0FD11D0FB6F894DEBF0FBECDBFED0101
:061FE0000895F894FFCF04
:101FE600808080DC05DC05DC05DC05D007DC05DC53
:101FF60005DC05DC05F401F401F401F401F401F457
:1020060001F401F401F401000000010101020100E4
:1020160000000000000000000000009B010000001E
:102026000000009C0100000000000000000000000D
:102036000000009D01980199019A0100000000002E
:102046000000000301070109010B01000000000068
:102056000000009E01A201A401A0010000040506E3
:0E20660007FF90019001900180FF80FF80FF36
:00000001FF
