:100000000C9483010C94AB010C94AB010C94AB01E8
:100010000C94AB010C94AB010C94AB010C947406E2
:100020000C94AB010C94A1060C9418180C949C1819
:100030000C94AB010C94AB010C94AB010C94AB0190
:100040000C94AB010C94B6130C94AB010C94AB0163
:100050000C94FA010C94AB010C94AB010C94E519CF
:100060000C94AB010C94AB010C94AB010C94AB0160
:100070000C94AB010C946A040C94AB010C94AB018E
:100080000C94AB010C94AB010C94AB010C94AB0140
:100090000C94AB010C94AB010C94AB010C94AB0130
:1000A0000C94AB010C94AB010C94AB012F1B321BD5
:1000B000251B291B531B531B531B361B3A1B3E1B73
:1000C000441B481B531B4E1B04030904220341001D
:1000D00072006400750069006E006F0020004C0023
:1000E00065006F006E006100720064006F0018030D
:1000F000410072006400750069006E006F0020000E
:100100004C004C004300120100020000004041235B
:1001100036800001010200011201000202000040CD
:100120004123368000010102000100C18081C1002D
:10013000000000240027002A002D003000000000ED
:1001400000250028002B002E0031000000000023B5
:1001500000260029002C002F0004040404040304DA
:100160000502020202040302020202060606060655
:100170000604040202020404080201104080401038
:1001800020408040800802040180402010020110BD
:1001900080102040400000000200080E0000030410
:1001A00001000B0000000000000000000000000043
:1001B000000000070605040100080A0B0C0D0908E1
:1001C0000B0002020201000904000001020200000B
:1001D0000524001001052401010104240206052460
:1001E0000600010705810310004009040100020A0E
:1001F00000000007050202400000070583024000DE
:100200000005010902A1010901A1008501050919E3
:1002100001290315002501950375018102950175DA
:1002200005810305010930093109381581257F75DC
:100230000895038106C0C005010906A101850205D4
:100240000719E029E7150025017501950881029538
:1002500001750881039506750815002565050719C0
:100260000029658100C009040200010300000009A3
:1002700021010100012265000705840340000100FF
:10028000000000000000002A2B28000000000000F1
:100290000000000000000000000000000000002C32
:1002A0009EB4A0A1A2A434A6A7A5AE362D373827A8
:1002B0001E1F20212223242526B333B62EB7B89F34
:1002C0008485868788898A8B8C8D8E8F9091929376
:1002D0009495969798999A9B9C9D2F3130A3AD3514
:1002E0000405060708090A0B0C0D0E0F1011121356
:1002F0001415161718191A1B1C1DAFB1B0B5000044
:100300006817011C031D11241FBECFEFDAE0DEBF0A
:10031000CDBF11E0A0E0B1E0E8E8FDE302C0059048
:100320000D92A03EB107D9F713E0A0EEB1E001C0F5
:100330001D92AC36B107E1F713E0C6E0D3E004C08C
:100340002297FE010E94BE1EC030D107C9F70E944D
:10035000A1160C94C21E0C940000A0E0B0E0E3EBE8
:10036000F1E00C948F1E7C01EB018A01690109C048
:10037000CE012196F6010995F70181937F01015085
:10038000104001151105A1F7CDB7DEB7E8E00C94D8
:10039000AB1EA0E0B0E0EFECF1E00C948F1EEC019E
:1003A0007B018A01690109C0CE012196F7016191A3
:1003B0007F01F60109950150104001151105A1F7C3
:1003C000CDB7DEB7E8E00C94AB1E9C01F999FECFE7
:1003D00032BD21BDF89A80B508959C01F999FECFF0
:1003E0001FBA32BD21BD60BD0FB6F894FA9AF99AD2
:1003F0000FBE08951F920F920FB60F9211248F9384
:100400009F9380912F029091300201969093300239
:1004100080932F0280912F0290913002892B29F432
:10042000809131028F5F809331029F918F910F9065
:100430000FBE0F901F9018956091840070918500F9
:1004400020912F0230913002E0913102809184009E
:10045000909185008627972797FDEECF80912F02F8
:10046000909130022817390739F780913102E81747
:1004700019F740E050E0FFE0220F331F441F551FE3
:10048000FA95D1F78E2F90E0A0E0B0E0BB278695DB
:10049000B795AA2799278827282B392B4A2B5B2B1E
:1004A00076956795CB01A0E0B0E0282B392B4A2B3D
:1004B0005B2BB901CA010895AF92BF92CF92DF9230
:1004C000EF92FF920F931F9328EE33E040E050E04D
:1004D0000E94291E5B016C010E941C027B018C01A1
:1004E0000E941C026E197F09800B910B6A157B0517
:1004F0008C059D05A8F31F910F91FF90EF90DF9061
:10050000CF90BF90AF9008959B01AC018091D9022C
:100510009091DA02A091DB02B091DC02821B930B76
:10052000A40BB50B181619061A061B060CF458C0B6
:100530008091DD02882301F5E091DE02EF5FE37038
:10054000E093DE02FF27E7FDF095EE5CFD4F808132
:10055000992787FD9095880F991F8093DD02205C75
:100560003D4B404F5F4F2093D9023093DA024093C6
:10057000DB025093DC02089581508093DD02809568
:10058000982F917080FF04C0913021F45D9A06C0CD
:100590005D9804C08BB190E289278BB9E091DE02AF
:1005A000FF27E7FDF095EE0FFF1FEA5CFD4F80810E
:1005B0009181AA2797FDA095BA2F6AE0880F991F0D
:1005C000AA1FBB1F6A95D1F7820F931FA41FB51FE7
:1005D0008093D9029093DA02A093DB02B093DC02FD
:1005E0000895482F84EA8093BC002FEF30E011C0BB
:1005F0002115310561F41092BC0080913E0290916A
:100600003F02019690933F0280933E0206C0215024
:1006100030408091BC0087FFEBCF4093BB0084E863
:100620008093BC002FEF30E011C02115310561F43B
:100630001092BC0080913E0290913F0201969093EF
:100640003F0280933E020895215030408091BC00CB
:1006500087FFEBCF0895482F882311F484E801C069
:1006600084EC8093BC002FEF30E011C021153105E0
:1006700061F41092BC0080913E0290913F0201967D
:1006800090933F0280933E0206C0215030408091FB
:10069000BC0087FFEBCF9091BB00442319F484E9A1
:1006A0008093BC00892F08950F931F93162F042F5A
:1006B000880F0E94F1021093BB0084E88093BC0075
:1006C0002FEF30E011C02115310561F41092BC000C
:1006D00080913E0290913F02019690933F02809359
:1006E0003E0206C0215030408091BC0087FFEBCF16
:1006F0000093BB0084E88093BC002FEF30E011C072
:100700002115310561F41092BC0080913E02909158
:100710003F02019690933F0280933E0206C0215013
:1007200030408091BC0087FFEBCF84E98093BC0010
:100730001F910F9108950F931F93082F162F880F65
:100740000E94F1021093BB0084E88093BC002FEF5D
:1007500030E011C02115310561F41092BC00809188
:100760003E0290913F02019690933F0280933E0299
:1007700006C0215030408091BC0087FFEBCF000FB6
:10078000802F81600E94F10281E00E942B031F9163
:100790000F9108951F93CF93DF93EB01142F880FD0
:1007A00081600E94F10208C0115080E011160CF423
:1007B00081E00E942B0389931123B1F7DF91CF9140
:1007C0001F910895FF920F931F93CF93DF93082FEC
:1007D000162FEA01F22E880F0E94F1021093BB003F
:1007E00084E88093BC002FEF30E011C02115310563
:1007F00061F41092BC0080913E0290913F020196FC
:1008000090933F0280933E0206C021503040809179
:10081000BC0087FFEBCF802FBE014F2D0E94CA0383
:10082000CDB7DEB7E5E00C94AE1E88E66BE640E897
:100830000E94540362E370E080E090E00E945C025A
:1008400088E66BE643E00E94540388E66AE140E0F4
:100850000E94540388E66BE148E10E94540388E655
:1008600065E70E949B0390E08E77883609F491E05B
:10087000892F0895A6E0B0E0E0E4F4E00C948F1E28
:100880008C017B016A0188E663E4AE014F5F5F4F34
:1008900026E00E94E203998180E02A8130E0822BE9
:1008A000932BF801918380839B8180E02C8130E041
:1008B000822B932BF701918380839D8180E02E8191
:1008C00030E0822B932BF601918380832696E8E01B
:1008D0000C94AB1E1F920F920FB60F9211242F9300
:1008E0008F939F93EF93FF9390917C009770E92FE4
:1008F000F0E0EE0FFF1FE05CFD4F0190F081E02D76
:10090000809179008083292F16C0E22FF0E0EE0F4E
:10091000FF1FE05CFD4F80819181892B61F0809108
:100920007C00887F282B20937C0080917A00806453
:1009300080937A0003C02F5F283039F7FF91EF9141
:100940009F918F912F910F900FBE0F901F90189530
:10095000CF93DF93A0E4B2E0FD0140E050E061E01E
:1009600070E080819181892B79F087B1EB01042EB1
:1009700002C0CC0FDD1F0A94E2F79E01209582236E
:1009800087B988B1282328B94F5F5F4F3296463028
:10099000510539F780E680937C0010927B008FE848
:1009A00080937A0020E08D919C911197892B61F0C2
:1009B00080917C00887F282B20937C0080917A0096
:1009C000806480937A0004C02F5F1296283059F714
:1009D000DF91CF910895ECE4F2E040E050E061E077
:1009E00070E080819181892B79F034B1CB01042EA4
:1009F00002C0880F991F0A94E2F7282F209523231D
:100A000024B925B1822B85B94F5F5F4F32964830AC
:100A1000510539F7ECE5F2E040E050E061E070E0CC
:100A200080819181892B79F037B1CB01042E02C0EE
:100A3000880F991F0A94E2F7282F2095232327B9BE
:100A400028B1822B88B94F5F5F4F329648305105ED
:100A500039F7ECE6F2E040E050E061E070E08081E0
:100A60009181892B79F03AB1CB01042E02C0880F15
:100A7000991F0A94E2F7282F209523232AB92BB136
:100A8000822B8BB94F5F5F4F32964830510539F753
:100A9000089560E070E040E050E0A1E0B0E0362F63
:100AA000FA01E45BFD4F0190F081E02D309751F0A9
:100AB00023B1CD01062E02C0880F991F0A94E2F7D8
:100AC00028232083FA01E45AFD4F0190F081E02DA4
:100AD000309751F026B1CD01032E02C0880F991F27
:100AE0000A94E2F728232083FA01E459FD4F01908C
:100AF000F081E02D309749F029B1CD0102C0880F77
:100B0000991F3A95E2F7282320836F5F7F4F4E5F4E
:100B10005F4F4031510519F60895A0E0B0E0E3E9D8
:100B2000F5E00C948D1E0091840010918500809159
:100B3000530393B1909353037894292F28278095DA
:100B40008923AEE5B1E0E8E5F3E060E070E0C22EB5
:100B5000DD24E82EFF2421E0CD91DC911197209730
:100B600079F1C601062E02C0959587950A94E2F7A1
:100B700080FF26C0C701062E02C0959587950A946E
:100B8000E2F780FF03C0118300831AC08081918146
:100B9000A801481B590B569547958CE7A82E8CEF5A
:100BA000B82EA40EB51E81EBA81684E0B80640F45A
:100BB0005983488380917D02681711F420937C0249
:100BC0006F5F7F4F129632966830710529F6CDB768
:100BD000DEB7EAE00C94A91E2091840030918500D4
:100BE000809154039CB19093540378948095892309
:100BF00086FF05C0309351032093500308958091E0
:100C0000500390915103281B390B36952795C90144
:100C100084589340815B944020F4309317012093D3
:100C200016010895409184005091850080915503EC
:100C30009CB19093550378948095892386FF53C087
:100C400080915603909157039A01281B390B3695D2
:100C5000279550935703409356038BE0293B380761
:100C600058F080915203815080937D02109252037C
:100C700081E08093D80208958091D802882399F169
:100C800080915203883078F593E02438390758F181
:100C900098E02533390738F5E0912801F0912901D2
:100CA000329763E0EE0FFF1F6A95E1F7E80FF11D41
:100CB000EE0FFF1FE25DFE4F0190F081E02D3183CA
:100CC000208340915203242F30E080917D029927A8
:100CD00087FD90952817390719F481E080937C02ED
:100CE0004F5F4093520308951F920F920FB60F92D9
:100CF00011242F933F934F935F936F937F938F9321
:100D00009F93AF93BF93EF93FF93809128019091AE
:100D10002901019719F00E94120602C00E94EC05F9
:100D2000FF91EF91BF91AF919F918F917F916F91C3
:100D30005F914F913F912F910F900FBE0F901F9099
:100D400018951F920F920FB60F9211242F933F9375
:100D50004F935F936F937F938F939F93AF93BF93C3
:100D6000EF93FF930E948D05FF91EF91BF91AF919B
:100D70009F918F917F916F915F914F913F912F91B3
:100D80000F900FBE0F901F901895809128019091A1
:100D90002901019761F080916A00806180936A0067
:100DA000EE9A6E98769A83E080937D020895809102
:100DB0006800816080936800EEE5F1E040E050E07B
:100DC00061E070E080819181892BA1F020916B001E
:100DD000CB01042E02C0880F991F0A94E2F7282B3A
:100DE00020936B0034B1282F2095232324B925B1FB
:100DF000822B85B94F5F5F4F32964830510511F70E
:100E000083E080937D0280916A00806180936A0014
:100E1000EE9A6E98769A0895A6E0B0E0E2E1F7E0E7
:100E20000C94851E7A8369839E838D832B011C011C
:100E30009B012A5F3F4F3C832B83ED81FE8106811E
:100E4000178180819181081B190B3801882477FC58
:100E50008094982CF10182899389A489B589860DA3
:100E6000971DA81DB91D828B938BA48BB58BE9812F
:100E7000FA812289338944895589AA24BB246501D2
:100E8000A21AB30AC40AD50A8A159B05AC05BD058A
:100E90004CF05C016D01281739074A075B0714F411
:100EA00059016A01ED81FE8184859585AA2797FD08
:100EB000A095BA2FA4019301281B390B4A0B5B0B99
:100EC000CA01B90115870487F201248535854427B5
:100ED00037FD4095542F0E94291E7B018C01A2E012
:100EE00015950795F794E794AA95D1F7F20120811B
:100EF0003181442737FD4095542FC401B3010E942E
:100F0000291EF3E09595879577956795FA95D1F722
:100F1000E60EF71E081F191FF201268137814427AC
:100F200037FD4095542FC601B5010E94291EE6E009
:100F30009595879577956795EA95D1F7E60EF71E13
:100F4000081F191FE981FA81068804C015950795C5
:100F5000F794E7940A94D2F7ED81FE81F78EE68E3E
:100F60003296FE83ED8324E030E0220E331E42E011
:100F700050E0440E551E8B819C814816590609F09D
:100F80005CCF2696E2E10C94A11ECF93DF93AC01D7
:100F9000DC0111968D919C9112979093250180937D
:100FA00024011396EC911397E09309011496AC91E8
:100FB000A0930A01EA016D8160930B01FF27E7FD11
:100FC000F09580E091E0E80FF91F24812093E00183
:100FD000BB27A7FDB095A80FB91F14962C9120939D
:100FE000E101772767FD7095860F971FFC018481CB
:100FF0008093E2018E819F81909327018093260147
:101000008885998590932901809328018A859B85FD
:1010100090932B0180932A018C859D8590932D01BF
:1010200080932C01DF91CF910895A6E0B0E0EBE131
:10103000F8E00C94951ECE010196BE016D5F7F4FC6
:10104000AE014B5F5F4F0E943A048B819C8190956B
:1010500081959F4F909322028093210249815A816A
:1010600066277727641B750B709324026093230215
:101070002D813E81309326022093250280912A0102
:1010800090912B018230910519F00397B1F409C0BA
:10109000309324022093230250932602409325028A
:1010A0000CC088279927821B930B9093240280936E
:1010B000230270932602609325022696E2E00C94A8
:1010C000B11EA0E0B0E0E7E6F8E00C948D1E7C01D4
:1010D0008C01EB01F70160E070E02BC021813281CF
:1010E00088819981281739070CF4C901928381837B
:1010F0002185328588819981821793070CF4C90173
:101100009287818729913991442737FD4095542F43
:10111000D8011F96AD90BD90CD90DC905297A20E55
:10112000B31EC41ED51E1F96AD92BD92CD92DC9209
:1011300052979B016F5F7F4F32960C5F1F4FD70115
:1011400011968D919C911297281739073CF2CDB7D3
:10115000DEB7EAE00C94A91EA0E0B0E0E2EBF8E014
:101160000C948F1EEC017C01B3E2CB2ED12CC80E67
:10117000D91E00E010E011C02BA53CA5442737FD87
:101180004095542FF70167857089818992890E9463
:101190006A1EF601219331936F0198010F5F1F4F73
:1011A00084E090E0E80EF91E89819A8128173907BA
:1011B0001CF3CDB7DEB7E8E00C94AB1EA8E0B0E0BE
:1011C000E4EEF8E00C948F1E8C018091E301909185
:1011D000E4019A8389838091E7019091E8019C83DF
:1011E0008B838091E9019091EA019E838D838091A8
:1011F000E5019091E60198878F83C801BE016F5F7A
:101200007F4F0E946108D8019B968D919C919C977D
:1012100001969C969C938E939B978436910509F03A
:1012200070C01196ED90FC9012976801F80160E093
:1012300040E050E00CC08385948523813481821B7B
:10124000930B44970CF46F5F4F5F5F4F32964E15D0
:101250005F058CF3862F992787FD90958E159F0546
:10126000F9F4C8010E94AC08F80183A194A19093FD
:101270001D0180931C0185A196A190931F0180936D
:101280001E0187A190A5909321018093200181A543
:1012900092A5909323018093220181E0808331C045
:1012A000D8011C9284E090E012969C938E93119743
:1012B000F80140E050E08FEFE82E8FE7F82E60E075
:1012C00070E80BC0F282E18272876187D6011F96B7
:1012D0001D921D921D921C9252979A014F5F5F4F73
:1012E000329684E090E0C80ED91ED80111968D91F7
:1012F0009C911297281739072CF39C961C921E92EA
:101300009B972896E8E00C94AB1EA6E0B0E0EBE8D3
:10131000F9E00C948F1E8C018091210290912202A1
:101320009A83898380912302909124029C838B83EA
:1013300080912502909126029E838D83C801BE0173
:101340006F5F7F4F0E946108F80183A594A5019605
:1013500094A783A78C52914009F064C0F801E18002
:10136000F280D80160E040E050E00CC083859485B5
:1013700023813481821B930BC2970CF46F5F4F5F04
:101380005F4F32964E155F058CF3862F992787FDA8
:1013900090958E159F05C9F4C8010E94AC08F8010C
:1013A00083A194A190931C0280931B0285A196A116
:1013B00090931E0280931D0287A190A59093200216
:1013C00080931F0281E080832DC0F801108283E0AA
:1013D00090E092838183680140E050E09FEFE92E26
:1013E0009FE7F92E60E070E80DC01296FC92EE9235
:1013F00011971A967C936E931997F6011786108AA7
:10140000118A128A9A014F5F5F4F129684E090E032
:10141000C80ED91EF80181819281281739072CF353
:1014200014A613A62696E8E00C94AB1E40910C017E
:1014300050910D0180910C0190910D0148175907B1
:1014400021F04091E3015091E4015093E401409375
:10145000E30120910E0130910F0180910E019091D6
:101460000F012817390721F02091E7013091E80199
:101470003093E8012093E701209110013091110190
:1014800080911001909111012817390721F02091C6
:10149000E9013091EA013093EA012093E9012091BA
:1014A00012013091130180911201909113012817BC
:1014B000390721F02091E5013091E6013093E601F2
:1014C0002093E501209114013091150180911401C0
:1014D000909115012817390721F02091EB013091E7
:1014E000EC013093EC012093EB0120911601309137
:1014F000170180911601909117012817390721F0E3
:101500002091ED013091EE013093EE012093ED0139
:1015100020911801309119018091180190911901C1
:101520002817390721F02091EF013091F001309315
:10153000F0012093EF0120911A0130911B0180915D
:101540001A0190911B012817390721F02091F10110
:101550003091F2013093F2012093F1018091240146
:1015600090912501019721F45093E6014093E50104
:101570000895FC018091240190912501823091050C
:1015800079F18330910524F4019709F0B4C007C0C4
:101590008330910509F462C0049709F0ACC08081E2
:1015A00091812091E3013091E401820F931F909388
:1015B00000028093FF01808191812091E5013091AB
:1015C000E601820F931F90930602809305028281A9
:1015D00093812091E7013091E801820F931F31C080
:1015E000408151818091E3019091E401480F591F9E
:1015F000628173818091E7019091E801680F791F02
:10160000CB01840F951F9C01B3E035952795BA95C2
:10161000E1F795958795280F391F2757314030936B
:1016200000022093FF01461B570BCA01B3E09595BA
:101630008795BA95E1F755954795840F951F845284
:101640009A4F9093020280930102848195812091A8
:10165000E9013091EA01820F931F49C08081918195
:101660002091E3013091E401820F931F90930002D7
:101670008093FF01808191812091E5013091E60105
:10168000820F931F909306028093050262817381FB
:101690008091E7019091E801680F791F448155819D
:1016A0008091E9019091EA01480F591FCA01860F04
:1016B000971F9C01F3E035952795FA95E1F79595ED
:1016C0008795280F391F2757314030930202209306
:1016D0000102461B570BCA0133E0959587953A9551
:1016E000E1F755954795840F951F84529A4F909333
:1016F0000402809303028091EF019091F001909396
:101700000802809307028091F1019091F201909379
:101710000A02809309020895A8E0B0E0E2E9FBE044
:101720000C94931E80912601909127010397A9F5AF
:10173000FE01319688E0DF011D928A95E9F7CF011D
:101740000E94B90AA7EBB1E00BE012E043E152E0DE
:101750006D917C911197F80120813181FB0180818D
:101760009181281739070CF4C901F801918380830E
:10177000FA0120813181FB018081918182179307D9
:101780000CF4C901FA0181939193AF0112960E5F97
:101790001F4FF1E0AF3BBF07D9F687E292E00E940E
:1017A000B90A80E090E0FC01E954FE4FA081B181CC
:1017B0004D915C911197FC01E55FFD4F0190F08127
:1017C000E02D4E175F0754F0FC01ED5EFD4F2081C8
:1017D0003181FA01241735070CF4F901ED93FC93DC
:1017E000029688309105F9F62896E4E00C94AF1E35
:1017F00081E080937E022FB7F8948091FF01909151
:1018000000029093F4018093F30180910102909182
:1018100002029093F6018093F5018091030290916A
:1018200004029093F8018093F70180910502909152
:1018300006029093FA018093F9018091070290913A
:1018400008029093FC018093FB0180910902909122
:101850000A029093FE018093FD01EFE6F0E08081A3
:1018600082608083B19A8091840090918500049673
:1018700090938900809388002FBF0895FC01828196
:1018800083832091E3013091E401458154E0213BC1
:10189000350714F490E00DC0C90184519540815979
:1018A000914010F491E005C0285037400CF453C02B
:1018B00092E0442319F082E0891B982F90832091B5
:1018C000E7013091E801468154E0213B350714F4EB
:1018D00090E00CC0C901845195408159914010F4A9
:1018E00091E004C028503740C4F192E0442319F03D
:1018F00082E0891B982F91838781882351F480810E
:10190000882329F0823029F481E08583108281E0E8
:1019100087838085882361F48181882319F0823050
:1019200039F404C081E0868382E0818381E080878E
:1019300030813F5F818123E08202C0011124380F92
:101940003283938180E0391729F081E09295907F6E
:10195000932B948308959081B1CF9181CCCF282F80
:1019600030E03F6F220F331FEFB7F894809184006F
:1019700090918500AC01405C5F4FBC016D5D7A4F7A
:101980008091840090918500DA01A81BB90B1A168A
:101990001B06B4F320FF02C03F9801C03F9A4617D0
:1019A000570729F03695279545575F4FE9CFEFBF89
:1019B0000895EFB7F894379B49C016C02091840072
:1019C000309185002058314C04C08FEF9FEF379B3A
:1019D0000BC08091840090918500B901681B790B40
:1019E0001616170614F4F1CFAC0141505040CA014D
:1019F00001961816190614F34F5F5F4F19F420E093
:101A000030E826C08091840090918500AC0140565A
:101A10005F4F20E030E0BC0163597B4F8091840030
:101A200090918500DA01A81BB90B1A161B06B4F3B6
:101A300086B13695279590E080789070282B392BC9
:101A40004617570729F045575F4FE8CF20E030E4AD
:101A5000EFBFC9010895EF92FF920F931F93CF93A9
:101A6000DF93E82E192F062FF62E84E20E94AF0C8A
:101A7000802F0E94AF0C2E2D312FC901EC0104C024
:101A80008991F80E0E94AF0C9E012E192017C4F305
:101A90008F2D81950E94AF0CCDB7DEB7E6E00C9498
:101AA000AD1E8F929F92AF92BF92CF92DF92FF9224
:101AB0000F931F93CF93DF934C015A01C0E0D0E006
:101AC000C62EDD24C7FCD09402C0812F182FC5017B
:101AD0000E94D90C9C018070907C892B69F5822F23
:101AE000C130D10559F0C230D105A1F0209779F766
:101AF000243259F7812FC1E0D0E0E8CF90E0C8163A
:101B0000D90614F4812F15C0822FF22EC2E0D0E046
:101B100000E0DCCFF20E812F8150112331F0F4016F
:101B2000E00FF11D20830F5FD1CFFF2011F481E082
:101B300004C0C0E0D0E0CACF80E0DF91CF911F9118
:101B40000F91FF90DF90CF90BF90AF909F908F90BC
:101B500008951F93CF93DF93EC01142F4FE050E0D3
:101B600025EE31E00E94AD018881811711F08FEFE1
:101B700012C090E020E030E0FE01E20FF31F808110
:101B8000980F2F5F3F4F2F303105B1F7992311F494
:101B900080E001C08EEFDF91CF911F910895DC01AD
:101BA00040E020E030E0FD01E20FF31F8081480FAC
:101BB0002F5F3F4F2E303105B1F741951E964C9364
:101BC0001E97CB01BD014FE050E02DEE31E00E94A9
:101BD000C9010895A7E1B0E0E0EFFDE00C94851E97
:101BE0001C01CE01099660E070E043E00E94A90D5F
:101BF0009A8599838C858A838D858B838E858C834A
:101C00008F858D8389898E838B898F8381E08887F7
:101C1000B92EBB0CAA24EE24FF24870190E8692E7C
:101C20009AE1792E96E0892E912C82E0C82EDD244F
:101C30002E010894411C511C0E941C029B01AC0106
:101C4000DC01CB018E199F09A00BB10B6816790638
:101C50008A069B060CF051C01C1424F58C2D992784
:101C600087FD9095FC01E170F07080FD03C088E075
:101C700097E002C08CED95E0909302028093010200
:101C80008CED95E0909300028093FF01EE0FFF1F13
:101C9000EE0FFF1FE156FE4F6080718082809380BF
:101CA000CA9429C0BB2039F11B1424F46CE271E002
:101CB000A1E003C064ED7EEFAFEF8B2D992787FD88
:101CC0009095FC01E170F07080FF03C08CED95E011
:101CD00003C0CB0184529A4F909300028093FF017E
:101CE000EE0FFF1FEE0FFF1FE156FE4F6080718069
:101CF00082809380BA1A79018A0180917C028823BC
:101D000029F010927C020E94160A02C0AA2041F01B
:101D100080917E02882309F0ABC00E94F80BAA24B0
:101D2000CC2009F089CFC1010E943E0C882309F420
:101D300083CFF1018481843561F0853520F48235CB
:101D400009F05FC01DC0863579F0883509F059C0AB
:101D500030C0F1E0FD1514F0DD2401C0DA94CD2C83
:101D6000CC0C82E0C80E43C095E09D151CF4A7E0A2
:101D7000DA2E01C0D394CD2CCC0CE2E0CE0E37C0CD
:101D8000AD2DBB27A7FDB095F201EA0FFB1F8081A7
:101D9000282F332727FD30952F5F3F4FFD01E95551
:101DA000FE4F8081992787FD909582179307D4F481
:101DB00018C0AD2DBB27A7FDB095F201EA0FFB1FA0
:101DC0008081282F332727FD309521503040FD0199
:101DD000E155FE4F8081992787FD90952817390797
:101DE0000CF49C01A40DB51D2C93B22E09C01C143B
:101DF00044F4ED2DFF27E7FDF095E40DF51DB080CF
:101E0000BB0CF7E0DF1609F017CF8885823009F0A8
:101E100013CF8981992787FD90959B878A878A812F
:101E20008C878B818D878C818E878D81992787FD0B
:101E30009095988B8F878E81992787FD90959A8BA7
:101E4000898B8F81992787FD90959C8B8B8B8E0139
:101E5000075F1F4FC80160E070E00E94CF0DC8010E
:101E600060E071E00E94CF0D6796E2E10C94A11E44
:101E7000AA24A39455CFA2E8B0E0E1E4FFE00C94DB
:101E8000851E0E941C02C158DF4F688379838A83B4
:101E90009B83CF57D040DE011196E9E9F1E086E05F
:101EA00001900D928150E1F781E08E878D8785E06A
:101EB0008F871B8A1A8A1D8A1C8A84E090E0988F7B
:101EC0008F8BFE017996DE01999640E050E00FEF8E
:101ED0001FE760E070E809C01183008371876087A5
:101EE0001D921D921D921D9232969A014F5F5F4F77
:101EF0008F89988D281739077CF3FE01EF5BFF4F20
:101F000011821082FE01ED5BFF4F83E090E092832F
:101F10008183DF011396BF016D5E7F4F40E050E08B
:101F20006F011FEFE12E1FE7F12E00E010E80EC059
:101F30001196FC92EE9219961C930E931897FB0142
:101F40001192119211921192BF0112969A014F5F54
:101F50005F4FF60181819281281739074CF31E8A61
:101F6000108214A613A6C158DF4F288139814A81F7
:101F70005B81CF57D0402093D2023093D30240935D
:101F8000D4025093D502EF962CAF3DAF4EAF5FAF6A
:101F9000EF97BA01A901EB964CAF5DAF6EAF7FAF83
:101FA000EB977A018B01E7964CAF5DAF6EAF7FAFD9
:101FB000E797E3961FAEE397E2961FAEE29751E0F4
:101FC000E1965FAFE197B3E42B2E312C2C0E3D1E32
:101FD00006C0E796ACAEBDAECEAEDFAEE7970E94D0
:101FE0001C025B016C010E94840280917C028823A8
:101FF00089F4D601C501EF962CAD3DAD4EAD5FAD78
:10200000EF97821B930BA40BB50B81539547A04010
:10201000B04014F110927C020E94160A8E89882327
:1020200009F010C3CE0146960E94DE08D1018C91C2
:10203000882311F492E001C090E020E08E8988238B
:1020400009F421E0920F90933302E8ECF0E0F09372
:102050003902E0933802F6C2E396FFADE397FF231F
:1020600059F080917E02882339F40E948C0B0E94E3
:10207000F80BE3961FAEE397D601C501EB962CADA6
:102080003DAD4EAD5FADEB97821B930BA40BB50B33
:1020900081519742A040B04024F10E941508D1011F
:1020A0008C918823C1F4C1010E948509F1018081CE
:1020B000882311F492E001C090E020E08E8988230B
:1020C00009F421E0920F9093330228EC30E0309332
:1020D000390220933802EB96ACAEBDAECEAEDFAE89
:1020E000EB97E1963FADE197332309F456C0CE015B
:1020F0000D960E943E0C882309F44FC0E2964FAD26
:10210000E297E42FFF27E7FDF095E057FE4F99890E
:102110008081981721F0E2961FAEE29707C0E29601
:102120005FADE2975F5FE2965FAFE297E2966FADD9
:10213000E297E62FFF27E7FDF095E057FE4F8081FD
:102140008F3F81F4CE010D960E94EA0D2EE088E1CA
:1021500090E00FB6F894A895809360000FBE20938E
:102160006000FFCFD601C501C158DF4F28813981FA
:102170004A815B81CF57D040821B930BA40BB50BD8
:10218000815C914EA44EB04024F0E1961FAEE197E1
:1021900004C041E0E1964FAFE1978E89882309F4AE
:1021A0001ECFD1018C91882309F419CFD601C50126
:1021B0008E199F09A00BB10B81519742A040B040EE
:1021C0000CF401C24091E5015091E6018091E301D8
:1021D0009091E401480F591F80911C0190911D01BD
:1021E000481B590B8091220190912301481B590BE8
:1021F0005595479557FF03C0509541955F4FE09126
:10220000E701F091E80180911E0190911F01E81B08
:10221000F90BF7FF03C0F095E195FF4F6091E901DD
:102220007091EA018091200190912101681B790B46
:1022300077FF03C0709561957F4FCA0121E0413956
:10224000520714F080E991E0A0E9B1E0A81BB90BB6
:10225000B887AF83CF01B1E0E139FB0714F080E923
:1022600091E020E931E0281B390B3A872987CB011F
:1022700031E06139730714F080E991E0A0E9B1E041
:10228000A81BB90BBC87AB872091EB013091EC0107
:10229000B5E02D3D3B072CF087E02D36380744F0A4
:1022A00016C08CED95E0821B930B815991407CF414
:1022B000B5E02D3D3B0724F089010C5D154011C0B0
:1022C0000CED15E0021B130B21E030E00CC02D5D7E
:1022D00035402CF421E030E000E911E004C000E9D1
:1022E00011E022E030E080912D0290912E0228171B
:1022F0003907B1F030932E0220932D0221303105A1
:1023000011F084E001C080E080933302A8ECB0E0DB
:10231000B0933902A093380299249394882483942B
:10232000453651051CF4E536F10514F099249394D3
:102330006536710514F088248394992081F01092F9
:10234000BF021092C0021092C1021092C2021092FB
:10235000C3021092C4021092C5021092C6028820D5
:1023600041F01092C7021092C8021092C902109256
:10237000CA021092AE021092AD021092B0021092F8
:10238000AF021092B2021092B1022091210230915C
:10239000220280911B0290911C02281B390BB0E293
:1023A00020303B0714F02FEF3FE1C901E0EE203071
:1023B0003E0714F480E090EE9093B4028093B30251
:1023C000209123023091240280911D0290911E02DF
:1023D000281B390BF0E220303F0714F02FEF3FE1CC
:1023E000C90120EE8030920714F480E090EE9093C3
:1023F000B6028093B5022091250230912602809189
:102400001F0290912002281B390B40E22030340734
:1024100014F02FEF3FE1C90150EE2030350714F4DE
:1024200080E090EE9093B8028093B70280912D02E5
:1024300090912E02019719F066E972E002C06FE7F1
:1024400072E08DEA92E00E940C07FBEC4F2EF2E066
:102450005F2EEE24FF243801882477FC8094982C8A
:102460008701095D1D4FE1E0F0E0EC0FFD1FEE0D6F
:10247000FF1D60817181882777FD8095982FD2019B
:102480002D913D912D01442737FD4095542F0E94F9
:10249000291EE7E09595879577956795EA95D1F799
:1024A000E7E0F0E0EC0FFD1FEE0DFF1D2081318114
:1024B000442737FD4095542F0E94291E9B01AC01F3
:1024C00069E055954795379527956A95D1F7C401E9
:1024D000B3010E94291E29E0959587957795679508
:1024E0002A95D1F7F8017183608322E030E0E20E93
:1024F000F31E36E0E316F10409F0B2CF2091D102C9
:1025000012160CF05CC08091D2029091D302A0917F
:10251000D402B091D502B601A501481B590B6A0B34
:102520007B0BDB01CA0181549D40A340B0405CF0AD
:1025300021502093D102A092D202B092D302C09235
:10254000D402D092D5028091D102992787FD90952F
:102550004091270250912802BC016170707080FF89
:1025600003C026E930E002C02AE63FEF240F351F02
:1025700030932802209327024091290250912A0289
:102580006115710519F026E930E002C02AE63FEF37
:10259000240F351F30932A022093290220912B0209
:1025A00030912C02672B19F48AE69FEF02C086E96E
:1025B00090E0820F931F90932C0280932B02860150
:1025C000750199248824D601C501E7962CAD3DAD4F
:1025D0004EAD5FADE797821B930BA40BB50B8C59E7
:1025E000914AA740B0400CF4FACC8091E0012091D0
:1025F000E1014091E20190E0805890409A83898304
:1026000030E0205830403C832B8350E0405850400D
:102610005E834D83E0E4F2E020E080819181892BAC
:1026200061F080917C00887F282B20937C00809132
:102630007A00806480937A00CCCC2F5F3296283069
:1026400061F7C7CCEF96ACAEBDAECEAEDFAEEF97C6
:1026500041E0E3964FAFE39704CDA0E1B0E0E3E3C0
:10266000F3E10C948F1E1092800081E08093810032
:102670003F98479800E06E010894C11CD11C82E08D
:10268000E82EF12CEC0EFD1EC60160E144EF51E096
:102690000E94510D8823E1F189818230A1F08330BD
:1026A00018F4813001F505C08330B9F08430D9F4D5
:1026B0001CC0C70160E870E048E050E025EE31E062
:1026C0000E94AD0110C080E890E0B70148E050E002
:1026D0002DEE31E00E94C90112C0C70160E070E038
:1026E00043E00E94A90D10E00BC0C70160E070E05C
:1026F0000E94CF0DC70160E071E00E94CF0D11E094
:10270000C60160E10E942B0D01E0112309F4BCCF4A
:10271000802F6096E8E00C94AB1E1F931FEF1F5FA5
:10272000E12FFF27E7FDF095EE0FFF1FE259FE4F67
:1027300080819181892B69F41F5FE12FFF27E7FDDD
:10274000F095EE0FFF1FE259FE4F80819181892B9A
:1027500059F0E12FFF27E7FDF095E258FE4F808109
:1027600061E00E94DC1ADBCF1F9108951F920F9247
:102770000FB60F9211242F933F934F935F936F9354
:102780007F938F939F93AF93BF93CF93DF93EF93F9
:10279000FF93E091D702FF27E7FDF095E258FE4F47
:1027A000808160E00E94541BE091D602E7FD4BC09F
:1027B000C0918400D0918500FF27E7FDF095E25895
:1027C000FE4F808161E00E94541B8091D602E82F69
:1027D000FF27E7FDF095EE0FFF1FE259FE4F019036
:1027E000F081E02D208131818093D702482F4F5F07
:1027F0004093D602E42FFF27E7FDF095EE0FFF1F71
:10280000E259FE4F80819181892B91F4E42FEF5F93
:10281000E093D602FF27E7FDF095EE0FFF1FE25988
:10282000FE4F80819181892B19F48FEF8093D6021E
:1028300022503040220F331F2C0F3D1F3093890050
:102840002093880009C01092D60210927E028091D7
:102850006F008D7F80936F00FF91EF91DF91CF919B
:10286000BF91AF919F918F917F916F915F914F91A8
:102870003F912F910F900FBE0F901F901895EF92E0
:10288000FF920F931F937A018B01882341F083E01D
:1028900061E00E94541B82E061E00E94541B109290
:1028A000B90060E074E284EF90E0A80197010E9413
:1028B000481E20513040404050405695479537952E
:1028C00027952093B8001F910F91FF90EF900895E6
:1028D00081E040E85AE166E070E00E943F140E9407
:1028E0001504882349F485E08093340288EC90E055
:1028F00090933B0280933A020895EF92FF920F93D8
:102900001F93CF93DF93E82EF62E60E00E94DC1A2F
:102910008F2D61E00E94DC1AC0E0D0E0CE01817012
:10292000082F8F2D602F0E94541B8E2D0E94871B15
:10293000112707FD10958017910711F000E005C0E1
:102940002196C830D10551F701E08F2D60E00E943B
:10295000DC1A802FCDB7DEB7E6E00C94AD1EEF9207
:10296000FF920F93DF93CF93CDB7DEB7A8970FB643
:10297000F894DEBF0FBECDBF559A80916803909149
:102980006903009711F09C0102C02CE633E0CE01F0
:102990000196821B930B803891054CF484E180935F
:1029A00034028EE190E090933B0280933A0224EF50
:1029B00031E03093800220937F02109286021092C1
:1029C000850230938C0220938B02309382022093F5
:1029D0008102109288021092870230938E02209317
:1029E0008D02309384022093830210928A02109207
:1029F00089023093900220938F02109291021092DC
:102A00009202109293021092940248E04093950231
:102A10008AEF90E0909397028093960230939D0204
:102A200020939C029093A3028093A2029093990218
:102A30008093980230939F0220939E029093A50268
:102A40008093A40290939B0280939A023093A102F8
:102A50002093A0029093A7028093A60280E090E8C2
:102A6000A0E0B0E08093A8029093A902A093AA02EC
:102A7000B093AB024093AC0285E066E00E947D1407
:102A8000882311F400E001C00FEFCE01039660E847
:102A900070E048E050E025EE31E00E94AD010023F7
:102AA00061F48B81833049F48C819D81AE81BF813B
:102AB0008E549146AC4BB04069F083E08B838EE43A
:102AC00091E6ACEBB0E08C839D83AE83BF83188628
:102AD00019861A86CE010B9660E070E043E00E94F2
:102AE000A90D87FD0160CE014A9660E071E043E0E8
:102AF0000E94A90D87FD006183E08093D10201301F
:102B000059F0013008F45CC0FBE0EF2EF12CEC0E24
:102B1000FD1E0031E9F413C0CE014A9660E070E07A
:102B20000E94CF0D88858F5F8887DE011B96FE018E
:102B30007A968FE001900D928150E1F741C0C70174
:102B400060E071E00E94CF0D89858F5F898738C072
:102B50008B8780912401909125019D878C8780919E
:102B600009018E8780910A018F8780910B01888BE4
:102B700080912601909127019A8B898B8091280161
:102B8000909129019C8B8B8B80912A0190912B0134
:102B90009E8B8D8B80912C0190912D01988F8F8B26
:102BA000C70160E070E00E94CF0DC70160E071E0F6
:102BB0000E94CF0D8A858F5F8A8789E08093D1023A
:102BC000CE010B960E94C5070023C1F080E890E07B
:102BD000BE016D5F7F4F48E050E02DEE31E00E9476
:102BE000C9010F3F59F400E28BB180278BB964E62D
:102BF00070E080E090E00E942D1AF6CF0E942D1325
:102C0000882361F02EE088E190E00FB6F894A89553
:102C1000809360000FBE20936000FFCF1092800071
:102C200082E08093810081E080936F0085B5887F8A
:102C300085BD809126019091270182309105D1F0C8
:102C40008330910561F10197F1F580E090E048EE65
:102C500053E020ED37E0FC01E55FFD4F51834083F9
:102C6000FC01ED5EFD4F3183208302968830910593
:102C700051F1F1CF80E090E04CE454E02CE637E0F5
:102C8000FC01E55FFD4F51834083FC01ED5EFD4F8C
:102C900031832083029688309105A9F0F1CF80E03E
:102CA00090E042EE54E026ED36E0FC01E55FFD4F9A
:102CB00051834083FC01ED5EFD4F318320830296FA
:102CC0008830910591F70E94EB040E94490580919C
:102CD000280190912901019791F08BEF91E0909359
:102CE00077018093760185E0809382018DEF91E0FA
:102CF000909379018093780186E08093830180919D
:102D000024018093320288E592E090933702809309
:102D100036020E94A8040E94C5060E948D130E94DC
:102D200068140E94160A0E948C0BA8960FB6F8949D
:102D3000DEBF0FBECDBFCF91DF910F91FF90EF901F
:102D40000895CF93DF930E94861A87EE92E00E9447
:102D500069170E94AF14C0E0D0E00E943B0F20979B
:102D6000E1F30E940000F9CF282F8091E10288232F
:102D7000C1F057FF1AC015C028989093E0028091C7
:102D8000F1008193E217F307B9F74115510539F0C6
:102D90008091F200882319F48BE68093E800AFBF9E
:102DA00002C04FEF5FEFCA010895AFB7F8942770E4
:102DB0002093E9008091F200282F30E02417350796
:102DC0000CF4A901FB019B01240F311D94E6DACF1D
:102DD000A1E0B0E0EEEEF6E10C94951EBE016F5F4F
:102DE0007F4F41E050E00E94B416019719F02FEF99
:102DF0003FEF03C08981282F30E0C9012196E2E02E
:102E00000C94B11EFF920F931F93F82E142F052FD1
:102E10004091E4025091E502212F302FC901DC01DD
:102E2000FB016EEF29C0F7FE02C0949101C09081B2
:102E30002091E2023091E30224173507ACF480912F
:102E4000E8008570E1F38091E80082FF03C02FEF76
:102E50003FEF17C09093F100C90101968F739070F6
:102E6000892B11F46093E8002F5F3F4F3093E3020A
:102E70002093E202119731961097A9F6812F902F97
:102E80009C01C9011F910F91FF9008959C018091B1
:102E9000E80082FFFCCFF901260F311D03C08091AD
:102EA000F1008193E217F307D1F7289884E6809325
:102EB000E0028BEF8093E800CB0108958093E90056
:102EC0008091F200882319F08AE38093E800089546
:102ED00008951092E10281E08093D70080EA809308
:102EE000D80082E189BD09B400FEFDCF61E070E049
:102EF00080E090E00E942D1A80E98093D8008CE059
:102F00008093E2001092E000559A209A0895A0E084
:102F1000B0E0EDE8F7E10C94881EE82E842E752EC3
:102F20008091E102882371F18B01242F352FC90193
:102F3000EC017AEFF72E67E0962E9E2050E4552E96
:102F40008E2D90E040E2A42EB12CA822B9223AE3C3
:102F5000632E20E4C22ED12CC822D92258C09FB79C
:102F6000F8949092E9008091E80085FD02C020E08D
:102F700004C08091F200252D281B9FBF222361F4FD
:102F8000FA9419F42FEF3FEF4DC061E070E080E05C
:102F900090E00E942D1A3BC0822F90E0C817D907FD
:102FA0000CF42C2FC21BD1094FB7F8949092E90072
:102FB000A114B10421F406C01092F1002150222383
:102FC000D9F719C0E7FC03C0F801922F10C0C8015F
:102FD000322F06C0FC010196E491E093F1003150DC
:102FE0003323C1F706C081918093F100915099235A
:102FF000D1F7020F111D8091E80085FF05C02097D1
:1030000029F4C114D10411F06092E8004FBF209759
:1030100009F0A5CF5D9884E68093DF02282D372D37
:10302000C9019C01C901CDB7DEB7EFE00C94A41E25
:103030001F920F920FB60F9211242F933F934F932D
:103040005F936F937F938F939F93AF93BF93EF9310
:10305000FF938091E1001092E100982F83FF0FC051
:103060001092E90081E08093EB001092EC0082E383
:103070008093ED001092E10288E08093F00092FFCF
:1030800034C083E08093E9008091F200882319F036
:103090008AE38093E8008FB7F89492E09093E90078
:1030A0009091F2008FBF992321F085E393E00E9475
:1030B000411C8091DF02882351F08091DF02815012
:1030C0008093DF028091DF02882309F45D9A80916A
:1030D000E002882351F08091E00281508093E00269
:1030E0008091E002882309F4289AFF91EF91BF9123
:1030F000AF919F918F917F916F915F914F913F9190
:103100002F910F900FBE0F901F901895A1E0B0E087
:10311000ECE8F8E10C94931E19828E010F5F1F4FAB
:10312000C8010E94671CC8010E94F91D898190E0B6
:103130002196E4E00C94AF1E1F920F920FB60F92EF
:103140001124EF92FF921F932F933F934F935F931E
:103150006F937F938F939F93AF93BF93EF93FF935F
:10316000DF93CF93CDB7DEB76197DEBFCDBF1092AF
:10317000E9008091E80083FF0FC1FE0131969E01B6
:10318000275F3F4F03C08091F1008193E217F3075F
:10319000D1F7289884E68093E00282EF8093E800DC
:1031A000998197FF05C08091E80080FFFCCF03C0A4
:1031B0008EEF8093E800292F30E0C901807690706F
:1031C000892B09F0C2C08A81882329F41092F1006A
:1031D0001092F100D6C0813009F4D3C0833009F4D5
:1031E000D0C0853049F48091E80080FFFCCF8B810E
:1031F00080688093E300C5C0863009F07CC01C81E4
:10320000EF80F8841230C1F51092E9001092E302C9
:103210001092E2021092E5021092E4020E948618D7
:1032200099E0FE013996DF01292F1D922A95E9F7D1
:1032300099871A8791E09E8790E8988B9AEF998BEF
:103240002091E2023091E302275F3F4F3C872B87BA
:103250008D871092E9001092E3021092E202F09240
:10326000E502E092E40280E0BF0149E050E00E9404
:1032700002170E94861885C01092E9001092E3029E
:103280001092E202F092E502E092E402123241F47E
:1032900082E290E00E94F11D892B09F476C071C092
:1032A000113079F488E0E816F10419F481E0809394
:1032B000E6028091E602882309F06BC0E6E0F1E0C7
:1032C00013C0133009F061C08B81882319F4E8EC36
:1032D000F0E00AC0823019F4ECECF0E005C0813077
:1032E00009F053C0EEEEF0E0449180E8BF0150E0F9
:1032F0000E94021746C0873009F447C0883021F485
:1033000081E08093F1003DC08930D9F523703070A1
:10331000232BD9F5EBE2F1E091E031E026E3909345
:10332000E9003093EB0084918093EC002093ED0052
:103330009F5F3196953099F78EE78093EA0010925F
:10334000EA008B818093E1021CC08F8198851092E6
:10335000E9001092E3021092E2029093E50280935A
:10336000E4028D81882329F4CE0101960E94731C0A
:1033700006C0823051F4CE0101960E94C91C8823F8
:1033800021F08EEF8093E80007C081E28093EB008C
:1033900003C0E8E1F1E0A8CF6196DEBFCDBFCF91D9
:1033A000DF91FF91EF91BF91AF919F918F917F91AD
:1033B0006F915F914F913F912F911F91FF90EF90EF
:1033C0000F900FBE0F901F9018951F920F920FB67F
:1033D0000F9211242F933F938F939F93AF93BF939B
:1033E0008091EC029091ED02A091EE02B091EF027B
:1033F0003091F0020196A11DB11D232F2D5F2D37B5
:1034000020F02D570196A11DB11D2093F00280934D
:10341000EC029093ED02A093EE02B093EF02809144
:10342000E8029091E902A091EA02B091EB020196C4
:10343000A11DB11D8093E8029093E902A093EA02D6
:10344000B093EB02BF91AF919F918F913F912F91DC
:103450000F900FBE0F901F9018959B01AC017FB786
:10346000F8948091E8029091E902A091EA02B0916B
:10347000EB0266B5A89B05C06F3F19F00196A11D30
:10348000B11D7FBFBA2FA92F982F8827860F911DB6
:10349000A11DB11D62E0880F991FAA1FBB1F6A956D
:1034A000D1F7BC012DC0FFB7F8948091E80290914C
:1034B000E902A091EA02B091EB02E6B5A89B05C033
:1034C000EF3F19F00196A11DB11DFFBFBA2FA92F23
:1034D000982F88278E0F911DA11DB11DE2E0880F46
:1034E000991FAA1FBB1FEA95D1F7861B970B885E11
:1034F0009340C8F2215030404040504068517C4FCA
:10350000211531054105510571F60895789484B56A
:10351000826084BD84B5816084BD85B5826085BDCF
:1035200085B5816085BDEEE6F0E0808181608083B5
:10353000E1E8F0E010828081826080838081816098
:103540008083E0E8F0E0808181608083E1E9F0E061
:10355000808182608083808181608083E0E9F0E007
:10356000808181608083E1ECF0E0808184608083F1
:10357000808182608083808181608083E3ECF0E0E1
:10358000808181608083E0ECF0E0808182608083D4
:10359000E2ECF0E0808181608083EAE7F0E0808106
:1035A0008460808380818260808380818160808369
:1035B0008081806880830895CF93DF93482F50E007
:1035C000CA0189589E4FFC013491475A5E4FFA0157
:1035D0008491882369F190E0880F991FFC01E15DD7
:1035E000FE4FA591B491FC01E35CFE4FC591D491CF
:1035F000662351F42FB7F8948C91932F90958923DB
:103600008C93888189230BC0623061F42FB7F894C2
:103610008C91932F909589238C938881832B888319
:103620002FBF06C09FB7F8948C91832B8C939FBFBC
:10363000DF91CF91089590E0FC013197EE30F105D4
:1036400090F5EA5AFF4F0C94BC1E809180008F7752
:1036500003C0809180008F7D80938000089584B5A1
:103660008F7702C084B58F7D84BD089580919000CE
:103670008F7707C0809190008F7D03C0809190006C
:10368000877F8093900008958091C0008F7703C05A
:103690008091C0008F7D8093C00008958091C2000A
:1036A000877F8093C2000895FF920F931F93F62E99
:1036B000482F50E0CA018B569E4FFC012491CA014D
:1036C00089589E4FFC011491475A5E4FFA010491AC
:1036D0000023C9F0222319F0822F0E941B1BE02F28
:1036E000F0E0EE0FFF1FE35CFE4FA591B4919FB792
:1036F000F894FF2021F48C911095812302C08C91C5
:10370000812B8C939FBF1F910F91FF9008950F9372
:103710001F93482F50E0CA018B569E4FFC01249105
:10372000CA0189589E4FFC010491475A5E4FFA0125
:103730001491112319F420E030E015C0222319F070
:10374000822F0E941B1B812F90E0880F991F855BA1
:103750009E4FFC01A591B4918C9120E030E0802334
:1037600011F021E030E0C9011F910F9108952091DF
:103770003103309132038091330390913403281B3D
:10378000390B2F733070C9010895209131033091A6
:10379000320380913303909134032817390719F4C9
:1037A0002FEF3FEF09C0E0913303F0913403EF5066
:1037B000FD4F8081282F30E0C90108952091310309
:1037C00030913203809133039091340328173907E5
:1037D00019F42FEF3FEF13C0E0913303F09134035E
:1037E000EF50FD4F20818091330390913403019677
:1037F0008F739070909334038093330330E0C9014A
:103800000895109238031092370388EE93E0A0E0F9
:10381000B0E08093390390933A03A0933B03B093B5
:103820003C0383EC91E09093360380933503089535
:10383000A1E0B0E0EEE1FCE10C94931E8C01698301
:1038400080918D01882369F083E0BE016F5F7F4F17
:1038500041E050E00E9487171816190614F49C01E5
:1038600007C081E090E0F8019383828320E030E09C
:10387000C9012196E4E00C94AF1E83E00E945E171C
:103880000895CF93DF9312C082E00E94E8162FEFD5
:103890008F3F9207C9F0E0913103F0913203EF506E
:1038A000FD4F8083D0933203C0933103C091310325
:1038B000D09132032196CF73D070809133039091D1
:1038C0003403C817D90701F7DF91CF910895FC01A0
:1038D00080818E5F808380E86FEB71E042E450E08E
:1038E0000E9402170895FC0181819081913A59F458
:1038F000813209F04CC080E066E871E047E050E0BA
:103900000E94021742C0913209F041C0803239F45E
:1039100086E891E067E070E00E94461736C0823288
:1039200009F035C0828180938D018091860190914C
:103930008701A0918801B0918901805B9440A040EB
:10394000B04019F580918D0180FD12C087E797E79F
:1039500090930108809300082BE088E190E00FB677
:10396000F894A895809360000FBE209360000DC06E
:1039700088E10FB6F89480936000109260000FBE4B
:10398000A895109201081092000881E0089580E047
:103990000895FC0191818081813A31F4913089F060
:1039A00080E0933089F40DC0813269F49B3021F4BA
:1039B000828180938E0105C09A3029F482818093A0
:1039C0008F0181E0089580E00895EF92FF920F93B8
:1039D0001F938C01E62EDC01ED91FC910480F581B2
:1039E000E02D0995F82ED801ED91FC910680F78124
:1039F000E02DC8016E2D09958F2D90E01F910F913C
:103A0000FF90EF9008951092430310924703109295
:103A1000460385ED91E09093450380934403089518
:103A2000A1E0B0E0E6E1FDE10C94911E89838B01F9
:103A30007A0184E0BE016F5F7F4F41E050E00E9459
:103A4000871784E4B801A7010E9487172196E6E052
:103A50000C94AD1E82E048E050E00E94101D0895D5
:103A6000FC01168217821086118612861386148234
:103A70003496BF010E942A1D0895DC01683810F0B9
:103A8000685829C0E62FF0E067FF13C0E058F04007
:103A900081E090E002C0880F991FEA95E2F78095D7
:103AA00014962C911497282314962C93149760E065
:103AB00012C0E158FD4F6491662319F420E030E014
:103AC0001DC067FF08C014968C9114978D7F1496C3
:103AD0008C9314976F77FD0190E0662321F0868127
:103AE000861709F416829F5F31969630B1F7CD01A3
:103AF0001496BD010E942A1D21E030E0C9010895FD
:103B0000CF93DF93DC01683810F0685825C0E62FAA
:103B1000F0E067FF12C0E058F04081E090E002C0A2
:103B2000880F991FEA95E2F714962C911497282B89
:103B300014962C93149760E00FC0E158FD4F6491E8
:103B40006623D9F167FF08C014968C9114978260A0
:103B500014968C9314976F7716968C9116978617F8
:103B6000A9F117968C911797861781F118968C9169
:103B70001897861759F119968C911997861731F174
:103B80001A968C911A97861709F11B968C911B97A0
:103B90008617E1F0ED01E0E0F0E09E2F8E818823B2
:103BA00021F4EA0FFB1F668306C09F5F31962196C2
:103BB000E630F10591F7963049F481E090E01396F4
:103BC0009C938E93129720E030E007C0CD011496AD
:103BD000BD010E942A1D21E030E0C901DF91CF9193
:103BE000089580E861E072E045E650E00E94021727
:103BF0000895FC0180818F5F808380E866E672E033
:103C000049E150E00E9402170895A0E0B0E0EBE027
:103C1000FEE10C948F1E7C016B018A01C0E0D0E0B4
:103C20000FC0D6016D916D01D701ED91FC9101900E
:103C3000F081E02DC7010995C80FD91F0150104030
:103C40000115110571F7CE01CDB7DEB7E8E00C9490
:103C5000AB1E629FD001739FF001829FE00DF11DAA
:103C6000649FE00DF11D929FF00D839FF00D749FF6
:103C7000F00D659FF00D9927729FB00DE11DF91FA2
:103C8000639FB00DE11DF91FBD01CF0111240895FF
:103C9000A1E21A2EAA1BBB1BFD010DC0AA1FBB1F50
:103CA000EE1FFF1FA217B307E407F50720F0A21BC2
:103CB000B30BE40BF50B661F771F881F991F1A942F
:103CC00069F760957095809590959B01AC01BD0159
:103CD000CF01089597FB092E05260ED057FD04D07D
:103CE000D7DF0AD0001C38F45095409530952195C7
:103CF0003F4F4F4F5F4F0895F6F790958095709521
:103D000061957F4F8F4F9F4F08952F923F924F9213
:103D10005F926F927F928F929F92AF92BF92CF925B
:103D2000DF92EF92FF920F931F93CF93DF93CDB764
:103D3000DEB7CA1BDB0B0FB6F894DEBF0FBECDBFDC
:103D400009942A88398848885F846E847D848C84AD
:103D50009B84AA84B984C884DF80EE80FD800C81B6
:103D60001B81AA81B981CE0FD11D0FB6F894DEBF99
:103D70000FBECDBFED010895EE0FFF1F0590F4912A
:083D8000E02D0994F894FFCF37
:103D88000020406080A0C0E0FF040404DC05DC05DE
:103D9800DC05DC05E803DC05E803DC05DC05DC05FF
:103DA800DC05DC0501000100010001000200100132
:103DB8000E0118010C011401120116011A01180153
:103DC8000C010E0110011401120116011A010C0157
:103DD8000E01180110011401120116011A01000048
:103DE80010010C010E011401000000000000F30195
:103DF800F501F701F9010000000000000000090AC0
:103E08000B0DFFFFFFFF00E10000000000000101B3
:103E18007889988778899887FF7F007F007F00A03E
:103E2800860100801A060004040404030403020146
:103E3800FCFCFC01010101FF010102030205020073
:103E4800000000181C051EB71BDE1BC51B3D1C41CE
:103E58001C00000000E51C051E801D3D1D301D00D6
:00000001FF
