:100000000C9461000C947E000C947E000C942305EB
:100010000C947E000C9447050C947E000C947E009A
:100020000C947E000C947E000C94B1040C94091383
:100030000C947E000C94CD000C947E000C947E00F9
:100040000C944B160C947E000C947E000C947E0055
:100050000C947E000C942F030C947E000C947E0074
:100060000C947E000C947E00000000002400270009
:100070002A0000000000250028002B0000000000DE
:1000800023002600290004040404040404040202DA
:100090000202020203030303030301020408102007
:1000A0004080010204081020010204081020000012
:1000B0000007000201000003040600000000000029
:1000C000000011241FBECFEFD4E0DEBFCDBF11E092
:1000D000A0E0B1E0E4E4F1E302C005900D92AA3F94
:1000E000B107D9F713E0AAEFB1E001C01D92A63025
:1000F000B107E1F70E943C160C94A0180C94000084
:10010000A0E0B0E0E6E8F0E00C9473187C01EB01AD
:100110008A01690109C0CE012196F6010995F7010E
:1001200081937F010150104001151105A1F7CDB752
:10013000DEB7E8E00C948F18A0E0B0E0E2EAF0E06F
:100140000C947318EC017B018A01690109C0CE018E
:100150002196F70161917F01F60109950150104048
:1001600001151105A1F7CDB7DEB7E8E00C948F18A3
:100170009C01F999FECF32BD21BDF89A80B5089552
:100180009C01F999FECF1FBA32BD21BD60BD0FB6EB
:10019000F894FA9AF99A0FBE08951F920F920FB62B
:1001A0000F9211248F939F9380915002909151024E
:1001B0000196909351028093500280915002909149
:1001C0005102892B29F4809152028F5F8093520251
:1001D0009F918F910F900FBE0F901F901895609177
:1001E0008400709185002091500230915102E0917D
:1001F000520280918400909185008627972797FD71
:10020000EECF80915002909151022817390739F7AB
:1002100080915202E81719F740E050E0FFE0220F0A
:10022000331F441F551FFA95D1F78E2F90E0A0E0A1
:10023000B0E0BB278695B795AA2799278827282B52
:10024000392B4A2B5B2B76956795CB01A0E0B0E06C
:10025000282B392B4A2B5B2BB901CA010895AF9289
:10026000BF92CF92DF92EF92FF920F931F9328EEEF
:1002700033E040E050E00E940D185B016C010E94E9
:10028000EF007B018C010E94EF006E197F09800B4B
:10029000910B6A157B058C059D05A8F31F910F91A5
:1002A000FF90EF90DF90CF90BF90AF9008959B01AB
:1002B000AC018091E2029091E302A091E402B0913E
:1002C000E502821B930BA40BB50B181619061A0630
:1002D0001B060CF44FC08091E602882301F5E091E3
:1002E000E702EF5FE370E093E702FF27E7FDF09599
:1002F000ED5AFD4F8081992787FD9095880F991FB2
:100300008093E602205C3D4B404F5F4F2093E2021A
:100310003093E3024093E4025093E5020895815044
:100320008093E60280FF24C02D9AE091E702FF2728
:10033000E7FDF095EE0FFF1FE95AFD4F8081918197
:10034000AA2797FDA095BA2F6AE0880F991FAA1FC8
:10035000BB1F6A95D1F7820F931FA41FB51F80930F
:10036000E2029093E302A093E402B093E5020895C1
:100370002D98DBCF0895482F84EA8093BC002FEF9F
:1003800030E011C02115310561F41092BC0080915C
:100390005F029091600201969093600280935F02E9
:1003A00006C0215030408091BC0087FFEBCF4093C6
:1003B000BB0084E88093BC002FEF30E011C0211512
:1003C000310561F41092BC0080915F02909160024F
:1003D00001969093600280935F020895215030400F
:1003E0008091BC0087FFEBCF0895482F882311F43C
:1003F00084E801C084EC8093BC002FEF30E011C092
:100400002115310561F41092BC0080915F0290913A
:10041000600201969093600280935F0206C02150B3
:1004200030408091BC0087FFEBCF9091BB0044230C
:1004300019F484E98093BC00892F08950F931F93CA
:10044000162F042F880F0E94BB011093BB0084E875
:100450008093BC002FEF30E011C02115310561F40D
:100460001092BC0080915F0290916002019690937F
:10047000600280935F0206C0215030408091BC0032
:1004800087FFEBCF0093BB0084E88093BC002FEF85
:1004900030E011C02115310561F41092BC0080914B
:1004A0005F029091600201969093600280935F02D8
:1004B00006C0215030408091BC0087FFEBCF84E91B
:1004C0008093BC001F910F9108950F931F93082FE5
:1004D000162F880F0E94BB011093BB0084E8809305
:1004E000BC002FEF30E011C02115310561F41092EE
:1004F000BC0080915F02909160020196909360022F
:1005000080935F0206C0215030408091BC0087FF7D
:10051000EBCF000F802F81600E94BB0181E00E9421
:10052000F5011F910F9108951F93CF93DF93EB0176
:10053000142F880F81600E94BB0108C0115080E019
:1005400011160CF481E00E94F50189931123B1F793
:10055000DF91CF911F910895FF920F931F93CF9337
:10056000DF93082F162FEA01F22E880F0E94BB019D
:100570001093BB0084E88093BC002FEF30E011C0E3
:100580002115310561F41092BC0080915F029091B9
:10059000600201969093600280935F0206C0215032
:1005A00030408091BC0087FFEBCF802FBE014F2DE4
:1005B0000E949402CDB7DEB7E5E00C94921888E66D
:1005C0006EE340E80E941E0262E370E080E090E08B
:1005D0000E942F0188E66EE343E00E941E0288E637
:1005E00066E14EE10E941E0288E660E00E9465021C
:1005F00090E08E77883609F491E0892F0895A6E07F
:10060000B0E0E5E0F3E00C9473188C017B016A0123
:1006100088E66DE1AE014F5F5F4F26E00E94AC02BD
:10062000998180E02A8130E0822B932BF80191831D
:1006300080839B8180E02C8130E0822B932BF7011B
:10064000918380839D8180E02E8130E0822B932BEB
:10065000F601918380832696E8E00C948F181F9210
:100660000F920FB60F9211242F938F939F93EF93B6
:10067000FF9390917C009770E92FF0E0EE0FFF1F41
:10068000E25AFE4F0190F081E02D80917900808345
:10069000292F16C0E22FF0E0EE0FFF1FE25AFE4FA7
:1006A00080819181892B61F080917C00887F282B4B
:1006B00020937C0080917A00806480937A0003C04C
:1006C0002F5F283039F7FF91EF919F918F912F91F4
:1006D0000F900FBE0F901F901895CF93DF93AEE54C
:1006E000B1E0FD0140E050E061E070E08081918187
:1006F000892B79F087B1EB01042E02C0CC0FDD1FEE
:100700000A94E2F79E012095822387B988B12823B5
:1007100028B94F5F5F4F32964630510539F780E672
:1007200080937C0010927B008FE880937A0020E019
:100730008D919C911197892B61F080917C00887F2D
:10074000282B20937C0080917A00806480937A002B
:1007500004C02F5F1296283059F7DF91CF9108958A
:10076000EAE6F1E040E050E061E070E080819181F4
:10077000892B79F034B1CB01042E02C0880F991F68
:100780000A94E2F7282F2095232324B925B1822B40
:1007900085B94F5F5F4F32964830510539F7EAE728
:1007A000F1E040E050E061E070E080819181892BD0
:1007B00079F037B1CB01042E02C0880F991F0A943B
:1007C000E2F7282F2095232327B928B1822B88B957
:1007D0004F5F5F4F32964830510539F7EAE8F1E054
:1007E00040E050E061E070E080819181892B79F0F8
:1007F0003AB1CB01042E02C0880F991F0A94E2F788
:10080000282F209523232AB92BB1822B8BB94F5F38
:100810005F4F32964830510539F7089560E070E037
:1008200040E050E0A1E0B0E0362FFA01E659FE4F7B
:100830000190F081E02D309751F023B1CD01062ECB
:1008400002C0880F991F0A94E2F728232083FA0137
:10085000E658FE4F0190F081E02D309751F026B11F
:10086000CD01032E02C0880F991F0A94E2F72823B6
:100870002083FA01E657FE4F0190F081E02D30977A
:1008800049F029B1CD0102C0880F991F3A95E2F7CE
:10089000282320836F5F7F4F4E5F5F4F40315105AC
:1008A00019F60895A0E0B0E0E8E5F4E00C947118C2
:1008B00000918400109185008091F10293B1909392
:1008C000F1027894292F282780958923AAE9B1E09D
:1008D000E2EFF2E060E070E0C22EDD24E82EFF24BB
:1008E00021E0CD91DC911197209779F1C601062E78
:1008F00002C0959587950A94E2F780FF26C0C7014C
:10090000062E02C0959587950A94E2F780FF03C0F2
:10091000118300831AC080819181A801481B590B63
:10092000569547958CE7A82E8CEFB82EA40EB51ED1
:1009300081EBA81684E0B80640F45983488380917F
:100940006202681711F4209361026F5F7F4F129665
:1009500032966830710529F6CDB7DEB7EAE00C941F
:100960008D181F920F920FB60F9211242F933F9361
:100970004F935F936F938F939F93EF93FF93209188
:1009800086003091870078948091DF029091E00298
:10099000A901481B590B569547953093E0022093C7
:1009A000DF028BE0493B580758F08091DE0281500E
:1009B000809362021092DE0281E08093E10235C0F2
:1009C0008091E102882389F16091DE02683068F548
:1009D00083E04438580748F188E04533580728F544
:1009E000262F30E0E0912801F0912901329793E021
:1009F000EE0FFF1F9A95E1F7E20FF31FEE0FFF1FB7
:100A0000E25DFE4F0190F081E02D518340838091A3
:100A10006202992787FD90952817390719F481E01C
:100A2000809361026F5F6093DE02FF91EF919F916F
:100A30008F916F915F914F913F912F910F900FBECA
:100A40000F901F9018951F920F920FB60F921124BE
:100A50002F933F934F935F936F937F938F939F93C6
:100A6000AF93BF93EF93FF930E945204FF91EF91D6
:100A7000BF91AF919F918F917F916F915F914F91B6
:100A80003F912F910F900FBE0F901F9018951F92BE
:100A90000F920FB60F921124CF92DF92EF92FF9236
:100AA0000F931F932F933F934F935F936F937F9376
:100AB0008F939F93AF93BF93CF93DF93EF93FF9366
:100AC000E0908400F09085008091CD0299B19093E0
:100AD000CD027894292F282780958923A3E6B2E0B8
:100AE000EEECF2E060E070E0C22EDD24082F10E0B2
:100AF000CD91DC911197209721F1C601062E02C0FD
:100B0000959587950A94E2F780FF1BC0C801062ED1
:100B100002C0959587950A94E2F780FF03C0F182A1
:100B2000E0820FC080819181A701481B590B569527
:100B30004795CA0184589340815B944010F45983CF
:100B400048836F5F7F4F129632966830710581F649
:100B5000FF91EF91DF91CF91BF91AF919F918F91D5
:100B60007F916F915F914F913F912F911F910F91C5
:100B7000FF90EF90DF90CF900F900FBE0F901F90DF
:100B800018958091280190912901019771F0809129
:100B90006F00806280936F0080918100806C8093F1
:100BA000810083E0809362020895809168008160F3
:100BB00080936800EAE9F1E040E050E061E070E035
:100BC00080819181892BA1F020916B00CB01042EB3
:100BD00002C0880F991F0A94E2F7282B20936B001C
:100BE00034B1282F2095232324B925B1822B85B930
:100BF0004F5F5F4F32964830510511F781E0809387
:100C0000620280916800846080936800E3E6F2E00D
:100C100040E050E061E070E080819181892BA1F09B
:100C200020916D00CB01042E02C0880F991F0A94F9
:100C3000E2F7282B20936D003AB1282F209523232B
:100C40002AB92BB1822B8BB94F5F5F4F3296483058
:100C5000510511F70895A6E0B0E0E1E3F6E00C9449
:100C600069187A8369839E838D832B011C019B0104
:100C70002A5F3F4F3C832B83ED81FE8106811781E4
:100C800080819181081B190B3801882477FC80949E
:100C9000982CF10182899389A489B589860D971DC5
:100CA000A81DB91D828B938BA48BB58BE981FA812A
:100CB0002289338944895589AA24BB246501A21A53
:100CC000B30AC40AD50A8A159B05AC05BD054CF0CC
:100CD0005C016D01281739074A075B0714F45901B5
:100CE0006A01ED81FE8184859585AA2797FDA095EF
:100CF000BA2FA4019301281B390B4A0B5B0BCA01C5
:100D0000B90115870487F20124853585442737FD0D
:100D10004095542F0E940D187B018C0142E01595DF
:100D20000795F794E7944A95D1F7F2012081318134
:100D3000442737FD4095542FC401B3010E940D187C
:100D400033E095958795779567953A95D1F7E60EB7
:100D5000F71E081F191FF20126813781442737FD2E
:100D60004095542FC601B5010E940D1826E09595B7
:100D70008795779567952A95D1F7E60EF71E081F98
:100D8000191FE981FA81068804C015950795F79423
:100D9000E7940A94D2F7ED81FE81F78EE68E3296C3
:100DA000FE83ED8324E030E0220E331E42E050E06B
:100DB000440E551E8B819C814816590609F05CCF64
:100DC0002696E2E10C948518CF93DF93AC01DC0109
:100DD00011968D919C9112979093250180932401F7
:100DE0001396EC911397E09309011496AC91A0939C
:100DF0000A01EA016D8160930B01FF27E7FDF09581
:100E000080E091E0E80FF91F24812093FB01BB27CC
:100E1000A7FDB095A80FB91F14962C912093FC0143
:100E2000772767FD7095860F971FFC01848180935B
:100E3000FD018E819F8190932701809326018885F3
:100E4000998590932901809328018A859B859093A9
:100E50002B0180932A018C859D8590932D01809391
:100E60002C01DF91CF910895A6E0B0E0EAE3F7E02E
:100E70000C947918CE010196BE016D5F7F4FAE01D3
:100E80004B5F5F4F0E94FF028B819C8190934302D6
:100E90008093420249815A81509345024093440213
:100EA0002D813E81309347022093460280912A0192
:100EB00090912B018230910519F00397D1F40DC068
:100EC000309345022093440288279927841B950B71
:100ED00090934702809346020CC088279927821B73
:100EE000930B9093450280934402509347024093A2
:100EF00046022696E2E00C949518A0E0B0E0E3E804
:100F0000F7E00C9471187C018C01EB01F70160E0B3
:100F100070E02BC02181328188819981281739079F
:100F20000CF4C9019283818321853285888199815E
:100F3000821793070CF4C90192878187299139910F
:100F4000442737FD4095542FD8011F96AD90BD9092
:100F5000CD90DC905297A20EB31EC41ED51E1F96D4
:100F6000AD92BD92CD92DC9252979B016F5F7F4F05
:100F700032960C5F1F4FD70111968D919C9112975D
:100F8000281739073CF2CDB7DEB7EAE00C948D188C
:100F9000A0E0B0E0EEECF7E00C947318EC017C01FB
:100FA00053E2C52ED12CC80ED91E00E010E011C0AE
:100FB0002BA53CA5442737FD4095542FF7016785A5
:100FC0007089818992890E944E18F601219331938C
:100FD0006F0198010F5F1F4F84E090E0E80EF91E4B
:100FE00089819A81281739071CF3CDB7DEB7E8E06D
:100FF0000C948F18A8E0B0E0E0E0F8E00C947318CF
:101000008C018091FE019091FF019A8389838091E8
:101010000202909103029C838B8380910402909141
:1010200005029E838D838091000290910102988732
:101030008F83C801BE016F5F7F4F0E947D07D8017B
:101040009B968D919C919C9701969C969C938E93D8
:101050009B978436910509F070C01196ED90FC9035
:1010600012976801F80160E040E050E00CC0838511
:10107000948523813481821B930B44970CF46F5F1A
:101080004F5F5F4F32964E155F058CF3862F992781
:1010900087FD90958E159F05F9F4C8010E94C80739
:1010A000F80183A194A190931D0180931C0185A157
:1010B00096A190931F0180931E0187A190A5909304
:1010C00021018093200181A592A590932301809313
:1010D000220181E0808331C0D8011C9284E090E03D
:1010E00012969C938E931197F80140E050E06FEFB9
:1010F000E62E6FE7F62E60E070E80BC0F282E18228
:1011000072876187D6011F961D921D921D921C92B7
:1011100052979A014F5F5F4F329684E090E0C80E7D
:10112000D91ED80111968D919C91129728173907D5
:101130002CF39C961C921E929B972896E8E00C94A8
:101140008F18A6E0B0E0E7EAF8E00C9473188C0181
:1011500080914202909143029A8389838091440254
:10116000909145029C838B83809146029091470227
:101170009E838D83C801BE016F5F7F4F0E947D07F4
:10118000F80183A594A5019694A783A78C5291405A
:1011900009F064C0F801E180F280D80160E040E02D
:1011A00050E00CC08385948523813481821B930B8E
:1011B000C2970CF46F5F4F5F5F4F32964E155F051D
:1011C0008CF3862F992787FD90958E159F05C9F47E
:1011D000C8010E94C807F80183A194A190933D0221
:1011E00080933C0285A196A190933F0280933E029A
:1011F00087A190A5909341028093400281E0808373
:101200002DC0F801108283E090E092838183680111
:1012100040E050E07FEFE72E7FE7F72E60E070E8D8
:101220000DC01296FC92EE9211971A967C936E93D3
:101230001997F6011786108A118A128A9A014F5F50
:101240005F4F129684E090E0C80ED91EF8018181AC
:101250009281281739072CF314A613A62696E8E0E6
:101260000C948F1840910C0150910D0180910C014C
:1012700090910D014817590721F04091FE015091BE
:10128000FF015093FF014093FE0120910E01309128
:101290000F0180910E0190910F012817390721F05D
:1012A0002091020230910302309303022093020244
:1012B0002091100130911101809110019091110144
:1012C0002817390721F0209104023091050230934C
:1012D00005022093040220911201309113018091A4
:1012E0001201909113012817390721F02091000273
:1012F00030910102309301022093000220911401E9
:10130000309115018091140190911501281739072A
:1013100021F02091060230910702309307022093BA
:1013200006022091160130911701809116019091CB
:1013300017012817390721F020910802309109027E
:10134000309309022093080220911801309119016D
:1013500080911801909119012817390721F02091E7
:101360000A0230910B0230930B0220930A02209163
:101370001A0130911B0180911A0190911B012817CD
:10138000390721F020910C0230910D0230930D02AB
:1013900020930C028091240190912501019721F462
:1013A00050930102409300020895FC0180912401B2
:1013B000909125018230910579F18330910524F4D3
:1013C000019709F0B4C007C08330910509F462C0E9
:1013D000049709F0ACC0808191812091FE01309189
:1013E000FF01820F931F909321028093200280813E
:1013F00091812091000230910102820F931F9093FE
:1014000027028093260282819381209102023091EB
:101410000302820F931F31C0408151818091FE01F0
:101420009091FF01480F591F6281738180910202E0
:1014300090910302680F791FCB01840F951F9C01C7
:10144000B3E035952795BA95E1F795958795280FDF
:10145000391F275731403093210220932002461B29
:10146000570BCA0133E0959587953A95E1F7559565
:101470004795840F951F84529A4F9093230280932F
:101480002202848195812091040230910502820F0D
:10149000931F49C0808191812091FE013091FF010D
:1014A000820F931F9093210280932002808191816B
:1014B0002091000230910102820F931F9093270226
:1014C00080932602628173818091020290910302CF
:1014D000680F791F44815581809104029091050223
:1014E000480F591FCA01860F971F9C01B3E035951D
:1014F0002795BA95E1F795958795280F391F2757B6
:1015000031403093230220932202461B570BCA011D
:10151000F3E095958795FA95E1F755954795840FF2
:10152000951F84529A4F90932502809324028091B4
:101530000A0290910B0290932902809328028091D5
:101540000C0290910D0290932B0280932A02089531
:10155000A8E0B0E0EEEAFAE00C947718809126015A
:10156000909127010397A9F5FE01319688E0DF01EC
:101570001D928A95E9F7CF010E94D509A1EFB1E04C
:101580000CE212E044E352E06D917C911197F80176
:1015900020813181FB0180819181281739070CF46A
:1015A000C901F80191838083FA0120813181FB0117
:1015B00080819181821793070CF4C901FA0181930C
:1015C0009193AF0112960E5F1F4FF1E0A93FBF0745
:1015D000D9F688E492E00E94D50980E090E0FC0111
:1015E000EF50FE4FA081B1814D915C911197FC01AC
:1015F000E45DFD4F0190F081E02D4E175F0754F040
:10160000FC01EC5CFD4F20813181FA012417350784
:101610000CF4F901ED93FC93029688309105F9F6EC
:101620002896E4E00C94931881E0809373022FB71E
:10163000F89480912002909121029093150280935A
:1016400014028091220290912302909317028093BA
:1016500016028091240290912502909319028093A2
:101660001802809126029091270290931B0280938A
:101670001A02809128029091290290931D02809372
:101680001C0280912A0290912B0290931F0280935A
:101690001E02EFE6F0E0808182608083B19A809143
:1016A000840090918500049690938900809388002F
:1016B0002FBF0895FC01828183832091FE01309128
:1016C000FF01458154E0213B350714F490E00DC043
:1016D000C901845195408159914010F491E005C0B1
:1016E000285037400CF453C092E0442319F082E0B4
:1016F000891B982F9083209102023091030246812A
:1017000054E0213B350714F490E00CC0C90184512A
:1017100095408159914010F491E004C02850374021
:10172000C4F192E0442319F082E0891B982F918341
:101730008781882351F48081882329F0823029F41D
:1017400081E08583108281E087838085882361F42E
:101750008181882319F0823039F404C081E08683C6
:1017600082E0818381E0808730813F5F818123E057
:101770008202C0011124380F3283938180E039172F
:1017800029F081E09295907F932B94830895908126
:10179000B1CF9181CCCF282F30E03F6F220F331F84
:1017A000EFB7F8948091840090918500AC01405C83
:1017B0005F4FBC016D5D7A4F8091840090918500F0
:1017C000DA01A81BB90B1A161B06B4F320FF02C0DE
:1017D000579801C0579A4617570729F0369527950D
:1017E00045575F4FE9CFEFBF0895EFB7F8944F9B90
:1017F00049C016C020918400309185002058314C9A
:1018000004C08FEF9FEF4F9B0BC08091840090919D
:101810008500B901681B790B1616170614F4F1CF71
:10182000AC0141505040CA0101961816190614F334
:101830004F5F5F4F19F420E030E826C080918400AC
:1018400090918500AC0140565F4F20E030E0BC0134
:1018500063597B4F8091840090918500DA01A81B29
:10186000B90B1A161B06B4F389B13695279590E08B
:1018700080789070282B392B4617570729F0455749
:101880005F4FE8CF20E030E4EFBFC9010895EF9249
:10189000FF920F931F93CF93DF93E82E192F062FFC
:1018A000F62E84E20E94CB0B802F0E94CB0B2E2DB4
:1018B000312FC901EC0104C08991F80E0E94CB0BB5
:1018C0009E012E192017C4F38F2D81950E94CB0BFA
:1018D000CDB7DEB7E6E00C9491188F929F92AF924D
:1018E000BF92CF92DF92FF920F931F93CF93DF931C
:1018F0004C015A01C0E0D0E0C62EDD24C7FCD094D4
:1019000002C0812F182FC5010E94F50B9C01807029
:10191000907C892B69F5822FC130D10559F0C230F6
:10192000D105A1F0209779F7243259F7812FC1E032
:10193000D0E0E8CF90E0C816D90614F4812F15C086
:10194000822FF22EC2E0D0E000E0DCCFF20E812F39
:101950008150112331F0F401E00FF11D20830F5F5E
:10196000D1CFFF2011F481E004C0C0E0D0E0CACFA5
:1019700080E0DF91CF911F910F91FF90DF90CF908A
:10198000BF90AF909F908F9008951F93CF93DF9358
:10199000EC01142F4FE050E028EB30E00E94800073
:1019A0008881811711F08FEF12C090E020E030E0C5
:1019B000FE01E20FF31F8081980F2F5F3F4F2F3002
:1019C0003105B1F7992311F480E001C08EEFDF916A
:1019D000CF911F910895DC0140E020E030E0FD014F
:1019E000E20FF31F8081480F2F5F3F4F2E303105EC
:1019F000B1F741951E964C931E97CB01BD014FE068
:101A000050E020EC30E00E949C000895A7E1B0E097
:101A1000ECE0FDE00C9469181C01CE01099660E031
:101A200070E043E00E94C50C9A8599838C858A8377
:101A30008D858B838E858C838F858D8389898E831D
:101A40008B898F8381E08887B92EBB0CDD24AA2483
:101A5000EE24FF24870190E8692E9AE1792E96E022
:101A6000892E912C82E0C82E2E010894411C511C15
:101A70000E94EF009B01AC01DC01CB018E199F0994
:101A8000A00BB10B681679068A069B060CF051C0B4
:101A90001C1424F58C2D992787FD9095FC01E1708D
:101AA000F07080FD03C088E097E002C08CED95E007
:101AB00090932302809322028CED95E09093210273
:101AC00080932002EE0FFF1FEE0FFF1FE752FE4F25
:101AD0006080718082809380CA9429C0BB2039F1D4
:101AE0001B1424F46CE271E0A1E003C064ED7EEF0E
:101AF000AFEF8B2D992787FD9095FC01E170F07079
:101B000080FF03C08CED95E003C0CB0184529A4F57
:101B10009093210280932002EE0FFF1FEE0FFF1F14
:101B2000E752FE4F6080718082809380BA1A7901FB
:101B30008A0180916102882329F0109261020E943B
:101B4000320902C0AA2041F080917302882309F073
:101B5000ABC00E94140BAA24CC2009F089CFC1018C
:101B60000E945A0B882309F483CFF10184818435C4
:101B700061F0853520F4823509F05FC01DC08635DF
:101B800079F0883509F059C030C0F1E0FD1514F046
:101B9000DD2401C0DA94CD2CCC0C82E0C80E43C009
:101BA00095E09D151CF4A7E0DA2E01C0D394CD2C4E
:101BB000CC0CE2E0CE0E37C0AD2DBB27A7FDB09513
:101BC000F201EA0FFB1F8081282F332727FD309574
:101BD0002F5F3F4FFD01EF51FE4F8081992787FD19
:101BE000909582179307D4F418C0AD2DBB27A7FD9D
:101BF000B095F201EA0FFB1F8081282F332727FDC4
:101C0000309521503040FD01E751FE4F80819927EA
:101C100087FD9095281739070CF49C01A40DB51D7C
:101C20002C93B22E09C01C1444F4ED2DFF27E7FDC0
:101C3000F095E40DF51DB080BB0CF7E0DF1609F060
:101C400017CF8885823009F013CF8981992787FDC6
:101C500090959B878A878A818C878B818D878C81E1
:101C60008E878D81992787FD9095988B8F878E81A0
:101C7000992787FD90959A8B898B8F81992787FD6E
:101C800090959C8B8B8B8E01075F1F4FC80160E086
:101C900070E00E94EB0CC80160E071E00E94EB0C68
:101CA0006796E2E10C948518AA24A39455CFA2E884
:101CB000B0E0EDE5FEE00C9469180E94EF00C15819
:101CC000DF4F688379838A839B83CF57D040DE01BF
:101CD0001196EBECF1E086E001900D928150E1F776
:101CE00081E08E878D8785E08F871B8A1A8A1D8AFF
:101CF0001C8A84E090E0988F8F8BFE017996DE013C
:101D0000999640E050E00FEF1FE760E070E809C0EF
:101D100011830083718760871D921D921D921D9211
:101D200032969A014F5F5F4F8F89988D2817390738
:101D30007CF3FE01EF5BFF4F11821082FE01ED5B31
:101D4000FF4F83E090E092838183DF011396BF0110
:101D50006D5E7F4F40E050E06F011FEFE12E1FE707
:101D6000F12E00E010E80EC01196FC92EE9219964A
:101D70001C930E931897FB011192119211921192DC
:101D8000BF0112969A014F5F5F4FF60181819281E8
:101D9000281739074CF31E8A108214A613A6C158BF
:101DA000DF4F288139814A815B81CF57D040209312
:101DB000C7023093C8024093C9025093CA02EF96FB
:101DC0002CAF3DAF4EAF5FAFEF97BA01A901EB96D5
:101DD0004CAF5DAF6EAF7FAFEB973A014B01E7962B
:101DE0004CAF5DAF6EAF7FAFE797E3961FAEE39763
:101DF000E2961FAEE29751E0E1965FAFE197F3E420
:101E00002F2E312C2C0E3D1E06C0E796ACAEBDAE7B
:101E1000CEAEDFAEE7970E94EF005B016C010E943F
:101E2000570180916102882389F4D601C501EF969C
:101E30002CAD3DAD4EAD5FADEF97821B930BA40B68
:101E4000B50B81539547A040B04014F11092610248
:101E50000E9432098E89882309F047C3CE01469635
:101E60000E94FA07D1018C91882311F492E001C0FD
:101E700090E020E08E89882309F421E0920F90936E
:101E80005402E8ECF0E0F0935A02E09359022DC3BB
:101E9000E396FFADE397FF2359F080917302882307
:101EA00039F40E94A80A0E94140BE3961FAEE39730
:101EB000D601C501EB962CAD3DAD4EAD5FADEB97B8
:101EC000821B930BA40BB50B81519742A040B040ED
:101ED00024F10E943407D1018C918823C1F4C101FF
:101EE0000E94A108F1018081882311F492E001C0D1
:101EF00090E020E08E89882309F421E0920F9093EE
:101F0000540228EC30E030935A0220935902EB96A9
:101F1000ACAEBDAECEAEDFAEEB97E1963FADE19796
:101F2000332309F456C0CE010D960E945A0B882324
:101F300009F44FC0E2964FADE297E42FFF27E7FD8B
:101F4000F095EE53FE4F99898081981721F0E29623
:101F50001FAEE29707C0E2965FADE2975F5FE29641
:101F60005FAFE297E2966FADE297E62FFF27E7FDBE
:101F7000F095EE53FE4F80818F3F81F4CE010D9698
:101F80000E94060D2EE088E190E00FB6F894A89527
:101F9000809360000FBE20936000FFCFD601C50183
:101FA000C158DF4F288139814A815B81CF57D040AA
:101FB000821B930BA40BB50B815C914EA44EB040D9
:101FC00024F0E1961FAEE19704C041E0E1964FAFE7
:101FD000E1978E89882309F41ECFD1018C91882343
:101FE00009F419CFD601C50186199709A809B909BD
:101FF00081519742A040B0400CF438C26091000279
:10200000709101028091FE019091FF01680F791F8C
:102010008091220190912301681B790B80911C0112
:1020200090911D01681B790B4091020250910302AF
:1020300080911E0190911F01481B590B57FF03C04F
:10204000509541955F4F2091040230910502809197
:10205000200190912101281B390B37FF03C03095D7
:1020600021953F4FCB019595879597FF03C090959C
:1020700081959F4FF1E081399F0714F080E991E04D
:10208000A0E9B1E0A81BB90BB887AF83CA01B1E0E2
:1020900041395B0714F080E991E0E0E9F1E0E81BE9
:1020A000F90BFA87E987C901F1E021393F0714F0FC
:1020B00080E991E020E931E0281B390B3C872B8730
:1020C000209106023091070245E02D3D34072CF0A7
:1020D00057E02D36350744F016C08CED95E0821B95
:1020E000930B815991407CF4B5E02D3D3B0724F0E2
:1020F00089010C5D154011C00CED15E0021B130B9E
:1021000021E030E00CC02D5D35402CF421E030E0C2
:1021100000E911E004C000E911E022E030E0809124
:102120004E0290914F022817390751F130934F0218
:1021300020934E021092B4021092B5021092B60291
:102140001092B7021092B8021092B9021092BA021D
:102150001092BB021092BC021092BD021092BE02FD
:102160001092BF022130310511F084E001C080E0FF
:102170008093540228EC30E030935A0220935902A5
:1021800040914E0250914F024130510569F4109236
:10219000A3021092A2021092A5021092A402109221
:1021A000A7021092A60249C04230510509F045C06D
:1021B0009B0183E0220F331F8A95E1F789819A8181
:1021C00097FD03C0309521953F4F3093A302209394
:1021D000A202209102023091030280911E0190918F
:1021E0001F01281B390BB4E0220F331FBA95E1F70A
:1021F0008B819C8197FD03C0309521953F4F309393
:10220000A5022093A402209104023091050280913E
:10221000200190912101281B390BA4E0220F331FCC
:10222000AA95E1F78D819E8197FD03C03095219598
:102230003F4F3093A7022093A60220914202309193
:10224000430280913C0290913D02281B390B60E2D1
:102250002030360714F02FEF3FE1C90170EE203037
:10226000370714F480E090EE9093A9028093A802BF
:10227000209144023091450280913E0290913F02AC
:10228000281B390B80E22030380714F02FEF3FE194
:10229000C901A0EE20303A0714F480E090EE90934C
:1022A000AB028093AA0220914602309147028091AE
:1022B000400290914102281B390BB0E220303B07CD
:1022C00014F02FEF3FE1C901E0EE20303E0714F497
:1022D00080E090EE9093AD028093AC0241305105C6
:1022E00019F06BE872E002C064E772E082EA92E003
:1022F0000E942B06F0EC4F2EF2E05F2EEE24FF241E
:102300003801882477FC8094982C8701085B1D4F46
:10231000E1E0F0E0EC0FFD1FEE0DFF1D608171812B
:10232000882777FD8095982FD2012D913D912D0121
:10233000442737FD4095542F0E940D18E7E09595EE
:10234000879577956795EA95D1F7E7E0F0E0EC0F90
:10235000FD1FEE0DFF1D20813181442737FD409583
:10236000542F0E940D189B01AC0169E055954795CB
:10237000379527956A95D1F7C401B3010E940D18CE
:1023800029E095958795779567952A95D1F7F80176
:102390007183608322E030E0E20EF31E36E0E31644
:1023A000F10409F0B2CF2091C60212160CF05CC005
:1023B0008091C7029091C802A091C902B091CA024F
:1023C000B601A501481B590B6A0B7B0BDB01CA0147
:1023D00081549D40A340B0405CF021502093C60240
:1023E000A092C702B092C802C092C902D092CA029B
:1023F0008091C602992787FD90954091480250919F
:102400004902BC016170707080FF03C026E930E0B2
:1024100002C02AE63FEF240F351F30934902209374
:10242000480240914A0250914B026115710519F022
:1024300026E930E002C02AE63FEF240F351F309333
:102440004B0220934A0220914C0230914D02672B9F
:1024500019F48AE69FEF02C086E990E0820F931F8D
:1024600090934D0280934C0235014601D601C5017F
:10247000E7962CAD3DAD4EAD5FADE797821B930B5C
:10248000A40BB50B8C59914AA740B0400CF4C3CCB7
:102490008091FB012091FC014091FD0190E080586A
:1024A00090409A83898330E0205830403C832B83CE
:1024B00050E0405850405E834D83EEE5F1E020E06F
:1024C00080819181892B61F080917C00887F282B0D
:1024D00020937C0080917A00806480937A0095CC70
:1024E0002F5F3296283061F790CCEF96ACAEBDAE40
:1024F000CEAEDFAEEF9741E0E3964FAFE397CDCCA2
:10250000A0E1B0E0E6E8F2E10C94731810928000CC
:1025100081E08093810057985F9800E06E010894F5
:10252000C11CD11C82E0E82EF12CEC0EFD1EC60170
:1025300060E144EF51E00E946D0C8823E1F1898154
:102540008230A1F0833018F4813001F505C083306A
:10255000B9F08430D9F41CC0C70160E870E048E0ED
:1025600050E028EB30E00E94800010C080E890E04E
:10257000B70148E050E020EC30E00E949C0012C01F
:10258000C70160E070E043E00E94C50C10E00BC0A2
:10259000C70160E070E00E94EB0CC70160E071E0F1
:1025A0000E94EB0C11E0C60160E10E94470C01E0C3
:1025B000112309F4BCCF802F6096E8E00C948F18AB
:1025C0001F931FEF1F5FE12FFF27E7FDF095EE0F31
:1025D000FF1FE655FE4F80819181892B69F41F5FB3
:1025E000E12FFF27E7FDF095EE0FFF1FE655FE4FA9
:1025F00080819181892B59F0E12FFF27E7FDF0952C
:10260000E654FE4F808161E00E942717DBCF1F91C7
:1026100008951F920F920FB60F9211242F933F939C
:102620004F935F936F937F938F939F93AF93BF93DA
:10263000CF93DF93EF93FF93E091CC02FF27E7FD69
:10264000F095E654FE4F808160E00E946617E091AD
:10265000CB02E7FD4BC0C0918400D0918500FF27DD
:10266000E7FDF095E654FE4F808161E00E94661719
:102670008091CB02E82FFF27E7FDF095EE0FFF1FBB
:10268000E655FE4F0190F081E02D2081318180934D
:10269000CC02482F4F5F4093CB02E42FFF27E7FD8A
:1026A000F095EE0FFF1FE655FE4F80819181892B3B
:1026B00091F4E42FEF5FE093CB02FF27E7FDF09565
:1026C000EE0FFF1FE655FE4F80819181892B19F493
:1026D0008FEF8093CB0222503040220F331F2C0FFC
:1026E0003D1F309389002093880009C01092CB02CF
:1026F0001092730280916F008D7F80936F00FF9125
:10270000EF91DF91CF91BF91AF919F918F917F9189
:102710006F915F914F913F912F910F900FBE0F904E
:102720001F901895EF92FF920F931F937A018B01E0
:10273000882341F083E161E00E94661782E161E055
:102740000E9466171092B90060E074E284EF90E096
:10275000A80197010E942C18205130404040504061
:1027600056954795379527952093B8001F910F915F
:10277000FF90EF90089581E040E85AE166E070E054
:102780000E9492130E94DF02882349F485E080931F
:10279000550288EC90E090935C0280935B02089570
:1027A000EF92FF920F931F93CF93DF93E82EF62EB5
:1027B00060E00E9427178F2D61E00E942717C0E07C
:1027C000D0E0CE018170082F8F2D602F0E946617F8
:1027D0008E2D0E94BA17112707FD109580179107BB
:1027E00011F000E005C02196C830D10551F701E095
:1027F0008F2D60E00E942717802FCDB7DEB7E6E06F
:102800000C949118EF92FF920F93DF93CF93CDB773
:10281000DEB7A8970FB6F894DEBF0FBECDBF259ADE
:102820008091020390910303009711F09C0102C074
:1028300026E033E0CE010196821B930B8038910590
:102840004CF484E1809355028EE190E090935C0219
:1028500080935B0284B7877F84BF88E10FB6F894CA
:1028600080936000109260000FBE84EF91E090931F
:1028700075028093740210927B0210927A029093F8
:102880008102809380029093770280937602109267
:102890007D0210927C029093830280938202909337
:1028A00079028093780210927F0210927E029093B8
:1028B0008502809384021092860210928702109201
:1028C00088021092890228E020938A0290938C0259
:1028D00080938B0210929202109291029093980230
:1028E0008093970290938E0280938D0210929402AF
:1028F0001092930290939A0280939902909390027F
:1029000080938F02109296021092950290939C02EF
:1029100080939B0210929D0210929E0210929F0241
:102920001092A0022093A10285E064E00E94D013DF
:10293000882311F400E001C00FEFCE01039660E898
:1029400070E048E050E028EB30E00E948000002377
:1029500061F48B81823049F48C819D81AE81BF818D
:102960008E549146AC4BB04069F082E08B838EE48C
:1029700091E6ACEBB0E08C839D83AE83BF83188679
:1029800019861A86CE010B9660E070E043E00E9443
:10299000C50C87FD0160CE014A9660E071E043E01E
:1029A0000E94C50C87FD006183E08093C602013060
:1029B00059F0013008F45CC0BBE0EB2EF12CEC0EBA
:1029C000FD1E0031E9F413C0CE014A9660E070E0CC
:1029D0000E94EB0C88858F5F8887DE011B96FE01C5
:1029E0007A968FE001900D928150E1F741C0C701C6
:1029F00060E071E00E94EB0C89858F5F898738C0A9
:102A00008B8780912401909125019D878C878091EF
:102A100009018E8780910A018F8780910B01888B35
:102A200080912601909127019A8B898B80912801B2
:102A3000909129019C8B8B8B80912A0190912B0185
:102A40009E8B8D8B80912C0190912D01988F8F8B77
:102A5000C70160E070E00E94EB0CC70160E071E02C
:102A60000E94EB0C8A858F5F8A8789E08093C6027B
:102A7000CE010B960E94E4060023C1F080E890E0AE
:102A8000BE016D5F7F4F48E050E020EC30E00E94D7
:102A90009C000F3F59F400E285B1802785B964E6B8
:102AA00070E080E090E00E949316F6CF0E948012C2
:102AB000882361F02EE088E190E00FB6F894A895A5
:102AC000809360000FBE20936000FFCF10928000C3
:102AD00082E08093810081E080936F0085B5887FDC
:102AE00085BD809126019091270182309105D1F01A
:102AF0008330910561F10197F1F580E090E048EEB7
:102B000053E020ED37E0FC01E45DFD4F518340834D
:102B1000FC01EC5CFD4F31832083029688309105E7
:102B200051F1F1CF80E090E04CE454E02CE637E046
:102B3000FC01E45DFD4F51834083FC01EC5CFD4FE3
:102B400031832083029688309105A9F0F1CF80E08F
:102B500090E042EE54E026ED36E0FC01E45DFD4FEE
:102B600051834083FC01EC5CFD4F3183208302964E
:102B70008830910591F70E94B0030E940E04809165
:102B80001102882319F4E0E0F0E002C0E2E0F0E096
:102B900020E030E080911202882311F021E030E043
:102BA000E22BF32BEE0FFF1FEF52FE4F808191813E
:102BB00090932501809324010497C1F480910E0223
:102BC00022E131E0882339F03093A1012093A00164
:102BD0001092FA010BC010928F0110928E01309367
:102BE00068022093670281E08093FA0180912801B6
:102BF000909129010197F1F010929B0110929A0196
:102C000010929D0110929C0110929F0110929E01C2
:102C10008CE192E09093B3018093B2018AE08093BB
:102C2000BE018EE192E09093B5018093B40189E0FA
:102C30008093BF01809124018093530288E592E044
:102C400090935802809357020E946D030E94C10521
:102C50000E94E0120E94BB130E9432090E94A80A3F
:102C6000A8960FB6F894DEBF0FBECDBFCF91DF910F
:102C70000F91FF90EF900895CF93DF930E94EC1691
:102C80000E940214C0E0D0E00E94570E2097E1F3AA
:102C90000E940000F9CF1F920F920FB60F921124DD
:102CA0002F933F938F939F93AF93BF938091EC02A9
:102CB0009091ED02A091EE02B091EF023091F002FE
:102CC0000196A11DB11D232F2D5F2D3720F02D570B
:102CD0000196A11DB11D2093F0028093EC02909308
:102CE000ED02A093EE02B093EF028091E802909182
:102CF000E902A091EA02B091EB020196A11DB11D7B
:102D00008093E8029093E902A093EA02B093EB0269
:102D1000BF91AF919F918F913F912F910F900FBED7
:102D20000F901F9018959B01AC017FB7F89480918C
:102D3000E8029091E902A091EA02B091EB0266B537
:102D4000A89B05C06F3F19F00196A11DB11D7FBF63
:102D5000BA2FA92F982F8827860F911DA11DB11D6D
:102D600062E0880F991FAA1FBB1F6A95D1F7BC01AB
:102D70002DC0FFB7F8948091E8029091E902A091EC
:102D8000EA02B091EB02E6B5A89B05C0EF3F19F04F
:102D90000196A11DB11DFFBFBA2FA92F982F88271B
:102DA0008E0F911DA11DB11DE2E0880F991FAA1F72
:102DB000BB1FEA95D1F7861B970B885E9340C8F23C
:102DC000215030404040504068517C4F2115310522
:102DD0004105510571F60895789484B5826084BDEB
:102DE00084B5816084BD85B5826085BD85B581600F
:102DF00085BDEEE6F0E0808181608083E1E8F0E06F
:102E00001082808182608083808181608083E0E89D
:102E1000F0E0808181608083E1EBF0E0808184607C
:102E20008083E0EBF0E0808181608083EAE7F0E07E
:102E300080818460808380818260808380818160E2
:102E400080838081806880831092C1000895CF9331
:102E5000DF93482F50E0CA0186569F4FFC01349102
:102E60004A575F4FFA018491882369F190E0880FF7
:102E7000991FFC01E859FF4FA591B491FC01EE5850
:102E8000FF4FC591D491662351F42FB7F8948C91DC
:102E9000932F909589238C93888189230BC062306E
:102EA00061F42FB7F8948C91932F909589238C938C
:102EB0008881832B88832FBF06C09FB7F8948C919D
:102EC000832B8C939FBFDF91CF910895482F50E0C3
:102ED000CA0182559F4FFC012491CA0186569F4F1B
:102EE000FC0194914A575F4FFA013491332309F45E
:102EF00040C0222351F1233071F0243028F42130D6
:102F0000A1F0223011F514C02630B1F02730C1F005
:102F10002430D9F404C0809180008F7703C0809161
:102F200080008F7D8093800010C084B58F7702C0B1
:102F300084B58F7D84BD09C08091B0008F7703C0B8
:102F40008091B0008F7D8093B000E32FF0E0EE0F12
:102F5000FF1FEE58FF4FA591B4912FB7F894662349
:102F600021F48C919095892302C08C91892B8C93AC
:102F70002FBF0895682F70E0CB0182559F4FFC0151
:102F80002491CB0186569F4FFC0144916A577F4F95
:102F9000FB019491992319F420E030E03CC02223F6
:102FA00051F1233071F0243028F42130A1F0223087
:102FB00011F514C02630B1F02730C1F02430D9F417
:102FC00004C0809180008F7703C0809180008F7D46
:102FD0008093800010C084B58F7702C084B58F7D48
:102FE00084BD09C08091B0008F7703C08091B0008C
:102FF0008F7D8093B000892F90E0880F991F8458AF
:103000009F4FFC01A591B4918C9120E030E0842386
:1030100011F021E030E0C9010895629FD001739F53
:10302000F001829FE00DF11D649FE00DF11D929F64
:10303000F00D839FF00D749FF00D659FF00D9927A3
:10304000729FB00DE11DF91F639FB00DE11DF91FC7
:10305000BD01CF0111240895A1E21A2EAA1BBB1BAA
:10306000FD010DC0AA1FBB1FEE1FFF1FA217B30754
:10307000E407F50720F0A21BB30BE40BF50B661F6A
:10308000771F881F991F1A9469F76095709580952E
:1030900090959B01AC01BD01CF01089597FB092ECE
:1030A00005260ED057FD04D0D7DF0AD0001C38F417
:1030B00050954095309521953F4F4F4F5F4F089564
:1030C000F6F790958095709561957F4F8F4F9F4F44
:1030D00008952F923F924F925F926F927F928F92BC
:1030E0009F92AF92BF92CF92DF92EF92FF920F9397
:1030F0001F93CF93DF93CDB7DEB7CA1BDB0B0FB6A1
:10310000F894DEBF0FBECDBF09942A88398848885D
:103110005F846E847D848C849B84AA84B984C884F3
:10312000DF80EE80FD800C811B81AA81B981CE0FEA
:10313000D11D0FB6F894DEBF0FBECDBFED010895CF
:04314000F894FFCF31
:103144000020406080A0C0E0FF040404DC05DC052E
:10315400DC05DC05E803DC05E803DC05DC05DC054F
:10316400DC05DC0501000100010001000200100182
:103174000E0118010C011401120116011A011801A3
:103184000C010E0110011401120116011A010C01A7
:103194000E01180110011401120116011A01000098
:1031A400FB01FC01FD010000000000000000000024
:1031B40000001102000000000000120200000000E4
:1031C4000000000000000000000013020E020F02C5
:1031D400100200000000000000000C010E011001AC
:1031E400140100000000000000001402160218027E
:1031F4001A02000000000000000004050607FFFF9B
:10320400FFFF7889988778899887FF7F007F007F00
:10321400000400030002000100A0860100801A06D9
:1032240000040404040304030201FCFCFC01010186
:0A32340001200222022402260200FB
:00000001FF
