:100000000C9461000C947E000C947E000C942305EB
:100010000C947E000C9447050C947E000C947E009A
:100020000C947E000C947E000C94B1040C942E1160
:100030000C947E000C94CD000C947E000C947E00F9
:100040000C9440140C947E000C947E000C947E0062
:100050000C947E000C942F030C947E000C947E0074
:100060000C947E000C947E00000000002400270009
:100070002A0000000000250028002B0000000000DE
:1000800023002600290004040404040404040202DA
:100090000202020203030303030301020408102007
:1000A0004080010204081020010204081020000012
:1000B0000007000201000003040600000000000029
:1000C000000011241FBECFEFD4E0DEBFCDBF11E092
:1000D000A0E0B1E0ECE7FCE202C005900D92AA3D81
:1000E000B107D9F712E0AAEDB1E001C01D92AE3E12
:1000F000B107E1F70E9431140C943C160C940000F7
:10010000A0E0B0E0E6E8F0E00C940F167C01EB0113
:100110008A01690109C0CE012196F6010995F7010E
:1001200081937F010150104001151105A1F7CDB752
:10013000DEB7E8E00C942B16A0E0B0E0E2EAF0E0D5
:100140000C940F16EC017B018A01690109C0CE01F4
:100150002196F70161917F01F60109950150104048
:1001600001151105A1F7CDB7DEB7E8E00C942B1609
:100170009C01F999FECF32BD21BDF89A80B5089552
:100180009C01F999FECF1FBA32BD21BD60BD0FB6EB
:10019000F894FA9AF99A0FBE08951F920F920FB62B
:1001A0000F9211248F939F9380913802909139027E
:1001B0000196909339028093380280913802909191
:1001C0003902892B29F480913A028F5F80933A0299
:1001D0009F918F910F900FBE0F901F901895609177
:1001E0008400709185002091380230913902E091AD
:1001F0003A0280918400909185008627972797FD89
:10020000EECF80913802909139022817390739F7DB
:1002100080913A02E81719F740E050E0FFE0220F22
:10022000331F441F551FFA95D1F78E2F90E0A0E0A1
:10023000B0E0BB278695B795AA2799278827282B52
:10024000392B4A2B5B2B76956795CB01A0E0B0E06C
:10025000282B392B4A2B5B2BB901CA010895AF9289
:10026000BF92CF92DF92EF92FF920F931F9328EEEF
:1002700033E040E050E00E94A9155B016C010E9450
:10028000EF007B018C010E94EF006E197F09800B4B
:10029000910B6A157B058C059D05A8F31F910F91A5
:1002A000FF90EF90DF90CF90BF90AF9008959B01AB
:1002B000AC018091CA029091CB02A091CC02B09186
:1002C000CD02821B930BA40BB50B181619061A0648
:1002D0001B060CF44FC08091CE02882301F5E091FB
:1002E000CF02EF5FE370E093CF02FF27E7FDF095C9
:1002F000E55CFD4F8081992787FD9095880F991FB8
:100300008093CE02205C3D4B404F5F4F2093CA024A
:100310003093CB024093CC025093CD02089581508C
:100320008093CE0280FF24C02D9AE091CF02FF2758
:10033000E7FDF095EE0FFF1FE15CFD4F808191819D
:10034000AA2797FDA095BA2F6AE0880F991FAA1FC8
:10035000BB1F6A95D1F7820F931FA41FB51F80930F
:10036000CA029093CB02A093CC02B093CD02089521
:100370002D98DBCF0895482F84EA8093BC002FEF9F
:1003800030E011C02115310561F41092BC0080915C
:100390004702909148020196909348028093470249
:1003A00006C0215030408091BC0087FFEBCF4093C6
:1003B000BB0084E88093BC002FEF30E011C0211512
:1003C000310561F41092BC0080914702909148027F
:1003D000019690934802809347020895215030403F
:1003E0008091BC0087FFEBCF0895482F882311F43C
:1003F00084E801C084EC8093BC002FEF30E011C092
:100400002115310561F41092BC0080914702909152
:1004100048020196909348028093470206C02150FB
:1004200030408091BC0087FFEBCF9091BB0044230C
:1004300019F484E98093BC00892F08950F931F93CA
:10044000162F042F880F0E94BB011093BB0084E875
:100450008093BC002FEF30E011C02115310561F40D
:100460001092BC00809147029091480201969093AF
:1004700048028093470206C0215030408091BC0062
:1004800087FFEBCF0093BB0084E88093BC002FEF85
:1004900030E011C02115310561F41092BC0080914B
:1004A0004702909148020196909348028093470238
:1004B00006C0215030408091BC0087FFEBCF84E91B
:1004C0008093BC001F910F9108950F931F93082FE5
:1004D000162F880F0E94BB011093BB0084E8809305
:1004E000BC002FEF30E011C02115310561F41092EE
:1004F000BC00809147029091480201969093480277
:100500008093470206C0215030408091BC0087FF95
:10051000EBCF000F802F81600E94BB0181E00E9421
:10052000F5011F910F9108951F93CF93DF93EB0176
:10053000142F880F81600E94BB0108C0115080E019
:1005400011160CF481E00E94F50189931123B1F793
:10055000DF91CF911F910895FF920F931F93CF9337
:10056000DF93082F162FEA01F22E880F0E94BB019D
:100570001093BB0084E88093BC002FEF30E011C0E3
:100580002115310561F41092BC00809147029091D1
:1005900048020196909348028093470206C021507A
:1005A00030408091BC0087FFEBCF802FBE014F2DE4
:1005B0000E949402CDB7DEB7E5E00C942E1688E6D3
:1005C0006EE340E80E941E0262E370E080E090E08B
:1005D0000E942F0188E66EE343E00E941E0288E637
:1005E00066E14EE10E941E0288E660E00E9465021C
:1005F00090E08E77883609F491E0892F0895A6E07F
:10060000B0E0E5E0F3E00C940F168C017B016A0189
:1006100088E66DE1AE014F5F5F4F26E00E94AC02BD
:10062000998180E02A8130E0822B932BF80191831D
:1006300080839B8180E02C8130E0822B932BF7011B
:10064000918380839D8180E02E8130E0822B932BEB
:10065000F601918380832696E8E00C942B161F9276
:100660000F920FB60F9211242F938F939F93EF93B6
:10067000FF9390917C009770E92FF0E0EE0FFF1F41
:10068000EA5BFE4F0190F081E02D8091790080833C
:10069000292F16C0E22FF0E0EE0FFF1FEA5BFE4F9E
:1006A00080819181892B61F080917C00887F282B4B
:1006B00020937C0080917A00806480937A0003C04C
:1006C0002F5F283039F7FF91EF919F918F912F91F4
:1006D0000F900FBE0F901F901895CF93DF93A6E455
:1006E000B1E0FD0140E050E061E070E08081918187
:1006F000892B79F087B1EB01042E02C0CC0FDD1FEE
:100700000A94E2F79E012095822387B988B12823B5
:1007100028B94F5F5F4F32964630510539F780E672
:1007200080937C0010927B008FE880937A0020E019
:100730008D919C911197892B61F080917C00887F2D
:10074000282B20937C0080917A00806480937A002B
:1007500004C02F5F1296283059F7DF91CF9108958A
:10076000E2E5F1E040E050E061E070E080819181FD
:10077000892B79F034B1CB01042E02C0880F991F68
:100780000A94E2F7282F2095232324B925B1822B40
:1007900085B94F5F5F4F32964830510539F7E2E631
:1007A000F1E040E050E061E070E080819181892BD0
:1007B00079F037B1CB01042E02C0880F991F0A943B
:1007C000E2F7282F2095232327B928B1822B88B957
:1007D0004F5F5F4F32964830510539F7E2E7F1E05D
:1007E00040E050E061E070E080819181892B79F0F8
:1007F0003AB1CB01042E02C0880F991F0A94E2F788
:10080000282F209523232AB92BB1822B8BB94F5F38
:100810005F4F32964830510539F7089560E070E037
:1008200040E050E0A1E0B0E0362FFA01EE5AFE4F72
:100830000190F081E02D309751F023B1CD01062ECB
:1008400002C0880F991F0A94E2F728232083FA0137
:10085000EE59FE4F0190F081E02D309751F026B116
:10086000CD01032E02C0880F991F0A94E2F72823B6
:100870002083FA01EE58FE4F0190F081E02D309771
:1008800049F029B1CD0102C0880F991F3A95E2F7CE
:10089000282320836F5F7F4F4E5F5F4F40315105AC
:1008A00019F60895A0E0B0E0E8E5F4E00C940D1628
:1008B00000918400109185008091D90293B19093AA
:1008C000D9027894292F282780958923A2E8B1E0BE
:1008D000EAEDF2E060E070E0C22EDD24E82EFF24B5
:1008E00021E0CD91DC911197209779F1C601062E78
:1008F00002C0959587950A94E2F780FF26C0C7014C
:10090000062E02C0959587950A94E2F780FF03C0F2
:10091000118300831AC080819181A801481B590B63
:10092000569547958CE7A82E8CEFB82EA40EB51ED1
:1009300081EBA81684E0B80640F45983488380917F
:100940004A02681711F4209349026F5F7F4F129695
:1009500032966830710529F6CDB7DEB7EAE00C941F
:1009600029161F920F920FB60F9211242F933F93C7
:100970004F935F936F938F939F93EF93FF93209188
:1009800086003091870078948091C7029091C802C8
:10099000A901481B590B569547953093C8022093DF
:1009A000C7028BE0493B580758F08091C60281503E
:1009B00080934A021092C60281E08093C90235C03A
:1009C0008091C902882389F16091C602683068F578
:1009D00083E04438580748F188E04533580728F544
:1009E000262F30E0E0913202F0913302319793E00C
:1009F000EE0FFF1F9A95E1F7E20FF31FEE0FFF1FB7
:100A0000EA5DFE4F0190F081E02D5183408380919B
:100A10004A02992787FD90952817390719F481E034
:100A2000809349026F5F6093C602FF91EF919F919F
:100A30008F916F915F914F913F912F910F900FBECA
:100A40000F901F9018951F920F920FB60F921124BE
:100A50002F933F934F935F936F937F938F939F93C6
:100A6000AF93BF93EF93FF930E945204FF91EF91D6
:100A7000BF91AF919F918F917F916F915F914F91B6
:100A80003F912F910F900FBE0F901F9018951F92BE
:100A90000F920FB60F921124CF92DF92EF92FF9236
:100AA0000F931F932F933F934F935F936F937F9376
:100AB0008F939F93AF93BF93CF93DF93EF93FF9366
:100AC000E0908400F09085008091B50299B19093F8
:100AD000B5027894292F282780958923ABE4B2E0CA
:100AE000E6EBF2E060E070E0C22EDD24082F10E0BB
:100AF000CD91DC911197209721F1C601062E02C0FD
:100B0000959587950A94E2F780FF1BC0C801062ED1
:100B100002C0959587950A94E2F780FF03C0F182A1
:100B2000E0820FC080819181A701481B590B569527
:100B30004795CA0184589340815B944010F45983CF
:100B400048836F5F7F4F129632966830710581F649
:100B5000FF91EF91DF91CF91BF91AF919F918F91D5
:100B60007F916F915F914F913F912F911F910F91C5
:100B7000FF90EF90DF90CF900F900FBE0F901F90DF
:100B8000189580913202909133021816190674F468
:100B900080916F00806280936F0080918100806CF3
:100BA0008093810083E080934A02089580916800D9
:100BB000816080936800E2E8F1E040E050E061E0AD
:100BC00070E080819181892BA1F020916B00CB0195
:100BD000042E02C0880F991F0A94E2F7282B209355
:100BE0006B0034B1282F2095232324B925B1822B03
:100BF00085B94F5F5F4F32964830510511F781E05C
:100C000080934A0280916800846080936800EBE4DE
:100C1000F2E040E050E061E070E080819181892B5A
:100C2000A1F020916D00CB01042E02C0880F991F06
:100C30000A94E2F7282B20936D003AB1282F2095D3
:100C400023232AB92BB1822B8BB94F5F5F4F32968A
:100C50004830510511F70895A6E0B0E0E2E3F6E070
:100C60000C9405167A8369839E838D832B011C0166
:100C70009B012A5F3F4F3C832B83ED81FE810681E0
:100C8000178180819181081B190B3801882477FC1A
:100C90008094982CF10182899389A489B589860D65
:100CA000971DA81DB91D828B938BA48BB58BE981F1
:100CB000FA812289338944895589AA24BB24650194
:100CC000A21AB30AC40AD50A8A159B05AC05BD054C
:100CD0004CF05C016D01281739074A075B0714F4D3
:100CE00059016A01ED81FE8184859585AA2797FDCA
:100CF000A095BA2FA4019301281B390B4A0B5B0B5B
:100D0000CA01B90115870487F20124853585442776
:100D100037FD4095542F0E94A9157B018C0142E0BC
:100D200015950795F794E7944A95D1F7F20120813C
:100D30003181442737FD4095542FC401B3010E94EF
:100D4000A91533E095958795779567953A95D1F7ED
:100D5000E60EF71E081F191FF2012681378144276E
:100D600037FD4095542FC601B5010E94A91526E014
:100D700095958795779567952A95D1F7E60EF71E95
:100D8000081F191FE981FA81068804C01595079587
:100D9000F794E7940A94D2F7ED81FE81F78EE68E00
:100DA0003296FE83ED8324E030E0220E331E42E0D3
:100DB00050E0440E551E8B819C814816590609F05F
:100DC0005CCF2696E2E10C942116A6E0B0E0EBEEB3
:100DD000F6E00C941516CE010196BE016D5F7F4FB3
:100DE000AE014B5F5F4F0E94FF028B819C8190930D
:100DF00023028093220249815A8150932502409315
:100E000024022D813E813093270220932602809177
:100E10003402909135028130910519F00297D1F496
:100E20000DC0309325022093240288279927841B24
:100E3000950B90932702809326020CC08827992750
:100E4000821B930B909325028093240250932702D8
:100E5000409326022696E2E00C943116A0E0B0E022
:100E6000E4E3F7E00C940D167C018C01EB01F70133
:100E700060E070E02BC02181328188819981281740
:100E800039070CF4C90192838183218532858881D9
:100E90009981821793070CF4C90192878187299160
:100EA0003991442737FD4095542FD8011F96AD90B6
:100EB000BD90CD90DC905297A20EB31EC41ED51EDD
:100EC0001F96AD92BD92CD92DC9252979B016F5FBF
:100ED0007F4F32960C5F1F4FD70111968D919C91D9
:100EE0001297281739073CF2CDB7DEB7EAE00C9429
:100EF0002916A0E0B0E0EFE7F7E00C940F16EC0144
:100F00007C0153E2C52ED12CC80ED91E00E010E0A2
:100F100011C02BA53CA5442737FD4095542FF70160
:100F200067857089818992890E94EA15F60121936B
:100F300031936F0198010F5F1F4F84E090E0E80E3E
:100F4000F91E89819A81281739071CF3CDB7DEB7BE
:100F5000E8E00C942B16A8E0B0E0E1EBF7E00C948D
:100F60000F168C018091DE019091DF019A838983B5
:100F70008091E2019091E3019C838B838091E40155
:100F80009091E5019E838D838091E0019091E10134
:100F900098878F83C801BE016F5F7F4F0E942E0725
:100FA000D8019B968D919C919C9701969C969C93C1
:100FB0008E939B978436910509F070C01196ED9041
:100FC000FC9012976801F80160E040E050E00CC02E
:100FD0008385948523813481821B930B44970CF481
:100FE0006F5F4F5F5F4F32964E155F058CF3862F14
:100FF000992787FD90958E159F05F9F4C8010E94E9
:101000007907F80183A194A190931F0180931E0199
:1010100085A196A1909321018093200187A190A59D
:10102000909323018093220181A592A5909325019D
:101030008093240181E0808331C0D8011C9284E038
:1010400090E012969C938E931197F80140E050E047
:101050006FEFE62E6FE7F62E60E070E80BC0F282CD
:10106000E18272876187D6011F961D921D921D92A3
:101070001C9252979A014F5F5F4F329684E090E046
:10108000C80ED91ED80111968D919C9112972817E0
:1010900039072CF39C961C921E929B972896E8E0A9
:1010A0000C942B16A6E0B0E0E8E5F8E00C940F16DF
:1010B0008C0180912202909123029A8389838091EE
:1010C0002402909125029C838B838091260290912B
:1010D00027029E838D83C801BE016F5F7F4F0E94F0
:1010E0002E07F80183A594A5019694A783A78C5297
:1010F000914009F064C0F801E180F280D80160E01D
:1011000040E050E00CC08385948523813481821BAC
:10111000930BC2970CF46F5F4F5F5F4F32964E1583
:101120005F058CF3862F992787FD90958E159F0577
:10113000C9F4C8010E947907F80183A194A1909392
:101140001D0280931C0285A196A190931F0280939B
:101150001E0287A190A5909321028093200281E036
:1011600080832DC0F801108283E090E09283818318
:10117000680140E050E07FEFE72E7FE7F72E60E068
:1011800070E80DC01296FC92EE9211971A967C931D
:101190006E931997F6011786108A118A128A9A019E
:1011A0004F5F5F4F129684E090E0C80ED91EF801A1
:1011B00081819281281739072CF314A613A626964D
:1011C000E8E00C942B1640910C0150910D01809198
:1011D0000C0190910D014817590721F04091DE0153
:1011E0005091DF015093DF014093DE0120910E0109
:1011F00030910F0180910E0190910F01281739074E
:1012000021F02091E2013091E3013093E30120933A
:10121000E201209110013091110180911001909113
:1012200011012817390721F02091E4013091E501DF
:101230003093E5012093E4012091120130911301D4
:1012400080911201909113012817390721F0209104
:10125000E0013091E1013093E1012093E001209120
:1012600014013091150180911401909115012817F6
:10127000390721F02091E6013091E7013093E70131
:101280002093E601209116013091170180911601FB
:10129000909117012817390721F02091E80130912A
:1012A000E9013093E9012093E80120911801309180
:1012B000190180911801909119012817390721F01F
:1012C0002091EA013091EB013093EB012093EA0188
:1012D00020911A0130911B0180911A0190911B01FC
:1012E0002817390721F02091EC013091ED0130935E
:1012F000ED012093EC0180912E0290912F02892B19
:1013000021F45093E1014093E0010895FC018091A4
:101310002E0290912F028130910571F1823091055A
:101320001CF4892B41F0B3C08230910509F462C0EE
:10133000039709F0ACC0808191812091DE0130914A
:10134000DF01820F931F909301028093000280813E
:1013500091812091E0013091E101820F931F9093E0
:10136000070280930602828193812091E2013091ED
:10137000E301820F931F31C0408151818091DE01D2
:101380009091DF01480F591F628173818091E201C2
:101390009091E301680F791FCB01840F951F9C0189
:1013A000B3E035952795BA95E1F795958795280F80
:1013B000391F275731403093010220930002461B0A
:1013C000570BCA0133E0959587953A95E1F7559506
:1013D0004795840F951F84529A4F909303028093F0
:1013E0000202848195812091E4013091E501820F10
:1013F000931F49C0808191812091DE013091DF01EE
:10140000820F931F9093010280930002808191814B
:101410002091E0013091E101820F931F9093070228
:1014200080930602628173818091E2019091E301D1
:10143000680F791F448155818091E4019091E50105
:10144000480F591FCA01860F971F9C01B3E03595BD
:101450002795BA95E1F795958795280F391F275756
:1014600031403093030220930202461B570BCA01FE
:10147000F3E095958795FA95E1F755954795840F93
:10148000951F84529A4F9093050280930402809195
:10149000EA019091EB0190930902809308028091F8
:1014A000EC019091ED0190930B0280930A02089554
:1014B000A8E0B0E0EEE5FAE00C941316809130025B
:1014C000909131020297A9F5FE01319688E0DF0183
:1014D0001D928A95E9F7CF010E948609A1EDB1E03E
:1014E0000CE012E044E152E06D917C911197F8011B
:1014F00020813181FB0180819181281739070CF40B
:10150000C901F80191838083FA0120813181FB01B7
:1015100080819181821793070CF4C901FA018193AC
:101520009193AF0112960E5F1F4FF1E0A93DBF07E7
:10153000D9F688E292E00E94860980E090E0FC0102
:10154000EF52FE4FA081B1814D915C911197FC014A
:10155000E45FFD4F0190F081E02D4E175F0754F0DE
:10156000FC01EC5EFD4F20813181FA012417350723
:101570000CF4F901ED93FC93029688309105F9F68D
:101580002896E4E00C942F1681E080935B022FB73D
:10159000F89480910002909101029093F50180935C
:1015A000F40180910202909103029093F7018093DD
:1015B000F60180910402909105029093F9018093C5
:1015C000F80180910602909107029093FB018093AD
:1015D000FA0180910802909109029093FD01809395
:1015E000FC0180910A0290910B029093FF0180937D
:1015F000FE01EFE6F0E0808182608083B19A809105
:1016000084009091850004969093890080938800CF
:101610002FBF0895FC01828183832091DE013091E8
:10162000DF01458154E0213B350714F490E00DC003
:10163000C901845195408159914010F491E005C051
:10164000285037400CF453C092E0442319F082E054
:10165000891B982F90832091E2013091E30146810C
:1016600054E0213B350714F490E00CC0C9018451CB
:1016700095408159914010F491E004C028503740C2
:10168000C4F192E0442319F082E0891B982F9183E2
:101690008781882351F48081882329F0823029F4BE
:1016A00081E08583108281E087838085882361F4CF
:1016B0008181882319F0823039F404C081E0868367
:1016C00082E0818381E0808730813F5F818123E0F8
:1016D0008202C0011124380F3283938180E03917D0
:1016E00029F081E09295907F932B948308959081C7
:1016F000B1CF9181CCCF1F93CF93DF93EC01162F05
:1017000060E070E04DE050E028EB30E00E948000A7
:101710008881811711F08FEF12C090E020E030E057
:10172000FE01E20FF31F8081980F2F5F3F4F2D3096
:101730003105B1F7992311F480E001C08EEFDF91FC
:10174000CF911F910895DC0190E020E030E0FD0191
:10175000E20FF31F8081980F2F5F3F4F2C30310530
:10176000B1F791951C969C931C9780E090E0BD0189
:101770004DE050E020EC30E00E949C000895A5E18F
:10178000B0E0E5ECFBE00C9405161C01CE010996D7
:1017900062E00E947B0B9A859F5F99838C858450C1
:1017A0008A838D8584508B838E8584508C838F852E
:1017B0008F5F8D8389898F5F8E838B898F5F8F8306
:1017C00081E08887B92EBB0CDD24AA24EE24FF24F7
:1017D0008701E0E86E2EEAE17E2EE6E08E2E912C67
:1017E00072E0C72E2E010894411C511C0E94EF008C
:1017F0009B01AC01DC01CB018E199F09A00BB10B41
:10180000681679068A069B060CF051C01C1424F554
:101810008C2D992787FD9095FC01E170F07080FD7B
:1018200003C088E097E002C08CED95E0909303023E
:10183000809302028CED95E0909301028093000268
:10184000EE0FFF1FEE0FFF1FE754FE4F6080718009
:1018500082809380CA9429C0BB2039F11B1424F4E0
:101860006CE271E0A1E003C064ED7EEFAFEF8B2D81
:10187000992787FD9095FC01E170F07080FF03C00F
:101880008CED95E003C0CB0184529A4F90930102F6
:1018900080930002EE0FFF1FEE0FFF1FE754FE4F75
:1018A0006080718082809380BA1A79018A01809168
:1018B0004902882329F0109249020E94E30802C0DD
:1018C000AA2041F080915B02882309F0A9C00E9400
:1018D000C40AAA24CC2009F089CFC1010E940A0BB6
:1018E000882309F483CFF1018481843561F0853543
:1018F00020F4823509F05FC01DC0863579F0883547
:1019000009F059C030C0F1E0FD1514F0DD2401C02C
:10191000DA94CD2CCC0C82E0C80E43C095E09D1526
:101920001CF487E0D82E01C0D394CD2CCC0CE2E07F
:10193000CE0E37C0AD2DBB27A7FDB095F201EA0F43
:10194000FB1F8081282F332727FD30952F5F3F4FC6
:10195000FD01EF53FE4F8081992787FD90958217F7
:101960009307D4F418C0AD2DBB27A7FDB095F201A5
:10197000EA0FFB1F8081282F332727FD3095215048
:101980003040FD01E753FE4F8081992787FD9095F8
:10199000281739070CF49C01A40DB51D2C93B22E09
:1019A00009C01C1444F4ED2DFF27E7FDF095E40D6C
:1019B000F51DB080BB0CF7E0DF1609F017CF888566
:1019C000823009F013CF8981992787FD909501977F
:1019D0009B878A878A818C5F8C878B818C5F8D87C0
:1019E0008C818C5F8E878D81992787FD90950197DB
:1019F000988B8F878E81992787FD909501979A8B79
:101A0000898B8F81992787FD909501979C8B8B8B74
:101A1000CE0109960E94A30B6596E2E10C94211673
:101A2000AA24A39457CFA2E8B0E0E9E1FDE00C942A
:101A300005160E94EF00C158DF4F688379838A83BF
:101A40009B83CF57D040DE011196E3EBF1E086E0B7
:101A500001900D928150E1F781E08E878D8785E0BE
:101A60008F871B8A1A8A1D8A1C8A84E090E0988FCF
:101A70008F8BFE017996DE01999640E050E00FEFE2
:101A80001FE760E070E809C01183008371876087F9
:101A90001D921D921D921D9232969A014F5F5F4FCB
:101AA0008F89988D281739077CF3FE01EF5BFF4F74
:101AB00011821082FE01ED5BFF4F83E090E0928384
:101AC0008183DF011396BF016D5E7F4F40E050E0E0
:101AD0006F013FEFE32E3FE7F32E00E010E80EC06A
:101AE0001196FC92EE9219961C930E931897FB0197
:101AF0001192119211921192BF0112969A014F5FA9
:101B00005F4FF60181819281281739074CF31E8AB5
:101B1000108214A613A6C158DF4F288139814A814B
:101B20005B81CF57D0402093AF023093B0024093F7
:101B3000B1025093B202EF962CAF3DAF4EAF5FAF04
:101B4000EF97BA01A901EB964CAF5DAF6EAF7FAFD7
:101B5000EB977A018B01E7964CAF5DAF6EAF7FAF2D
:101B6000E797E3961FAEE397E2961FAEE29751E048
:101B7000E1965FAFE19723E4222E312C2C0E3D1E1F
:101B800006C0E796ACAEBDAECEAEDFAEE7970E9424
:101B9000EF005B016C010E9457018091490288238C
:101BA00089F4D601C501EF962CAD3DAD4EAD5FADCC
:101BB000EF97821B930BA40BB50B81539547A04065
:101BC000B04014F1109249020E94E3088E898823E4
:101BD00009F010C3CE0146960E94AB07D1018C914B
:101BE000882311F492E001C090E020E08E898823E0
:101BF00009F421E0920F90933C02E8ECF0E0F093BE
:101C00004202E0934102F6C2E396FFADE397FF2361
:101C100059F080915B02882339F40E94580A0E948F
:101C2000C40AE3961FAEE397D601C501EB962CAD2F
:101C30003DAD4EAD5FADEB97821B930BA40BB50B87
:101C400081519742A040B04024F10E94E506D101A5
:101C50008C918823C1F4C1010E945208F101808156
:101C6000882311F492E001C090E020E08E8988235F
:101C700009F421E0920F90933C0228EC30E030937D
:101C8000420220934102EB96ACAEBDAECEAEDFAECB
:101C9000EB97E1963FADE197332309F456C0CE01AF
:101CA0000D960E940A0B882309F44FC0E2964FADAF
:101CB000E297E42FFF27E7FDF095E655FE4F99895F
:101CC0008081981721F0E2961FAEE29707C0E29656
:101CD0005FADE2975F5FE2965FAFE297E2966FAD2E
:101CE000E297E62FFF27E7FDF095E655FE4F80814E
:101CF0008F3F81F4CE010D960E94BF0B2EE088E14C
:101D000090E00FB6F894A895809360000FBE2093E2
:101D10006000FFCFD601C501C158DF4F288139814E
:101D20004A815B81CF57D040821B930BA40BB50B2C
:101D3000815C914EA44EB04024F0E1961FAEE19735
:101D400004C041E0E1964FAFE1978E89882309F402
:101D50001ECFD1018C91882309F419CFD601C5017A
:101D60008E199F09A00BB10B81519742A040B04042
:101D70000CF401C24091E0015091E1018091DE013B
:101D80009091DF01480F591F80911E0190911F0112
:101D9000481B590B8091240190912501481B590B38
:101DA0005595479557FF03C0509541955F4FE0917A
:101DB000E201F091E3018091200190912101E81B63
:101DC000F90BF7FF03C0F095E195FF4F6091E40137
:101DD0007091E5018091220190912301681B790B9C
:101DE00077FF03C0709561957F4FCA0121E04139AB
:101DF000520714F080E991E0A0E9B1E0A81BB90B0B
:101E0000B887AF83CF01B1E0E139FB0714F080E977
:101E100091E020E931E0281B390B3A872987CB0173
:101E200031E06139730714F080E991E0A0E9B1E095
:101E3000A81BB90BBC87AB872091E6013091E70165
:101E4000B5E02D3D3B072CF087E02D36380744F0F8
:101E500016C08CED95E0821B930B815991407CF468
:101E6000B5E02D3D3B0724F089010C5D154011C004
:101E70000CED15E0021B130B21E030E00CC02D5DD2
:101E800035402CF421E030E000E911E004C000E925
:101E900011E022E030E0809136029091370228175D
:101EA0003907B1F0309337022093360221303105E3
:101EB00011F084E001C080E080933C02A8ECB0E027
:101EC000B0934202A093410299249394882483946E
:101ED000453651051CF4E536F10514F09924939428
:101EE0006536710514F088248394992081F010924E
:101EF0009C0210929D0210929E0210929F021092DC
:101F0000A0021092A1021092A2021092A3028820B5
:101F100041F01092A4021092A5021092A602109213
:101F2000A70210928B0210928A0210928D021092D8
:101F30008C0210928F0210928E0220912202309118
:101F4000230280911C0290911D02281B390BB0E2E4
:101F500020303B0714F02FEF3FE1C901E0EE2030C5
:101F60003E0714F480E090EE9093910280939002EB
:101F7000209124023091250280911E0290911F022F
:101F8000281B390BF0E220303F0714F02FEF3FE120
:101F9000C90120EE8030920714F480E090EE909317
:101FA0009302809392022091260230912702809121
:101FB000200290912102281B390B40E22030340787
:101FC00014F02FEF3FE1C90150EE2030350714F433
:101FD00080E090EE90939502809394028091360277
:101FE00090913702019719F063E772E002C06CE547
:101FF00072E08AE892E00E942C0688EA482E82E08D
:10200000582EEE24FF243801882477FC8094982CE5
:102010008701085D1D4FE1E0F0E0EC0FFD1FEE0DC4
:10202000FF1D60817181882777FD8095982FD201EF
:102030002D913D912D01442737FD4095542F0E944D
:10204000A915B7E09595879577956795BA95D1F7D6
:10205000E7E0F0E0EC0FFD1FEE0DFF1D2081318168
:10206000442737FD4095542F0E94A9159B01AC01D0
:10207000A9E05595479537952795AA95D1F7C401BD
:10208000B3010E94A915F9E0959587957795679515
:10209000FA95D1F7F8017183608322E030E0E20E17
:1020A000F31E36E0E316F10409F0B2CF2091AE0240
:1020B00012160CF05CC08091AF029091B002A0911A
:1020C000B102B091B202B601A501481B590B6A0BCF
:1020D0007B0BDB01CA0181549D40A340B0405CF002
:1020E00021502093AE02A092AF02B092B002C092F3
:1020F000B102D092B2028091AE02992787FD9095ED
:102100004091280250912902BC016170707080FFDB
:1021100003C026E930E002C02AE63FEF240F351F56
:10212000309329022093280240912A0250912B02D9
:102130006115710519F026E930E002C02AE63FEF8B
:10214000240F351F30932B0220932A0220912C025A
:1021500030912D02672B19F48AE69FEF02C086E9C1
:1021600090E0820F931F90932D0280932C028601A2
:10217000750199248824D601C501E7962CAD3DADA3
:102180004EAD5FADE797821B930BA40BB50B8C593B
:10219000914AA740B0400CF4FACC8091DB01209129
:1021A000DC014091DD0190E0805890409A83898362
:1021B00030E0205830403C832B8350E04058504062
:1021C0005E834D83E6E4F1E020E080819181892BFC
:1021D00061F080917C00887F282B20937C00809187
:1021E0007A00806480937A00CCCC2F5F32962830BE
:1021F00061F7C7CCEF96ACAEBDAECEAEDFAEEF971B
:1022000041E0E3964FAFE39704CD1F931FEF1F5FAD
:10221000E12FFF27E7FDF095EE0FFF1FEE56FE4F73
:1022200080819181892B69F41F5FE12FFF27E7FDF2
:10223000F095EE0FFF1FEE56FE4F80819181892BA6
:1022400059F0E12FFF27E7FDF095EE55FE4F808115
:1022500061E00E94C314DBCF1F9108951F920F927B
:102260000FB60F9211242F933F934F935F936F9369
:102270007F938F939F93AF93BF93CF93DF93EF930E
:10228000FF93E091B402FF27E7FDF095EE55FE4F76
:10229000808160E00E940215E091B302E7FD4BC02F
:1022A000C0918400D0918500FF27E7FDF095EE55A1
:1022B000FE4F808161E00E9402158091B302E82FF9
:1022C000FF27E7FDF095EE0FFF1FEE56FE4F019042
:1022D000F081E02D208131818093B402482F4F5F3F
:1022E0004093B302E42FFF27E7FDF095EE0FFF1FA9
:1022F000EE56FE4F80819181892B91F4E42FEF5FA0
:10230000E093B302FF27E7FDF095EE0FFF1FEE56B7
:10231000FE4F80819181892B19F48FEF8093B30256
:1023200022503040220F331F2C0F3D1F3093890065
:102330002093880009C01092B30210925B02809132
:102340006F008D7F80936F00FF91EF91DF91CF91B0
:10235000BF91AF919F918F917F916F915F914F91BD
:102360003F912F910F900FBE0F901F901895EF92F5
:10237000FF920F931F937A018B01882341F083E131
:1023800061E00E94021582E161E00E940215109254
:10239000B90060E074E284EF90E0A80197010E9428
:1023A000C8152051304040405040569547953795CC
:1023B00027952093B8001F910F91FF90EF900895FB
:1023C00081E040E85AE166E070E00E94B7110E94A7
:1023D000DF02882349F485E080933D0288EC90E099
:1023E00090934402809343020895EF92FF920F93DB
:1023F0001F93CF93DF93E82EF62E60E00E94C31464
:102400008F2D61E00E94C314C0E0D0E0CE01817046
:10241000082F8F2D602F0E9402158E2D0E945615B9
:10242000112707FD10958017910711F000E005C0F6
:102430002196C430D10551F701E08F2D60E00E9454
:10244000C314802FCDB7DEB7E6E00C942D16AFE0B5
:10245000B0E0EDE2F2E10C941216259A8091EA02C6
:102460009091EB02009711F09C0102C02EEE32E039
:10247000CE010196821B930B803891054CF484E1C8
:1024800080933D028EE190E090934402809343025A
:1024900084B7877F84BF88E10FB6F894809360008B
:1024A000109260000FBE1092800002E0F02EF092B9
:1024B000810081E080936F0085B5887F85BD24EF22
:1024C00031E030935D0220935C021092630210921F
:1024D0006202309369022093680230935F02209376
:1024E0005E02109265021092640230936B02209398
:1024F0006A02309361022093600210926702109288
:10250000660230936D0220936C0210926E0210925C
:102510006F02109270021092710248E040937202B2
:102520008AEF90E0909374028093730230937A0262
:10253000209379029093800280937F029093760299
:102540008093750230937C0220937B0290938202E9
:1025500080938102909378028093770230937E0279
:1025600020937D02909384028093830280E090E820
:10257000A0E0B0E08093850290938602A09387024A
:10258000B09388024093890285E064E00E94F511CF
:102590008E010D5F1F4F882391F01B82C8010E949E
:1025A000A30B82E380933E028EE190E0909346027B
:1025B000809345020E94EF000E945701FBCFC801A3
:1025C00062E00E947B0B87FF27C080912E029091D2
:1025D0002F029D838C83809109018E8380910A0153
:1025E0008F8380910B018887809130029091310216
:1025F0009A87898780913202909133029C878B87DA
:1026000080913402909135029E878D87FB82C801AC
:102610000E94A30B89E001C083E08093AE028C810D
:102620009D8190932F0280932E02EE81E093090109
:10263000AF81A0930A01988590930B01FF27E7FDD6
:10264000F095E050FF4F80818093DB01BB27A7FD11
:10265000B095A050BF4F8C918093DC01E92FFF27EC
:10266000E7FDF095E050FF4F80818093DD012985E3
:102670003A8530933102209330028B859C8590936C
:102680003302809332028D859E859093350280932C
:10269000340221303105D1F02230310561F1232B94
:1026A000F1F580E090E048EE53E020ED37E0FC01EA
:1026B000E45FFD4F51834083FC01EC5EFD4F3183AD
:1026C000208302968830910591F729C080E090E040
:1026D0004CE454E02CE637E0FC01E45FFD4F51830D
:1026E0004083FC01EC5EFD4F3183208302968830ED
:1026F000910591F714C080E090E042EE54E026EDA1
:1027000036E0FC01E45FFD4F51834083FC01EC5E49
:10271000FD4F3183208302968830910591F70E9406
:10272000B0030E940E048091F101882319F440E067
:1027300050E002C042E050E020E030E08091F20141
:10274000882311F021E030E0CA01822B932B8130E5
:10275000910579F0823091051CF4892B39F017C06E
:102760008230910569F0039791F40DC083E090E009
:1027700002C082E090E090932F0280932E0207C067
:1027800081E090E0F8CF10922F0210922E0240913B
:102790002E0250912F0243305105C1F48091EE0179
:1027A00022E131E0882339F03093890120938801B8
:1027B0001092DA010BC010927701109276013093DB
:1027C000500220934F0281E08093DA01809132021F
:1027D0009091330218161906F4F4109283011092A6
:1027E000820110928501109284011092870110924B
:1027F00086018CEF91E090939B0180939A018AE08F
:102800008093A6018EEF91E090939D0180939C01AF
:1028100089E08093A701842F8F5F80933B0288E536
:1028200092E09093400280933F020E946D030E94C9
:10283000C1050E9405110E94E0110E94E308109258
:1028400029021092280210922B0210922A02109252
:102850002D0210922C020E94580A2F96E5E00C944B
:102860002E16CF93DF930E9488140E942712C0E097
:10287000D0E00E94130D2097E1F30E940000F9CFF1
:102880001F920F920FB60F9211242F933F938F93A5
:102890009F93AF93BF938091D4029091D502A09162
:1028A000D602B091D7023091D8020196A11DB11D78
:1028B000232F2D5F2D3720F02D570196A11DB11D1F
:1028C0002093D8028093D4029093D502A093D6028D
:1028D000B093D7028091D0029091D102A091D20200
:1028E000B091D3020196A11DB11D8093D0029093A7
:1028F000D102A093D202B093D302BF91AF919F9126
:102900008F913F912F910F900FBE0F901F901895B0
:10291000789484B5826084BD84B5816084BD85B5BA
:10292000826085BD85B5816085BDEEE6F0E0808181
:1029300081608083E1E8F0E01082808182608083A2
:10294000808181608083E0E8F0E080818160808325
:10295000E1EBF0E0808184608083E0EBF0E0808157
:1029600081608083EAE7F0E08081846080838081F9
:1029700082608083808181608083808180688083A1
:102980001092C1000895CF93DF93482F50E0CA0101
:1029900086569F4FFC0134914A575F4FFA0184914C
:1029A000882369F190E0880F991FFC01E859FF4FD7
:1029B000A591B491FC01EE58FF4FC591D4916623C7
:1029C00051F42FB7F8948C91932F909589238C9381
:1029D000888189230BC0623061F42FB7F8948C9101
:1029E000932F909589238C938881832B88832FBF85
:1029F00006C09FB7F8948C91832B8C939FBFDF9177
:102A0000CF910895482F50E0CA0182559F4FFC0195
:102A10002491CA0186569F4FFC0194914A575F4FFB
:102A2000FA013491332309F440C0222351F12330B9
:102A300071F0243028F42130A1F0223011F514C0B7
:102A40002630B1F02730C1F02430D9F404C0809191
:102A500080008F7703C0809180008F7D80938000FD
:102A600010C084B58F7702C084B58F7D84BD09C046
:102A70008091B0008F7703C08091B0008F7D8093EC
:102A8000B000E32FF0E0EE0FFF1FEE58FF4FA591CF
:102A9000B4912FB7F894662321F48C9190958923F3
:102AA00002C08C91892B8C932FBF0895682F70E002
:102AB000CB0182559F4FFC012491CB0186569F4F3D
:102AC000FC0144916A577F4FFB019491992319F4BB
:102AD00020E030E03CC0222351F1233071F024305B
:102AE00028F42130A1F0223011F514C02630B1F0C5
:102AF0002730C1F02430D9F404C0809180008F7752
:102B000003C0809180008F7D8093800010C084B5C9
:102B10008F7702C084B58F7D84BD09C08091B000DD
:102B20008F7703C08091B0008F7D8093B000892F94
:102B300090E0880F991F84589F4FFC01A591B49194
:102B40008C9120E030E0842311F021E030E0C901D5
:102B50000895629FD001739FF001829FE00DF11DE7
:102B6000649FE00DF11D929FF00D839FF00D749F07
:102B7000F00D659FF00D9927729FB00DE11DF91FB3
:102B8000639FB00DE11DF91FBD01CF011124089510
:102B9000A1E21A2EAA1BBB1BFD010DC0AA1FBB1F61
:102BA000EE1FFF1FA217B307E407F50720F0A21BD3
:102BB000B30BE40BF50B661F771F881F991F1A9440
:102BC00069F760957095809590959B01AC01BD016A
:102BD000CF01089597FB092E05260ED057FD04D08E
:102BE000D7DF0AD0001C38F45095409530952195D8
:102BF0003F4F4F4F5F4F0895F6F790958095709532
:102C000061957F4F8F4F9F4F08952F923F924F9224
:102C10005F926F927F928F929F92AF92BF92CF926C
:102C2000DF92EF92FF920F931F93CF93DF93CDB775
:102C3000DEB7CA1BDB0B0FB6F894DEBF0FBECDBFED
:102C400009942A88398848885F846E847D848C84BE
:102C50009B84AA84B984C884DF80EE80FD800C81C7
:102C60001B81AA81B981CE0FD11D0FB6F894DEBFAA
:0C2C70000FBECDBFED010895F894FFCF1A
:102C7C000020406080A0C0E0FF080808DC05DC05EF
:102C8C00DC05DC05E803DC05E803DC05DC05DC051C
:102C9C00DC05DC05DC0510010E0118010C0114012A
:102CAC00120116011A011C011C011C011C011C0142
:102CBC001C011C011C010000DB01DC01DD0100001A
:102CCC0000000000000000000000F1010000000006
:102CDC000000F201000000000000000000000000F5
:102CEC000000F301EE01EF01F00100000000000014
:102CFC0000000C010E011001140100000000000086
:102D0C000000F401F601F801FA01000000000000D7
:102D1C00000004050607FFFFFFFF78899887788974
:102D2C009887FF7F007F007F00A0860100801A0635
:102D3C0000040404040302030201FCFCFC01010175
:0A2D4C000100020202040206020068
:00000001FF
