:100000000C9484010C94AC010C94AC010C94AC01E4
:100010000C94AC010C94AC010C94AC010C94AC01AC
:100020000C94AC010C94AC010C9437190C94BB19D2
:100030000C94AC010C94AC010C94AC010C94AC018C
:100040000C94AC010C94A6120C94AC010C94AC0171
:100050000C94AE010C94AC010C94AC010C94F91A04
:100060000C94AC010C947E150C94CC150C94AC0142
:100070000C94AC010C94CA030C94AC010C94AC012C
:100080000C94AC010C94AC010C94AC010C94AC013C
:100090000C94AC010C94AC010C94AC010C94AC012C
:1000A0000C94AC010C94AC010C94AC01341C371CC6
:1000B0002A1C2E1C581C581C581C3B1C3F1C431C43
:1000C000491C4D1C581C531C040309042203410005
:1000D00072006400750069006E006F0020004C0023
:1000E00065006F006E006100720064006F0018030D
:1000F000410072006400750069006E006F0020000E
:100100004C004C004300120100020000004041235B
:1001100036800001010200011201000202000040CD
:100120004123368000010102000100C18081C1002D
:10013000000000240027002A002D003000000000ED
:1001400000250028002B002E0031000000000023B5
:1001500000260029002C002F0004040404040304DA
:100160000502020202040302020202060606060655
:100170000604040202020404080201104080401038
:1001800020408040800802040180402010020110BD
:1001900080102040400000000200080E0000030410
:1001A00001000B0000000000000000000000000043
:1001B000000000070605040100080A0B0C0D0908E1
:1001C0000B0002020201000904000001020200000B
:1001D0000524001001052401010104240206052460
:1001E0000600010705810310004009040100020A0E
:1001F00000000007050202400000070583024000DE
:100200000005010902A1010901A1008501050919E3
:1002100001290315002501950375018102950175DA
:1002200005810305010930093109381581257F75DC
:100230000895038106C0C005010906A101850205D4
:100240000719E029E7150025017501950881029538
:1002500001750881039506750815002565050719C0
:100260000029658100C009040200010300000009A3
:1002700021010100012265000705840340000100FF
:10028000000000000000002A2B28000000000000F1
:100290000000000000000000000000000000002C32
:1002A0009EB4A0A1A2A434A6A7A5AE362D373827A8
:1002B0001E1F20212223242526B333B62EB7B89F34
:1002C0008485868788898A8B8C8D8E8F9091929376
:1002D0009495969798999A9B9C9D2F3130A3AD3514
:1002E0000405060708090A0B0C0D0E0F1011121356
:1002F0001415161718191A1B1C1DAFB1B0B5000044
:1003000038179518061D081E11241FBECFEFDAE01E
:10031000DEBFCDBF11E0A0E0B1E0EAE9FFE302C03B
:1003200005900D92A03CB107D9F714E0A0ECB1E024
:1003300001C01D92A731B107E1F713E0C8E0D3E097
:1003400004C02297FE010E949F1FC030D107C9F749
:100350000E948E170C94CB1F0C9400001F920F92DA
:100360000FB60F9211248F939F9380914D0290911D
:100370004E02019690934E0280934D0280914D0261
:1003800090914E02892B29F480914F028F5F8093C8
:100390004F029F918F910F900FBE0F901F90189555
:1003A000609184007091850020914D0230914E0241
:1003B000E0914F02809184009091850086279727D5
:1003C00097FDEECF80914D0290914E02281739078C
:1003D00039F780914F02E81719F740E050E0FFE04D
:1003E000220F331F441F551FFA95D1F78E2F90E02F
:1003F000A0E0B0E0BB278695B795AA279927882764
:10040000282B392B4A2B5B2B76956795CB01A0E0E7
:10041000B0E0282B392B4A2B5B2BB901CA01089578
:10042000AF92BF92CF92DF92EF92FF920F931F9302
:1004300028EE33E040E050E00E940A1F5B016C01AF
:100440000E94D0017B018C010E94D0016E197F09AE
:10045000800B910B6A157B058C059D05A8F31F91F8
:100460000F91FF90EF90DF90CF90BF90AF900895E5
:1004700091E0982721F0913021F45D9A08955D98DC
:1004800008958BB190E289278BB90895EF92FF927E
:100490000F931F937B018C018091F2029091F302E4
:1004A000A091F402B091F5028E199F09A00BB10B37
:1004B000181619061A061B060CF450C08091F60295
:1004C000882321F5E091F702EF5FE370E093F702F4
:1004D000FF27E7FDF095E05BFD4F8081992787FDC1
:1004E0009095880F991F8093F60280E492E4AFE024
:1004F000B0E0E80EF91E0A1F1B1FE092F202F09214
:10050000F3020093F4021093F50228C08150809307
:10051000F60281700E943802E091F702FF27E7FDA2
:10052000F095EE0FFF1FEC5AFD4F80819181AA27B5
:1005300097FDA095BA2F2AE0880F991FAA1FBB1F0D
:100540002A95D1F78E0D9F1DA01FB11F8093F20237
:100550009093F302A093F402B093F5021F910F91D0
:10056000FF90EF9008952FEF30E011C02115310575
:1005700061F41092BC0080915C0290915D02019642
:1005800090935D0280935C020895215030408091E9
:10059000BC0087FFEBCF0895FF920F931F93F82EB7
:1005A0000CEB10E084EAF80180830E94B302F09221
:1005B000BB0084E8F80180830E94B3021F910F9171
:1005C000FF9008958093BB0084E88093BC000E9454
:1005D000B30208951F93182F882311F484E801C0F3
:1005E00084EC8093BC000E94B3029091BB00112365
:1005F00019F484E98093BC00892F1F9108950F930B
:100600001F93162F042F880F0E94CC02812F0E9467
:10061000E202802F0E94E20284E98093BC001F91D5
:100620000F9108950F931F93182F062F880F0E9484
:10063000CC02802F0E94E202110F812F81600E9464
:10064000CC0281E00E94EA021F910F9108951F934E
:10065000CF93DF93EB01142F880F81600E94CC02AF
:1006600008C0115080E011160CF481E00E94EA02EB
:1006700089931123B1F7DF91CF911F910895DF92F4
:10068000EF92FF920F931F93E82EF62E8A01D22E3F
:10069000880F0E94CC028F2D0E94E2028E2DB8019D
:1006A0004D2D0E9427031F910F91FF90EF90DF9037
:1006B000089588E66BE640E80E94FF0262E370E07E
:1006C00080E090E00E94100288E66BE643E00E9422
:1006D000FF0288E66AE140E00E94FF0288E66BE1E3
:1006E00048E10E94FF0288E665E70E94120390E05D
:1006F0008E77883609F491E0892F0895A6E0B0E05E
:10070000E4E8F3E00C94701F8C017B016A0188E639
:1007100063E4AE014F5F5F4F26E00E943F03998183
:1007200080E02A8130E0822B932BF8019183808333
:100730009B8180E02C8130E0822B932BF701918309
:1007400080839D8180E02E8130E0822B932BF60107
:10075000918380832696E8E00C948C1F282F17C085
:10076000E22FF0E0EE0FFF1FE25AFD4F80819181F2
:10077000892B61F080917C00887F822B80937C00A4
:1007800080917A00806480937A0008952F5F2830EA
:1007900038F308951F920F920FB60F9211242F93E2
:1007A0003F934F935F936F937F938F939F93AF93F9
:1007B000BF93EF93FF9380917C008770E82FF0E068
:1007C000EE0FFF1FE25AFD4F0190F081E02D909156
:1007D000790090838F5F0E94AE03FF91EF91BF91EC
:1007E000AF919F918F917F916F915F914F913F91C9
:1007F0002F910F900FBE0F901F901895EEE5F2E02D
:1008000040E050E061E070E080819181892B79F0D7
:1008100087B1DB01042E02C0AA0FBB1F0A94E2F7C6
:100820009D012095822387B988B1282328B94F5F7D
:100830005F4F32964630510539F780E680937C0051
:1008400010927B008FE880937A0080E00E94AE03D4
:100850000895CF93DF93EB01DA01FC0140E050E013
:1008600061E070E080819181892B79F03881CB0142
:10087000042E02C0880F991F0A94E2F7282F2095B2
:10088000232328832C91822B8C934F5F5F4F3296CA
:100890004830510539F7DF91CF9108958AE692E00B
:1008A00064E270E045E250E00E9429048AE792E0A9
:1008B00067E270E048E250E00E9429048AE892E092
:1008C0006AE270E04BE250E00E942904089560E083
:1008D00070E040E050E0A1E0B0E0362FFA01E659C8
:1008E000FD4F0190F081E02D309751F023B1CD0103
:1008F000062E02C0880F991F0A94E2F7282320834E
:10090000FA01E658FD4F0190F081E02D309751F04B
:1009100026B1CD01032E02C0880F991F0A94E2F779
:1009200028232083FA01E657FD4F0190F081E02D46
:10093000309749F029B1CD0102C0880F991F3A952F
:10094000E2F7282320836F5F7F4F4E5F5F4F403178
:10095000510519F6089580916800816080936800C0
:10096000EBE1F1E040E050E061E070E080819181F6
:10097000892BA1F020916B00CB01042E02C0880FBF
:10098000991F0A94E2F7282B20936B0034B1282F8B
:100990002095232324B925B1822B85B94F5F5F4F62
:1009A00032964830510511F783E080939B02809185
:1009B0006A00806180936A00EE9A6E98769A089534
:1009C000A6E0B0E0E6EEF4E00C94661F7A8369835B
:1009D0001C012B019E838D839B012A5F3F4F3C832B
:1009E0002B83ED81FE810681178180819181081B17
:1009F000190B3801882477FC8094982CF1018289A6
:100A00009389A489B589860D971DA81DB91D268DCA
:100A1000378D40A151A1AA24BB246501A21AB30AB3
:100A2000C40AD50A8A159B05AC05BD054CF05C01CE
:100A30006D01281739074A075B0714F459016A0149
:100A4000F101A28AB38AC48AD58AED81FE818485A8
:100A50009585AA2797FDA095BA2FA4019301281B7D
:100A6000390B4A0B5B0BCA01B90115870487F201E8
:100A700024853585442737FD4095542F0E940A1F51
:100A80007B018C01A2E015950795F794E794AA9550
:100A9000D1F7F20120813181442737FD4095542F51
:100AA000C401B3010E940A1FF3E0959587957795DD
:100AB0006795FA95D1F7E60EF71E081F191FF20188
:100AC00026813781442737FD4095542FC601B50153
:100AD0000E940A1FE6E09595879577956795EA95B8
:100AE000D1F7E60EF71E081F191FE981FA81028867
:100AF00004C015950795F794E7940A94D2F7ED8111
:100B0000FE81F3A6E2A63296FE83ED8324E030E078
:100B1000220E331E42E050E0440E551E8B819C8114
:100B20004816590609F05DCF2696E2E10C94821F23
:100B3000A6E0B0E0EEE9F5E00C94761FCE01019658
:100B4000BE016D5F7F4FAE014B5F5F4F0E947E0322
:100B50008B819C81909581959F4F9093F301809319
:100B6000F20149815A8166277727641B750B7093C0
:100B7000F5016093F4012D813E813093F7012093BC
:100B8000F60180911502909116028230910519F0BC
:100B90000397B1F409C03093F5012093F401509309
:100BA000F7014093F6010CC088279927821B930B0D
:100BB0009093F5018093F4017093F7016093F6012F
:100BC0002696E2E00C94921F0F931F93CF93DF932E
:100BD000FC011082772767FD709572836183DC01C9
:100BE000EC0140E050E00FEF1FE760E070E80CC060
:100BF00012961C930E9311971A967C936E931997E5
:100C00001F86188A198A1A8A9A014F5F5F4F1296B7
:100C10002496818192812817390754F314A613A6CC
:100C2000DF91CF911F910F910895A0E0B0E0EBE12B
:100C3000F6E00C946E1F7C018C01EB01F70160E083
:100C400070E02BC021813281888199812817390772
:100C50000CF4C90192838183218532858881998131
:100C6000821793070CF4C9019287818729913991E2
:100C7000442737FD4095542FD8011F96AD90BD9065
:100C8000CD90DC905297A20EB31EC41ED51E1F96A7
:100C9000AD92BD92CD92DC9252979B016F5F7F4FD8
:100CA00032960C5F1F4FD70111968D919C91129730
:100CB000281739073CF2CDB7DEB7EAE00C948A1F5B
:100CC000A0E0B0E0E6E6F6E00C94701FEC017C01D9
:100CD000B3E2CB2ED12CC80ED91E00E010E011C01B
:100CE0002BA53CA5442737FD4095542FF701678578
:100CF0007089818992890E944B1FF601219331935B
:100D00006F0198010F5F1F4F84E090E0E80EF91E1D
:100D100089819A81281739071CF3CDB7DEB7E8E03F
:100D20000C948C1FCF93DF93FC01EB0161817281E6
:100D3000A0E040E050E00DC083859485238134819C
:100D4000821B930B8C179D070CF4AF5F4F5F5F4FB7
:100D500032964617570784F320E08A2F992787FD9C
:100D600090958617970709F421E0822FDF91CF91A4
:100D70000895A8E0B0E0EFEBF6E00C94741F8C014E
:100D80008091C0019091C1019A8389838091C401AF
:100D90009091C5019C838B838091C6019091C7017E
:100DA0009E838D838091C2019091C30198878F8328
:100DB000C801BE016F5F7F4F0E941506F80183A531
:100DC00094A5019694A783A78436910551F5C8018F
:100DD00064E170E00E9492068823F9F0C8010E9445
:100DE0006006F80183A194A19093140180931301EC
:100DF00085A196A1909316018093150187A190A5D6
:100E0000909318018093170181A592A590931A01E0
:100E10008093190181E0808304C0C80164E00E94CE
:100E2000E4052896E4E00C94901FA6E0B0E0EBE126
:100E3000F7E00C94741F8C018091F2019091F30102
:100E40009A8389838091F4019091F5019C838B832F
:100E50008091F6019091F7019E838D83C801BE01B8
:100E60006F5F7F4F0E941506F80183A594A5019638
:100E700094A783A78C52914021F5C80162E370E0EA
:100E80000E9492068823C9F0C8010E946006F801FA
:100E900083A194A19093ED018093EC0185A196A18B
:100EA0009093EF018093EE0187A190A59093F101BB
:100EB0008093F00181E0808304C0C80163E00E9458
:100EC000E4052696E4E00C94901F409103015091B4
:100ED000040180910301909104014817590721F002
:100EE0004091C0015091C1015093C1014093C00194
:100EF0002091050130910601809105019091060134
:100F00002817390721F02091C4013091C501309391
:100F1000C5012093C40120910701309108018091FF
:100F20000701909108012817390721F02091C60187
:100F30003091C7013093C7012093C6012091090168
:100F400030910A018091090190910A01281739070F
:100F500021F02091C2013091C3013093C30120934D
:100F6000C20120910B0130910C0180910B019091F5
:100F70000C012817390721F02091C8013091C901CF
:100F80003093C9012093C80120910D0130910E01C9
:100F900080910D0190910E012817390721F02091C1
:100FA000CA013091CB013093CB012093CA0120912B
:100FB0000F013091100180910F01909110012817BD
:100FC000390721F02091CC013091CD013093CD0132
:100FD0002093CC01209111013091120180911101D7
:100FE000909112012817390721F02091CE013091FC
:100FF000CF013093CF012093CE018091490290918F
:101000004A02029721F45093C3014093C20108950C
:10101000FC018091490290914A028330910579F157
:101020008430910524F4029709F0B4C007C08430DD
:10103000910509F462C0059709F0ACC080819181E7
:101040002091C0013091C101820F931F9093DF0165
:101050008093DE01808191812091C2013091C30192
:10106000820F931F9093E5018093E4018281938125
:101070002091C4013091C501820F931F31C040817E
:1010800051818091C0019091C101480F591F628127
:1010900073818091C4019091C501680F791FCB01C4
:1010A000840F951F9C01B3E035952795BA95E1F71C
:1010B00095958795280F391F275731403093DF01C9
:1010C0002093DE01461B570BCA01B3E09595879527
:1010D000BA95E1F755954795840F951F84529A4F1D
:1010E0009093E1018093E001848195812091C60174
:1010F0003091C701820F931F49C080819181209157
:10110000C0013091C101820F931F9093DF01809342
:10111000DE01808191812091C2013091C301820F53
:10112000931F9093E5018093E40162817381809124
:10113000C4019091C501680F791F44815581809148
:10114000C6019091C701480F591FCA01860F971F0A
:101150009C01F3E035952795FA95E1F795958795EC
:10116000280F391F275731403093E1012093E001C8
:10117000461B570BCA0133E0959587953A95E1F7E1
:1011800055954795840F951F84529A4F9093E3018C
:101190008093E2018091CC019091CD019093E70181
:1011A0008093E6018091CE019091CF019093E90167
:1011B0008093E8018091CA019091CB019093EB015B
:1011C0008093EA010895A8E0B0E0E9EEF8E00C941D
:1011D000741F80911102909112020397A9F5FE01EC
:1011E000319688E0DF011D928A95E9F7CF010E94D0
:1011F0000808A8E8B1E00EEF11E046E052E06D917A
:101200007C911197F80120813181FB0180819181CE
:10121000281739070CF4C901F80191838083FA017A
:1012200020813181FB0180819181821793070CF429
:10123000C901FA0181939193AF0112960E5F1F4F7E
:10124000F1E0A039BF07D9F688EF91E00E940808C5
:1012500080E090E0FC01E857FE4FA081B1814D9104
:101260005C911197FC01E250FE4F0190F081E02D5E
:101270004E175F0754F0FC01EA5FFD4F208131817A
:10128000FA01241735070CF4F901ED93FC9302964B
:1012900088309105F9F62896E4E00C94901F81E0DF
:1012A00080939C022FB7F8948091DE019091DF012A
:1012B0009093D1018093D0018091E0019091E10160
:1012C0009093D3018093D2018091E2019091E30148
:1012D0009093D5018093D4018091E4019091E50130
:1012E0009093D7018093D6018091E6019091E70118
:1012F0009093D9018093D8018091E8019091E90100
:101300009093DB018093DA018091EA019091EB01E7
:101310009093DD018093DC01EFE6F0E08081826054
:101320008083B19A80918400909185000496909377
:101330008900809388002FBF0895FC0181E081839C
:10134000808385E082831682158210861782089535
:101350009C0144E0813B940714F490E00DC084515B
:1013600095408159914010F491E006C028503740D3
:1013700014F49FEF06C092E0662319F082E0891B07
:10138000982F892F0895CF93DF93EC018A818B8367
:101390008091C0019091C1016D810E94A80987FDD3
:1013A000888188838091C4019091C5016E810E94DB
:1013B000A80987FD898189838F81882351F48881D9
:1013C000882329F0823029F481E08D83188281E01E
:1013D0008F838885882361F48981882319F082307E
:1013E00039F404C081E08E8382E0898381E08887BC
:1013F00038813F5F898123E08202C0011124380FC8
:101400003A839B8180E0391729F081E09295907FA3
:10141000932B9C83DF91CF910895282F30E03F6F6D
:10142000220F331FEFB7F8948091840090918500CC
:10143000AC01405C5F4FBC016D5D7A4F80918400D0
:1014400090918500DA01A81BB90B1A161B06B4F39C
:1014500020FF02C03F9801C03F9A4617570729F066
:101460003695279545575F4FE9CFEFBF0895EFB702
:10147000F894379B49C016C02091840030918500B4
:101480002058314C04C08FEF9FEF379B0BC08091E9
:10149000840090918500B901681B790B1616170618
:1014A00014F4F1CFAC0141505040CA010196181616
:1014B000190614F34F5F5F4F19F420E030E826C09F
:1014C0008091840090918500AC0140565F4F20E0F0
:1014D00030E0BC0163597B4F80918400909185007E
:1014E000DA01A81BB90B1A161B06B4F386B13695A0
:1014F000279590E080789070282B392B4617570756
:1015000029F045575F4FE8CF20E030E4EFBFC90135
:101510000895EF92FF920F931F93CF93DF93E82EDE
:10152000192F062FF62E84E20E940D0A802F0E94AA
:101530000D0A2E2D312FC901EC0104C08991F80E3E
:101540000E940D0A9E012E192017C4F38F2D81953C
:101550000E940D0ACDB7DEB7E6E00C948E1F8F9285
:101560009F92AF92BF92CF92DF92FF920F931F9301
:10157000CF93DF934C015A01C0E0D0E0C62EDD24AA
:10158000C7FCD09402C0812F182FC5010E94370AD2
:101590009C018070907C892B69F5822FC130D10528
:1015A00059F0C230D105A1F0209779F7243259F7CC
:1015B000812FC1E0D0E0E8CF90E0C816D90614F43E
:1015C000812F15C0822FF22EC2E0D0E000E0DCCFE8
:1015D000F20E812F8150112331F0F401E00FF11D43
:1015E00020830F5FD1CFFF2011F481E004C0C0E061
:1015F000D0E0CACF80E0DF91CF911F910F91FF9093
:10160000DF90CF90BF90AF909F908F900895CF9232
:10161000DF92EF92FF921F93E0914301F09144011A
:10162000A081B18114962D913C911597CF01F901BC
:101630000995892B09F467C0A0914301B091440139
:10164000ED91FC9111970680F781E02DCD01099570
:10165000182F0E94D0019B01AC018091D202909181
:10166000D302A091D402B091D50269017A01C81ABF
:10167000D90AEA0AFB0AD701C60189559B41A04055
:10168000B04014F01092D6022093D2023093D302CD
:101690004093D4025093D5028091D602E82FFF27C1
:1016A000E7FDF095E952FD4F10838F5F8093D602DE
:1016B0008F3054F1A9EDB2E03C9120E011968C916D
:1016C000119790E0822B932BE92FE695E695E6950E
:1016D000EF70E8307CF4FF27E7FDF095EE0FFF1F79
:1016E000EB5BFE4F0190F081E02D977084529E4F8E
:1016F00091838083129682E0A73EB807E9F61092A4
:10170000D60281E002C001C080E01F91FF90EF90FF
:10171000DF90CF900895809143019091440140E083
:1017200052EC61E070E00E94071608951F93CF937A
:10173000DF93EC01142F4BE350E00E94A31F88813C
:10174000811711F08FEF12C090E020E030E0FE0131
:10175000E20FF31F8081980F2F5F3F4F2B3331052E
:10176000B1F7992311F480E001C08EEFDF91CF91A2
:101770001F910895DC0190E020E030E0FD01E20FD0
:10178000F31F8081980F2F5F3F4F2A333105B1F748
:101790009195DA969C93DA97CD014BE350E00E9445
:1017A000B31F0895A3E1B0E0E8EDFBE00C94661FE1
:1017B0001C0181E089838FE092E09B838A830296FB
:1017C0009D838C8302969F838E8302969987888758
:1017D00002969B878A8702969D878C8702969F87B1
:1017E0008E870296998B888BCE0101969B8B8A8B74
:1017F000D0900F02DD0CCC246624EE24FF24870158
:10180000F0E88F2EFAE19F2EF6E0AF2EB12CE2E049
:101810007E2E2C010E94D0019B01AC01DC01CB018A
:101820008E199F09A00BB10B88169906AA06BB0654
:101830000CF051C0171424F5872D992787FD90953A
:10184000FC01E170F07080FD03C088E097E002C009
:101850008CED95E09093E1018093E0018CED95E0B3
:101860009093DF018093DE01EE0FFF1FEE0FFF1F4D
:10187000E259FE4F80809180A280B3807A9429C083
:10188000DD2039F11D1424F46CE271E0A1E003C005
:1018900064ED7EEFAFEF8D2D992787FD9095FC01CC
:1018A000E170F07080FF03C08CED95E003C0CB01C8
:1018B00084529A4F9093DF018093DE01EE0FFF1F59
:1018C000EE0FFF1FE259FE4F80809180A280B3800F
:1018D000DA1A79018A0180919A02882329F01092FC
:1018E0009A020E94650702C0662041F080919C0226
:1018F000882309F08CC00E944F096624772009F0E4
:1019000089CFC1010E94C309882309F483CFF10163
:101910008481843561F0853520F4823509F063C017
:1019200013C0863559F0883509F05DC02AC0F1E052
:10193000FC1514F0CC2470C0CA946EC086E08C15DF
:101940000CF468C0C39468C0AC2DBB27A7FDB0954C
:10195000FD01EE0FFF1FE40DF51D0180F281E02D6A
:101960008081282F332727FD30952F5F3F4FAA58BE
:10197000BE4F8C91992787FD909582179307F4F4B9
:101980001CC0AC2DBB27A7FDB095FD01EE0FFF1FBE
:10199000E40DF51D0180F281E02D8081282F332791
:1019A00027FD309521503040A158BE4F8C9199278A
:1019B00087FD9095281739070CF49C01208320E0BF
:1019C0008C2D992787FD9095FC01EE0FFF1FE40DEC
:1019D000F51D0180F281E02DD080DD0C222319F06D
:1019E0000196782E770C8981823009F013CF8EE032
:1019F00092E060E070E00E94BA0B8EE092E060E05E
:101A000071E00E94BA0B6396E2E10C94821F662497
:101A1000639474CF88E0C82E21E0D2CFADE8B0E067
:101A2000E4E1FDE00C94661F0E94D0011B012C0133
:101A3000DE011196E8E6F1E086E001900D9281501A
:101A4000E1F78E010D5E1F4FC8010E949D099CE1C8
:101A5000E92EF12CEC0EFD1EC70164E00E94E405A6
:101A600089E4C82ED12CCC0EDD1EC60163E00E9495
:101A7000E4052092CE023092CF024092D0025092E2
:101A8000D102CA57DF4F288239824A825B82C65808
:101A9000D040CE57DF4F288239824A825B82C258BB
:101AA000D04042013101C258DF4F288239824A8238
:101AB0005B82CE57D040EB962CAE3DAE4EAE5FAEC5
:101AC000EB97EE961FAEEE97ED961FAEED9721E0E9
:101AD000EC962FAFEC97C657DF4FE882CA58D0403C
:101AE000C557DF4FF882CB58D040C457DF4F08832B
:101AF000CC58D040C357DF4F1883CD58D0400E94F8
:101B0000D0015B016C010E9446020E94070B8823F2
:101B100019F031E030939A0280919A02882399F467
:101B2000D601C501CA57DF4F488159816A817B813F
:101B3000C658D040841B950BA60BB70B8153954715
:101B4000A040B0405CF110929A020E9465078C8D13
:101B5000882309F05EC4C657DF4F8881CA58D04039
:101B6000C557DF4F9881CB58D0400E94B9062A96BE
:101B70008FAD2A97882311F492E001C090E020E015
:101B80008C8D882309F421E0920F9093510268EC28
:101B900070E070935702609356023BC4EE967FAD9F
:101BA000EE97772359F080919C02882339F40E94A4
:101BB000E3080E944F09EE961FAEEE97D601C501CD
:101BC000CE57DF4F288139814A815B81C258D0408E
:101BD000821B930BA40BB50B81519742A040B040E0
:101BE00054F10E9498052A968FAD2A978823D9F43C
:101BF000CE01875B9F4F0E9415072A968FAD2A97CB
:101C0000882311F492E001C090E020E08C8D8823BD
:101C100009F421E0920F9093510248EC50E0509368
:101C2000570240935602CE57DF4FA882B982CA822C
:101C3000DB82C258D040EC965FADEC97552309F497
:101C400056C0C457DF4F8881CC58D040C357DF4FB0
:101C50009881CD58D0400E94C309882309F447C019
:101C6000ED966FADED97E62FFF27E7FDF095E15A72
:101C7000FE4F9F898081981721F0ED961FAEED975A
:101C800007C0ED967FADED977F5FED967FAFED9747
:101C9000ED968FADED97E82FFF27E7FDF095E15A20
:101CA000FE4F80818F3F81F4CE0143960E94D20B7C
:101CB0002EE088E190E00FB6F894A895809360003C
:101CC0000FBE20936000FFCFD601C5018219930992
:101CD000A409B509815C914EA44EB04024F0EC9665
:101CE0001FAEEC9704C0F1E0EC96FFAFEC978C8D43
:101CF000882309F404CF2A968FAD2A97882309F404
:101D0000FECED601C50186199709A809B9098151E6
:101D10009742A040B0400CF416C380914B029091C2
:101D20004C028130910559F48091C8019091C9010C
:101D3000845C95400CF09BC080E090E00DC0892B46
:101D400009F095C08091C8019091C901855F9540C7
:101D50000CF48DC081E090E090934C0280934B0294
:101D6000892B11F084E001C080E08093510268EC7F
:101D700070E070935702609356021092AF02109277
:101D8000B0021092B1021092B2021092BB021092F5
:101D9000BC021092BD021092BE021092B3021092C9
:101DA000B4021092B5021092B6021092BF021092C5
:101DB000C0021092C1021092C2021092B702109299
:101DC000B8021092B9021092BA021092C302109295
:101DD000C4021092C5021092C60280911D02909119
:101DE0001E02029709F043C0D601C501EB962CAD47
:101DF0003DAD4EAD5FADEB97821B930BA40BB50BC6
:101E00008152914AA740B0401CF0E7961FAEE79779
:101E1000E7964FADE7974F5FE7964FAFE7974330B1
:101E200004F18091C0019091C101909314018093BD
:101E300013018091C4019091C50190931601809384
:101E400015018091C6019091C7019093180180936C
:101E500017018091C2019091C30190931A01809360
:101E60001901EB96ACAEBDAECEAEDFAEEB97E09116
:101E7000C201F091C3018091C0019091C101E80FAE
:101E8000F91F8091190190911A01E81BF90B8091BB
:101E9000130190911401E81BF90B4091C40150917A
:101EA000C5018091150190911601481B590BA09115
:101EB000C601B091C7018091170190911801A81B2C
:101EC000B90B809117028150282F332727FD3095B9
:101ED000CF019595879597FF03C0909581959F4F6A
:101EE000022E02C0880F991F0A94E2F761E081393F
:101EF000960714F080E991E060E971E0681B790BC6
:101F000078876F83CA0157FF04C088279927841BED
:101F1000950B022E02C0880F991F0A94E2F771E018
:101F20008139970714F080E991E060E971E0681B5E
:101F3000790B7A876987CD01B7FF04C08827992775
:101F40008A1B9B0BBC0102C0660F771F2A95E2F724
:101F500081E06139780714F060E971E010E9612EE1
:101F600011E0712E661A770A7C866B862091C80173
:101F70003091C90195E02D3D39072CF067E02D36F1
:101F800036075CF007C08CED95E0821B930B8159FE
:101F900091401CF000E911E00CC085E02D3D3807B0
:101FA00024F089010C5D154004C00CED15E0021B06
:101FB000130B80904B0290904C0291E08916910493
:101FC00059F08114910409F054C080911B02909142
:101FD0001C02029709F04DC08091190290911A02DB
:101FE00001979F01082E02C0220F331F0A94E2F7C7
:101FF00001963E872D87082E02C0440F551F0A9474
:10200000E2F7588B4F87AD0102C0440F551F8A95E8
:10201000E2F75A8B498B89819A8197FD05C0882701
:102020009927821B930B01C0C90190939E02809354
:102030009D028B819C812F85388997FD05C088275B
:102040009927821B930B01C0C9019093A002809332
:102050009F028D819E8197FD03C0509541955F4FF2
:102060005093A2024093A102E1E08E16910471F018
:1020700055C010929E0210929D021092A0021092E2
:102080009F021092A2021092A10248C06F8178852F
:10209000882777FD8095982F24EF3FEB40E050E0B4
:1020A0000E940A1FF9E09595879577956795FA95AF
:1020B000D1F76093BB027093BC028093BD029093F2
:1020C000BE0269857A85882777FD8095982F0E94C2
:1020D0000A1FE9E09595879577956795EA95D1F779
:1020E0006093BF027093C0028093C1029093C202BA
:1020F000B301882777FD8095982F0E940A1F39E049
:1021000095958795779567953A95D1F76093C30232
:102110007093C4028093C5029093C6022091F2018D
:102120003091F3018091EC019091ED01281B390B66
:10213000F0E220303F0714F02FEF3FE1C90120EE1D
:102140008030920714F480E090EE9093A402809384
:10215000A3022091F4013091F5018091EE0190915C
:10216000EF01281B390B40E22030340714F02FEF29
:102170003FE1C90150EE2030350714F480E090EEC5
:102180009093A6028093A5022091F6013091F70169
:102190008091F0019091F101281B390B60E2203011
:1021A000360714F02FEF3FE1C90170EE20303707FA
:1021B00014F480E090EE9093A8028093A7028928FF
:1021C00019F065E372E002C062E272E08DE992E02C
:1021D0000E94E004EE24FF243801882477FC8094D8
:1021E000982C870108501E4FE1E0F0E0EC0FFD1F36
:1021F000EE0DFF1D60817181882777FD8095982FF6
:10220000F701E356FD4F22A533A5442737FD40953E
:10221000542F0E940A1F27E095958795779567951B
:102220002A95D1F7E7E0F0E0EC0FFD1FEE0DFF1D62
:1022300020813181442737FD4095542F0E940A1F89
:102240009B01AC01B9E05595479537952795BA950F
:10225000D1F7C401B3010E940A1FA9E095958795A3
:1022600077956795AA95D1F7F8017183608322E08D
:1022700030E0E20EF31E36E0E316F10409F0B1CFD0
:102280002091CD0212160CF05CC08091CE0290918C
:10229000CF02A091D002B091D102B601A501481B96
:1022A000590B6A0B7B0BDB01CA0181549D40A34093
:1022B000B0405CF021502093CD02A092CE02B092AB
:1022C000CF02C092D002D092D1028091CD02992744
:1022D00087FD90954091F8015091F901BC01617022
:1022E000707080FF03C026E930E002C02AE63FEFAD
:1022F000240F351F3093F9012093F8014091FA0122
:102300005091FB016115710519F026E930E002C01A
:102310002AE63FEF240F351F3093FB012093FA018B
:102320002091FC013091FD01672B19F48AE69FEFA3
:1023300002C086E990E0820F931F9093FD01809385
:10234000FC0135014601D601C501C258DF4F288185
:1023500039814A815B81CE57D040821B930BA40BFD
:10236000B50B8C59914AA740B0400CF4C8CB809172
:102370001F02803839F480910001282F30E0205866
:10238000304004C0282F332727FD3095809120024C
:10239000803839F480910101482F50E04058504076
:1023A00004C0482F552747FD509580912102803861
:1023B00031F48091020190E08058904003C0992749
:1023C00087FD90953A8329835C834B839E838D831D
:1023D000295F3F4F2F30310510F41A8219828B810B
:1023E0009C8107960F9710F41C821B828D819E8121
:1023F00007960F9710F41E821D8280E00E94AE03A4
:10240000C258DF4FA882B982CA82DB82CE57D04041
:1024100076CBCA57DF4FA882B982CA82DB82C65800
:10242000D04041E0EE964FAFEE97BDCBACE5B0E0CB
:10243000ECE1F2E10C94701F1092800081E0809337
:1024400081003F98479848E552E000E06E0108940B
:10245000C11CD11C22E0E22EF12CEC0EFD1EC601A7
:102460006CE50E94AF0A882309F441C0898182305B
:10247000A9F0833018F4813029F406C08330B1F01C
:102480008430E9F010E026C0C70160E870E048E061
:1024900050E00E94A31F10E069E01DC0C70160E882
:1024A00070E048E050E00E94B31F13C0C70160E035
:1024B00070E044E00E94960B10E06CE30CC0C70192
:1024C00060E070E00E94BA0BC70160E071E00E941A
:1024D000BA0B11E061E0898180688983C6010E949E
:1024E000890A01E044EF51E0112309F4B8CF802FAD
:1024F000C45ADF4FE8E00C948C1F1F931FEF1F5F3F
:10250000E12FFF27E7FDF095EE0FFF1FE55DFE4F82
:1025100080819181892B69F41F5FE12FFF27E7FDFF
:10252000F095EE0FFF1FE55DFE4F80819181892BB5
:1025300059F0E12FFF27E7FDF095E55CFE4F808124
:1025400061E00E94E11BDBCF1F9108951F920F9263
:102550000FB60F9211242F933F934F935F936F9376
:102560007F938F939F93AF93BF93CF93DF93EF931B
:10257000FF93E091F102FF27E7FDF095E55CFE4F48
:10258000808160E00E94591CE091F002E7FD4BC0A1
:10259000C0918400D0918500FF27E7FDF095E55CB0
:1025A000FE4F808161E00E94591C8091F002E82F6B
:1025B000FF27E7FDF095EE0FFF1FE55DFE4F019051
:1025C000F081E02D208131818093F102482F4F5F0F
:1025D0004093F002E42FFF27E7FDF095EE0FFF1F79
:1025E000E55DFE4F80819181892B91F4E42FEF5FAF
:1025F000E093F002FF27E7FDF095EE0FFF1FE55D8A
:10260000FE4F80819181892B19F48FEF8093F00226
:1026100022503040220F331F2C0F3D1F3093890072
:102620002093880009C01092F00210929C028091C1
:102630006F008D7F80936F00FF91EF91DF91CF91BD
:10264000BF91AF919F918F917F916F915F914F91CA
:102650003F912F910F900FBE0F901F901895EF9202
:10266000FF920F931F937A018B01882341F083E03F
:1026700061E00E94591C82E061E00E94591C1092A6
:10268000B90060E074E284EF90E0A80197010E9435
:10269000291F20513040404050405695479537956E
:1026A00027952093B8001F910F91FF90EF90089508
:1026B00081E040E85AE166E070E00E942F130E943A
:1026C0005903882349F485E08093520288EC90E016
:1026D00090935902809358020895EF92FF920F93BE
:1026E0001F93CF93DF93E82EF62E60E00E94E11B4C
:1026F0008F2D61E00E94E11BC0E0D0E0CE0181702F
:10270000082F8F2D602F0E94591C8E2D0E948C1C2B
:10271000112707FD10958017910711F000E005C003
:102720002196C830D10551F701E08F2D60E00E945D
:10273000E11B802FCDB7DEB7E6E00C948E1FA0E83A
:10274000B0E0E5EAF3E10C94721F559A809113040E
:1027500090911404009711F09C0102C027E134E02D
:10276000CE010196821B930B803891054CF484E1D5
:10277000809352028EE190E0909359028093580228
:1027800021E030E03093100220930F0280E8809324
:102790001F02809320028093210230931202209323
:1027A00011023093140220931302309316022093E7
:1027B0001502309318022093170283E090E0909363
:1027C0001A028093190230931C0220931B0282E0AC
:1027D00090E090931E0280931D0284EF91E090930D
:1027E00023028093220210922902109228029093D1
:1027F0002F0280932E029093250280932402109240
:102800002B0210922A02909331028093300290930F
:1028100027028093260210922D0210922C02909390
:1028200033028093320228E02093340290933602E0
:102830008093350290933C0280933B029093420236
:1028400080934102909338028093370290933E0226
:1028500080933D02909344028093430290933A0206
:10286000809339029093400280933F0290934602F6
:10287000809345022093470285E066E00E946D1335
:10288000882311F400E001C007E0CE01039660E860
:1028900070E048E050E00E94A31F002361F48B81A8
:1028A000833049F48C819D81AE81BF818E549146E5
:1028B000AC4BB04071F083E08B838EE491E6ACEBDF
:1028C000B0E08C839D83AE83BF83188619861A86F9
:1028D0000860CE010B9660E070E044E00E94960B29
:1028E00087FD0260CE018A5B9F4F60E071E044E0AB
:1028F0000E94960B87FD046083E08093CD02E02E5A
:10290000FF24C701867090708230910531F08430C9
:10291000910579F0892B81F119C08E010A5B1F4F57
:10292000C80160E070E00E94BA0B88858F5F8887DD
:102930000BC08E01055F1F4FC80160E071E00E946F
:10294000BA0B89858F5F8987C80118C084E080939E
:102950000E028EE092E060E070E00E94BA0B8EE022
:1029600092E060E071E00E94BA0B8A858F5F8A87EF
:1029700089E08093CD020AC0CE010B96AEE0B2E0B2
:10298000FC018BE301900D928150E1F7C7018E703D
:102990009070892B41F0CE01039660E870E048E02A
:1029A00050E00E94B31FE0FE0AC082E00E9438029D
:1029B00064E670E080E090E00E94671BF6CF0E9422
:1029C0001612882361F02EE088E190E00FB6F894AB
:1029D000A895809360000FBE20936000FFCF1092F7
:1029E000800082E08093810081E080936F0085B554
:1029F000887F85BD0E948B0B8091110290911202FD
:102A000082309105D1F08330910561F10197F1F5A4
:102A100080E090E048EE53E020ED37E0FC01E2502A
:102A2000FE4F51834083FC01EA5FFD4F31832083D9
:102A300002968830910591F729C080E090E04CE43F
:102A400054E02CE637E0FC01E250FE4F5183408316
:102A5000FC01EA5FFD4F31832083029688309105A7
:102A600091F714C080E090E042EE54E026ED36E0AD
:102A7000FC01E250FE4F51834083FC01EA5FFD4FB1
:102A80003183208302968830910591F70E944E048D
:102A90000E94670420910F02809110022093490246
:102AA00080934A0288ED91E0909334018093330142
:102AB00085E080933F018AED91E090933601809309
:102AC000350186E0809340012093500288E592E032
:102AD00090935502809354020E94FE030E94AB041F
:102AE0000E947D120E9458130E9465070E94E3080D
:102AF000C058DF4FE6E00C948E1F08951F920F928E
:102B00000FB60F9211242F933F934F938F939F9360
:102B1000EF93FF938091C80082FD1DC04091CE00CD
:102B200020913803309139032F5F3F4F2F7330705E
:102B300080913A0390913B032817390771F0E09197
:102B40003803F0913903E850FD4F40833093390347
:102B50002093380302C08091CE00FF91EF919F91A6
:102B60008F914F913F912F910F900FBE0F901F901B
:102B70001895E0918C03F0918D03E05CFF4F8191FB
:102B8000919120813181821B930B8F739070892BDF
:102B900011F00E947D1508951F920F920FB60F92AB
:102BA00011242F933F938F939F93EF93FF93209143
:102BB0007C0330917D0380917E0390917F032817E1
:102BC000390731F48091C9008F7D8093C90014C00A
:102BD000E0917E03F0917F03E45CFC4F20818091C3
:102BE0007E0390917F0301968F73907090937F0383
:102BF00080937E032093CE00FF91EF919F918F9160
:102C00003F912F910F900FBE0F901F901895AF928C
:102C1000BF92DF92EF92FF920F931F93CF93DF93B8
:102C2000EC017A018B01DD24403081EE580780E011
:102C3000680780E0780711F0DD24D39491E0A92E95
:102C4000B12CEC89FD89DD2069F0C50108A002C026
:102C5000880F991F0A94E2F7808360E079E08DE3A2
:102C600090E005C0108260E874E88EE190E0A80171
:102C700097010E94291F21503040404050405695F6
:102C800047953795279580E12030380720F0DD20E3
:102C900011F0DD24D6CFE889F9893083EA89FB89F0
:102CA000208319A2EE89FF89408121E030E0C9012B
:102CB0000C8C02C0880F991F0A94E2F7482B4083BE
:102CC000EE89FF894081C9010D8C02C0880F991FD0
:102CD0000A94E2F7482B4083EE89FF894081C901BD
:102CE0000E8C02C0880F991F0A94E2F7482B40838C
:102CF000EE89FF8980810F8C02C0220F331F0A9456
:102D0000E2F7209528232083DF91CF911F910F9127
:102D1000FF90EF90DF90BF90AF900895DC011C967C
:102D2000ED91FC911D97E05CFF4F219131918081E5
:102D30009181281B390B2F733070C9010895DC0174
:102D40001C96ED91FC911D97E05CFF4F2081318135
:102D5000E054F040DF01AE5BBF4F8D919C91119725
:102D60002817390719F42FEF3FEF07C08D919C9179
:102D7000E80FF91F8081282F30E0C9010895DC0198
:102D80001C96ED91FC911D97E05CFF4F20813181F5
:102D9000E054F040DF01AE5BBF4F8D919C911197E5
:102DA0002817390719F42FEF3FEF10C08D919C9130
:102DB0001197E80FF91F20818D919C911197019631
:102DC0008F73907011969C938E9330E0C901089593
:102DD000DC0191968C919197882339F05496ED916E
:102DE000FC915597808186FFF9CF91961C920895AA
:102DF000CF93DF93EC01EE85FF85E05CFF4F2081F0
:102E00003181E054F0402F5F3F4F2F733070DF016E
:102E1000AE5BBF4F8D919C91119728173907D1F365
:102E2000E05CFF4F80819181E054F040E80FF91F92
:102E30006083EE85FF85E05CFF4F31832083EE8960
:102E4000FF89208181E090E00F8C02C0880F991FDC
:102E50000A94E2F7282B208381E089A3EC89FD897D
:102E600080818064808381E090E0DF91CF9108953C
:102E7000109283031092820388EE93E0A0E0B0E00A
:102E80008093840390938503A0938603B093870374
:102E900084E991E0909381038093800388EF92E02E
:102EA00090938D0380938C038CE393E090938F0336
:102EB00080938E038DEC90E0909391038093900328
:102EC0008CEC90E0909393038093920388EC90E0D5
:102ED000909395038093940389EC90E090939703EB
:102EE000809396038AEC90E09093990380939803E3
:102EF0008EEC90E090939B0380939A0384E0809300
:102F00009C0383E080939D0387E080939E0385E08C
:102F100080939F0381E08093A0030895CF93DF9374
:102F20000E948B1B8AEA93E00E9496180E949F13CE
:102F3000C9EBD5E10E940E0D2097E1F30E94B9156F
:102F4000F9CFA0E0B0E0E7EAF7E10C94701F7C0154
:102F50006B018A01C0E0D0E00FC0D6016D916D0118
:102F6000D701ED91FC910190F081E02DC701099509
:102F7000C80FD91F015010400115110571F7CE017E
:102F8000CDB7DEB7E8E00C948C1FFC0104C0809143
:102F9000F100819361506623D1F7289884E68093ED
:102FA000A3030895282F8091A4038823C1F057FF1D
:102FB0001AC015C028989093A3038091F1008193C3
:102FC000E217F307B9F74115510539F08091F20086
:102FD000882319F48BE68093E800AFBF02C04FEF5F
:102FE0005FEFCA010895AFB7F89427702093E90006
:102FF0008091F200282F30E0241735070CF4A90146
:10300000FB019B01240F311D94E6DACFA1E0B0E073
:10301000ECE0F8E10C94761FBE016F5F7F4F41E05A
:1030200050E00E94D217019719F02FEF3FEF03C035
:103030008981282F30E0C9012196E2E00C94921F8B
:103040002FB7F89487708093E9008091E80085FDA0
:1030500002C090E004C08091F20090E4981B2FBF62
:10306000892F0895FF920F931F93F82E142F052F89
:103070004091A7035091A803212F302FC901DC01F3
:10308000FB016EEF29C0F7FE02C0949101C0908150
:103090002091A5033091A60324173507ACF4809145
:1030A000E8008570E1F38091E80082FF03C02FEF14
:1030B0003FEF17C09093F100C90101968F73907094
:1030C000892B11F46093E8002F5F3F4F3093A603E4
:1030D0002093A503119731961097A9F6812F902F71
:1030E0009C01C9011F910F91FF9008950F931F93A9
:1030F0009C01162F072F8091E80082FFFCCFC901A9
:10310000612F0E94C5178BEF8093E800812F902FCD
:103110001F910F9108958093E9008091F200882318
:1031200019F08AE38093E800089508951092A403AB
:1031300081E08093D70080EA8093D80082E189BD46
:1031400009B400FEFDCF61E070E080E090E00E94F5
:10315000671B80E98093D8008CE08093E200109296
:10316000E000559A209A0895A0E0B0E0EAEBF8E17B
:103170000C946A1FE82E942E852E8091A403882338
:1031800009F18B01242F352FC901EC016AEFF62ECE
:1031900057E0752E7E208E2D90E040E2A42EB12CBB
:1031A000A822B9223AE3632E20E4C22ED12CC822F1
:1031B000D9224CC08E2D0E942018282F882361F41C
:1031C000FA9419F42FEF3FEF4CC061E070E080E01B
:1031D00090E00E94671B3AC090E0C817D9070CF432
:1031E0002C2FC21BD1094FB7F8947092E900A1149B
:1031F000B10421F406C01092F10021502223D9F726
:1032000019C0E7FC03C0F801922F10C0C801322F8B
:1032100006C0FC010196E491E093F10031503323A4
:10322000C1F706C081918093F10091509923D1F7A5
:10323000020F111D8091E80085FF05C0209729F439
:10324000C114D10411F06092E8004FBF209709F03B
:10325000B1CF5D9884E68093A203292D382DC90152
:103260009C01C901CDB7DEB7EEE00C94861F1F921A
:103270000F920FB60F9211242F933F934F935F93AA
:103280006F937F938F939F93AF93BF93EF93FF932E
:103290008091E1001092E100982F83FF0FC01092FF
:1032A000E90081E08093EB001092EC0082E38093D0
:1032B000ED001092A40388E08093F00092FF34C0E8
:1032C00083E08093E9008091F200882319F08AE37B
:1032D0008093E8008FB7F89492E09093E900909182
:1032E000F2008FBF992321F088EF93E00E94461DE2
:1032F0008091A203882351F08091A2038150809392
:10330000A2038091A203882309F45D9A8091A3030C
:10331000882351F08091A30381508093A30380916F
:10332000A303882309F4289AFF91EF91BF91AF91ED
:103330009F918F917F916F915F914F913F912F91CD
:103340000F900FBE0F901F901895A1E0B0E0EBEA30
:10335000F9E10C94741F19828E010F5F1F4FC80191
:103360000E946C1DC8010E94FE1E898190E021967A
:10337000E4E00C94901F1F920F920FB60F9211244D
:10338000EF92FF921F932F933F934F935F936F930F
:103390007F938F939F93AF93BF93EF93FF93DF93AD
:1033A000CF93CDB7DEB76197DEBFCDBF1092E900F6
:1033B0008091E80083FF04C1CE01019668E00E947D
:1033C000C51782EF8093E800998197FF05C080912F
:1033D000E80080FFFCCF03C08EEF8093E800292F28
:1033E00030E0C90180769070892B09F0C2C08A81D3
:1033F000882329F41092F1001092F100D6C0813098
:1034000009F4D3C0833009F4D0C0853049F48091E9
:10341000E80080FFFCCF8B8180688093E300C5C00B
:10342000863009F07CC01C81EF80F8841230C1F531
:103430001092E9001092A6031092A5031092A8031F
:103440001092A7030E94A51999E0FE013996DF01A9
:10345000292F1D922A95E9F799871A8791E09E876F
:1034600090E8988B9AEF998B2091A5033091A60351
:10347000275F3F4F3C872B878D871092E900109282
:10348000A6031092A503F092A803E092A70380E0A0
:10349000BF0149E050E00E9432180E94A51985C082
:1034A0001092E9001092A6031092A503F092A803CF
:1034B000E092A703123241F482E290E00E94F61EED
:1034C000892B09F476C071C0113079F488E0E816D0
:1034D000F10419F481E08093A9038091A903882362
:1034E00009F06BC0E6E0F1E013C0133009F061C0F1
:1034F0008B81882319F4E8ECF0E00AC0823019F4DB
:10350000ECECF0E005C0813009F053C0EEEEF0E0E5
:10351000449180E8BF0150E00E94321846C08730D5
:1035200009F447C0883021F481E08093F1003DC068
:103530008930D9F523703070232BD9F5EBE2F1E017
:1035400091E031E026E39093E9003093EB00849121
:103550008093EC002093ED009F5F3196953099F7B2
:103560008EE78093EA001092EA008B818093A40397
:103570001CC08F8198851092E9001092A6031092CA
:10358000A5039093A8038093A7038D81882329F432
:10359000CE0101960E94781D06C0823051F4CE0102
:1035A00001960E94CE1D882321F08EEF8093E800C3
:1035B00007C081E28093EB0003C0E8E1F1E0A8CF0F
:1035C0006196DEBFCDBFCF91DF91FF91EF91BF91AB
:1035D000AF919F918F917F916F915F914F913F91AB
:1035E0002F911F91FF90EF900F900FBE0F901F90A3
:1035F00018951F920F920FB60F9211242F933F939D
:103600008F939F93AF93BF938091AF039091B0033B
:10361000A091B103B091B2033091B3030196A11D03
:10362000B11D232F2D5F2D3720F02D570196A11DA1
:10363000B11D2093B3038093AF039093B003A09385
:10364000B103B093B2038091AB039091AC03A0910E
:10365000AD03B091AE030196A11DB11D8093AB03E4
:103660009093AC03A093AD03B093AE03BF91AF9121
:103670009F918F913F912F910F900FBE0F901F90B0
:1036800018959FB7F8942091AB033091AC0340910B
:10369000AD035091AE0386B5A89B06C08F3F21F0C5
:1036A0002F5F3F4F4F4F5F4F9FBF542F432F322FFE
:1036B0002227280F311D411D511D82E0220F331F8B
:1036C000441F551F8A95D1F7B901CA010895EF9299
:1036D000FF920F931F93CF93DF937B018C010E9486
:1036E000411BEB010EC00E94411B6C1B7D0B685EF1
:1036F0007340C8F30894E108F10801091109C851A1
:10370000DC4FE114F1040105110569F7CDB7DEB70F
:10371000E6E00C948E1F789484B5826084BD84B5F5
:10372000816084BD85B5826085BD85B5816085BDBC
:10373000EEE6F0E0808181608083E1E8F0E01082D5
:10374000808182608083808181608083E0E8F0E016
:10375000808181608083E1E9F0E080818260808304
:10376000808181608083E0E9F0E0808181608083F6
:10377000E1ECF0E0808184608083808182608083DE
:10378000808181608083E3ECF0E0808181608083D0
:10379000E0ECF0E0808182608083E2ECF0E0808108
:1037A00081608083EAE7F0E08081846080838081AB
:1037B0008260808380818160808380818068808353
:1037C0000895CF93DF93482F50E0CA0189589E4F48
:1037D000FC013491475A5E4FFA018491882369F1C4
:1037E00090E0880F991FFC01E15DFE4FA591B49117
:1037F000FC01E35CFE4FC591D491662351F42FB7D1
:10380000F8948C91932F909589238C9388818923A8
:103810000BC0623061F42FB7F8948C91932F909580
:1038200089238C938881832B88832FBF06C09FB701
:10383000F8948C91832B8C939FBFDF91CF91089547
:1038400090E0FC013197EE30F10590F5EA5AFF4F18
:103850000C949D1F809180008F7703C08091800021
:103860008F7D80938000089584B58F7702C084B5E2
:103870008F7D84BD0895809190008F7707C08091DF
:1038800090008F7D03C080919000877F809390008F
:1038900008958091C0008F7703C08091C0008F7D14
:1038A0008093C00008958091C200877F8093C200FA
:1038B0000895FF920F931F93F62E482F50E0CA01F0
:1038C0008B569E4FFC012491CA0189589E4FFC01E2
:1038D0001491475A5E4FFA0104910023C9F0222344
:1038E00019F0822F0E94201CE02FF0E0EE0FFF1F46
:1038F000E35CFE4FA591B4919FB7F894FF2021F4AB
:103900008C911095812302C08C91812B8C939FBF49
:103910001F910F91FF9008950F931F93482F50E030
:10392000CA018B569E4FFC012491CA0189589E4FB3
:10393000FC010491475A5E4FFA011491112319F4C6
:1039400020E030E015C0222319F0822F0E94201CB5
:10395000812F90E0880F991F855B9E4FFC01A591F8
:10396000B4918C9120E030E0802311F021E030E030
:10397000C9011F910F9108952091F4033091F5032F
:103980008091F6039091F703281B390B2F73307049
:10399000C90108952091F4033091F5038091F60355
:1039A0009091F7032817390719F42FEF3FEF09C05B
:1039B000E091F603F091F703EC54FC4F8081282F3F
:1039C00030E0C90108952091F4033091F50380910E
:1039D000F6039091F7032817390719F42FEF3FEFFB
:1039E00013C0E091F603F091F703EC54FC4F2081F3
:1039F0008091F6039091F70301968F7390709093E6
:103A0000F7038093F60330E0C90108951092FB0399
:103A10001092FA0388EE93E0A0E0B0E08093FC03FC
:103A20009093FD03A093FE03B093FF0384EA91E01B
:103A30009093F9038093F8030895A1E0B0E0E3E2E6
:103A4000FDE10C94741F8C01698380915C018823D3
:103A500069F083E0BE016F5F7F4F41E050E00E945C
:103A6000B4181816190614F49C0107C081E090E000
:103A7000F8019383828320E030E0C9012196E4E0DD
:103A80000C94901F83E00E948B180895CF93DF93CE
:103A900012C082E00E9406182FEF8F3F9207C9F0F4
:103AA000E091F403F091F503EC54FC4F8083D09344
:103AB000F503C093F403C091F403D091F50321966C
:103AC000CF73D0708091F6039091F703C817D90790
:103AD00001F7DF91CF910895FC0180818E5F808393
:103AE00080E86FEB71E042E450E00E9432180895E4
:103AF000FC0181819081913A59F4813209F04CC0E6
:103B000080E065E571E047E050E00E94321842C075
:103B1000913209F041C0803239F485E591E067E0E7
:103B200070E00E94761836C0823209F035C082817A
:103B300080935C018091550190915601A0915701AD
:103B4000B0915801805B9440A040B04019F580913D
:103B50005C0180FD12C087E797E79093010880938E
:103B600000082BE088E190E00FB6F894A8958093C8
:103B700060000FBE209360000DC088E10FB6F8947E
:103B800080936000109260000FBEA895109201080B
:103B90001092000881E0089580E00895FC01918171
:103BA0008081813A31F4913089F080E0933089F45A
:103BB0000DC0813269F49B3021F4828180935D01D4
:103BC00005C09A3029F4828180935E0181E00895D6
:103BD00080E00895EF92FF920F931F938C01E62EE1
:103BE000DC01ED91FC910480F581E02D0995F82E22
:103BF000D801ED91FC910680F781E02DC8016E2D72
:103C000009958F2D90E01F910F91FF90EF900895EF
:103C10001092060410920A041092090486EB91E0B7
:103C200090930804809307040895A1E0B0E0EBE1CD
:103C3000FEE10C94721F89838B017A0184E0BE013E
:103C40006F5F7F4F41E050E00E94B41884E4B801F8
:103C5000A7010E94B4182196E6E00C948E1F82E022
:103C600048E050E00E94151E0895FC01168217825C
:103C7000108611861286138614823496BF010E9424
:103C80002F1E0895DC01683810F0685829C0E62F0F
:103C9000F0E067FF13C0E058F04081E090E002C020
:103CA000880F991FEA95E2F7809514962C91149746
:103CB000282314962C93149760E012C0E158FD4F0E
:103CC0006491662319F420E030E01DC067FF08C04E
:103CD00014968C9114978D7F14968C9314976F770C
:103CE000FD0190E0662321F08681861709F4168293
:103CF0009F5F31969630B1F7CD011496BD010E94B9
:103D00002F1E21E030E0C9010895CF93DF93DC013D
:103D1000683810F0685825C0E62FF0E067FF12C041
:103D2000E058F04081E090E002C0880F991FEA95CA
:103D3000E2F714962C911497282B14962C93149731
:103D400060E00FC0E158FD4F64916623D9F167FF31
:103D500008C014968C911497826014968C931497D3
:103D60006F7716968C9116978617A9F117968C91F6
:103D70001797861781F118968C911897861759F125
:103D800019968C911997861731F11A968C911A977A
:103D9000861709F11B968C911B978617E1F0ED01B0
:103DA000E0E0F0E09E2F8E81882321F4EA0FFB1FD4
:103DB000668306C09F5F31962196E630F10591F744
:103DC000963049F481E090E013969C938E9312977D
:103DD00020E030E007C0CD011496BD010E942F1EE7
:103DE00021E030E0C901DF91CF91089580E861E0E2
:103DF00072E045E650E00E9432180895FC0180818F
:103E00008F5F808380E866E672E049E150E00E94BF
:103E100032180895629FD001739FF001829FE00DD8
:103E2000F11D649FE00DF11D929FF00D839FF00D39
:103E3000749FF00D659FF00D9927729FB00DE11DE5
:103E4000F91F639FB00DE11DF91FBD01CF011124C2
:103E50000895A1E21A2EAA1BBB1BFD010DC0AA1FCB
:103E6000BB1FEE1FFF1FA217B307E407F50720F0E3
:103E7000A21BB30BE40BF50B661F771F881F991F5E
:103E80001A9469F760957095809590959B01AC01A7
:103E9000BD01CF01089597FB092E05260ED057FDD1
:103EA00004D0D7DF0AD0001C38F4509540953095E7
:103EB00021953F4F4F4F5F4F0895F6F790958095AE
:103EC000709561957F4F8F4F9F4F08952F923F922E
:103ED0004F925F926F927F928F929F92AF92BF921A
:103EE000CF92DF92EF92FF920F931F93CF93DF93C6
:103EF000CDB7DEB7CA1BDB0B0FB6F894DEBF0FBE23
:103F0000CDBF09942A88398848885F846E847D846F
:103F10008C849B84AA84B984C884DF80EE80FD8071
:103F20000C811B81AA81B981CE0FD11D0FB6F894E7
:103F3000DEBF0FBECDBFED010895EE0FFF1F059050
:103F4000F491E02D0994DC01CB01FC01F999FECF3D
:103F500006C0F2BDE1BDF89A319600B40D92415011
:103F60005040B8F70895DC01CB0103C02D910E94A9
:103F7000BE1F41505040D0F70895262FF999FECF2B
:103F80001FBA92BD81BD20BD0FB6F894FA9AF99A76
:0A3F90000FBE01960895F894FFCFCC
:103F9A00FFFFFFDC05DC05DC05DC05E803DC05E8E2
:103FAA0003DC05DC05DC05DC05DC05000007010394
:103FBA000105010B01000000000000D001D201D46C
:103FCA0001D601D801DA0100000000090A0B0D052B
:103FDA0006FFFF80030F0103010501070109011113
:103FEA00010D010B0100E100000000000001017851
:103FFA0089988778899887FF000000000000A086CA
:10400A000100801A060005030403030502020201E7
:10401A000101010101010101DE01E001E201E40106
:10402A0000000000F816A1178E16BF169F16E81694
:10403A00000000001D1DA117BC1CE31CCA1C421D68
:10404A00461D00000000EA1DA117851E421E351EEE
:00000001FF
