:100000000C9461000C947E000C947E000C947E0095
:100010000C947E000C94C4040C947E000C947E001E
:100020000C947E000C947E000C9452040C9450139B
:100030000C947E000C94CD000C947E000C947E00F9
:100040000C9499160C947E000C947E000C947E0007
:100050000C947E000C942F030C947E000C947E0074
:100060000C947E000C947E00000000002400270009
:100070002A0000000000250028002B0000000000DE
:1000800023002600290004040404040404040202DA
:100090000202020203030303030301020408102007
:1000A0004080010204081020010204081020000012
:1000B0000007000201000003040600000000000029
:1000C000000011241FBECFEFD4E0DEBFCDBF11E092
:1000D000A0E0B1E0E0EEF1E302C005900D92AC3E8D
:1000E000B107D9F713E0ACEEB1E001C01D92A23028
:1000F000B107E1F70E948A160C94EE180C940000E8
:10010000A0E0B0E0E6E8F0E00C94C1187C01EB015F
:100110008A01690109C0CE012196F6010995F7010E
:1001200081937F010150104001151105A1F7CDB752
:10013000DEB7E8E00C94DD18A0E0B0E0E2EAF0E021
:100140000C94C118EC017B018A01690109C0CE0140
:100150002196F70161917F01F60109950150104048
:1001600001151105A1F7CDB7DEB7E8E00C94DD1855
:100170009C01F999FECF32BD21BDF89A80B5089552
:100180009C01F999FECF1FBA32BD21BD60BD0FB6EB
:10019000F894FA9AF99A0FBE08951F920F920FB62B
:1001A0000F9211248F939F9380917F0290918002F0
:1001B00001969093800280937F0280917F029091BC
:1001C0008002892B29F4809181028F5F80938102C4
:1001D0009F918F910F900FBE0F901F901895609177
:1001E00084007091850020917F0230918002E0911F
:1001F000810280918400909185008627972797FD42
:10020000EECF80917F02909180022817390739F74D
:1002100080918102E81719F740E050E0FFE0220FDB
:10022000331F441F551FFA95D1F78E2F90E0A0E0A1
:10023000B0E0BB278695B795AA2799278827282B52
:10024000392B4A2B5B2B76956795CB01A0E0B0E06C
:10025000282B392B4A2B5B2BB901CA010895AF9289
:10026000BF92CF92DF92EF92FF920F931F9328EEEF
:1002700033E040E050E00E945B185B016C010E949B
:10028000EF007B018C010E94EF006E197F09800B4B
:10029000910B6A157B058C059D05A8F31F910F91A5
:1002A000FF90EF90DF90CF90BF90AF9008959B01AB
:1002B000AC018091EF029091F002A091F102B09117
:1002C000F202821B930BA40BB50B181619061A0623
:1002D0001B060CF44FC08091F302882301F5E091D6
:1002E000F402EF5FE370E093F402FF27E7FDF0957F
:1002F000EE57FD4F8081992787FD9095880F991FB4
:100300008093F302205C3D4B404F5F4F2093EF0200
:100310003093F0024093F1025093F202089581501D
:100320008093F30280FF24C02D9AE091F402FF270E
:10033000E7FDF095EE0FFF1FEA57FD4F8081918199
:10034000AA2797FDA095BA2F6AE0880F991FAA1FC8
:10035000BB1F6A95D1F7820F931FA41FB51F80930F
:10036000EF029093F002A093F102B093F20208958D
:100370002D98DBCF0895482F84EA8093BC002FEF9F
:1003800030E011C02115310561F41092BC0080915C
:100390008E0290918F02019690938F0280938E022D
:1003A00006C0215030408091BC0087FFEBCF4093C6
:1003B000BB0084E88093BC002FEF30E011C0211512
:1003C000310561F41092BC0080918E0290918F02F1
:1003D000019690938F0280938E02089521503040B1
:1003E0008091BC0087FFEBCF0895482F882311F43C
:1003F00084E801C084EC8093BC002FEF30E011C092
:100400002115310561F41092BC0080918E0290910B
:100410008F02019690938F0280938E0206C0215026
:1004200030408091BC0087FFEBCF9091BB0044230C
:1004300019F484E98093BC00892F08950F931F93CA
:10044000162F042F880F0E94BB011093BB0084E875
:100450008093BC002FEF30E011C02115310561F40D
:100460001092BC0080918E0290918F020196909321
:100470008F0280938E0206C0215030408091BC00D4
:1004800087FFEBCF0093BB0084E88093BC002FEF85
:1004900030E011C02115310561F41092BC0080914B
:1004A0008E0290918F02019690938F0280938E021C
:1004B00006C0215030408091BC0087FFEBCF84E91B
:1004C0008093BC001F910F9108950F931F93082FE5
:1004D000162F880F0E94BB011093BB0084E8809305
:1004E000BC002FEF30E011C02115310561F41092EE
:1004F000BC0080918E0290918F02019690938F02A2
:1005000080938E0206C0215030408091BC0087FF4E
:10051000EBCF000F802F81600E94BB0181E00E9421
:10052000F5011F910F9108951F93CF93DF93EB0176
:10053000142F880F81600E94BB0108C0115080E019
:1005400011160CF481E00E94F50189931123B1F793
:10055000DF91CF911F910895FF920F931F93CF9337
:10056000DF93082F162FEA01F22E880F0E94BB019D
:100570001093BB0084E88093BC002FEF30E011C0E3
:100580002115310561F41092BC0080918E0290918A
:100590008F02019690938F0280938E0206C02150A5
:1005A00030408091BC0087FFEBCF802FBE014F2DE4
:1005B0000E949402CDB7DEB7E5E00C94E01888E61F
:1005C0006EE340E80E941E0262E370E080E090E08B
:1005D0000E942F0188E66EE343E00E941E0288E637
:1005E00066E14EE10E941E0288E660E00E9465021C
:1005F00090E08E77883609F491E0892F0895A6E07F
:10060000B0E0E5E0F3E00C94C1188C017B016A01D5
:1006100088E66DE1AE014F5F5F4F26E00E94AC02BD
:10062000998180E02A8130E0822B932BF80191831D
:1006300080839B8180E02C8130E0822B932BF7011B
:10064000918380839D8180E02E8130E0822B932BEB
:10065000F601918380832696E8E00C94DD181F92C2
:100660000F920FB60F9211242F938F939F93EF93B6
:10067000FF9390917C009770E92FF0E0EE0FFF1F41
:10068000E55BFE4F0190F081E02D80917900808341
:10069000292F16C0E22FF0E0EE0FFF1FE55BFE4FA3
:1006A00080819181892B61F080917C00887F282B4B
:1006B00020937C0080917A00806480937A0003C04C
:1006C0002F5F283039F7FF91EF919F918F912F91F4
:1006D0000F900FBE0F901F901895CF93DF93ABE450
:1006E000B1E0FD0140E050E061E070E08081918187
:1006F000892B79F087B1EB01042E02C0CC0FDD1FEE
:100700000A94E2F79E012095822387B988B12823B5
:1007100028B94F5F5F4F32964630510539F780E672
:1007200080937C0010927B008FE880937A0020E019
:100730008D919C911197892B61F080917C00887F2D
:10074000282B20937C0080917A00806480937A002B
:1007500004C02F5F1296283059F7DF91CF9108958A
:10076000E7E5F1E040E050E061E070E080819181F8
:10077000892B79F034B1CB01042E02C0880F991F68
:100780000A94E2F7282F2095232324B925B1822B40
:1007900085B94F5F5F4F32964830510539F7E7E62C
:1007A000F1E040E050E061E070E080819181892BD0
:1007B00079F037B1CB01042E02C0880F991F0A943B
:1007C000E2F7282F2095232327B928B1822B88B957
:1007D0004F5F5F4F32964830510539F7E7E7F1E058
:1007E00040E050E061E070E080819181892B79F0F8
:1007F0003AB1CB01042E02C0880F991F0A94E2F788
:10080000282F209523232AB92BB1822B8BB94F5F38
:100810005F4F32964830510539F7089560E070E037
:1008200040E050E0A1E0B0E0362FFA01E95AFE4F77
:100830000190F081E02D309751F023B1CD01062ECB
:1008400002C0880F991F0A94E2F728232083FA0137
:10085000E959FE4F0190F081E02D309751F026B11B
:10086000CD01032E02C0880F991F0A94E2F72823B6
:100870002083FA01E958FE4F0190F081E02D309776
:1008800049F029B1CD0102C0880F991F3A95E2F7CE
:10089000282320836F5F7F4F4E5F5F4F40315105AC
:1008A00019F608951F920F920FB60F9211242F93ED
:1008B0003F934F935F936F938F939F93EF93FF9328
:1008C000209186003091870078948091EC0290917D
:1008D000ED02A901481B590B569547953093ED023F
:1008E0002093EC028BE0493B580758F08091EB02D3
:1008F0008150809391021092EB0281E08093EE028E
:1009000035C08091EE02882389F16091EB02683056
:1009100068F583E04438580748F188E045335807C4
:1009200028F5262F30E0E0914502F09146023297FB
:1009300093E0EE0FFF1F9A95E1F7E20FF31FEE0F22
:10094000FF1FE55EFE4F0190F081E02D5183408353
:1009500080919102992787FD90952817390719F4FE
:1009600081E0809390026F5F6093EB02FF91EF91C3
:100970009F918F916F915F914F913F912F910F9028
:100980000FBE0F901F9018951F920F920FB60F92E7
:100990001124CF92DF92EF92FF920F931F932F9328
:1009A0003F934F935F936F937F938F939F93AF93F7
:1009B000BF93CF93DF93EF93FF93E0908400F09089
:1009C00085008091DA0299B19093DA027894292F08
:1009D000282780958923A2E9B2E0EBEDF2E060E000
:1009E00070E0C22EDD24082F10E0CD91DC9111972C
:1009F000209721F1C601062E02C0959587950A948D
:100A0000E2F780FF1BC0C801062E02C095958795AE
:100A10000A94E2F780FF03C0F182E0820FC0808178
:100A20009181A701481B590B56954795CA018458D7
:100A30009340815B944010F4598348836F5F7F4FEC
:100A4000129632966830710581F6FF91EF91DF9131
:100A5000CF91BF91AF919F918F917F916F915F9156
:100A60004F913F912F911F910F91FF90EF90DF9049
:100A7000CF900F900FBE0F901F9018958091450258
:100A800090914602019771F080916F00806280938F
:100A90006F0080918100806C8093810083E080935F
:100AA0009102089580916800816080936800E7E872
:100AB000F1E040E050E061E070E080819181892BBD
:100AC000A1F020916B00CB01042E02C0880F991F6A
:100AD0000A94E2F7282B20936B0034B1282F20953D
:100AE000232324B925B1822B85B94F5F5F4F3296FE
:100AF0004830510511F781E08093910280916800A0
:100B0000846080936800E2E9F2E040E050E061E058
:100B100070E080819181892BA1F020916D00CB0143
:100B2000042E02C0880F991F0A94E2F7282B209305
:100B30006D003AB1282F209523232AB92BB1822B9F
:100B40008BB94F5F5F4F32964830510511F70895CA
:100B5000A6E0B0E0EEEAF5E00C94B7187A8369837A
:100B60001C012B019E838D839B012A5F3F4F3C8399
:100B70002B83ED81FE810681178180819181081B85
:100B8000190B3801882477FC8094982CF101828914
:100B90009389A489B589860D971DA81DB91D268D39
:100BA000378D40A151A1AA24BB246501A21AB30A22
:100BB000C40AD50A8A159B05AC05BD054CF05C013D
:100BC0006D01281739074A075B0714F459016A01B8
:100BD000F101A28AB38AC48AD58AED81FE81848517
:100BE0009585AA2797FDA095BA2FA4019301281BEC
:100BF000390B4A0B5B0BCA01B90115870487F20157
:100C000024853585442737FD4095542F0E945B1875
:100C10007B018C0142E015950795F794E7944A957E
:100C2000D1F7F20120813181442737FD4095542FBF
:100C3000C401B3010E945B1833E0959587957795C1
:100C400067953A95D1F7E60EF71E081F191FF201B6
:100C500026813781442737FD4095542FC601B501C1
:100C60000E945B1826E095958795779567952A955C
:100C7000D1F7E60EF71E081F191FE981FA810288D5
:100C800004C015950795F794E7940A94D2F7ED817F
:100C9000FE81F3A6E2A63296FE83ED8324E030E0E7
:100CA000220E331E42E050E0440E551E8B819C8183
:100CB0004816590609F05DCF2696E2E10C94D31848
:100CC000A6E0B0E0E6E6F6E00C94C718CE01019687
:100CD000BE016D5F7F4FAE014B5F5F4F0E94FF0211
:100CE0008B819C81909325028093240249815A81B3
:100CF00050932702409326022D813E813093290292
:100D000020932802809147029091480282309105F9
:100D100019F00397D1F40DC03093270220932602D7
:100D200088279927841B950B90932902809328028A
:100D30000CC088279927821B930B909327028093DE
:100D4000260250932902409328022696E2E00C9452
:100D5000E318A0E0B0E0EFEAF6E00C94BF187C01E5
:100D60008C01EB01F70160E070E02BC02181328142
:100D700088819981281739070CF4C90192838183EE
:100D80002185328588819981821793070CF4C901E6
:100D90009287818729913991442737FD4095542FB7
:100DA000D8011F96AD90BD90CD90DC905297A20EC9
:100DB000B31EC41ED51E1F96AD92BD92CD92DC927D
:100DC00052979B016F5F7F4F32960C5F1F4FD70189
:100DD00011968D919C911297281739073CF2CDB747
:100DE000DEB7EAE00C94DB18A0E0B0E0EAEFF6E052
:100DF0000C94C118EC017C0153E2C52ED12CC80E15
:100E0000D91E00E010E011C02BA53CA5442737FDFA
:100E10004095542FF70167857089818992890E94D6
:100E20009C18F601219331936F0198010F5F1F4FBA
:100E300084E090E0E80EF91E89819A81281739072D
:100E40001CF3CDB7DEB7E8E00C94DD18A8E0B0E005
:100E5000ECE2F7E00C94C1188C018091EC019091C8
:100E6000ED019A8389838091F0019091F1019C8337
:100E70008B838091F2019091F3019E838D83809109
:100E8000EE019091EF0198878F83C801BE016F5FDB
:100E90007F4F0E94A906D8019B968D919C919C97AB
:100EA00001969C969C938E939B978436910509F0AE
:100EB00070C01196ED90FC9012976801F80160E007
:100EC00040E050E00CC08385948523813481821BEF
:100ED000930B44970CF46F5F4F5F5F4F32964E1544
:100EE0005F058CF3862F992787FD90958E159F05BA
:100EF000F9F4C8010E94F406F80183A194A190932B
:100F000014018093130185A196A1909316018093FB
:100F1000150187A190A5909318018093170181A5D1
:100F200092A590931A018093190181E0808331C0CA
:100F3000D8011C9284E090E012969C938E931197B6
:100F4000F80140E050E06FEFE62E6FE7F62E60E02C
:100F500070E80BC0F282E18272876187D6011F962A
:100F60001D921D921D921C9252979A014F5F5F4FE6
:100F7000329684E090E0C80ED91ED80111968D916A
:100F80009C911297281739072CF39C961C921E925D
:100F90009B972896E8E00C94DD18A6E0B0E0E3ED1E
:100FA000F7E00C94C1188C018091240290912502E5
:100FB0009A83898380912602909127029C838B8358
:100FC00080912802909129029E838D83C801BE01E1
:100FD0006F5F7F4F0E94A906F80183A594A5019633
:100FE00094A783A78C52914009F064C0F801E18076
:100FF000F280D80160E040E050E00CC08385948529
:1010000023813481821B930BC2970CF46F5F4F5F77
:101010005F4F32964E155F058CF3862F992787FD1B
:1010200090958E159F05C9F4C8010E94F406F80139
:1010300083A194A190931F0280931E0285A196A183
:10104000909321028093200287A190A59093230280
:101050008093220281E080832DC0F801108283E01A
:1010600090E092838183680140E050E07FEFE72EBB
:101070007FE7F72E60E070E80DC01296FC92EE92CA
:1010800011971A967C936E931997F6011786108A1A
:10109000118A128A9A014F5F5F4F129684E090E0A6
:1010A000C80ED91EF80181819281281739072CF3C7
:1010B00014A613A62696E8E00C94DD1840910301CF
:1010C0005091040180910301909104014817590740
:1010D00021F04091EC015091ED015093ED014093CE
:1010E000EC0120910501309106018091050190915C
:1010F00006012817390721F02091F0013091F10104
:101100003093F1012093F001209107013091080103
:1011100080910701909108012817390721F020914B
:10112000F2013091F3013093F3012093F201209109
:10113000090130910A018091090190910A01281753
:10114000390721F02091EE013091EF013093EF014A
:101150002093EE0120910B0130910C0180910B0145
:1011600090910C012817390721F02091F40130915A
:10117000F5013093F5012093F40120910D01309198
:101180000E0180910D0190910E012817390721F071
:101190002091F6013091F7013093F7012093F60189
:1011A00020910F013091100180910F019091100159
:1011B0002817390721F02091F8013091F901309377
:1011C000F9012093F80120911101309112018091D1
:1011D0001101909112012817390721F02091FA018D
:1011E0003091FB013093FB012093FA0180917B0247
:1011F00090917C02029721F45093EF014093EE010D
:101200000895FC0180917B0290917C0283309105CE
:1012100079F18430910524F4029709F0B4C007C035
:101220008430910509F462C0059709F0ACC0808153
:1012300091812091EC013091ED01820F931F9093E9
:10124000110280931002808191812091EE013091F2
:10125000EF01820F931F90931702809316028281F1
:1012600093812091F0013091F101820F931F31C0E1
:10127000408151818091EC019091ED01480F591FFF
:10128000628173818091F0019091F101680F791F63
:10129000CB01840F951F9C01B3E035952795BA9536
:1012A000E1F795958795280F391F275731403093DF
:1012B000110220931002461B570BCA0133E095958B
:1012C00087953A95E1F755954795840F951F845278
:1012D0009A4F9093130280931202848195812091FA
:1012E000F2013091F301820F931F49C080819181F7
:1012F0002091EC013091ED01820F931F9093110228
:1013000080931002808191812091EE013091EF0154
:10131000820F931F9093170280931602628173814C
:101320008091F0019091F101680F791F44815581FE
:101330008091F2019091F301480F591FCA01860F65
:10134000971F9C01B3E035952795BA95E1F79595E0
:101350008795280F391F2757314030931302209368
:101360001202461B570BCA01F3E095958795FA9533
:10137000E1F755954795840F951F84529A4F9093A6
:101380001502809314028091F8019091F9019093D5
:101390001902809318028091FA019091FB019093B9
:1013A0001B0280931A028091F6019091F7019093AD
:1013B0001D0280931C020895A8E0B0E0E2EEF9E07F
:1013C0000C94C51880914302909144020397A9F5AB
:1013D000FE01319688E0DF011D928A95E9F7CF0181
:1013E0000E940109A4EEB1E000E312E048E352E0FC
:1013F0006D917C911197F80120813181FB018081F1
:101400009181281739070CF4C901F8019183808371
:10141000FA0120813181FB0180819181821793073C
:101420000CF4C901FA0181939193AF0112960E5FFA
:101430001F4FF1E0AC3EBF07D9F68AE292E00E946E
:10144000010980E090E0FC01EC51FE4FA081B181E8
:101450004D915C911197FC01E05DFD4F0190F08191
:10146000E02D4E175F0754F0FC01E85CFD4F208132
:101470003181FA01241735070CF4F901ED93FC933F
:10148000029688309105F9F62896E4E00C94E1186C
:1014900081E08093A2022FB7F8948091100290917E
:1014A00011029093030280930202809112029091A4
:1014B000130290930502809304028091140290918C
:1014C0001502909307028093060280911602909174
:1014D000170290930902809308028091180290915C
:1014E000190290930B0280930A0280911A02909144
:1014F0001B0290930D0280930C0280911C0290912C
:101500001D0290930F0280930E02EFE6F0E08081BF
:1015100082608083B19A80918400909185000496C6
:1015200090938900809388002FBF0895FC018281E9
:1015300083832091EC013091ED01458154E0213B02
:10154000350714F490E00DC0C901845195408159CC
:10155000914010F491E005C0285037400CF453C07E
:1015600092E0442319F082E0891B982F9083209108
:10157000F0013091F101468154E0213B350714F42C
:1015800090E00CC0C901845195408159914010F4FC
:1015900091E004C028503740C4F192E0442319F090
:1015A00082E0891B982F91838781882351F4808161
:1015B000882329F0823029F481E08583108281E03C
:1015C00087838085882361F48181882319F08230A4
:1015D00039F404C081E0868382E0818381E08087E2
:1015E00030813F5F818123E08202C0011124380FE6
:1015F0003283938180E0391729F081E09295907FC2
:10160000932B948308959081B1CF9181CCCF282FD3
:1016100030E03F6F220F331FEFB7F89480918400C2
:1016200090918500AC01405C5F4FBC016D5D7A4FCD
:101630008091840090918500DA01A81BB90B1A16DD
:101640001B06B4F320FF02C0579801C0579A4617F3
:10165000570729F03695279545575F4FE9CFEFBFDC
:101660000895EFB7F8944F9B49C016C020918400AD
:10167000309185002058314C04C08FEF9FEF4F9B75
:101680000BC08091840090918500B901681B790B93
:101690001616170614F4F1CFAC0141505040CA01A0
:1016A00001961816190614F34F5F5F4F19F420E0E6
:1016B00030E826C08091840090918500AC014056AE
:1016C0005F4F20E030E0BC0163597B4F8091840084
:1016D00090918500DA01A81BB90B1A161B06B4F30A
:1016E00089B13695279590E080789070282B392B1A
:1016F0004617570729F045575F4FE8CF20E030E401
:10170000EFBFC9010895EF92FF920F931F93CF93FC
:10171000DF93E82E192F062FF62E84E20E94070B86
:10172000802F0E94070B2E2D312FC901EC0104C020
:101730008991F80E0E94070B9E012E192017C4F301
:101740008F2D81950E94070BCDB7DEB7E6E00C9494
:10175000DF188F929F92AF92BF92CF92DF92FF924B
:101760000F931F93CF93DF934C015A01C0E0D0E059
:10177000C62EDD24C7FCD09402C0812F182FC501CE
:101780000E94310B9C018070907C892B69F5822F1F
:10179000C130D10559F0C230D105A1F0209779F7B9
:1017A000243259F7812FC1E0D0E0E8CF90E0C8168D
:1017B000D90614F4812F15C0822FF22EC2E0D0E09A
:1017C00000E0DCCFF20E812F8150112331F0F401C3
:1017D000E00FF11D20830F5FD1CFFF2011F481E0D6
:1017E00004C0C0E0D0E0CACF80E0DF91CF911F916C
:1017F0000F91FF90DF90CF90BF90AF909F908F9010
:1018000008951F93CF93DF93EC01142F4BE350E027
:1018100028EB30E00E9480008881811711F08FEF63
:1018200012C090E020E030E0FE01E20FF31F808163
:10183000980F2F5F3F4F2B333105B1F7992311F4E8
:1018400080E001C08EEFDF91CF911F910895DC0100
:1018500040E020E030E0FD01E20FF31F8081480FFF
:101860002F5F3F4F2A333105B1F74195DA964C93FC
:10187000DA97CB01BD014BE350E020EC30E00E9451
:101880009C000895A4E1B0E0E8E4FCE00C94B718F3
:101890001C0181E08983DE011296E1EEF1E083E034
:1018A00001900D928150E1F781E492E09E838D8357
:1018B0009E012E5F3F4F38872F83AE014D5F5F4FF4
:1018C0005A8749872E5F3F4F3C872B8702969E871A
:1018D0008D870296988B8F8702969A8B898BCE0183
:1018E00001969C8B8B8BD0904102DD0CCC2466241E
:1018F000EE24FF248701F0E88F2EFAE19F2EF6E018
:10190000AF2EB12CE2E07E2E2C010E94EF009B0155
:10191000AC01DC01CB018E199F09A00BB10B88161D
:101920009906AA06BB060CF051C0171424F5872DA2
:10193000992787FD9095FC01E170F07080FD03C050
:1019400088E097E002C08CED95E0909313028093BD
:1019500012028CED95E09093110280931002EE0F2D
:10196000FF1FEE0FFF1FE753FE4F80809180A28084
:10197000B3807A9429C0DD2039F11D1424F46CE27F
:1019800071E0A1E003C064ED7EEFAFEF8D2D9927EC
:1019900087FD9095FC01E170F07080FF03C08CED35
:1019A00095E003C0CB0184529A4F9093110280932B
:1019B0001002EE0FFF1FEE0FFF1FE753FE4F808058
:1019C0009180A280B380DA1A79018A018091900215
:1019D000882329F0109290020E945E0802C06620BF
:1019E00041F08091A202882309F08CC00E94480A2D
:1019F0006624772009F089CFC1010E94960A8823C6
:101A000009F483CFF1018481843561F0853520F4B8
:101A1000823509F063C013C0863559F0883509F066
:101A20005DC02AC0F1E0FC1514F0CC2470C0CA944B
:101A30006EC085E08C150CF468C0C39468C0AC2DF2
:101A4000BB27A7FDB095FD01EE0FFF1FE40DF51DAF
:101A50000480F581E02D8081282F332727FD3095E4
:101A60002F5F3F4FAF52BE4F8C91992787FD9095C6
:101A700082179307F4F41CC0AC2DBB27A7FDB095CB
:101A8000FD01EE0FFF1FE40DF51D0480F581E02D33
:101A90008081282F332727FD309521503040A752D1
:101AA000BE4F8C91992787FD9095281739070CF424
:101AB0009C01208320E08C2D992787FD9095FC01C7
:101AC000EE0FFF1FE40DF51D0480F581E02DD080A1
:101AD000DD0C222319F00196782E770C8981823053
:101AE00009F013CF80E492E060E070E00E94270CE0
:101AF00080E492E060E071E00E94270C6496E2E1ED
:101B00000C94D3186624639474CFA7E0CA2E21E006
:101B1000D2CFA9E8B0E0EFE8FDE00C94B7180E943E
:101B2000EF001B012C01DE011196EBEBF1E086E0EA
:101B300001900D928150E1F781E08C8B8B8B85E0D9
:101B40008D8B198E188E1B8E1A8E84E090E09E8FDE
:101B50008D8FFE017F96DE019F9640E050E00FEFF3
:101B60001FE760E070E809C0118300837187608718
:101B70001D921D921D921D9232969A014F5F5F4FEA
:101B80008D8D9E8D281739077CF3FE01E95BFF4F91
:101B900011821082FE01E75BFF4F83E090E09283A9
:101BA0008183DF011396BF016D5E7F4F40E050E0FF
:101BB0006F018FEFE82E8FE7F82E00E010E80EC0DF
:101BC0001196FC92EE9219961C930E931897FB01B6
:101BD0001192119211921192BF0112969A014F5FC8
:101BE0005F4FF60181819281281739074CF31C8ED3
:101BF000108214A613A62092D4023092D5024092ED
:101C0000D6025092D70282017101CA57DF4F288253
:101C100039824A825B82C658D040CE57DF4F288235
:101C200039824A825B82C258D040C258DF4F288234
:101C300039824A825B82CE57D040EB962CAE3DAEC5
:101C40004EAE5FAEEB97EE961FAEEE97ED961FAEE3
:101C5000ED97F1E0EC96FFAFEC9708C0C258DF4F6C
:101C6000A882B982CA82DB82CE57D0400E94EF00A0
:101C70005B016C010E94570180919002882399F4C6
:101C8000D601C501CA57DF4F288139814A815B815E
:101C9000C658D040821B930BA40BB50B81539547BC
:101CA000A040B0401CF1109290020E945E088C8D02
:101CB000882309F05AC4CE014C960E9426072A9622
:101CC0008FAD2A97882311F492E001C090E020E0C4
:101CD0008C8D882309F421E0920F9093830248ECC5
:101CE00050E050938902409388023FC4EE965FAD66
:101CF000EE97552359F08091A202882339F40E946F
:101D0000DC090E94480AEE961FAEEE97D601C50187
:101D1000CE57DF4F288139814A815B81C258D0403C
:101D2000821B930BA40BB50B81519742A040B0408E
:101D300054F10E9460062A968FAD2A978823D9F421
:101D4000CE01875B9F4F0E94CD072A968FAD2A97C1
:101D5000882311F492E001C090E020E08C8D88236C
:101D600009F421E0920F9093830248EC50E05093E5
:101D7000890240938802CE57DF4FA882B982CA8277
:101D8000DB82C258D040EC965FADEC97552309F446
:101D90004EC0CE0143960E94960A882309F447C09C
:101DA000ED966FADED97E62FFF27E7FDF095EE542A
:101DB000FE4F9F898081981721F0ED961FAEED9719
:101DC00007C0ED967FADED977F5FED967FAFED9706
:101DD000ED968FADED97E82FFF27E7FDF095EE54D8
:101DE000FE4F80818F3F81F4CE0143960E94420CCA
:101DF0002EE088E190E00FB6F894A89580936000FB
:101E00000FBE20936000FFCFD601C5018219930950
:101E1000A409B509815C914EA44EB04024F0EC9623
:101E20001FAEEC9704C0F1E0EC96FFAFEC978C8D01
:101E3000882309F41BCF2A968FAD2A97882309F4AB
:101E400015CFD601C5018E199F09A00BB10B815189
:101E50009742A040B0400CF416C380917D0290914F
:101E60007E028130910559F48091F4019091F50141
:101E7000845C95400CF09BC080E090E00DC0892B05
:101E800009F095C08091F4019091F501855F95402E
:101E90000CF48DC081E090E090937E0280937D02EF
:101EA000892B11F084E001C080E08093830268EC0C
:101EB00070E070938902609388021092B5021092CC
:101EC000B6021092B7021092B8021092C10210929C
:101ED000C2021092C3021092C4021092B902109270
:101EE000BA021092BB021092BC021092C50210926C
:101EF000C6021092C7021092C8021092BD02109240
:101F0000BE021092BF021092C0021092C90210923B
:101F1000CA021092CB021092CC0280914F02909193
:101F20005002029709F043C0D601C501EB962CADD3
:101F30003DAD4EAD5FADEB97821B930BA40BB50B84
:101F40008152914AA740B0401CF0E7961FAEE79738
:101F5000E7964FADE7974F5FE7964FAFE797433070
:101F600004F18091EC019091ED0190931401809324
:101F700013018091F0019091F101909316018093EB
:101F800015018091F2019091F301909318018093D3
:101F900017018091EE019091EF0190931A018093C7
:101FA0001901EB96ACAEBDAECEAEDFAEEB97E091D5
:101FB000EE01F091EF018091EC019091ED01E80FBD
:101FC000F91F8091130190911401E81BF90B809186
:101FD000190190911A01E81BF90B4091F001509101
:101FE000F1018091150190911601481B590BA091A8
:101FF000F201B091F3018091170190911801A81B93
:10200000B90B809149028150282F332727FD309545
:10201000CF019595879597FF03C0909581959F4F28
:10202000022E02C0880F991F0A94E2F761E08139FD
:10203000960714F080E991E060E971E0681B790B84
:1020400078876F83CA0157FF04C088279927841BAC
:10205000950B022E02C0880F991F0A94E2F771E0D7
:102060008139970714F080E991E060E971E0681B1D
:10207000790B7A876987CD01B7FF04C08827992734
:102080008A1B9B0BBC0102C0660F771F2A95E2F7E3
:1020900081E06139780714F060E971E010E9812E80
:1020A00011E0912E861A970A9C868B862091F40166
:1020B0003091F50195E02D3D39072CF067E02D3684
:1020C00036075CF007C08CED95E0821B930B8159BD
:1020D00091401CF000E911E00CC085E02D3D38076F
:1020E00024F089010C5D154004C00CED15E0021BC5
:1020F000130BE0907D02F0907E0291E0E916F1046E
:1021000059F0E114F10409F054C080914D0290910E
:102110004E02029709F04DC080914B0290914C0203
:1021200001979F01082E02C0220F331F0A94E2F785
:1021300001963E872D87082E02C0440F551F0A9432
:10214000E2F7588B4F87AD0102C0440F551F8A95A7
:10215000E2F75A8B498B89819A8197FD05C08827C0
:102160009927821B930B01C0C9019093A40280930D
:10217000A3028B819C812F85388997FD05C0882714
:102180009927821B930B01C0C9019093A6028093EB
:10219000A5028D819E8197FD03C0509541955F4FAB
:1021A0005093A8024093A702E1E0EE16F10471F00B
:1021B00055C01092A4021092A3021092A60210928F
:1021C000A5021092A8021092A70248C06F817885DC
:1021D000882777FD8095982F24EF3FEB40E050E073
:1021E0000E945B18F9E09595879577956795FA9524
:1021F000D1F76093C1027093C2028093C30290939F
:10220000C40269857A85882777FD8095982F0E947A
:102210005B18E9E09595879577956795EA95D1F7ED
:102220006093C5027093C6028093C7029093C80260
:10223000B401882777FD8095982F0E945B1839E0BC
:1022400095958795779567953A95D1F76093C902EB
:102250007093CA028093CB029093CC022091240207
:102260003091250280911E0290911F02281B390B8C
:10227000F0E220303F0714F02FEF3FE1C90120EEDC
:102280008030920714F480E090EE9093AA0280933D
:10229000A90220912602309127028091200290917C
:1022A0002102281B390B40E22030340714F02FEFB5
:1022B0003FE1C90150EE2030350714F480E090EE84
:1022C0009093AC028093AB022091280230912902B6
:1022D0008091220290912302281B390B60E220306A
:1022E000360714F02FEF3FE1C90170EE20303707B9
:1022F00014F480E090EE9093AE028093AD02EF284C
:1023000019F067E672E002C064E572E083EA92E0E9
:102310000E94A805EE24FF243801882477FC8094CD
:10232000982C8701065D1D4FE1E0F0E0EC0FFD1FEA
:10233000EE0DFF1D60817181882777FD8095982FB4
:10234000F701ED55FD4F22A533A5442737FD4095F4
:10235000542F0E945B1827E0959587957795679590
:102360002A95D1F7E7E0F0E0EC0FFD1FEE0DFF1D21
:1023700020813181442737FD4095542F0E945B18FE
:102380009B01AC01B9E05595479537952795BA95CE
:10239000D1F7C401B3010E945B18A9E09595879518
:1023A00077956795AA95D1F7F8017183608322E04C
:1023B00030E0E20EF31E36E0E316F10409F0B1CF8F
:1023C0002091D30212160CF05CC08091D40290913F
:1023D000D502A091D602B091D702B601A501481B43
:1023E000590B6A0B7B0BDB01CA0181549D40A34052
:1023F000B0405CF021502093D302A092D402B0925E
:10240000D502C092D602D092D7028091D3029927EA
:1024100087FD909540912A0250912B02BC0161707A
:10242000707080FF03C026E930E002C02AE63FEF6B
:10243000240F351F30932B0220932A0240912C0247
:1024400050912D026115710519F026E930E002C0A6
:102450002AE63FEF240F351F30932D0220932C02E4
:1024600020912E0230912F02672B19F48AE69FEFFC
:1024700002C086E990E0820F931F90932F02809311
:102480002E0286017501D601C501C258DF4F288191
:1024900039814A815B81CE57D040821B930BA40BBC
:1024A000B50B8C59914AA740B0400CF4DFCB80911A
:1024B0005102803839F480910001282F30E02058F3
:1024C000304004C0282F332727FD309580915202D9
:1024D000803839F480910101482F50E04058504035
:1024E00004C0482F552747FD5095809153028038EE
:1024F00031F48091020190E08058904003C0992708
:1025000087FD90953A8329835C834B839E838D83DB
:10251000295F3F4F2F30310510F41A8219828B81C9
:102520009C8107960F9710F41C821B828D819E81DF
:1025300007960F9710F41E821D82EBE4F1E020E075
:1025400080819181892B61F080917C00887F282B8C
:1025500020937C0080917A00806480937A007ECB07
:102560002F5F3296283061F779CBCA57DF4FA882A8
:10257000B982CA82DB82C658D04041E0EE964FAFA6
:10258000EE97B9CBACE5B0E0E8ECF2E10C94C11801
:102590001092800081E08093810057985F9800E05E
:1025A0006E010894C11CD11C92E0E92EF12CEC0EB6
:1025B000FD1EC6016CE544EF51E00E94A90B882383
:1025C00009F43FC089818230A1F0833018F4813052
:1025D00001F505C08330B9F08430D9F41CC0C701BF
:1025E00060E870E048E050E028EB30E00E948000B6
:1025F00010C080E890E0B70148E050E020EC30E007
:102600000E949C0012C0C70160E070E044E00E949C
:10261000010C10E00BC0C70160E070E00E94270CC5
:10262000C70160E071E00E94270C11E08981806899
:102630008983C6016CE50E94830B01E0112309F434
:10264000B8CF802FC45ADF4FE8E00C94DD181F93F9
:102650001FEF1F5FE12FFF27E7FDF095EE0FFF1F34
:10266000E956FE4F80819181892B69F41F5FE12F2C
:10267000FF27E7FDF095EE0FFF1FE956FE4F808123
:102680009181892B59F0E12FFF27E7FDF095E75560
:10269000FE4F808161E00E947517DBCF1F91089586
:1026A0001F920F920FB60F9211242F933F934F93C7
:1026B0005F936F937F938F939F93AF93BF93CF93CA
:1026C000DF93EF93FF93E091D902FF27E7FDF095A9
:1026D000E755FE4F808160E00E94B417E091D80278
:1026E000E7FD4BC0C0918400D0918500FF27E7FD36
:1026F000F095E755FE4F808161E00E94B41780910C
:10270000D802E82FFF27E7FDF095EE0FFF1FE956EF
:10271000FE4F0190F081E02D208131818093D9021C
:10272000482F4F5F4093D802E42FFF27E7FDF09535
:10273000EE0FFF1FE956FE4F80819181892B91F4A6
:10274000E42FEF5FE093D802FF27E7FDF095EE0F4F
:10275000FF1FE956FE4F80819181892B19F48FEF7D
:102760008093D80222503040220F331F2C0F3D1F80
:10277000309389002093880009C01092D8021092EB
:10278000A20280916F008D7F80936F00FF91EF9187
:10279000DF91CF91BF91AF919F918F917F916F9179
:1027A0005F914F913F912F910F900FBE0F901F900F
:1027B0001895EF92FF920F931F937A018B01882354
:1027C00041F083E161E00E94B41782E161E00E9480
:1027D000B4171092B90060E074E284EF90E0A801B1
:1027E00097010E947A182051304040405040569541
:1027F0004795379527952093B8001F910F91FF902B
:10280000EF90089581E040E85AE166E070E00E94B0
:10281000D9130E94DF02882349F485E08093840263
:1028200088EC90E090938B0280938A020895EF9257
:10283000FF920F931F93CF93DF93E82EF62E60E065
:102840000E9475178F2D61E00E947517C0E0D0E0DF
:10285000CE018170082F8F2D602F0E94B4178E2D0E
:102860000E940818112707FD10958017910711F095
:1028700000E005C02196C830D10551F701E08F2D49
:1028800060E00E947517802FCDB7DEB7E6E00C94AC
:10289000DF18A0E8B0E0EFE4F4E10C94C318259A47
:1028A0008091FE029091FF02009711F09C0102C0FE
:1028B00022E033E0CE010196821B930B8038910514
:1028C0004CF484E1809384028EE190E090938B023B
:1028D00080938A0284B7877F84BF88E10FB6F8941B
:1028E00080936000109260000FBE21E030E03093D2
:1028F00042022093410280E8809351028093520269
:102900008093530230934402209343023093460253
:1029100020934502309348022093470230934A02A5
:102920002093490284E090E090934C0280934B0204
:1029300030934E0220934D0282E090E0909350023B
:1029400080934F0284EF91E090935502809354025C
:1029500010925B0210925A0290936102809360027F
:10296000909357028093560210925D0210925C027F
:10297000909363028093620290935902809358026D
:1029800010925F0210925E0290936502809364023F
:1029900028E02093660290936802809367029093E8
:1029A0006E0280936D0290937402809373029093F1
:1029B0006A02809369029093700280936F029093F1
:1029C00076028093750290936C0280936B029093D1
:1029D0007202809371029093780280937702209321
:1029E000790285E064E00E941714882311F400E066
:1029F00001C007E0CE01039660E870E048E050E0D7
:102A000028EB30E00E948000002361F48B8182304B
:102A100049F48C819D81AE81BF818E549146AC4B2F
:102A2000B04071F082E08B838EE491E6ACEBB0E0D5
:102A30008C839D83AE83BF83188619861A860860AF
:102A4000CE010B9660E070E044E00E94010C87FD2F
:102A50000260CE018A5B9F4F60E071E044E00E941B
:102A6000010C87FD046083E08093D302E02EFF24F5
:102A7000C701867090708230910531F084309105E5
:102A800079F0892B81F119C08E010A5B1F4FC801B3
:102A900060E070E00E94270C88858F5F88870BC0FC
:102AA0008E01055F1F4FC80160E071E00E94270C96
:102AB00089858F5F8987C80118C084E080934002B0
:102AC00080E492E060E070E00E94270C80E492E0F5
:102AD00060E071E00E94270C8A858F5F8A8789E019
:102AE0008093D3020AC0CE010B96A0E4B2E0FC01B1
:102AF0008BE301900D928150E1F7C7018E709070C9
:102B0000892B59F080E890E0BE016D5F7F4F48E06F
:102B100050E020EC30E00E949C00E0FE0BC000E2A0
:102B200085B1802785B964E670E080E090E00E947E
:102B3000E116F6CF0E94C212882361F02EE088E1F0
:102B400090E00FB6F894A895809360000FBE209394
:102B50006000FFCF1092800082E08093810081E0CE
:102B600080936F0085B5887F85BD809143029091E9
:102B7000440282309105D1F08330910561F10197D3
:102B8000F1F580E090E048EE53E020ED37E0FC0105
:102B9000E05DFD4F51834083FC01E85CFD4F3183D4
:102BA000208302968830910591F729C080E090E05B
:102BB0004CE454E02CE637E0FC01E05DFD4F51832E
:102BC0004083FC01E85CFD4F31832083029688300E
:102BD000910591F714C080E090E042EE54E026EDBC
:102BE00036E0FC01E05DFD4F51834083FC01E85C71
:102BF000FD4F3183208302968830910591F70E9422
:102C0000B0030E940E0480914102909142029C0107
:102C100021303105C9F48091FF01882319F4E0E0E7
:102C2000F0E002C0E2E0F0E020E030E0809100025D
:102C3000882311F021E030E0E22BF32BEE0FFF1F91
:102C4000EF53FE4F2081318130937C0220937B0231
:102C50002530310599F48091FD0129E031E0882388
:102C600029F030938E0120938D0108C010927A01D3
:102C7000109279013093950220939402809145023D
:102C800090914602019759F11092880110928701A4
:102C900010928A011092890110928C0110928B017E
:102CA00010928E0110928D018AE092E09093A00123
:102CB00080939F018AE08093AD018CE092E0909335
:102CC000A2018093A10189E08093AE018EE092E0A1
:102CD0009093A4018093A3018BE08093AF01809136
:102CE0007B028093820288E592E090938702809332
:102CF00086020E946D030E943E050E9427130E94D7
:102D000002140E945E080E94DC09C058DF4FE6E012
:102D10000C94DF18CF93DF930E943A170E94491456
:102D2000C0E0D0E00E94890D2097E1F30E940000EE
:102D3000F9CF1F920F920FB60F9211242F933F934A
:102D40008F939F93AF93BF938091F9029091FA0272
:102D5000A091FB02B091FC023091FD020196A11DF1
:102D6000B11D232F2D5F2D3720F02D570196A11D6A
:102D7000B11D2093FD028093F9029093FA02A09373
:102D8000FB02B093FC028091F5029091F602A091B3
:102D9000F702B091F8020196A11DB11D8093F502D2
:102DA0009093F602A093F702B093F802BF91AF910F
:102DB0009F918F913F912F910F900FBE0F901F9079
:102DC00018959B01AC017FB7F8948091F502909122
:102DD000F602A091F702B091F80266B5A89B05C073
:102DE0006F3F19F00196A11DB11D7FBFBA2FA92F0A
:102DF000982F8827860F911DA11DB11D62E0880FB5
:102E0000991FAA1FBB1F6A95D1F7BC012DC0FFB740
:102E1000F8948091F5029091F602A091F702B0919A
:102E2000F802E6B5A89B05C0EF3F19F00196A11D79
:102E3000B11DFFBFBA2FA92F982F88278E0F911D84
:102E4000A11DB11DE2E0880F991FAA1FBB1FEA95C3
:102E5000D1F7861B970B885E9340C8F22150304013
:102E60004040504068517C4F2115310541055105C6
:102E700071F60895789484B5826084BD84B58160CC
:102E800084BD85B5826085BD85B5816085BDEEE672
:102E9000F0E0808181608083E1E8F0E01082808151
:102EA00082608083808181608083E0E8F0E08081BF
:102EB00081608083E1EBF0E0808184608083E0EBDF
:102EC000F0E0808181608083EAE7F0E080818460C7
:102ED0008083808182608083808181608083808123
:102EE000806880831092C1000895CF93DF93482FAC
:102EF00050E0CA0186569F4FFC0134914A575F4FFC
:102F0000FA018491882369F190E0880F991FFC01F0
:102F1000E859FF4FA591B491FC01EE58FF4FC591C0
:102F2000D491662351F42FB7F8948C91932F9095F8
:102F300089238C93888189230BC0623061F42FB779
:102F4000F8948C91932F909589238C938881832B6F
:102F500088832FBF06C09FB7F8948C91832B8C93E6
:102F60009FBFDF91CF910895482F50E0CA0182554D
:102F70009F4FFC012491CA0186569F4FFC019491FA
:102F80004A575F4FFA013491332309F440C022239A
:102F900051F1233071F0243028F42130A1F0223097
:102FA00011F514C02630B1F02730C1F02430D9F427
:102FB00004C0809180008F7703C0809180008F7D56
:102FC0008093800010C084B58F7702C084B58F7D58
:102FD00084BD09C08091B0008F7703C08091B0009C
:102FE0008F7D8093B000E32FF0E0EE0FFF1FEE58CF
:102FF000FF4FA591B4912FB7F894662321F48C91DB
:103000009095892302C08C91892B8C932FBF0895B2
:10301000682F70E0CB0182559F4FFC012491CB01BA
:1030200086569F4FFC0144916A577F4FFB01949154
:10303000992319F420E030E03CC0222351F12330E1
:1030400071F0243028F42130A1F0223011F514C0A1
:103050002630B1F02730C1F02430D9F404C080917B
:1030600080008F7703C0809180008F7D80938000E7
:1030700010C084B58F7702C084B58F7D84BD09C030
:103080008091B0008F7703C08091B0008F7D8093D6
:10309000B000892F90E0880F991F84589F4FFC0142
:1030A000A591B4918C9120E030E0842311F021E0CF
:1030B00030E0C9010895629FD001739FF001829FA3
:1030C000E00DF11D649FE00DF11D929FF00D839FB7
:1030D000F00D749FF00D659FF00D9927729FB00D54
:1030E000E11DF91F639FB00DE11DF91FBD01CF0167
:1030F00011240895A1E21A2EAA1BBB1BFD010DC0CD
:10310000AA1FBB1FEE1FFF1FA217B307E407F50797
:1031100020F0A21BB30BE40BF50B661F771F881F73
:10312000991F1A9469F760957095809590959B0109
:10313000AC01BD01CF01089597FB092E05260ED0E5
:1031400057FD04D0D7DF0AD0001C38F450954095C5
:10315000309521953F4F4F4F5F4F0895F6F790956B
:103160008095709561957F4F8F4F9F4F08952F9257
:103170003F924F925F926F927F928F929F92AF9207
:10318000BF92CF92DF92EF92FF920F931F93CF9354
:10319000DF93CDB7DEB7CA1BDB0B0FB6F894DEBFEB
:1031A0000FBECDBF09942A88398848885F846E8411
:1031B0007D848C849B84AA84B984C884DF80EE805B
:1031C000FD800C811B81AA81B981CE0FD11D0FB664
:1031D000F894DEBF0FBECDBFED010895F894FFCF88
:1031E000FFFFFFDC05DC05DC05DC05E803DC05E8AA
:1031F00003DC05DC05DC05DC05DC05070105010F4A
:103200000103010B0109010D0111010F010301056A
:103210000107010B0109010D011101030105010F56
:103220000107010B0109010D01110100000001015D
:10323000010201000000000000000000000000FF8B
:10324000010000000000000002000000000000007B
:10325000000000000000000102FC01FD01FE010071
:10326000000000000000000301050107010B010040
:103270000000000000000002020402060208020032
:1032800000000000000000000004050607FFFFFF2B
:10329000FFFF7889988778899887FF0000000000F1
:1032A000000500040003000200A0860100801A0649
:1032B00000050404040304030201FBFBFB010101FC
:0C32C000010000001002120214021602AD
:00000001FF
