:100000000C9483010C94AB010C94AB010C94AB01E8
:100010000C94AB010C94AB010C94AB010C947406E2
:100020000C94AB010C94A2060C944E170C94D217AE
:100030000C94AB010C94AB010C94AB010C94AB0190
:100040000C94AB010C9413120C94AB010C94AB0107
:100050000C94FA010C94AB010C94AB010C941B1999
:100060000C94AB010C94AB010C94AB010C94AB0160
:100070000C94AB010C946A040C94AB010C94AB018E
:100080000C94AB010C94AB010C94AB010C94AB0140
:100090000C94AB010C94AB010C94AB010C94AB0130
:1000A0000C94AB010C94AB010C94AB01651A681A6B
:1000B0005B1A5F1A891A891A891A6C1A701A741ACB
:1000C0007A1A7E1A891A841A080B000202020100A9
:1000D00009040000010202000005240010010524AB
:1000E000010101042402060524060001070581031D
:1000F00010004009040100020A0000000705020286
:1001000040000007058302400000040309042203A5
:10011000410072006400750069006E006F002000ED
:100120004C0065006F006E006100720064006F009B
:100130001803410072006400750069006E006F00D2
:1001400020004C004C00430012010002000000405F
:100150004123368000010102000112010002020069
:1001600000404123368000010102000100C180816E
:10017000C100000000240027002A002D00300000EC
:10018000000000250028002B002E00310000000098
:10019000002300260029002C002F0004040404047E
:1001A000030405020202020403020202020606061A
:1001B000060606040402020204040802011040803C
:1001C000401020408040800802040180402010023E
:1001D000011080102040400000000200080E0000C6
:1001E000030401000B0000000000000000000000FC
:1001F0000000000000070605040100080A0B0C0DB2
:100200000905010902A1010901A1008501050919DA
:1002100001290315002501950375018102950175DA
:1002200005810305010930093109381581257F75DC
:100230000895038106C0C005010906A101850205D4
:100240000719E029E7150025017501950881029538
:1002500001750881039506750815002565050719C0
:100260000029658100C009040200010300000009A3
:1002700021010100012265000705840340000100FF
:10028000000000000000002A2B28000000000000F1
:100290000000000000000000000000000000002C32
:1002A0009EB4A0A1A2A434A6A7A5AE362D373827A8
:1002B0001E1F20212223242526B333B62EB7B89F34
:1002C0008485868788898A8B8C8D8E8F9091929376
:1002D0009495969798999A9B9C9D2F3130A3AD3514
:1002E0000405060708090A0B0C0D0E0F1011121356
:1002F0001415161718191A1B1C1DAFB1B0B5000044
:10030000EB149E16271B11241FBECFEFDAE0DEBFD1
:10031000CDBF11E0A0E0B1E0E8E8F9E302C005904C
:100320000D92A83CB107D9F713E0A8ECB1E001C0E9
:100330001D92AC35B107E1F713E0C6E0D3E004C08D
:100340002297FE010E94BE1CC030D107C9F70E944F
:10035000B3150C94C21C0C940000A0E0B0E0E3EBD9
:10036000F1E00C948F1C7C01EB018A01690109C04A
:10037000CE012196F6010995F70181937F01015085
:10038000104001151105A1F7CDB7DEB7E8E00C94D8
:10039000AB1CA0E0B0E0EFECF1E00C948F1CEC01A2
:1003A0007B018A01690109C0CE012196F7016191A3
:1003B0007F01F60109950150104001151105A1F7C3
:1003C000CDB7DEB7E8E00C94AB1C9C01F999FECFE9
:1003D00032BD21BDF89A80B508959C01F999FECFF0
:1003E0001FBA32BD21BD60BD0FB6F894FA9AF99AD2
:1003F0000FBE08951F920F920FB60F9211248F9384
:100400009F9380911F029091200201969093200269
:1004100080931F0280911F0290912002892B29F462
:10042000809121028F5F809321029F918F910F9085
:100430000FBE0F901F9018956091840070918500F9
:1004400020911F0230912002E091210280918400CE
:10045000909185008627972797FDEECF80911F0208
:10046000909120022817390739F780912102E81767
:1004700019F740E050E0FFE0220F331F441F551FE3
:10048000FA95D1F78E2F90E0A0E0B0E0BB278695DB
:10049000B795AA2799278827282B392B4A2B5B2B1E
:1004A00076956795CB01A0E0B0E0282B392B4A2B3D
:1004B0005B2BB901CA010895AF92BF92CF92DF9230
:1004C000EF92FF920F931F9328EE33E040E050E04D
:1004D0000E94291C5B016C010E941C027B018C01A3
:1004E0000E941C026E197F09800B910B6A157B0517
:1004F0008C059D05A8F31F910F91FF90EF90DF9061
:10050000CF90BF90AF9008959B01AC018091C9023C
:100510009091CA02A091CB02B091CC02821B930BA6
:10052000A40BB50B181619061A061B060CF458C0B6
:100530008091CD02882301F5E091CE02EF5FE37058
:10054000E093CE02FF27E7FDF095EE5DFD4F808141
:10055000992787FD9095880F991F8093CD02205C85
:100560003D4B404F5F4F2093C9023093CA024093E6
:10057000CB025093CC02089581508093CD02809598
:10058000982F917080FF04C0913021F45D9A06C0CD
:100590005D9804C08BB190E289278BB9E091CE02BF
:1005A000FF27E7FDF095EE0FFF1FEA5DFD4F80810D
:1005B0009181AA2797FDA095BA2F6AE0880F991F0D
:1005C000AA1FBB1F6A95D1F7820F931FA41FB51FE7
:1005D0008093C9029093CA02A093CB02B093CC023D
:1005E0000895482F84EA8093BC002FEF30E011C0BB
:1005F0002115310561F41092BC0080912E0290917A
:100600002F02019690932F0280932E0206C0215054
:1006100030408091BC0087FFEBCF4093BB0084E863
:100620008093BC002FEF30E011C02115310561F43B
:100630001092BC0080912E0290912F02019690930F
:100640002F0280932E020895215030408091BC00EB
:1006500087FFEBCF0895482F882311F484E801C069
:1006600084EC8093BC002FEF30E011C021153105E0
:1006700061F41092BC0080912E0290912F0201969D
:1006800090932F0280932E0206C02150304080911B
:10069000BC0087FFEBCF9091BB00442319F484E9A1
:1006A0008093BC00892F08950F931F93162F042F5A
:1006B000880F0E94F1021093BB0084E88093BC0075
:1006C0002FEF30E011C02115310561F41092BC000C
:1006D00080912E0290912F02019690932F02809389
:1006E0002E0206C0215030408091BC0087FFEBCF26
:1006F0000093BB0084E88093BC002FEF30E011C072
:100700002115310561F41092BC0080912E02909168
:100710002F02019690932F0280932E0206C0215043
:1007200030408091BC0087FFEBCF84E98093BC0010
:100730001F910F9108950F931F93082F162F880F65
:100740000E94F1021093BB0084E88093BC002FEF5D
:1007500030E011C02115310561F41092BC00809188
:100760002E0290912F02019690932F0280932E02D9
:1007700006C0215030408091BC0087FFEBCF000FB6
:10078000802F81600E94F10281E00E942B031F9163
:100790000F9108951F93CF93DF93EB01142F880FD0
:1007A00081600E94F10208C0115080E011160CF423
:1007B00081E00E942B0389931123B1F7DF91CF9140
:1007C0001F910895FF920F931F93CF93DF93082FEC
:1007D000162FEA01F22E880F0E94F1021093BB003F
:1007E00084E88093BC002FEF30E011C02115310563
:1007F00061F41092BC0080912E0290912F0201961C
:1008000090932F0280932E0206C021503040809199
:10081000BC0087FFEBCF802FBE014F2D0E94CA0383
:10082000CDB7DEB7E5E00C94AE1C88E66BE640E899
:100830000E94540362E370E080E090E00E945C025A
:1008400088E66BE643E00E94540388E66AE140E0F4
:100850000E94540388E66BE148E10E94540388E655
:1008600065E70E949B0390E08E77883609F491E05B
:10087000892F0895A6E0B0E0E0E4F4E00C948F1C2A
:100880008C017B016A0188E663E4AE014F5F5F4F34
:1008900026E00E94E203998180E02A8130E0822BE9
:1008A000932BF801918380839B8180E02C8130E041
:1008B000822B932BF701918380839D8180E02E8191
:1008C00030E0822B932BF601918380832696E8E01B
:1008D0000C94AB1C1F920F920FB60F9211242F9302
:1008E0008F939F93EF93FF9390917C009770E92FE4
:1008F000F0E0EE0FFF1FE05DFD4F0190F081E02D75
:10090000809179008083292F16C0E22FF0E0EE0F4E
:10091000FF1FE05DFD4F80819181892B61F0809107
:100920007C00887F282B20937C0080917A00806453
:1009300080937A0003C02F5F283039F7FF91EF9141
:100940009F918F912F910F900FBE0F901F90189530
:10095000CF93DF93A0E3B2E0FD0140E050E061E01F
:1009600070E080819181892B79F087B1EB01042EB1
:1009700002C0CC0FDD1F0A94E2F79E01209582236E
:1009800087B988B1282328B94F5F5F4F3296463028
:10099000510539F780E680937C0010927B008FE848
:1009A00080937A0020E08D919C911197892B61F0C2
:1009B00080917C00887F282B20937C0080917A0096
:1009C000806480937A0004C02F5F1296283059F714
:1009D000DF91CF910895ECE3F2E040E050E061E078
:1009E00070E080819181892B79F034B1CB01042EA4
:1009F00002C0880F991F0A94E2F7282F209523231D
:100A000024B925B1822B85B94F5F5F4F32964830AC
:100A1000510539F7ECE4F2E040E050E061E070E0CD
:100A200080819181892B79F037B1CB01042E02C0EE
:100A3000880F991F0A94E2F7282F2095232327B9BE
:100A400028B1822B88B94F5F5F4F329648305105ED
:100A500039F7ECE5F2E040E050E061E070E08081E1
:100A60009181892B79F03AB1CB01042E02C0880F15
:100A7000991F0A94E2F7282F209523232AB92BB136
:100A8000822B8BB94F5F5F4F32964830510539F753
:100A9000089560E070E040E050E0A1E0B0E0362F63
:100AA000FA01E45CFD4F0190F081E02D309751F0A8
:100AB00023B1CD01062E02C0880F991F0A94E2F7D8
:100AC00028232083FA01E45BFD4F0190F081E02DA3
:100AD000309751F026B1CD01032E02C0880F991F27
:100AE0000A94E2F728232083FA01E45AFD4F01908B
:100AF000F081E02D309749F029B1CD0102C0880F77
:100B0000991F3A95E2F7282320836F5F7F4F4E5F4E
:100B10005F4F4031510519F60895A0E0B0E0E3E9D8
:100B2000F5E00C948D1C009184001091850080915B
:100B3000430393B1909343037894292F28278095FA
:100B40008923A6E4B1E0E8E4F3E060E070E0C22EBF
:100B5000DD24E82EFF2421E0CD91DC911197209730
:100B600079F1C601062E02C0959587950A94E2F7A1
:100B700080FF26C0C701062E02C0959587950A946E
:100B8000E2F780FF03C0118300831AC08081918146
:100B9000A801481B590B569547958CE7A82E8CEF5A
:100BA000B82EA40EB51E81EBA81684E0B80640F45A
:100BB0005983488380916D02681711F420936C0269
:100BC0006F5F7F4F129632966830710529F6CDB768
:100BD000DEB7EAE00C94A91C2091840030918500D6
:100BE000809144039CB19093440378948095892329
:100BF00086FF05C030934103209340030895809100
:100C0000400390914103281B390B36952795C90164
:100C100084589340815B944020F4309317012093D3
:100C200016010895409184005091850080914503FC
:100C30009CB19093450378948095892386FF53C097
:100C400080914603909147039A01281B390B3695F2
:100C5000279550934703409346038BE0293B380781
:100C600058F080914203815080936D0210924203AC
:100C700081E08093C80208958091C802882399F189
:100C800080914203883078F593E02438390758F191
:100C900098E02533390738F5E0911902F0911A02EE
:100CA000319763E0EE0FFF1F6A95E1F7E80FF11D42
:100CB000EE0FFF1FEA5DFE4F0190F081E02D3183C2
:100CC000208340914203242F30E080916D029927C8
:100CD00087FD90952817390719F481E080936C02FD
:100CE0004F5F4093420308951F920F920FB60F92E9
:100CF00011242F933F934F935F936F937F938F9321
:100D00009F93AF93BF93EF93FF93809119029091BC
:100D10001A02181619061CF40E94120602C00E943C
:100D2000EC05FF91EF91BF91AF919F918F917F91D2
:100D30006F915F914F913F912F910F900FBE0F9048
:100D40001F9018951F920F920FB60F9211242F9398
:100D50003F934F935F936F937F938F939F93AF9343
:100D6000BF93EF93FF930E948D05FF91EF91BF9189
:100D7000AF919F918F917F916F915F914F913F9133
:100D80002F910F900FBE0F901F9018958091190210
:100D900090911A021816190664F480916A00806115
:100DA00080936A00EE9A6E98769A83E080936D0243
:100DB000089580916800816080936800E6E4F1E026
:100DC00040E050E061E070E080819181892BA1F0EA
:100DD00020916B00CB01042E02C0880F991F0A944A
:100DE000E2F7282B20936B0034B1282F2095232382
:100DF00024B925B1822B85B94F5F5F4F32964830B9
:100E0000510511F783E080936D0280916A00806143
:100E100080936A00EE9A6E98769A0895A6E0B0E004
:100E2000E4E1F7E00C94851C7A8369839E838D83CB
:100E30002B011C019B012A5F3F4F3C832B83ED81DB
:100E4000FE810681178180819181081B190B380171
:100E5000882477FC8094982CF10182899389A48955
:100E6000B589860D971DA81DB91D828B938BA48B08
:100E7000B58BE981FA812289338944895589AA246D
:100E8000BB246501A21AB30AC40AD50A8A159B05B8
:100E9000AC05BD054CF05C016D01281739074A0708
:100EA0005B0714F459016A01ED81FE818485958503
:100EB000AA2797FDA095BA2FA4019301281B390BEF
:100EC0004A0B5B0BCA01B90115870487F20124851F
:100ED0003585442737FD4095542F0E94291C7B01FE
:100EE0008C01A2E015950795F794E794AA95D1F7A0
:100EF000F20120813181442737FD4095542FC401F0
:100F0000B3010E94291CF3E0959587957795679525
:100F1000FA95D1F7E60EF71E081F191FF201268178
:100F20003781442737FD4095542FC601B5010E94F3
:100F3000291CE6E09595879577956795EA95D1F711
:100F4000E60EF71E081F191FE981FA81068804C002
:100F500015950795F794E7940A94D2F7ED81FE81F1
:100F6000F78EE68E3296FE83ED8324E030E0220E8B
:100F7000331E42E050E0440E551E8B819C81481682
:100F8000590609F05CCF2696E2E10C94A11CA6E07C
:100F9000B0E0EDECF7E00C94951CCE010196BE019B
:100FA0006D5F7F4FAE014B5F5F4F0E943A048B81B4
:100FB0009C81909581959F4F90930A02809309029E
:100FC00049815A8166277727641B750B70930C0241
:100FD00060930B022D813E8130930E0220930D020F
:100FE00080911B0290911C028130910519F00297AB
:100FF000B1F409C030930C0220930B0250930E02FF
:1010000040930D020CC088279927821B930B909365
:101010000C0280930B0270930E0260930D022696D1
:10102000E2E00C94B11CA0E0B0E0E9E1F8E00C943F
:101030008D1C7C018C01EB01F70160E070E02BC09E
:101040002181328188819981281739070CF4C901DF
:1010500092838183218532858881998182179307C4
:101060000CF4C9019287818729913991442737FD72
:101070004095542FD8011F96AD90BD90CD90DC9037
:101080005297A20EB31EC41ED51E1F96AD92BD92DE
:10109000CD92DC9252979B016F5F7F4F32960C5F2F
:1010A0001F4FD70111968D919C91129728173907E0
:1010B0003CF2CDB7DEB7EAE00C94A91CA0E0B0E0AA
:1010C000E4E6F8E00C948F1CEC017C01B3E2CB2E3B
:1010D000D12CC80ED91E00E010E011C02BA53CA5F4
:1010E000442737FD4095542FF70167857089818922
:1010F00092890E946A1CF601219331936F01980135
:101100000F5F1F4F84E090E0E80EF91E89819A81FD
:10111000281739071CF3CDB7DEB7E8E00C94AB1CF9
:10112000A8E0B0E0E6E9F8E00C948F1C8C01809117
:10113000CB019091CC019A8389838091CF019091CA
:10114000D0019C838B838091D1019091D2019E83A9
:101150008D838091CD019091CE0198878F83C801B6
:10116000BE016F5F7F4F0E941308D8019B968D913F
:101170009C919C9701969C969C938E939B9784360A
:10118000910509F070C01196ED90FC9012976801DE
:10119000F80160E040E050E00CC083859485238135
:1011A0003481821B930B44970CF46F5F4F5F5F4F4A
:1011B00032964E155F058CF3862F992787FD909503
:1011C0008E159F05F9F4C8010E945E08F80183A1FD
:1011D00094A190931F0180931E0185A196A19093E5
:1011E00021018093200187A190A5909323018093F2
:1011F000220181A592A5909325018093240181E08D
:10120000808331C0D8011C9284E090E012969C93B8
:101210008E931197F80140E050E08FEFE82E8FE7B2
:10122000F82E60E070E80BC0F282E182728761877D
:10123000D6011F961D921D921D921C9252979A01E3
:101240004F5F5F4F329684E090E0C80ED91ED80100
:1012500011968D919C911297281739072CF39C9623
:101260001C921E929B972896E8E00C94AB1CA6E07B
:10127000B0E0EDE3F9E00C948F1C8C018091090241
:1012800090910A029A83898380910B0290910C02BB
:101290009C838B8380910D0290910E029E838D839F
:1012A000C801BE016F5F7F4F0E941308F80183A53C
:1012B00094A5019694A783A78C52914009F064C02D
:1012C000F801E180F280D80160E040E050E00CC01D
:1012D0008385948523813481821B930BC2970CF400
:1012E0006F5F4F5F5F4F32964E155F058CF3862F11
:1012F000992787FD90958E159F05C9F4C8010E9416
:101300005E08F80183A194A19093040280930302E4
:1013100085A196A1909306028093050287A190A5CE
:10132000909308028093070281E080832DC0F8012A
:10133000108283E090E092838183680140E050E076
:101340009FEFE92E9FE7F92E60E070E80DC012963E
:10135000FC92EE9211971A967C936E931997F60170
:101360001786108A118A128A9A014F5F5F4F129670
:1013700084E090E0C80ED91EF8018181928128177F
:1013800039072CF314A613A62696E8E00C94AB1CA0
:1013900040910C0150910D0180910C0190910D0133
:1013A0004817590721F04091CB015091CC0150933F
:1013B000CC014093CB0120910E0130910F0180911F
:1013C0000E0190910F012817390721F02091CF01CC
:1013D0003091D0013093D0012093CF0120911001A2
:1013E0003091110180911001909111012817390756
:1013F00021F02091D1013091D2013093D20120937C
:10140000D10120911201309113018091120190912C
:1014100013012817390721F02091CD013091CE0119
:101420003093CE012093CD0120911401309115010C
:1014300080911401909115012817390721F020910E
:10144000D3013091D4013093D4012093D301209162
:1014500016013091170180911601909117012817FC
:10146000390721F02091D5013091D6013093D60172
:101470002093D50120911801309119018091180114
:10148000909119012817390721F02091D701309147
:10149000D8013093D8012093D70120911A013091BF
:1014A0001B0180911A0190911B012817390721F027
:1014B0002091D9013091DA013093DA012093D901DA
:1014C0008091150290911602892B21F45093CE0140
:1014D0004093CD010895FC01809115029091160270
:1014E0008130910571F1823091051CF4892B41F016
:1014F000B3C08230910509F462C0039709F0ACC013
:10150000808191812091CB013091CC01820F931F7A
:101510009093E8018093E701808191812091CD0132
:101520003091CE01820F931F9093EE018093ED01D5
:10153000828193812091CF013091D001820F931F3E
:1015400031C0408151818091CB019091CC01480FF5
:10155000591F628173818091CF019091D001680FF2
:10156000791FCB01840F951F9C01B3E0359527951A
:10157000BA95E1F795958795280F391F2757314080
:101580003093E8012093E701461B570BCA01B3E0F3
:1015900095958795BA95E1F755954795840F951FD1
:1015A00084529A4F9093EA018093E9018481958156
:1015B0002091D1013091D201820F931F49C08081C7
:1015C00091812091CB013091CC01820F931F909398
:1015D000E8018093E701808191812091CD013091D4
:1015E000CE01820F931F9093EE018093ED016281F3
:1015F00073818091CF019091D001680F791F448150
:1016000055818091D1019091D201480F591FCA0193
:10161000860F971F9C01F3E035952795FA95E1F722
:1016200095958795280F391F275731403093EA0148
:101630002093E901461B570BCA0133E09595879526
:101640003A95E1F755954795840F951F84529A4F27
:101650009093EC018093EB018091D7019091D80198
:101660009093F0018093EF018091D9019091DA017C
:101670009093F2018093F1010895A8E0B0E0E3E4D3
:10168000FBE00C94931C8091170290911802029732
:10169000A9F5FE01319688E0DF011D928A95E9F7F0
:1016A000CF010E946B0AAFE9B1E003EF11E04BEF0D
:1016B00051E06D917C911197F80120813181FB01FE
:1016C00080819181281739070CF4C901F8019183B1
:1016D0008083FA0120813181FB0180819181821711
:1016E00093070CF4C901FA0181939193AF0112960B
:1016F0000E5F1F4FF1E0A73ABF07D9F68FE092E0E7
:101700000E946B0A80E090E0FC01E156FE4FA08150
:10171000B1814D915C911197FC01ED50FE4F01900C
:10172000F081E02D4E175F0754F0FC01E550FE4FAD
:1017300020813181FA01241735070CF4F901ED936A
:10174000FC93029688309105F9F62896E4E00C9413
:10175000AF1C81E080936E022FB7F8948091E7016F
:101760009091E8019093DC018093DB018091E90185
:101770009091EA019093DE018093DD018091EB016D
:101780009091EC019093E0018093DF018091ED0155
:101790009091EE019093E2018093E1018091EF013D
:1017A0009091F0019093E4018093E3018091F10125
:1017B0009091F2019093E6018093E501EFE6F0E06D
:1017C000808182608083B19A8091840090918500AD
:1017D000049690938900809388002FBF0895FC01A0
:1017E000828183832091CB013091CC01458154E0EB
:1017F000213B350714F490E00DC0C9018451954098
:101800008159914010F491E005C0285037400CF404
:1018100053C092E0442319F082E0891B982F9083F3
:101820002091CF013091D001468154E0213B350712
:1018300014F490E00CC0C901845195408159914045
:1018400010F491E004C028503740C4F192E04423E2
:1018500019F082E0891B982F91838781882351F4A6
:101860008081882329F0823029F481E085831082E9
:1018700081E087838085882361F48181882319F042
:10188000823039F404C081E0868382E0818381E084
:10189000808730813F5F818123E08202C001112473
:1018A000380F3283938180E0391729F081E09295D7
:1018B000907F932B948308959081B1CF9181CCCF69
:1018C0001F93CF93DF93EC01162F60E070E04DE0A3
:1018D00050E025EE31E00E94AD018881811711F0C2
:1018E0008FEF12C090E020E030E0FE01E20FF31F26
:1018F0008081980F2F5F3F4F2D303105B1F799232D
:1019000011F480E001C08EEFDF91CF911F91089517
:10191000DC0190E020E030E0FD01E20FF31F808168
:10192000980F2F5F3F4F2C303105B1F791951C96E2
:101930009C931C9780E090E0BD014DE050E02DEEBF
:1019400031E00E94C9010895A5E1B0E0EAEAFCE0B7
:101950000C94851C1C01CE01099662E00E94600C6B
:101960009A859F5F99838C8584508A838D85845066
:101970008B838E8584508C838F858F5F8D8389893F
:101980008F5F8E838B898F5F8F8381E08887B92EED
:10199000BB0CDD24AA24EE24FF248701F0E86F2E7F
:1019A000FAE17F2EF6E08F2E912CE2E0CE2E2E0172
:1019B0000894411C511C0E941C029B01AC01DC01DB
:1019C000CB018E199F09A00BB10B681679068A0608
:1019D0009B060CF051C01C1424F58C2D992787FD13
:1019E0009095FC01E170F07080FD03C088E097E005
:1019F00002C08CED95E09093EA018093E9018CEDB3
:101A000095E09093E8018093E701EE0FFF1FEE0F42
:101A1000FF1FE957FE4F6080718082809380CA94D7
:101A200029C0BB2039F11B1424F46CE271E0A1E061
:101A300003C064ED7EEFAFEF8B2D992787FD909566
:101A4000FC01E170F07080FF03C08CED95E003C0F5
:101A5000CB0184529A4F9093E8018093E701EE0FF7
:101A6000FF1FEE0FFF1FE957FE4F608071808280DD
:101A70009380BA1A79018A0180916C02882329F037
:101A800010926C020E94C80902C0AA2041F0809105
:101A90006E02882309F0A9C00E94A90BAA24CC20B9
:101AA00009F089CFC1010E94EF0B882309F483CF8D
:101AB000F1018481843561F0853520F4823509F0A7
:101AC0005FC01DC0863579F0883509F059C030C037
:101AD000F1E0FD1514F0DD2401C0DA94CD2CCC0C1E
:101AE00082E0C80E43C095E09D151CF497E0D92E06
:101AF00001C0D394CD2CCC0CE2E0CE0E37C0AD2D7E
:101B0000BB27A7FDB095F201EA0FFB1F8081282FAC
:101B1000332727FD30952F5F3F4FFD01E157FE4FE3
:101B20008081992787FD909582179307D4F418C078
:101B3000AD2DBB27A7FDB095F201EA0FFB1F8081F9
:101B4000282F332727FD309521503040FD01E956DD
:101B5000FE4F8081992787FD9095281739070CF44F
:101B60009C01A40DB51D2C93B22E09C01C1444F485
:101B7000ED2DFF27E7FDF095E40DF51DB080BB0CC2
:101B8000F7E0DF1609F017CF8885823009F013CF10
:101B90008981992787FD909501979B878A878A81FC
:101BA0008C5F8C878B818C5F8D878C818C5F8E871F
:101BB0008D81992787FD90950197988B8F878E81CE
:101BC000992787FD909501979A8B898B8F8199270B
:101BD00087FD909501979C8B8B8BCE0109960E9477
:101BE000880C6596E2E10C94A11CAA24A39457CF1B
:101BF000A2E8B0E0EEEFFDE00C94851C0E941C0210
:101C0000C158DF4F688379838A839B83CF57D04045
:101C1000DE011196E1E8F1E086E001900D9281503D
:101C2000E1F781E08E878D8785E08F871B8A1A8A8E
:101C30001D8A1C8A84E090E0988F8F8BFE01799634
:101C4000DE01999640E050E00FEF1FE760E070E89A
:101C500009C011830083718760871D921D921D92B8
:101C60001D9232969A014F5F5F4F8F89988D28178A
:101C700039077CF3FE01EF5BFF4F11821082FE01FA
:101C8000ED5BFF4F83E090E092838183DF01139649
:101C9000BF016D5E7F4F40E050E06F01EFEFEE2E31
:101CA000EFE7FE2E00E010E80EC01196FC92EE92D7
:101CB00019961C930E931897FB0111921192119291
:101CC0001192BF0112969A014F5F5F4FF601818119
:101CD0009281281739074CF31E8A108214A613A686
:101CE000C158DF4F288139814A815B81CF57D0406D
:101CF0002093C2023093C3024093C4025093C502A2
:101D0000EF962CAF3DAF4EAF5FAFEF97BA01A90191
:101D1000EB964CAF5DAF6EAF7FAFEB977A018B0167
:101D2000E7964CAF5DAF6EAF7FAFE797E3961FAE20
:101D3000E397E2961FAEE29751E0E1965FAFE1973D
:101D400073E4272E312C2C0E3D1E06C0E796ACAE58
:101D5000BDAECEAEDFAEE7970E941C025B016C0108
:101D60000E94840280916C02882389F4D601C50107
:101D7000EF962CAD3DAD4EAD5FADEF97821B930B53
:101D8000A40BB50B81539547A040B04014F11092BD
:101D90006C020E94C8098E89882309F010C3CE0105
:101DA00046960E949008D1018C91882311F492E00C
:101DB00001C090E020E08E89882309F421E0920F91
:101DC00090932302E8ECF0E0F0932902E0932802DC
:101DD000F6C2E396FFADE397FF2359F080916E02C0
:101DE000882339F40E943D0B0E94A90BE3961FAE95
:101DF000E397D601C501EB962CAD3DAD4EAD5FAD81
:101E0000EB97821B930BA40BB50B81519742A0401B
:101E1000B04024F10E94C707D1018C918823C1F4FE
:101E2000C1010E943709F1018081882311F492E0F9
:101E300001C090E020E08E89882309F421E0920F10
:101E40009093230228EC30E030932902209328025B
:101E5000EB96ACAEBDAECEAEDFAEEB97E1963FAD4E
:101E6000E197332309F456C0CE010D960E94EF0B83
:101E7000882309F44FC0E2964FADE297E42FFF2785
:101E8000E7FDF095E858FE4F99898081981721F079
:101E9000E2961FAEE29707C0E2965FADE2975F5F02
:101EA000E2965FAFE297E2966FADE297E62FFF27EB
:101EB000E7FDF095E858FE4F80818F3F81F4CE0119
:101EC0000D960E94A40C2EE088E190E00FB6F894E5
:101ED000A895809360000FBE20936000FFCFD601CD
:101EE000C501C158DF4F288139814A815B81CF57B5
:101EF000D040821B930BA40BB50B815C914EA44E7A
:101F0000B04024F0E1961FAEE19704C041E0E196B5
:101F10004FAFE1978E89882309F41ECFD1018C91B0
:101F2000882309F419CFD601C5018E199F09A00B8A
:101F3000B10B81519742A040B0400CF401C24091D6
:101F4000CD015091CE018091CB019091CC01480FF1
:101F5000591F80911E0190911F01481B590B8091C0
:101F6000240190912501481B590B5595479557FF22
:101F700003C0509541955F4FE091CF01F091D001A2
:101F80008091200190912101E81BF90BF7FF03C01C
:101F9000F095E195FF4F6091D1017091D201809150
:101FA000220190912301681B790B77FF03C0709584
:101FB00061957F4FCA0121E04139520714F080E951
:101FC00091E0A0E9B1E0A81BB90BB887AF83CF01BE
:101FD000B1E0E139FB0714F080E991E020E931E05C
:101FE000281B390B3A872987CB0131E06139730708
:101FF00014F080E991E0A0E9B1E0A81BB90BBC871F
:10200000AB872091D3013091D401B5E02D3D3B0742
:102010002CF087E02D36380744F016C08CED95E0A3
:10202000821B930B815991407CF4B5E02D3D3B0719
:1020300024F089010C5D154011C00CED15E0021B68
:10204000130B21E030E00CC02D5D35402CF421E075
:1020500030E000E911E004C000E911E022E030E0E6
:1020600080911D0290911E0228173907B1F030931C
:102070001E0220931D022130310511F084E001C0C1
:1020800080E080932302A8ECB0E0B0932902A093F3
:1020900028029924939488248394453651051CF48E
:1020A000E536F10514F0992493946536710514F022
:1020B00088248394992081F01092AF021092B0028C
:1020C0001092B1021092B2021092B3021092B402B6
:1020D0001092B5021092B602882041F01092B70219
:1020E0001092B8021092B9021092BA0210929E0297
:1020F00010929D021092A00210929F021092A202D2
:102100001092A1022091090230910A0280910302EB
:1021100090910402281B390BB0E220303B0714F0E9
:102120002FEF3FE1C901E0EE20303E0714F480E0DC
:1021300090EE9093A4028093A30220910B02309121
:102140000C028091050290910602281B390BF0E2E7
:1021500020303F0714F02FEF3FE1C90120EE80301F
:10216000920714F480E090EE9093A6028093A5026B
:1021700020910D0230910E02809107029091080289
:10218000281B390B40E22030340714F02FEF3FE1D9
:10219000C90150EE2030350714F480E090EE9093A2
:1021A000A8028093A70280911D0290911E020197C0
:1021B00019F066E872E002C06FE672E08DE992E025
:1021C0000E940E073BEB432E32E0532EEE24FF24F9
:1021D0003801882477FC8094982C8701015F1D4F7B
:1021E000E1E0F0E0EC0FFD1FEE0DFF1D608171815D
:1021F000882777FD8095982FD2012D913D912D0153
:10220000442737FD4095542F0E94291C27E09595BF
:102210008795779567952A95D1F7E7E0F0E0EC0F81
:10222000FD1FEE0DFF1D20813181442737FD4095B4
:10223000542F0E94291C9B01AC01B9E0559547958C
:1022400037952795BA95D1F7C401B3010E94291C8F
:10225000A9E09595879577956795AA95D1F7F801A7
:102260007183608322E030E0E20EF31E36E0E31675
:10227000F10409F0B2CF2091C10212160CF05CC03B
:102280008091C2029091C302A091C402B091C50294
:10229000B601A501481B590B6A0B7B0BDB01CA0178
:1022A00081549D40A340B0405CF021502093C10276
:1022B000A092C202B092C302C092C402D092C502E0
:1022C0008091C102992787FD909540910F0250910E
:1022D0001002BC016170707080FF03C026E930E01D
:1022E00002C02AE63FEF240F351F309310022093DF
:1022F0000F0240911102509112026115710519F0FF
:1023000026E930E002C02AE63FEF240F351F309364
:102310001202209311022091130230911402672BB4
:1023200019F48AE69FEF02C086E990E0820F931FBE
:1023300090931402809313028601750199248824D6
:10234000D601C501E7962CAD3DAD4EAD5FADE7972B
:10235000821B930BA40BB50B8C59914AA740B0403C
:102360000CF4FACC8091C8012091C9014091CA01B6
:1023700090E0805890409A83898330E02058304024
:102380003C832B8350E0405850405E834D83E0E314
:10239000F2E020E080819181892B61F080917C00C6
:1023A000887F282B20937C0080917A008064809322
:1023B0007A00CCCC2F5F3296283061F7C7CCEF96ED
:1023C000ACAEBDAECEAEDFAEEF9741E0E3964FAF21
:1023D000E39704CD1F931FEF1F5FE12FFF27E7FD5A
:1023E000F095EE0FFF1FEA5AFE4F80819181892BF5
:1023F00069F41F5FE12FFF27E7FDF095EE0FFF1F48
:10240000EA5AFE4F80819181892B59F0E12FFF27F5
:10241000E7FDF095EA59FE4F808161E00E94121AB3
:10242000DBCF1F9108951F920F920FB60F921124C8
:102430002F933F934F935F936F937F938F939F93CC
:10244000AF93BF93CF93DF93EF93FF93E091C702D6
:10245000FF27E7FDF095EA59FE4F808160E00E947A
:102460008A1AE091C602E7FD4BC0C0918400D0916A
:102470008500FF27E7FDF095EA59FE4F808161E076
:102480000E948A1A8091C602E82FFF27E7FDF09587
:10249000EE0FFF1FEA5AFE4F0190F081E02D2081E0
:1024A00031818093C702482F4F5F4093C602E42FCB
:1024B000FF27E7FDF095EE0FFF1FEA5AFE4F8081E0
:1024C0009181892B91F4E42FEF5FE093C602FF27FF
:1024D000E7FDF095EE0FFF1FEA5AFE4F80819181D4
:1024E000892B19F48FEF8093C60222503040220FBF
:1024F000331F2C0F3D1F309389002093880009C0A3
:102500001092C60210926E0280916F008D7F8093B0
:102510006F00FF91EF91DF91CF91BF91AF919F91AC
:102520008F917F916F915F914F913F912F910F907C
:102530000FBE0F901F901895EF92FF920F931F936D
:102540007A018B01882341F083E061E00E948A1ABE
:1025500082E061E00E948A1A1092B90060E074E2A1
:1025600084EF90E0A80197010E94481C2051304060
:102570004040504056954795379527952093B80091
:102580001F910F91FF90EF90089581E040E85AE18C
:1025900066E070E00E949C120E941504882349F4B2
:1025A00085E08093240288EC90E090932B02809346
:1025B0002A020895EF92FF920F931F93CF93DF9318
:1025C000E82EF62E60E00E94121A8F2D61E00E9424
:1025D000121AC0E0D0E0CE018170082F8F2D602F3D
:1025E0000E948A1A8E2D0E94BD1A112707FD109590
:1025F0008017910711F000E005C02196C430D10585
:1026000051F701E08F2D60E00E94121A802FCDB7A4
:10261000DEB7E6E00C94AD1CAFE0B0E0E2E1F3E140
:102620000C94921C559A80915803909159030097ED
:1026300011F09C0102C02CE533E0CE010196821B13
:10264000930B803891054CF484E1809324028EE151
:1026500090E090932B0280932A0210928000E2E097
:10266000FE2EF092810081E080936F0085B5887F17
:1026700085BD24EF31E03093700220936F021092F9
:1026800076021092750230937C0220937B02309385
:1026900072022093710210927802109277023093A6
:1026A0007E0220937D023093740220937302109275
:1026B0007A02109279023093800220937F02109266
:1026C000810210928202109283021092840248E0EA
:1026D000409385028AEF90E0909387028093860270
:1026E00030938D0220938C029093930280939202F8
:1026F000909389028093880230938F0220938E02F8
:10270000909395028093940290938B0280938A0217
:1027100030939102209390029093970280939602B7
:1027200080E090E8A0E0B0E0809398029093990256
:10273000A0939A02B0939B0240939C0285E066E0CE
:102740000E94DA128E010D5F1F4F882391F01B82C9
:10275000C8010E94880C82E3809325028EE190E0FC
:1027600090932D0280932C020E941C020E948402EE
:10277000FBCFC80162E00E94600C87FF27C0209158
:10278000150230911602809109018E8380910A0111
:102790008F8380910B018887809117029091180296
:1027A0009A8789878091190290911A029C878B875A
:1027B00080911B0290911C029E878D873D832C8304
:1027C000FB82C8010E94880C89E001C083E08093ED
:1027D000C1028C819D819093160280931502EE8137
:1027E000E0930901AF81A0930A01988590930B01B2
:1027F000FF27E7FDF095E050FF4F80818093C801EF
:10280000BB27A7FDB095A050BF4F8C918093C90105
:10281000E92FFF27E7FDF095E050FF4F808180937F
:10282000CA0129853A8530931802209317028B85B7
:102830009C8590931A02809319028D859E859093B2
:102840001C0280931B0221303105D1F0223031056A
:1028500061F1232BF1F580E090E048EE53E020EDAC
:1028600037E0FC01ED50FE4F51834083FC01E55001
:10287000FE4F3183208302968830910591F729C05D
:1028800080E090E04CE454E02CE637E0FC01ED50B1
:10289000FE4F51834083FC01E550FE4F318320837E
:1028A00002968830910591F714C080E090E042EEE6
:1028B00054E026ED36E0FC01ED50FE4F518340839D
:1028C000FC01E550FE4F318320830296883091054C
:1028D00091F70E94EB040E944905809119029091A2
:1028E0001A021816190694F483EE91E090935F0192
:1028F00080935E0185E080936A0185EE91E090937C
:1029000061018093600186E080936B0180911502E4
:102910008F5F8093220288E592E090932702809354
:1029200026020E94A8040E94C6060E94EA110E9484
:10293000C5120E94C8090E943D0B2F96E5E00C9439
:10294000AE1C20910F0330911003809111039091E0
:102950001203281B390B2F733070C9010895209181
:102960000F033091100380911103909112032817E7
:10297000390719F42FEF3FEF09C0E0911103F091EF
:102980001203E153FD4F8081282F30E0C9010895E3
:1029900020910F0330911003809111039091120345
:1029A0002817390719F42FEF3FEF13C0E0911103F7
:1029B000F0911203E153FD4F20818091110390911A
:1029C000120301968F7390709093120380931103FA
:1029D00030E0C9010895109216031092150388EE95
:1029E00093E0A0E0B0E08093170390931803A093C6
:1029F0001903B0931A038BEA91E090931403809328
:102A000013030895A1E0B0E0E8E0F5E10C94931C15
:102A10008C01698380917501882369F083E0BE0190
:102A20006F5F7F4F41E050E00E94BD1618161906F7
:102A300014F49C0107C081E090E0F8019383828345
:102A400020E030E0C9012196E4E00C94AF1C83E063
:102A50000E9494160895CF93DF9312C082E00E94E3
:102A60001E162FEF8F3F9207C9F0E0910F03F091F0
:102A70001003E153FD4F8083D0931003C0930F03E5
:102A8000C0910F03D09110032196CF73D070809125
:102A9000110390911203C817D90701F7DF91CF9165
:102AA0000895FC0180818E5F808380E868EC70E08F
:102AB00042E450E00E9438160895FC018181908123
:102AC000913A59F4813209F04CC080E06EE671E031
:102AD00047E050E00E94381642C0913209F041C0F0
:102AE000803239F48EE691E067E070E00E947C1657
:102AF00036C0823209F035C08281809375018091A1
:102B00006E0190916F01A0917001B0917101805B95
:102B10009440A040B04019F58091750180FD12C02D
:102B200087E797E790930108809300082BE088E1FE
:102B300090E00FB6F894A895809360000FBE2093A4
:102B400060000DC088E10FB6F89480936000109289
:102B500060000FBEA895109201081092000881E055
:102B6000089580E00895CF93DF930E94BC1989E215
:102B700093E00E949F160E940C13C0E0D0E00E94D8
:102B8000F80D2097E1F30E940000F9CFA0E0B0E03B
:102B9000ECECF5E10C948F1C7C016B018A01C0E028
:102BA000D0E00FC0D6016D916D01D701ED91FC9180
:102BB0000190F081E02DC7010995C80FD91F015080
:102BC00010400115110571F7CE01CDB7DEB7E8E071
:102BD0000C94AB1C282F809123038823C1F057FF4E
:102BE0001AC015C02898909322038091F100819318
:102BF000E217F307B9F74115510539F08091F2005A
:102C0000882319F48BE68093E800AFBF02C04FEF32
:102C10005FEFCA010895AFB7F89427702093E900D9
:102C20008091F200282F30E0241735070CF4A90119
:102C3000FB019B01240F311D94E6DACFA1E0B0E047
:102C4000E4E2F6E10C94951CBE016F5F7F4F41E01A
:102C500050E00E94EA15019719F02FEF3FEF03C0F3
:102C60008981282F30E0C9012196E2E00C94B11C43
:102C7000FF920F931F93F82E142F052F40912603D8
:102C800050912703212F302FC901DC01FB016EEF8A
:102C900029C0F7FE02C0949101C0908120912403C5
:102CA0003091250324173507ACF48091E800857036
:102CB000E1F38091E80082FF03C02FEF3FEF17C0E0
:102CC0009093F100C90101968F739070892B11F4D4
:102CD0006093E8002F5F3F4F309325032093240338
:102CE000119731961097A9F6812F902F9C01C90159
:102CF0001F910F91FF9008959C018091E80082FF41
:102D0000FCCFF901260F311D03C08091F1008193A2
:102D1000E217F307D1F7289884E6809322038BEF1C
:102D20008093E800CB0108958093E9008091F20040
:102D3000882319F08AE38093E8000895089510929B
:102D4000230381E08093D70080EA8093D80082E15A
:102D500089BD09B400FEFDCF61E070E080E090E045
:102D60000E94631980E98093D8008CE08093E20090
:102D70001092E000559A209A0895A0E0B0E0E3ECAC
:102D8000F6E10C94881CE82E842E752E8091230386
:102D9000882371F18B01242F352FC901EC017AEFC3
:102DA000F72E67E0962E9E2050E4552E8E2D90E053
:102DB00040E2A42EB12CA822B9223AE3632E20E4EB
:102DC000C22ED12CC822D92258C09FB7F894909215
:102DD000E9008091E80085FD02C020E004C08091F8
:102DE000F200252D281B9FBF222361F4FA9419F4C9
:102DF0002FEF3FEF4DC061E070E080E090E00E9477
:102E000063193BC0822F90E0C817D9070CF42C2F10
:102E1000C21BD1094FB7F8949092E900A114B104F4
:102E200021F406C01092F10021502223D9F719C0D5
:102E3000E7FC03C0F801922F10C0C801322F06C072
:102E4000FC010196E491E093F10031503323C1F786
:102E500006C081918093F10091509923D1F7020F20
:102E6000111D8091E80085FF05C0209729F4C11449
:102E7000D10411F06092E8004FBF209709F0A5CF70
:102E80005D9884E680932103282D372DC9019C018C
:102E9000C901CDB7DEB7EFE00C94A41C1F920F92CE
:102EA0000FB60F9211242F933F934F935F936F931D
:102EB0007F938F939F93AF93BF93EF93FF938091F3
:102EC000E1001092E100982F83FF0FC01092E900FB
:102ED00081E08093EB001092EC0082E38093ED00A0
:102EE0001092230388E08093F00092FF34C083E0C7
:102EF0008093E9008091F200882319F08AE380939F
:102F0000E8008FB7F89492E09093E9009091F20076
:102F10008FBF992321F083E193E00E942B158091CC
:102F20002103882351F08091210381508093210354
:102F300080912103882309F45D9A809122038823DC
:102F400051F08091220381508093220380912203CB
:102F5000882309F4289AFF91EF91BF91AF919F9137
:102F60008F917F916F915F914F913F912F910F9032
:102F70000FBE0F901F901895A1E0B0E0E2ECF7E1D2
:102F80000C94931C19828E010F5F1F4FC8010E9481
:102F90005115C8010E941D1C898190E02196E4E032
:102FA0000C94AF1C1F920F920FB60F921124EF9248
:102FB000FF921F932F933F934F935F936F937F9352
:102FC0008F939F93AF93BF93EF93FF93DF93CF9331
:102FD000CDB7DEB76197DEBFCDBF1092E90080911B
:102FE000E80083FF0FC1FE0131969E01275F3F4F2E
:102FF00003C08091F1008193E217F307D1F728987D
:1030000084E68093220382EF8093E800998197FF02
:1030100005C08091E80080FFFCCF03C08EEF809355
:10302000E800292F30E0C90180769070892B09F0E3
:10303000C2C08A81882329F41092F1001092F10015
:10304000D6C0813009F4D3C0833009F4D0C08530B4
:1030500049F48091E80080FFFCCF8B8180688093E9
:10306000E300C5C0863009F07CC01C81EF80F88485
:103070001230C1F51092E90010922503109224033A
:1030800010922703109226030E94BC1799E0FE01BC
:103090003996DF01292F1D922A95E9F799871A871A
:1030A00091E09E8790E8988B9AEF998B209124036A
:1030B00030912503275F3F4F3C872B878D871092E8
:1030C000E9001092250310922403F0922703E09266
:1030D000260380E0BF0149E050E00E9438160E94BC
:1030E000BC1785C01092E9001092250310922403AA
:1030F000F0922703E0922603123241F482E290E03C
:103100000E94151C892B09F476C071C0113079F426
:1031100088E0E816F10419F481E080932803809197
:103120002803882309F06BC0E8E4F1E013C01330F2
:1031300009F061C08B81882319F4EAE0F1E00AC04C
:10314000823019F4EEE0F1E005C0813009F053C09F
:10315000E0E3F1E0449180E8BF0150E00E943816BE
:1031600046C0873009F447C0883021F481E080935D
:10317000F1003DC08930D9F523703070232BD9F58B
:10318000EDE6F1E091E031E026E39093E900309341
:10319000EB0084918093EC002093ED009F5F3196CB
:1031A000953099F78EE78093EA001092EA008B81C0
:1031B000809323031CC08F8198851092E9001092A0
:1031C00025031092240390932703809326038D8177
:1031D000882329F4CE0101960E945D1506C0823035
:1031E00051F4CE0101960E94ED1A882321F08EEF52
:1031F0008093E80007C081E28093EB0003C0EAE51A
:10320000F1E0A8CF6196DEBFCDBFCF91DF91FF91F6
:10321000EF91BF91AF919F918F917F916F915F914E
:103220004F913F912F911F91FF90EF900F900FBE04
:103230000F901F9018951F920F920FB60F921124A6
:103240002F933F938F939F93AF93BF9380912E03C0
:1032500090912F03A0913003B0913103309132034C
:103260000196A11DB11D232F2D5F2D3720F02D5765
:103270000196A11DB11D2093320380932E039093DC
:103280002F03A0933003B093310380912A039091D0
:103290002B03A0912C03B0912D030196A11DB11D0C
:1032A00080932A0390932B03A0932C03B0932D03B8
:1032B000BF91AF919F918F913F912F910F900FBE32
:1032C0000F901F9018959B01AC017FB7F8948091E7
:1032D0002A0390912B03A0912C03B0912D0366B586
:1032E000A89B05C06F3F19F00196A11DB11D7FBFBE
:1032F000BA2FA92F982F8827860F911DA11DB11DC8
:1033000062E0880F991FAA1FBB1F6A95D1F7BC0105
:103310002DC0FFB7F89480912A0390912B03A091C0
:103320002C03B0912D03E6B5A89B05C0EF3F19F023
:103330000196A11DB11DFFBFBA2FA92F982F882775
:103340008E0F911DA11DB11DE2E0880F991FAA1FCC
:10335000BB1FEA95D1F7861B970B885E9340C8F296
:10336000215030404040504068517C4F211531057C
:103370004105510571F60895789484B5826084BD45
:1033800084B5816084BD85B5826085BD85B5816069
:1033900085BDEEE6F0E0808181608083E1E8F0E0C9
:1033A0001082808182608083808181608083E0E8F8
:1033B000F0E0808181608083E1E9F0E080818260DB
:1033C0008083808181608083E0E9F0E0808181609A
:1033D0008083E1ECF0E08081846080838081826082
:1033E0008083808181608083E3ECF0E08081816074
:1033F0008083E0ECF0E0808182608083E2ECF0E0AA
:10340000808181608083EAE7F0E08081846080834E
:1034100080818260808380818160808380818068F8
:1034200080830895CF93DF93482F50E0CA018754DB
:103430009E4FFC01349145565E4FFA0184918823DA
:1034400069F190E0880F991FFC01EF58FE4FA5919C
:10345000B491FC01E158FE4FC591D491662351F41B
:103460002FB7F8948C91932F909589238C93888112
:1034700089230BC0623061F42FB7F8948C91932F9D
:10348000909589238C938881832B88832FBF06C0D6
:103490009FB7F8948C91832B8C939FBFDF91CF9132
:1034A000089590E0FC013197EE30F10590F5EA5A6D
:1034B000FF4F0C94BC1C809180008F7703C08091DB
:1034C00080008F7D80938000089584B58F7702C03F
:1034D00084B58F7D84BD0895809190008F7707C05B
:1034E000809190008F7D03C080919000877F8093B2
:1034F000900008958091C0008F7703C08091C00034
:103500008F7D8093C00008958091C200877F809353
:10351000C2000895FF920F931F93F62E482F50E09C
:10352000CA0189529E4FFC012491CA0187549E4FC3
:10353000FC01149145565E4FFA0104910023C9F035
:10354000222319F0822F0E94511AE02FF0E0EE0F93
:10355000FF1FE158FE4FA591B4919FB7F894FF204B
:1035600021F48C911095812302C08C91812B8C9336
:103570009FBF1F910F91FF9008950F931F93482FA6
:1035800050E0CA0189529E4FFC012491CA01875420
:103590009E4FFC01049145565E4FFA011491112390
:1035A00019F420E030E015C0222319F0822F0E9488
:1035B000511A812F90E0880F991F83579E4FFC016D
:1035C000A591B4918C9120E030E0802311F021E0AE
:1035D00030E0C9011F910F910895FC019181808114
:1035E000813A31F4913089F080E0933089F40DC054
:1035F000813269F49B3021F482818093760105C089
:103600009A3029F482818093770181E0089580E0E7
:103610000895EF92FF920F931F938C01E62EDC0129
:10362000ED91FC910480F581E02D0995F82ED801EB
:10363000ED91FC910680F781E02DC8016E2D099572
:103640008F2D90E01F910F91FF90EF9008951092B1
:10365000330310923703109236038DEB91E0909371
:103660003503809334030895A1E0B0E0EAE3FBE181
:103670000C94911C89838B017A0184E0BE016F5FF9
:103680007F4F41E050E00E94BD1684E4B801A701DD
:103690000E94BD162196E6E00C94AD1C82E048E045
:1036A00050E00E94341B0895FC0116821782108698
:1036B00011861286138614823496BF010E944E1B17
:1036C0000895DC01683810F0685829C0E62FF0E052
:1036D00067FF13C0E058F04081E090E002C0880F1F
:1036E000991FEA95E2F7809514962C911497282358
:1036F00014962C93149760E012C0E158FD4F64912A
:10370000662319F420E030E01DC067FF08C014965E
:103710008C9114978D7F14968C9314976F77FD017D
:1037200090E0662321F08681861709F416829F5F58
:1037300031969630B1F7CD011496BD010E944E1B13
:1037400021E030E0C9010895CF93DF93DC016838B0
:1037500010F0685825C0E62FF0E067FF12C0E0586F
:10376000F04081E090E002C0880F991FEA95E2F7EF
:1037700014962C911497282B14962C93149760E090
:103780000FC0E158FD4F64916623D9F167FF08C06F
:1037900014968C911497826014968C9314976F777B
:1037A00016968C9116978617A9F117968C911797F4
:1037B000861781F118968C911897861759F11996EA
:1037C0008C911997861731F11A968C911A97861752
:1037D00009F11B968C911B978617E1F0ED01E0E053
:1037E000F0E09E2F8E81882321F4EA0FFB1F668371
:1037F00006C09F5F31962196E630F10591F796302D
:1038000049F481E090E013969C938E93129720E008
:1038100030E007C0CD011496BD010E944E1B21E08F
:1038200030E0C901DF91CF91089580E861E072E056
:1038300045E650E00E9438160895FC0180818F5FB4
:10384000808380E866E672E049E150E00E94381625
:103850000895629FD001739FF001829FE00DF11DDA
:10386000649FE00DF11D929FF00D839FF00D749FFA
:10387000F00D659FF00D9927729FB00DE11DF91FA6
:10388000639FB00DE11DF91FBD01CF011124089503
:10389000A1E21A2EAA1BBB1BFD010DC0AA1FBB1F54
:1038A000EE1FFF1FA217B307E407F50720F0A21BC6
:1038B000B30BE40BF50B661F771F881F991F1A9433
:1038C00069F760957095809590959B01AC01BD015D
:1038D000CF01089597FB092E05260ED057FD04D081
:1038E000D7DF0AD0001C38F45095409530952195CB
:1038F0003F4F4F4F5F4F0895F6F790958095709525
:1039000061957F4F8F4F9F4F08952F923F924F9217
:103910005F926F927F928F929F92AF92BF92CF925F
:10392000DF92EF92FF920F931F93CF93DF93CDB768
:10393000DEB7CA1BDB0B0FB6F894DEBF0FBECDBFE0
:1039400009942A88398848885F846E847D848C84B1
:103950009B84AA84B984C884DF80EE80FD800C81BA
:103960001B81AA81B981CE0FD11D0FB6F894DEBF9D
:103970000FBECDBFED010895EE0FFF1F0590F4912E
:08398000E02D0994F894FFCF3B
:103988000020406080A0C0E0FF080808DC05DC05D6
:10399800DC05DC05E803DC05E803DC05DC05DC0503
:1039A800DC05DC05DC0510010E0118010C01140111
:1039B800120116011A011C011C011C011C011C0129
:1039C8001C011C011C01000010010C010E01140156
:1039D800000000000000DB01DD01DF01E101000063
:1039E800000000000000090A0B0DFFFFFFFF00E1C7
:1039F800000000000000010178899887788998877D
:103A0800FF7F007F007F00A0860100801A06000467
:103A18000404040302030201FCFCFC01010101E7A8
:103A280001E901EB01ED01000000000215C615A136
:103A380014C814AF1427152B1500000000091BC665
:083A480015A41B611B541B00B7
:00000001FF
