:100000000C9462000C948A000C948A000C942F05C6
:100010000C948A000C9453050C948A000C948A006A
:100020000C948A000C948A000C94BD040C943A1130
:100030000C948A000C94D9000C948A000C948A00C9
:100040000C94F3150C948A000C9437140C948514BA
:100050000C948A000C943B030C948A000C948A0044
:100060000C948A000C948A000000000024002700F1
:100070002A0000000000250028002B0000000000DE
:1000800023002600290004040404040404040202DA
:100090000202020203030303030301020408102007
:1000A0004080010204081020010204081020000012
:1000B0000007000201000003040600000000000029
:1000C00000006A1511241FBECFEFD4E0DEBFCDBF04
:1000D00011E0A0E0B1E0EEEEFFE202C005900D926B
:1000E000AA3CB107D9F713E0AAECB1E001C01D9218
:1000F000A43AB107E1F710E0C4ECD0E004C02297C5
:10010000FE010E94F117C23CD107C9F70E94C01539
:100110000C94F5170C940000A0E0B0E0E2E9F0E0E8
:100120000C94C2177C01EB018A01690109C0CE0160
:100130002196F6010995F70181937F010150104046
:1001400001151105A1F7CDB7DEB7E8E00C94DE1775
:10015000A0E0B0E0EEEAF0E00C94C217EC017B0105
:100160008A01690109C0CE012196F70161917F01E1
:10017000F60109950150104001151105A1F7CDB701
:10018000DEB7E8E00C94DE179C01F999FECF32BD92
:1001900021BDF89A80B508959C01F999FECF1FBA48
:1001A00032BD21BD60BD0FB6F894FA9AF99A0FBE20
:1001B00008951F920F920FB60F9211248F939F9361
:1001C00080912402909125020196909325028093BC
:1001D00024028091240290912502892B29F4809198
:1001E00026028F5F809326029F918F910F900FBE02
:1001F0000F901F9018956091840070918500209158
:10020000240230912502E091260280918400909191
:1002100085008627972797FDEECF80912402909145
:1002200025022817390739F780912602E81719F7B0
:1002300040E050E0FFE0220F331F441F551FFA95A6
:10024000D1F78E2F90E0A0E0B0E0BB278695B79560
:10025000AA2799278827282B392B4A2B5B2B7695A1
:100260006795CB01A0E0B0E0282B392B4A2B5B2B04
:10027000B901CA010895AF92BF92CF92DF92EF9277
:10028000FF920F931F9328EE33E040E050E00E946E
:100290005C175B016C010E94FB007B018C010E94DA
:1002A000FB006E197F09800B910B6A157B058C058D
:1002B0009D05A8F31F910F91FF90EF90DF90CF90D5
:1002C000BF90AF9008959B01AC018091D6029091B0
:1002D000D702A091D802B091D902821B930BA40B34
:1002E000B50B181619061A061B060CF44FC08091A0
:1002F000DA02882301F5E091DB02EF5FE370E0931F
:10030000DB02FF27E7FDF095E95DFD4F808199272E
:1003100087FD9095880F991F8093DA02205C3D4BF2
:10032000404F5F4F2093D6023093D7024093D802BC
:100330005093D902089581508093DA0280FF24C03F
:100340002D9AE091DB02FF27E7FDF095EE0FFF1FEE
:10035000E55DFD4F80819181AA2797FDA095BA2F79
:100360006AE0880F991FAA1FBB1F6A95D1F7820FF9
:10037000931FA41FB51F8093D6029093D702A0931A
:10038000D802B093D90208952D98DBCF0895482F55
:1003900084EA8093BC002FEF30E011C021153105B5
:1003A00061F41092BC008091330290913402019666
:1003B000909334028093330206C0215030408091E4
:1003C000BC0087FFEBCF4093BB0084E88093BC0068
:1003D0002FEF30E011C02115310561F41092BC00FF
:1003E000809133029091340201969093340280936D
:1003F00033020895215030408091BC0087FFEBCF3D
:100400000895482F882311F484E801C084EC809378
:10041000BC002FEF30E011C02115310561F41092BE
:10042000BC00809133029091340201969093340283
:100430008093330206C0215030408091BC0087FF7A
:10044000EBCF9091BB00442319F484E98093BC0066
:10045000892F08950F931F93162F042F880F0E9442
:10046000C7011093BB0084E88093BC002FEF30E0FD
:1004700011C02115310561F41092BC008091330246
:10048000909134020196909334028093330206C017
:10049000215030408091BC0087FFEBCF0093BB0020
:1004A00084E88093BC002FEF30E011C021153105A6
:1004B00061F41092BC008091330290913402019655
:1004C000909334028093330206C0215030408091D3
:1004D000BC0087FFEBCF84E98093BC001F910F9194
:1004E00008950F931F93082F162F880F0E94C7019E
:1004F0001093BB0084E88093BC002FEF30E011C064
:100500002115310561F41092BC0080913302909165
:1005100034020196909334028093330206C0215036
:1005200030408091BC0087FFEBCF000F802F8160AF
:100530000E94C70181E00E9401021F910F9108955E
:100540001F93CF93DF93EB01142F880F81600E94DC
:10055000C70108C0115080E011160CF481E00E9420
:10056000010289931123B1F7DF91CF911F91089573
:10057000FF920F931F93CF93DF93082F162FEA015B
:10058000F22E880F0E94C7011093BB0084E880936D
:10059000BC002FEF30E011C02115310561F410923D
:1005A000BC00809133029091340201969093340202
:1005B0008093330206C0215030408091BC0087FFF9
:1005C000EBCF802FBE014F2D0E94A002CDB7DEB72A
:1005D000E5E00C94E11788E66EE340E80E942A0209
:1005E00062E370E080E090E00E943B0188E66EE309
:1005F00043E00E942A0288E666E14EE10E942A0258
:1006000088E660E00E94710290E08E77883609F4F7
:1006100091E0892F0895A6E0B0E0E1E1F3E00C94C9
:10062000C2178C017B016A0188E66DE1AE014F5F64
:100630005F4F26E00E94B802998180E02A8130E075
:10064000822B932BF801918380839B8180E02C8106
:1006500030E0822B932BF701918380839D8180E092
:100660002E8130E0822B932BF60191838083269696
:10067000E8E00C94DE171F920F920FB60F92112430
:100680002F938F939F93EF93FF9390917C0097709C
:10069000E92FF0E0EE0FFF1FEA5BFE4F0190F081C3
:1006A000E02D809179008083292F16C0E22FF0E0A1
:1006B000EE0FFF1FEA5BFE4F80819181892B61F075
:1006C00080917C00887F282B20937C0080917A0089
:1006D000806480937A0003C02F5F283039F7FF9140
:1006E000EF919F918F912F910F900FBE0F901F90C0
:1006F0001895CF93DF93A6E4B1E0FD0140E050E010
:1007000061E070E080819181892B79F087B1EB0104
:10071000042E02C0CC0FDD1F0A94E2F79E01209543
:10072000822387B988B1282328B94F5F5F4F32965B
:100730004630510539F780E680937C0010927B00AB
:100740008FE880937A0020E08D919C911197892BFE
:1007500061F080917C00887F282B20937C00809121
:100760007A00806480937A0004C02F5F129628304C
:1007700059F7DF91CF910895E5E3F2E040E050E0D2
:1007800061E070E080819181892B79F034B1CB01F7
:10079000042E02C0880F991F0A94E2F7282F209593
:1007A000232324B925B1822B85B94F5F5F4F329641
:1007B0004830510539F7E5E4F2E040E050E061E00F
:1007C00070E080819181892B79F037B1CB01042EC3
:1007D00002C0880F991F0A94E2F7282F209523233F
:1007E00027B928B1822B88B94F5F5F4F32964830C6
:1007F000510539F7E2E5F1E040E050E061E070E0FA
:1008000080819181892B79F03AB1CB01042E02C00D
:10081000880F991F0A94E2F7282F209523232AB9DD
:100820002BB1822B8BB94F5F5F4F32964830510509
:1008300039F7089560E070E040E050E0A1E0B0E0FA
:10084000362FFA01EB5CFD4F0190F081E02D3097DF
:1008500051F023B1CD01062E02C0880F991F0A94D2
:10086000E2F728232083FA01EB5BFD4F0190F08132
:10087000E02D309751F026B1CD01032E02C0880F34
:10088000991F0A94E2F728232083FA01EE5AFE4FBB
:100890000190F081E02D309749F029B1CD0102C0DF
:1008A000880F991F3A95E2F7282320836F5F7F4FC7
:1008B0004E5F5F4F4031510519F60895A0E0B0E05A
:1008C000E4E6F4E00C94C0170091840010918500D8
:1008D00080918F0393B190938F037894292F2827C9
:1008E00080958923A2E6B1E0E0E9F3E060E070E002
:1008F000C22EDD24E82EFF2421E0CD91DC9111975A
:10090000209779F1C601062E02C0959587950A9425
:10091000E2F780FF26C0C701062E02C09595879595
:100920000A94E2F780FF03C0118300831AC080811C
:100930009181A801481B590B569547958CE7A82E25
:100940008CEFB82EA40EB51E81EBA81684E0B80675
:1009500040F45983488380915602681711F420931C
:1009600055026F5F7F4F129632966830710529F6F7
:10097000CDB7DEB7EAE00C94DC171F920F920FB6EA
:100980000F9211242F933F934F935F936F938F9305
:100990009F93EF93FF932091860030918700789486
:1009A0008091D3029091D402A901481B590B56950E
:1009B00047953093D4022093D3028BE0493B5807EC
:1009C00058F08091D2028150809356021092D20248
:1009D00081E08093D50235C08091D502882389F1CA
:1009E0006091D202683068F583E04438580748F1D6
:1009F00088E04533580728F5262F30E0E0911E02A5
:100A0000F0911F02319793E0EE0FFF1F9A95E1F7E7
:100A1000E20FF31FEE0FFF1FEA5DFE4F0190F08122
:100A2000E02D5183408380915602992787FD909550
:100A30002817390719F481E0809355026F5F60939E
:100A4000D202FF91EF919F918F916F915F914F91A2
:100A50003F912F910F900FBE0F901F9018951F92EE
:100A60000F920FB60F9211242F933F934F935F93E2
:100A70006F937F938F939F93AF93BF93EF93FF9366
:100A80000E945E04FF91EF91BF91AF919F918F9172
:100A90007F916F915F914F913F912F910F900FBE7A
:100AA0000F901F9018951F920F920FB60F9211245E
:100AB000CF92DF92EF92FF920F931F932F933F936A
:100AC0004F935F936F937F938F939F93AF93BF9356
:100AD000CF93DF93EF93FF93E0908400F090850035
:100AE0008091C10299B19093C1027894292F28274F
:100AF00080958923A7E5B2E0E2ECF2E060E070E0E7
:100B0000C22EDD24082F10E0CD91DC9111972097A3
:100B100021F1C601062E02C0959587950A94E2F749
:100B200080FF1BC0C801062E02C0959587950A94C8
:100B3000E2F780FF03C0F182E0820FC080819181E3
:100B4000A701481B590B56954795CA0184589340F5
:100B5000815B944010F4598348836F5F7F4F1296F6
:100B600032966830710581F6FF91EF91DF91CF9158
:100B7000BF91AF919F918F917F916F915F914F91B5
:100B80003F912F911F910F91FF90EF90DF90CF90A9
:100B90000F900FBE0F901F90189580911E0290919C
:100BA0001F021816190674F480916F0080628093FA
:100BB0006F0080918100806C8093810083E080933E
:100BC0005602089580916800816080936800E2E693
:100BD000F1E040E050E061E070E080819181892B9C
:100BE000A1F020916B00CB01042E02C0880F991F49
:100BF0000A94E2F7282B20936B0034B1282F20951C
:100C0000232324B925B1822B85B94F5F5F4F3296DC
:100C10004830510511F781E08093560280916800B9
:100C2000846080936800E7E5F2E040E050E061E036
:100C300070E080819181892BA1F020916D00CB0122
:100C4000042E02C0880F991F0A94E2F7282B2093E4
:100C50006D003AB1282F209523232AB92BB1822B7E
:100C60008BB94F5F5F4F32964830510511F70895A9
:100C7000A6E0B0E0EEE3F6E00C94B8177A8369835F
:100C80009E838D832B011C019B012A5F3F4F3C8378
:100C90002B83ED81FE810681178180819181081B64
:100CA000190B3801882477FC8094982CF1018289F3
:100CB0009389A489B589860D971DA81DB91D828BBE
:100CC000938BA48BB58BE981FA812289338944897E
:100CD0005589AA24BB246501A21AB30AC40AD50AFD
:100CE0008A159B05AC05BD054CF05C016D0128170C
:100CF00039074A075B0714F459016A01ED81FE8147
:100D000084859585AA2797FDA095BA2FA401930104
:100D1000281B390B4A0B5B0BCA01B90115870487E5
:100D2000F20124853585442737FD4095542F0E94D4
:100D30005C177B018C0142E015950795F794E794C9
:100D40004A95D1F7F20120813181442737FD409542
:100D5000542FC401B3010E945C1733E09595879529
:100D6000779567953A95D1F7E60EF71E081F191F7C
:100D7000F20126813781442737FD4095542FC60163
:100D8000B5010E945C1726E0959587957795679544
:100D90002A95D1F7E60EF71E081F191FE981FA817F
:100DA000068804C015950795F794E7940A94D2F73E
:100DB000ED81FE81F78EE68E3296FE83ED8324E090
:100DC00030E0220E331E42E050E0440E551E8B816F
:100DD0009C814816590609F05CCF2696E2E10C94F6
:100DE000D417A6E0B0E0E7EFF6E00C94C817CE0108
:100DF0000196BE016D5F7F4FAE014B5F5F4F0E945A
:100E00000B038B819C8190930F0280930E0249818A
:100E10005A8150931102409310022D813E813093EC
:100E200013022093120280912002909121028130BE
:100E3000910519F00297D1F40DC03093110220935F
:100E4000100288279927841B950B90931302809397
:100E500012020CC088279927821B930B90931102D2
:100E60008093100250931302409312022696E2E000
:100E70000C94E417A0E0B0E0E0E4F7E00C94C017B5
:100E80007C018C01EB01F70160E070E02BC0218157
:100E9000328188819981281739070CF4C90192831E
:100EA00081832185328588819981821793070CF48B
:100EB000C9019287818729913991442737FD40954F
:100EC000542FD8011F96AD90BD90CD90DC905297D5
:100ED000A20EB31EC41ED51E1F96AD92BD92CD921A
:100EE000DC9252979B016F5F7F4F32960C5F1F4FD2
:100EF000D70111968D919C911297281739073CF2D2
:100F0000CDB7DEB7EAE00C94DC17A0E0B0E0EBE888
:100F1000F7E00C94C217EC017C0153E2C52ED12CF2
:100F2000C80ED91E00E010E011C02BA53CA5442737
:100F300037FD4095542FF701678570898189928923
:100F40000E949D17F601219331936F0198010F5F65
:100F50001F4F84E090E0E80EF91E89819A812817DE
:100F600039071CF3CDB7DEB7E8E00C94DE17A8E034
:100F7000B0E0EDEBF7E00C94C2178C018091CD014D
:100F80009091CE019A8389838091D1019091D20171
:100F90009C838B838091D3019091D4019E838D8318
:100FA0008091CF019091D00198878F83C801BE01B5
:100FB0006F5F7F4F0E943A07D8019B968D919C915D
:100FC0009C9701969C969C938E939B978436910553
:100FD00009F070C01196ED90FC9012976801F8012D
:100FE00060E040E050E00CC083859485238134812B
:100FF000821B930B44970CF46F5F4F5F5F4F3296E9
:101000004E155F058CF3862F992787FD90958E15D9
:101010009F05F9F4C8010E948507F80183A194A1F6
:1010200090931F0180931E0185A196A190932101A9
:101030008093200187A190A59093230180932201A2
:1010400081A592A5909325018093240181E080835E
:1010500031C0D8011C9284E090E012969C938E934C
:101060001197F80140E050E06FEFE62E6FE7F62EA3
:1010700060E070E80BC0F282E18272876187D6017E
:101080001F961D921D921D921C9252979A014F5FBE
:101090005F4F329684E090E0C80ED91ED8011196B9
:1010A0008D919C911297281739072CF39C961C92CE
:1010B0001E929B972896E8E00C94DE17A6E0B0E01D
:1010C000E4E6F8E00C94C2178C0180910E02909136
:1010D0000F029A83898380911002909111029C8360
:1010E0008B8380911202909113029E838D83C8019D
:1010F000BE016F5F7F4F0E943A07F80183A594A558
:10110000019694A783A78C52914009F064C0F8011E
:10111000E180F280D80160E040E050E00CC08385BF
:10112000948523813481821B930BC2970CF46F5FEB
:101130004F5F5F4F32964E155F058CF3862F9927D0
:1011400087FD90958E159F05C9F4C8010E948507FB
:10115000F80183A194A1909309028093080285A1CC
:1011600096A190930B0280930A0287A190A5909379
:101170000D0280930C0281E080832DC0F801108263
:1011800083E090E092838183680140E050E07FEF4C
:10119000E72E7FE7F72E60E070E80DC01296FC9214
:1011A000EE9211971A967C936E931997F601178613
:1011B000108A118A128A9A014F5F5F4F129684E05B
:1011C00090E0C80ED91EF801818192812817390755
:1011D0002CF314A613A62696E8E00C94DE17409193
:1011E0000C0150910D0180910C0190910D01481757
:1011F000590721F04091CD015091CE015093CE017D
:101200004093CD0120910E0130910F0180910E018C
:1012100090910F012817390721F02091D1013091C9
:10122000D2013093D2012093D1012091100130914D
:10123000110180911001909111012817390721F0B7
:101240002091D3013091D4013093D4012093D30164
:10125000209112013091130180911201909113019C
:101260002817390721F02091CF013091D001309318
:10127000D0012093CF01209114013091150180916C
:101280001401909115012817390721F02091D501FB
:101290003091D6013093D6012093D50120911601CB
:1012A0003091170180911601909117012817390785
:1012B00021F02091D7013091D8013093D8012093AB
:1012C000D701209118013091190180911801909156
:1012D00019012817390721F02091D9013091DA013D
:1012E0003093DA012093D90120911A0130911B012A
:1012F00080911A0190911B012817390721F0209144
:10130000DB013091DC013093DC012093DB01809123
:101310001A0290911B02892B21F45093D001409323
:10132000CF010895FC0180911A0290911B02813037
:10133000910571F1823091051CF4892B41F0B3C005
:101340008230910509F462C0039709F0ACC0808136
:1013500091812091CD013091CE01820F931F909306
:10136000ED018093EC01808191812091CF0130913A
:10137000D001820F931F9093F3018093F201828139
:1013800093812091D1013091D201820F931F31C0FE
:10139000408151818091CD019091CE01480F591F1C
:1013A000628173818091D1019091D201680F791F80
:1013B000CB01840F951F9C01B3E035952795BA9515
:1013C000E1F795958795280F391F275731403093BE
:1013D000ED012093EC01461B570BCA0133E09595B4
:1013E00087953A95E1F755954795840F951F845257
:1013F0009A4F9093EF018093EE0184819581209123
:10140000D3013091D401820F931F49C08081918113
:101410002091CD013091CE01820F931F9093ED0169
:101420008093EC01808191812091CF013091D00196
:10143000820F931F9093F3018093F2016281738175
:101440008091D1019091D201680F791F448155811B
:101450008091D3019091D401480F591FCA01860F82
:10146000971F9C01B3E035952795BA95E1F79595BF
:101470008795280F391F275731403093EF0120936C
:10148000EE01461B570BCA01F3E095958795FA9537
:10149000E1F755954795840F951F84529A4F909385
:1014A000F1018093F0018091D9019091DA0190933C
:1014B000F5018093F4018091DB019091DC01909320
:1014C000F7018093F6010895A8E0B0E0EAE6FAE0BB
:1014D0000C94C61780911C0290911D020297A9F5E9
:1014E000FE01319688E0DF011D928A95E9F7CF0170
:1014F0000E949209A1EBB1E008EF11E040E052E058
:101500006D917C911197F80120813181FB018081DF
:101510009181281739070CF4C901F8019183808360
:10152000FA0120813181FB0180819181821793072B
:101530000CF4C901FA0181939193AF0112960E5FE9
:101540001F4FF1E0A93BBF07D9F684E192E00E946A
:10155000920980E090E0FC01EF54FE4FA081B18140
:101560004D915C911197FC01E850FE4F0190F08184
:10157000E02D4E175F0754F0FC01E050FE4F208134
:101580003181FA01241735070CF4F901ED93FC932E
:10159000029688309105F9F62896E4E00C94E2175B
:1015A00081E0809367022FB7F8948091EC019091CD
:1015B000ED019093E1018093E0018091EE01909123
:1015C000EF019093E3018093E2018091F00190910B
:1015D000F1019093E5018093E4018091F2019091F3
:1015E000F3019093E7018093E6018091F4019091DB
:1015F000F5019093E9018093E8018091F6019091C3
:10160000F7019093EB018093EA01EFE6F0E080812F
:1016100082608083B19A80918400909185000496C5
:1016200090938900809388002FBF0895FC018281E8
:1016300083832091CD013091CE01458154E0213B3F
:10164000350714F490E00DC0C901845195408159CB
:10165000914010F491E005C0285037400CF453C07D
:1016600092E0442319F082E0891B982F9083209107
:10167000D1013091D201468154E0213B350714F469
:1016800090E00CC0C901845195408159914010F4FB
:1016900091E004C028503740C4F192E0442319F08F
:1016A00082E0891B982F91838781882351F4808160
:1016B000882329F0823029F481E08583108281E03B
:1016C00087838085882361F48181882319F08230A3
:1016D00039F404C081E0868382E0818381E08087E1
:1016E00030813F5F818123E08202C0011124380FE5
:1016F0003283938180E0391729F081E09295907FC1
:10170000932B948308959081B1CF9181CCCF1F9377
:10171000CF93DF93EC01162F60E070E04DE050E0D6
:1017200024EC30E00E948C008881811711F08FEF4B
:1017300012C090E020E030E0FE01E20FF31F808154
:10174000980F2F5F3F4F2D303105B1F7992311F4DA
:1017500080E001C08EEFDF91CF911F910895DC01F1
:1017600090E020E030E0FD01E20FF31F8081980F50
:101770002F5F3F4F2C303105B1F791951C969C930C
:101780001C9780E090E0BD014DE050E02CEC30E093
:101790000E94A8000895A5E1B0E0E1EDFBE00C9403
:1017A000B8171C01CE01099662E00E94870B9A854A
:1017B0009F5F99838C8584508A838D8584508B8329
:1017C0008E8584508C838F858F5F8D8389898F5F11
:1017D0008E838B898F5F8F8381E08887B92EBB0CC6
:1017E000DD24AA24EE24FF248701F0E86F2EFAE11D
:1017F0007F2EF6E08F2E912CE2E0CE2E2E01089463
:10180000411C511C0E94FB009B01AC01DC01CB017F
:101810008E199F09A00BB10B681679068A069B06E4
:101820000CF051C01C1424F58C2D992787FD909540
:10183000FC01E170F07080FD03C088E097E002C019
:101840008CED95E09093EF018093EE018CED95E0A7
:101850009093ED018093EC01EE0FFF1FEE0FFF1F41
:10186000E756FE4F6080718082809380CA9429C0C1
:10187000BB2039F11B1424F46CE271E0A1E003C039
:1018800064ED7EEFAFEF8B2D992787FD9095FC01DE
:10189000E170F07080FF03C08CED95E003C0CB01D8
:1018A00084529A4F9093ED018093EC01EE0FFF1F4D
:1018B000EE0FFF1FE756FE4F60807180828093809D
:1018C000BA1A79018A0180915502882329F0109271
:1018D00055020E94EF0802C0AA2041F080916702E1
:1018E000882309F0A9C00E94D00AAA24CC2009F0BC
:1018F00089CFC1010E94160B882309F483CFF1011F
:101900008481843561F0853520F4823509F05FC02B
:101910001DC0863579F0883509F059C030C0F1E036
:10192000FD1514F0DD2401C0DA94CD2CCC0C82E03E
:10193000C80E43C095E09D151CF497E0D92E01C058
:10194000D394CD2CCC0CE2E0CE0E37C0AD2DBB270E
:10195000A7FDB095F201EA0FFB1F8081282F3327E6
:1019600027FD30952F5F3F4FFD01EF55FE4F8081E2
:10197000992787FD909582179307D4F418C0AD2D51
:10198000BB27A7FDB095F201EA0FFB1F8081282F2E
:10199000332727FD309521503040FD01E755FE4F9C
:1019A0008081992787FD9095281739070CF49C01B1
:1019B000A40DB51D2C93B22E09C01C1444F4ED2DBA
:1019C000FF27E7FDF095E40DF51DB080BB0CF7E0B7
:1019D000DF1609F017CF8885823009F013CF89818F
:1019E000992787FD909501979B878A878A818C5FCD
:1019F0008C878B818C5F8D878C818C5F8E878D81AE
:101A0000992787FD90950197988B8F878E819927CD
:101A100087FD909501979A8B898B8F81992787FDF8
:101A2000909501979C8B8B8BCE0109960E94AF0BF2
:101A30006596E2E10C94D417AA24A39457CFA2E8A8
:101A4000B0E0E5E2FDE00C94B8170E94FB00C1583D
:101A5000DF4F688379838A839B83CF57D040DE0131
:101A60001196E3E9F1E086E001900D928150E1F7F3
:101A700081E08E878D8785E08F871B8A1A8A1D8A71
:101A80001C8A84E090E0988F8F8BFE017996DE01AE
:101A9000999640E050E00FEF1FE760E070E809C062
:101AA00011830083718760871D921D921D921D9284
:101AB00032969A014F5F5F4F8F89988D28173907AB
:101AC0007CF3FE01EF5BFF4F11821082FE01ED5BA4
:101AD000FF4F83E090E092838183DF011396BF0183
:101AE0006D5E7F4F40E050E06F01EFEFEE2EEFE7CD
:101AF000FE2E00E010E80EC01196FC92EE921996B0
:101B00001C930E931897FB0111921192119211924E
:101B1000BF0112969A014F5F5F4FF601818192815A
:101B2000281739074CF31E8A108214A613A6C15831
:101B3000DF4F288139814A815B81CF57D040209384
:101B4000BB023093BC024093BD025093BE02EF969D
:101B50002CAF3DAF4EAF5FAFEF97BA01A901EB9647
:101B60004CAF5DAF6EAF7FAFEB977A018B01E7961D
:101B70004CAF5DAF6EAF7FAFE797E3961FAEE397D5
:101B8000E2961FAEE29751E0E1965FAFE19773E412
:101B9000272E312C2C0E3D1E06C0E796ACAEBDAEF6
:101BA000CEAEDFAEE7970E94FB005B016C010E94A6
:101BB000630180915502882389F4D601C501EF960F
:101BC0002CAD3DAD4EAD5FADEF97821B930BA40BDB
:101BD000B50B81539547A040B04014F110925502C7
:101BE0000E94EF088E89882309F010C3CE01469623
:101BF0000E94B707D1018C91882311F492E001C0B3
:101C000090E020E08E89882309F421E0920F9093E0
:101C10002802E8ECF0E0F0932E02E0932D02F6C2E9
:101C2000E396FFADE397FF2359F080916702882385
:101C300039F40E94640A0E94D00AE3961FAEE3972B
:101C4000D601C501EB962CAD3DAD4EAD5FADEB972A
:101C5000821B930BA40BB50B81519742A040B0405F
:101C600024F10E94F106D1018C918823C1F4C101B5
:101C70000E945E08F1018081882311F492E001C086
:101C800090E020E08E89882309F421E0920F909360
:101C9000280228EC30E030932E0220932D02EB96A0
:101CA000ACAEBDAECEAEDFAEEB97E1963FADE19709
:101CB000332309F456C0CE010D960E94160B8823DB
:101CC00009F44FC0E2964FADE297E42FFF27E7FDFE
:101CD000F095E657FE4F99898081981721F0E2969A
:101CE0001FAEE29707C0E2965FADE2975F5FE296B4
:101CF0005FAFE297E2966FADE297E62FFF27E7FD31
:101D0000F095E657FE4F80818F3F81F4CE010D960E
:101D10000E94CB0B2EE088E190E00FB6F894A895D6
:101D2000809360000FBE20936000FFCFD601C501F5
:101D3000C158DF4F288139814A815B81CF57D0401C
:101D4000821B930BA40BB50B815C914EA44EB0404B
:101D500024F0E1961FAEE19704C041E0E1964FAF59
:101D6000E1978E89882309F41ECFD1018C918823B5
:101D700009F419CFD601C5018E199F09A00BB10B2B
:101D800081519742A040B0400CF401C24091CF0174
:101D90005091D0018091CD019091CE01480F591FF3
:101DA00080911E0190911F01481B590B80912401C5
:101DB00090912501481B590B5595479557FF03C036
:101DC000509541955F4FE091D101F091D201809102
:101DD000200190912101E81BF90BF7FF03C0F0955A
:101DE000E195FF4F6091D3017091D4018091220160
:101DF00090912301681B790B77FF03C07095619563
:101E00007F4FCA0121E04139520714F080E991E087
:101E1000A0E9B1E0A81BB90BB887AF83CF01B1E04F
:101E2000E139FB0714F080E991E020E931E0281B5B
:101E3000390B3A872987CB0131E06139730714F0F8
:101E400080E991E0A0E9B1E0A81BB90BBC87AB87A2
:101E50002091D5013091D601B5E02D3D3B072CF006
:101E600087E02D36380744F016C08CED95E0821BD4
:101E7000930B815991407CF4B5E02D3D3B0724F054
:101E800089010C5D154011C00CED15E0021B130B10
:101E900021E030E00CC02D5D35402CF421E030E035
:101EA00000E911E004C000E911E022E030E0809197
:101EB00022029091230228173907B1F030932302B0
:101EC000209322022130310511F084E001C080E02E
:101ED00080932802A8ECB0E0B0932E02A0932D02CC
:101EE0009924939488248394453651051CF4E5364F
:101EF000F10514F0992493946536710514F0882443
:101F00008394992081F01092A8021092A902109255
:101F1000AA021092AB021092AC021092AD02109283
:101F2000AE021092AF02882041F01092B0021092DF
:101F3000B1021092B2021092B30210929702109264
:101F40009602109299021092980210929B0210929F
:101F50009A0220910E0230910F0280910802909116
:101F60000902281B390BB0E220303B0714F02FEF99
:101F70003FE1C901E0EE20303E0714F480E090EE2E
:101F800090939D0280939C02209110023091110247
:101F900080910A0290910B02281B390BF0E220304D
:101FA0003F0714F02FEF3FE1C90120EE8030920788
:101FB00014F480E090EE90939F0280939E02209113
:101FC00012023091130280910C0290910D02281B95
:101FD000390B40E22030340714F02FEF3FE1C90104
:101FE00050EE2030350714F480E090EE9093A1027B
:101FF0008093A0028091220290912302019719F010
:102000006FE772E002C068E672E086E992E00E9443
:10201000380634EB432E32E0532EEE24FF243801F1
:10202000882477FC8094982C87010C5E1D4FE1E09A
:10203000F0E0EC0FFD1FEE0DFF1D60817181882720
:1020400077FD8095982FD2012D913D912D01442748
:1020500037FD4095542F0E945C1727E09595879592
:10206000779567952A95D1F7E7E0F0E0EC0FFD1F33
:10207000EE0DFF1D20813181442737FD4095542FFF
:102080000E945C179B01AC01B9E0559547953795C7
:102090002795BA95D1F7C401B3010E945C17A9E056
:1020A0009595879577956795AA95D1F7F8017183EE
:1020B000608322E030E0E20EF31E36E0E316F10426
:1020C00009F0B2CF2091BA0212160CF05CC08091D8
:1020D000BB029091BC02A091BD02B091BE02B601BC
:1020E000A501481B590B6A0B7B0BDB01CA0181540C
:1020F0009D40A340B0405CF021502093BA02A092D2
:10210000BB02B092BC02C092BD02D092BE028091CE
:10211000BA02992787FD90954091140250911502BB
:10212000BC016170707080FF03C026E930E002C01E
:102130002AE63FEF240F351F309315022093140237
:1021400040911602509117026115710519F026E9A8
:1021500030E002C02AE63FEF240F351F309317020C
:10216000209316022091180230911902672B19F45E
:102170008AE69FEF02C086E990E0820F931F90935A
:102180001902809318028601750199248824D601CA
:10219000C501E7962CAD3DAD4EAD5FADE797821B17
:1021A000930BA40BB50B8C59914AA740B0400CF48B
:1021B000FACC8091CA012091CB014091CC0190E0F2
:1021C000805890409A83898330E0205830403C8387
:1021D0002B8350E0405850405E834D83E6E4F1E0AD
:1021E00020E080819181892B61F080917C00887F43
:1021F000282B20937C0080917A00806480937A0061
:10220000CCCC2F5F3296283061F7C7CCEF96ACAEBE
:10221000BDAECEAEDFAEEF9741E0E3964FAFE397B2
:1022200004CD1F931FEF1F5FE12FFF27E7FDF09500
:10223000EE0FFF1FEE58FE4F80819181892B69F4CC
:102240001F5FE12FFF27E7FDF095EE0FFF1FEE5810
:10225000FE4F80819181892B59F0E12FFF27E7FD07
:10226000F095EE57FE4F808161E00E947616DBCF3D
:102270001F9108951F920F920FB60F9211242F9362
:102280003F934F935F936F937F938F939F93AF93FE
:10229000BF93CF93DF93EF93FF93E091C002FF27AB
:1022A000E7FDF095EE57FE4F808160E00E94B51685
:1022B000E091BF02E7FD4BC0C0918400D091850042
:1022C000FF27E7FDF095EE57FE4F808161E00E9409
:1022D000B5168091BF02E82FFF27E7FDF095EE0FBE
:1022E000FF1FEE58FE4F0190F081E02D20813181DB
:1022F0008093C002482F4F5F4093BF02E42FFF2717
:10230000E7FDF095EE0FFF1FEE58FE4F80819181A3
:10231000892B91F4E42FEF5FE093BF02FF27E7FDE5
:10232000F095EE0FFF1FEE58FE4F80819181892BB3
:1023300019F48FEF8093BF0222503040220F331FD9
:102340002C0F3D1F309389002093880009C0109204
:10235000BF021092670280916F008D7F80936F00A3
:10236000FF91EF91DF91CF91BF91AF919F918F91AD
:102370007F916F915F914F913F912F910F900FBE81
:102380000F901F901895EF92FF920F931F937A0171
:102390008B01882341F083E161E00E94B51682E160
:1023A00061E00E94B5161092B90060E074E284EF1B
:1023B00090E0A80197010E947B17205130404040D7
:1023C000504056954795379527952093B8001F9113
:1023D0000F91FF90EF90089581E040E85AE166E0A8
:1023E00070E00E94C3110E94EB02882349F485E04B
:1023F0008093290288EC90E09093300280932F0222
:102400000895EF92FF920F931F93CF93DF93E82EDF
:10241000F62E60E00E9476168F2D61E00E947616FF
:10242000C0E0D0E0CE018170082F8F2D602F0E9478
:10243000B5168E2D0E940917112707FD10958017DC
:10244000910711F000E005C02196C430D10551F785
:1024500001E08F2D60E00E947616802FCDB7DEB7A9
:10246000E6E00C94E017AFE0B0E0E9E3F2E10C94B1
:10247000C517259A8091A0039091A103009711F0B0
:102480009C0102C024EA33E0CE010196821B930B2B
:10249000803891054CF484E1809329028EE190E02C
:1024A0009093300280932F0284B7877F84BF88E1A6
:1024B0000FB6F89480936000109260000FBE1092E7
:1024C0008000E2E0FE2EF092810081E080936F00B8
:1024D00085B5887F85BD24EF31E030936902209374
:1024E000680210926F0210926E0230937502209370
:1024F000740230936B0220936A0210927102109260
:102500007002309377022093760230936D0220930D
:102510006C0210927302109272023093790220932F
:10252000780210927A0210927B0210927C02109232
:102530007D0248E040937E028AEF90E09093800213
:1025400080937F02309386022093850290938C02C1
:1025500080938B0290938202809381023093880251
:102560002093870290938E0280938D029093840231
:102570008093830230938A02209389029093900281
:1025800080938F0280E090E8A0E0B0E08093910219
:1025900090939202A0939302B09394024093950279
:1025A00085E064E00E9401128E010D5F1F4F8823B9
:1025B00091F01B82C8010E94AF0B82E380932A0234
:1025C0008EE190E090933202809331020E94FB00F2
:1025D0000E946301FBCFC80162E00E94870B87FF66
:1025E00027C080911A0290911B029D838C83809159
:1025F00009018E8380910A018F8380910B01888766
:1026000080911C0290911D029A87898780911E02F9
:1026100090911F029C878B878091200290912102CC
:102620009E878D87FB82C8010E94AF0B89E001C0A5
:1026300083E08093BA028C819D8190931B028093EA
:102640001A02EE81E0930901AF81A0930A019885F7
:1026500090930B01FF27E7FDF095E050FF4F80813D
:102660008093CA01BB27A7FDB095A050BF4F8C91A6
:102670008093CB01E92FFF27E7FDF095E050FF4F56
:1026800080818093CC0129853A8530931D02209367
:102690001C028B859C8590931F0280931E028D8562
:1026A0009E85909321028093200221303105D1F044
:1026B0002230310561F1232BF1F580E090E048EE06
:1026C00053E020ED37E0FC01E850FE4F518340839A
:1026D000FC01E050FE4F3183208302968830910543
:1026E00091F729C080E090E04CE454E02CE637E01C
:1026F000FC01E850FE4F51834083FC01E050FE4F47
:102700003183208302968830910591F714C080E0D0
:1027100090E042EE54E026ED36E0FC01E850FE4F3A
:1027200051834083FC01E050FE4F318320830296A9
:102730008830910591F70E94BC030E941A04809191
:10274000DE01882319F440E050E002C042E050E08E
:1027500020E030E08091DF01882311F021E030E0BB
:10276000CA01822B932B8130910579F0823091053B
:102770001CF4892B39F017C08230910569F003975A
:1027800091F40DC083E090E002C082E090E090936D
:102790001B0280931A0207C081E090E0F8CF1092EC
:1027A0001B0210921A0220911A0230911B0221156D
:1027B000310571F410927901109278018FEF8093B6
:1027C000850184E191E090936602809365020FC0D9
:1027D0002330310561F484E191E0909369018093A5
:1027E000680182E191E090936B0180936A0180918E
:1027F0001E0290911F0218161906F4F4109263013C
:1028000010926201109265011092640110926701AA
:102810001092660188EE91E090937B0180937A019B
:102820008AE0809386018AEE91E090937D01809307
:102830007C0189E080938701822F8F5F809327023C
:1028400088E592E090932C0280932B020E947903FA
:102850000E94CD050E9411110E94EC110E94EF0808
:102860000E94640A2F96E5E00C94E11708951F92E8
:102870000F920FB60F9211242F933F934F938F9384
:102880009F93EF93FF938091C00082FD1DC0409104
:10289000C60020911C0330911D032F5F3F4F2F7303
:1028A000307080911E0390911F032817390771F033
:1028B000E0911C03F0911D03E452FD4F40833093DF
:1028C0001D0320931C0302C08091C600FF91EF916D
:1028D0009F918F914F913F912F910F900FBE0F902D
:1028E0001F901895E0917003F0917103E05CFF4F29
:1028F0008191919120813181821B930B8F73907014
:10290000892B11F00E94361408951F920F920FB672
:102910000F9211242F933F938F939F93EF93FF93E5
:102920002091600330916103809162039091630371
:102930002817390731F48091C1008F7D8093C10041
:1029400014C0E0916203F0916303E05EFC4F2081CC
:10295000809162039091630301968F7390709093BE
:102960006303809362032093C600FF91EF919F91D0
:102970008F913F912F910F900FBE0F901F90189540
:10298000DC011C96ED91FC911D97E05CFF4F2191BD
:10299000319180819181281B390B2F733070C901CF
:1029A0000895DC011C96ED91FC911D97E05CFF4FB2
:1029B00020813181E054F040DF01AE5BBF4F8D914B
:1029C0009C9111972817390719F42FEF3FEF07C093
:1029D0008D919C91E80FF91F8081282F30E0C9016B
:1029E0000895DC011C96ED91FC911D97E05CFF4F72
:1029F00020813181E054F040DF01AE5BBF4F8D910B
:102A00009C9111972817390719F42FEF3FEF10C049
:102A10008D919C911197E80FF91F20818D919C91C8
:102A2000119701968F73907011969C938E9330E05E
:102A3000C9010895DC0191968C919197882339F012
:102A40005496ED91FC915597808186FFF9CF919630
:102A50001C920895CF93DF93EC01EE85FF85E05C37
:102A6000FF4F20813181E054F0402F5F3F4F2F73A3
:102A70003070DF01AE5BBF4F8D919C91119728178D
:102A80003907D1F3E05CFF4F80819181E054F04041
:102A9000E80FF91F6083EE85FF85E05CFF4F31830F
:102AA0002083EE89FF89208181E090E00F8C02C0B5
:102AB000880F991F0A94E2F7282B208381E089A3CD
:102AC000EC89FD8980818064808381E090E0DF91E2
:102AD000CF910895109267031092660388EE93E0F9
:102AE000A0E0B0E08093680390936903A0936A0329
:102AF000B0936B038DEB91E0909365038093640337
:102B00008CED92E0909371038093700380E293E0E8
:102B1000909373038093720385EC90E09093750318
:102B20008093740384EC90E0909377038093760312
:102B300080EC90E0909379038093780381EC90E0AF
:102B400090937B0380937A0382EC90E090937D03D3
:102B500080937C0386EC90E090937F0380937E03C8
:102B600084E08093800383E08093810387E08093F7
:102B7000820385E08093830381E08093840308953A
:102B8000CF93DF930E943B160E943312C2E7D4E139
:102B90000E941F0D2097E1F30E947214F9CFA0E06C
:102BA000B0E0E5EDF5E10C94C2177C016B018A0100
:102BB000C0E0D0E00FC0D6016D916D01D701ED915D
:102BC000FC910190F081E02DC7010995C80FD91F34
:102BD000015010400115110571F7CE01CDB7DEB7D8
:102BE000E8E00C94DE171F920F920FB60F9211249B
:102BF0002F933F938F939F93AF93BF9380918A03BB
:102C000090918B03A0918C03B0918D0330918E0332
:102C10000196A11DB11D232F2D5F2D3720F02D57BB
:102C20000196A11DB11D20938E0380938A0390937A
:102C30008B03A0938C03B0938D03809186039091B6
:102C40008703A0918803B09189030196A11DB11D4E
:102C50008093860390938703A0938803B09389039E
:102C6000BF91AF919F918F913F912F910F900FBE88
:102C70000F901F901895789484B5826084BD84B5B8
:102C8000816084BD85B5826085BD85B5816085BD67
:102C9000EEE6F0E0808181608083E1E8F0E0108280
:102CA000808182608083808181608083E0E8F0E0C1
:102CB000808181608083E1EBF0E0808184608083AB
:102CC000E0EBF0E0808181608083EAE7F0E08081E2
:102CD0008460808380818260808380818160808342
:102CE0008081806880831092C1000895CF93DF9324
:102CF000482F50E0CA0186569F4FFC0134914A5735
:102D00005F4FFA018491882369F190E0880F991F41
:102D1000FC01E859FF4FA591B491FC01EE58FF4F1B
:102D2000C591D491662351F42FB7F8948C91932FC9
:102D3000909589238C93888189230BC0623061F43C
:102D40002FB7F8948C91932F909589238C93888139
:102D5000832B88832FBF06C09FB7F8948C91832B59
:102D60008C939FBFDF91CF910895482F50E0CA0107
:102D700082559F4FFC012491CA0186569F4FFC014A
:102D800094914A575F4FFA013491332309F440C0BC
:102D9000222351F1233071F0243028F42130A1F0A6
:102DA000223011F514C02630B1F02730C1F02430A4
:102DB000D9F404C0809180008F7703C08091800097
:102DC0008F7D8093800010C084B58F7702C084B55A
:102DD0008F7D84BD09C08091B0008F7703C0809142
:102DE000B0008F7D8093B000E32FF0E0EE0FFF1F67
:102DF000EE58FF4FA591B4912FB7F894662321F4B4
:102E00008C919095892302C08C91892B8C932FBF34
:102E10000895682F70E0CB0182559F4FFC012491EB
:102E2000CB0186569F4FFC0144916A577F4FFB01AF
:102E30009491992319F420E030E03CC0222351F111
:102E4000233071F0243028F42130A1F0223011F524
:102E500014C02630B1F02730C1F02430D9F404C0BA
:102E6000809180008F7703C0809180008F7D809358
:102E7000800010C084B58F7702C084B58F7D84BD7B
:102E800009C08091B0008F7703C08091B0008F7D22
:102E90008093B000892F90E0880F991F84589F4F2E
:102EA000FC01A591B4918C9120E030E0842311F0D5
:102EB00021E030E0C9010895629FD001739FF001C5
:102EC000829FE00DF11D649FE00DF11D929FF00DBA
:102ED000839FF00D749FF00D659FF00D9927729FF1
:102EE000B00DE11DF91F639FB00DE11DF91FBD017C
:102EF000CF0111240895A1E21A2EAA1BBB1BFD01CC
:102F00000DC0AA1FBB1FEE1FFF1FA217B307E407C8
:102F1000F50720F0A21BB30BE40BF50B661F771F20
:102F2000881F991F1A9469F7609570958095909500
:102F30009B01AC01BD01CF01089597FB092E052629
:102F40000ED057FD04D0D7DF0AD0001C38F45095BE
:102F50004095309521953F4F4F4F5F4F0895F6F7BD
:102F600090958095709561957F4F8F4F9F4F0895F5
:102F70002F923F924F925F926F927F928F929F9289
:102F8000AF92BF92CF92DF92EF92FF920F931F9377
:102F9000CF93DF93CDB7DEB7CA1BDB0B0FB6F89428
:102FA000DEBF0FBECDBF09942A88398848885F8468
:102FB0006E847D848C849B84AA84B984C884DF80D9
:102FC000EE80FD800C811B81AA81B981CE0FD11DBD
:102FD0000FB6F894DEBF0FBECDBFED010895EE0F22
:0E2FE000FF1F0590F491E02D0994F894FFCFA7
:102FEE000020406080A0C0E0FF080808DC05DC057A
:102FFE00DC05DC05E803DC05E803DC05DC05DC05A7
:10300E00DC05DC05DC0510010E0118010C011401B4
:10301E00120116011A011C011C011C011C011C01CC
:10302E001C011C011C01CA01CB01CC0100000000D7
:10303E0000000000DD01DE01DF01000000000000E5
:10304E0000000C010E011001000000000000000045
:10305E000000E001E201E401E601000000000000D2
:10306E00000004050607FFFFFFFF7889988778891F
:10307E009887FF7F007F007F00A0860100801A06E0
:10308E0000040404040302030201FCFCFC01010120
:10309E0001EC01EE01F001F201000000002A15CF53
:0A30AE0015C014F114D1141A150016
:00000001FF
