:10000000B6C1DAC1D9C1D8C1D7C1D6C1D5C1D4C151
:10001000D3C10ECCD1C1D0C818C9CEC1CDC1CCC1BD
:10002000CBC1CAC1C9C120556E646566696E65647D
:100030000020525833532056310020525833532059
:1000400056322F563300204E616E6F576969002675
:100050000031003A0046005354415455530049447E
:100060003D005645523D0031452F32452F523D004F
:10007000454550524F4D0055702F446E20746865B1
:100080006E207E0055706461746520436F6E6669F2
:1000900067207E00457261736520436F6E666967F5
:1000A000207E004572617365205374617473207EF5
:1000B0000057494E47204D4F444500444950205376
:1000C000570053696E676C652041696C0044656C2C
:1000D000746100562D5461696C004475616C204157
:1000E000696C00455041204D4F44450046756C6C8D
:1000F00020313030302D32303030004E6F726D2074
:10010000313130302D3139303000547261636B69D8
:100110006E67004350504D204D4F4445004E6F6E6A
:1001200065005245544131613246005441455231D7
:10013000613246004145545231613246004D4F55BF
:100140004E54204F5249454E54004E6F726D616CB3
:1001500000526F6C6C203930DF204C6566740052A1
:100160006F6C6C203930DF2052696768740053541B
:100170004B2D4741494E205448524F570046756C0D
:100180006C0048616C660051756172746572004D57
:1001900041582053544B2D524F54415445005665FD
:1001A0007279204C6F7720302E323578004C6F7783
:1001B00020302E3578004D656469756D20317800EA
:1001C0004869676820327800566572792048696707
:1001D0006820347800524154452053544B2D524FDF
:1001E000544154450044697361626C656400456E16
:1001F00061626C656400494E464C4947485420434F
:10020000414C49420056522D4741494E20412F450D
:100210002F5200524154452000484F4C4420004189
:10022000696C2000456C6520005275642000570001
:100230005E006200670000000000B100BB00C20069
:10024000CD00D300DA00E300EC00FB000A0100005F
:10025000000013011D0122012B01340100003D01AA
:100260004A0151015F01000000006E017D01820121
:100270008701000000008F019E01AD01B601C001A1
:10028000C801D501E501EE01000000000000F60103
:10029000E501EE0100000000000005020000000082
:1002A00000000000000013021F02240229020000C7
:1002B000000019021F022402290200000000700041
:1002C000770084009400A3000000206E6565643D03
:1002D00000726561643D00436667566572204D6932
:1002E000736D61746368004366675665723D004FC5
:1002F00070656E466C696768745374616200502F54
:10030000492F4400504F5400496E76616C20000024
:1003100000000037003400310000000000380035D4
:1003200000320000000000360033003000040404F6
:10033000040404040402020202020203030303038E
:10034000030102040810204080010204081020016B
:100350000204081020000000000000000000030458
:1003600005000000000000000000DD018B0A1124E0
:100370001FBECFE5D4E0DEBFCDBF10E0A0E6B0E009
:10038000EAE7FCE102C005900D92A23FB107D9F760
:1003900012E0A2EFB0E001C01D92AD32B107E1F76B
:1003A00013E0CEE6D3E003C02297FE0160DCCA363C
:1003B000D107D1F704D95FCC23CEAF92CF92EF9281
:1003C0000F9382EF90E060E141E122E108E079E003
:1003D000E72E5AE0C52E3BE0A32EAFD60F91EF904B
:1003E000CF90AF900895A0E0B0E0E8EFF1E00DCC41
:1003F000162FE82EFF24E7FCF094E701CC0FDD1F59
:100400006E01CE0CDF1CF601EE0FFF1FEE0FFF1F7B
:10041000E25DFD4FA590B49082EF90E0B501FCD86D
:1004200082EF90E060E041E0C1D5FE01E259FF4F6C
:100430000190F081E02DE230F10509F4B1C0E33024
:10044000F10534F4309761F0319709F03DC16FC088
:10045000E330F10509F4DBC0349709F035C167C01A
:10046000FE01EF56FF4F0190F081E02D0081E02F5B
:10047000FF27E7FDF095C601880F991FE80FF91FC8
:10048000EE0FFF1FE25DFD4F6591749182EF90E0EA
:10049000C3D80230E1F0033041F1013009F014C15A
:1004A00060914201772767FD709582EF90E04AE006
:1004B00050E0ACD980914201E82FFF27E7FDF0958D
:1004C000EE0FFF1FE15BFF4F6591749156C04091A5
:1004D000430150914401609145017091460182EFC2
:1004E00090E02AE030E03DD9EFC0609147017727E6
:1004F00067FD709582EF90E04AE050E087D982EF87
:1005000090E06FE2A9D860914801772767FD709568
:1005100082EF90E04AE050E079D982EF90E06FE21C
:100520009BD860914901772767FD709533C097018B
:10053000220F331FF901EF56FF4F0190F081E02D9C
:100540000081F701EC54FF4F80810817D4F0F701C8
:10055000EF53FF4F80818017A4F0E02FFF27E7FDC6
:10056000F0952E0D3F1D220F331FE20FF31FEE0FEC
:10057000FF1FE25DFD4F6591749182EF90E04CD8D2
:10058000A3C082EF90E068E073E046D8602F772741
:1005900067FD709582EF90E04AE050E037D994C053
:1005A000E12FFF27E7FDF095E857FF4FF080FE01B0
:1005B000EF56FF4FC081D18110E000E01F1529F4F4
:1005C00001E082EF90E06BE547D86881603831F454
:1005D00082EF90E064E073E01FD808C0772767FDE2
:1005E000709582EF90E04AE050E010D9002321F0AE
:1005F00082EF90E06DE530D8123021F082EF90E08C
:100600006FE22AD81F5F21961330B9F65DC0E12F43
:10061000FF27E7FDF095DF01A555BF4F0C91E85787
:10062000FF4F9080FE01EF56FF4FF080E18082EF98
:1006300090E0DFD482EF90E0B501EED7112707FDFF
:100640001095F601EE0FFF1FE00FF11FEE0FFF1FD9
:10065000E05DFD4F6591749182EF90E0DDD782EF10
:1006600090E06EEF72E0D8D782EF90E060E041E07A
:100670009DD46801CC0CDD1C2F2D3E2DC901EC0151
:1006800010E000E0191529F401E082EF90E06BE53D
:10069000E3D7E881F981EC0DFD1D6081718182EF66
:1006A00090E04AE050E0B2D8002321F082EF90E0E1
:1006B0006DE5D2D7123021F082EF90E06FE2CCD717
:1006C0001F5F22961330E9F6CDB7DEB7EBE0B9CA6B
:1006D000A0E0B0E0EDE6F3E091CA1C01D62E7A016D
:1006E000EFD82B013C010027F7FC0095102FC80123
:1006F000B70128EE33E040E050E03FDA4B015C0107
:10070000C0E0D0E0CD2CDD24C7FCD09437C082E01F
:1007100092E057D6892B91F182E092E083D6282F80
:10072000C130D10559F0C230D105A1F0209721F593
:10073000843211F58E2DC1E0D0E01FC090E0C816C4
:10074000D90614F48E2D15C0122F822FC2E0D0E0EE
:1007500000E013C0180F8E2D8150EE2031F0F10112
:10076000E00FF11D20830F5F08C0112311F481E019
:1007700011C0C0E0D0E001C08E2DE82EA1D86419D0
:10078000750986099709681579058A059B050CF492
:10079000BECF80E0CDB7DEB7E2E14CCA0F931F9326
:1007A000682F02E012E0C80176D6C8013BD662E0AD
:1007B00070E080E090E0ABD81F910F910895EF9228
:1007C000FF920F931F93CF93DF93E82E192F062FDD
:1007D000F62E84E2E3DF802FE1DF2E2D312FC901D9
:1007E000EC0103C08991F80ED9DF9E012E19201764
:1007F000CCF38F2D8195D2DFCDB7DEB7E6E026CAE8
:100800001F93CF93DF93CEECD0E01991812F60E05E
:1008100003D9812F61E03FD980E0C23DD807A9F715
:10082000DF91CF911F9108950F931F9384B7877F16
:1008300084BF88E10FB6F89481BD11BC0FBE82E081
:1008400092E040E052EC61E070E035D5D9DF02EF94
:1008500010E0C80160E142E020E0D1D3C80194D3A8
:100860001F910F910895A0E0B0E0E8E3F4E0C7C95C
:1008700027D87B018C01C2E5D1E05EEC652E50E00B
:10088000752E4AE4842E41E0942E3AE5A32E31E001
:10089000B32E2AE6C22E21E0D22E332492E0492E36
:1008A000512C19821882F30180812ED920E030E08A
:1008B000892B11F421E030E084E0220F331F8A9568
:1008C000E1F7F40180819181282B392B203131050A
:1008D00071F1213131053CF4215030402230310595
:1008E00008F077C009C02131310509F441C0223137
:1008F000310509F06EC055C0F50180819181A2815A
:10090000B381A8019701281B390B4A0B5B0BDA0155
:10091000C9018155934CA040B0400CF45AC041E04D
:1009200050E059834883F401118210821FC0F50101
:1009300080819181A281B381A8019701281B390B85
:100940004A0B5B0BDA01C9018155934CA040B040C2
:100950000CF43FC05982488221E030E0F401318339
:100960002083F601E082F18202831383F5012DC01A
:10097000F60180819181A281B381A8019701281B92
:10098000390B4A0B5B0BDA01C901815C9742A94024
:10099000B040FCF059824882F40151824082F60155
:1009A00014C0F60180819181A281B381A8019701D1
:1009B000281B390B4A0B5B0BDA01C901815A964897
:1009C000A140B04034F059824882E082F182028333
:1009D0001383332031F488819981892B11F03324DA
:1009E000339422960894611C711C22E030E0820E40
:1009F000931E44E050E0A40EB51EC40ED51E51E077
:100A0000CA35D50709F04DCF832DCDB7DEB7E1E16B
:100A100012C9ACE5B0E0EEE0F5E0F0C851D7AC01AA
:100A2000CB01DA013C014D0100E010E05524BB246C
:100A3000AA24A39482E0282E312C2C0E3D1E02C045
:100A4000AA24A3943DD76B017C010115110529F05F
:100A500020E930ED43E050E004C020E533EC40E015
:100A600050E0D701C60186199709A809B9092817C6
:100A700039074A075B070CF05AC002301105D1F064
:100A8000033011053CF40115110559F00130110531
:100A900091F40AC00330110551F00430110559F4E6
:100AA00009C023E0298307C081E0898304C0642D45
:100AB0006F5F02C0198261E0CE01019680DECE0137
:100AC00001966CE544E150E003DE882351F10130EA
:100AD0001105D1F00330110509F4B2C1011511055A
:100AE00021F58A81843019F004E010E0ABC1A7E061
:100AF000B1E0F1018BE301900D928150E1F73601F5
:100B0000470101E010E013C0A2E4B1E0F10188E088
:100B100001900D928150E1F702E010E05524BB24D2
:100B200091C10115110509F08BC136014701AA20B9
:100B300009F440C082EF90E05CD202301105A9F0C8
:100B400004301105B1F001151105A1F582EF90E017
:100B50006FEE72E061D582EF90E060E041E026D276
:100B600082EF90E067EE72E01DC0852D6B2D3BDCBF
:100B700021C082EF90E067ED72E04ED582EF90E009
:100B800060E041E013D282EF90E061ED72E044D585
:100B900082EF90E06A814AE050E0F1D582EF90E088
:100BA0006AEC72E039D582EF90E064E070E04AE0F0
:100BB00050E02CD60230110509F047C154DE8823DD
:100BC00009F443C18091540190915501029749F570
:100BD000E52DFF27E7FDF095EE0FFF1FE259FF4FD0
:100BE000808191810297029720F4BB2011F0BA9482
:100BF00018C05520B1F05A94E52DFF27E7FDF09578
:100C0000EE0FFF1FE259FF4F0190F081E02DE2301F
:100C1000F10519F4E2E0BE2E04C0339711F478E038
:100C2000B72E8091560190915701029709F054C058
:100C3000E52DFF27E7FDF095EE0FFF1FE259FF4F6F
:100C40000190F081E02DE430F10521F58091610003
:100C5000833081F08430B1F0823009F03DC0D101A1
:100C6000E7E0F1E08BE301900D928150E1F784E041
:100C7000898303C01A82A4E0A98303E010E05BE348
:100C8000452E2AC01A82B2E0B98303E010E048E0A2
:100C9000442E22C0E230F10521F4E1E0EB1544F0EE
:100CA00005C0339729F4F7E0FB1514F0B39414C092
:100CB0002BE025158CF05394E52DFF27E7FDF095EB
:100CC000EE0FFF1FE259FF4F80819181049719F4C5
:100CD00081E080936100BB24A52DBB27A7FDB095C3
:100CE000FD01EE0FFF1FE259FF4F4081518143305C
:100CF000510519F021E030E002C02AE030E0809197
:100D0000520190915301029711F4B90102C060E0C1
:100D100070E08091580190915901029729F466275B
:100D20007727621B730B04C06115710509F488CE27
:100D30004230510541F0FD01EE0FFF1F43305105D8
:100D400009F057C025C0AA0FBB1FAF56BF4FEB2DF0
:100D5000FF27E7FDF095E857FF4F8081992787FD32
:100D60009095ED91FC91E80FF91F8081992787FDFF
:100D70009095860F971FAFEF80389A0714F480E89C
:100D800005C08038910514F08FE790E0808358CE3D
:100D9000AB2DBB27A7FDB095EF56FF4F20813181CA
:100DA000FD01E857FF4F8081992787FD9095880FB7
:100DB000991F280F391FA555BF4F8C91992787FD83
:100DC0009095880F991FD901ED91FC91E80FF91FBB
:100DD00080819181860F971FB3E0893E9B0714F0B5
:100DE00088EE93E097FF02C080E090E091838083DB
:100DF00027CEEF56FF4F40815181FA018081282F85
:100E0000332727FD3095260F371FFD01EC54FF4F88
:100E1000E0818E2F992787FD9095281739076CF070
:100E2000AF53BF4F8C91E82FFF27E7FDF095C90125
:100E3000E217F3070CF4CF01E82FDA01EC9300CEB0
:100E400000E010E03601470175CEAA24FBCD0F93D8
:100E50001F938C01FC01868160E01DD681E090E04B
:100E6000B1D5F801868161E016D681E090E0AAD57F
:100E7000F801868160E00FD684E690E0A3D51F914B
:100E80000F910895A0E0B0E0E7E4F7E0C1C6D82EE6
:100E9000C92E282F392FC9018C01C0E0D0E0E62EE1
:100EA000FF24F801878161E0B7D5B7010C2E02C09D
:100EB000759567950A94E2F76170F8018781EBD523
:100EC00021960F5F1F4FC830D10559F78D2D9C2DEE
:100ED000BEDFCDB7DEB7E8E0B7C6A0E0B0E0E2E73E
:100EE000F7E096C6D82EC92E282F392FC9018C01BC
:100EF000C0E0D0E0E62EFF24F801878161E08CD5C8
:100F0000B7010C2E02C0759567950A94E2F76170DF
:100F1000F8018781C0D521960F5F1F4FC430D105DE
:100F200059F78D2D9C2D93DFCDB7DEB7E8E08CC649
:100F30001F93CF93DF93EC01162F8C81642FABD5D9
:100F40008D818F3F11F060E0A6D58F8584FF04C0AE
:100F5000CE01612F97DF0CC0612F70E084E07595A2
:100F600067958A95E1F7CE01B8DFCE01612FB5DF35
:100F7000DF91CF911F91089541E0DADF81E090E0A9
:100F8000089540E0D5DF0895FC016089862F8160D7
:100F9000808B6960CF01F5DF0895FC016089862FA1
:100FA0008460808B6C60CF01ECDF0895A8E0B0E036
:100FB000EBEDF7E033C69C01FE013196AAEDB0E0FF
:100FC00088E00D9001928150E1F7F901838948177B
:100FD00010F0482F4150E42FF0E0EE0FFF1FEC0F10
:100FE000FD1F8181680F6068C901CBDF2896E2E0B0
:100FF00031C661E0C6DF80ED97E0E4D40895CF9379
:10100000DF93EC01423018F08F8588608F874B8B1F
:101010001C8A222329F0413019F48F8584608F8740
:1010200080E593ECCFD48C8160E035D58E8160E093
:1010300032D58D818F3F11F060E02DD56F8564FD35
:1010400016C0CE0163E049DF84E991E1BBD4CE0153
:1010500063E043DF84E991E1B5D4CE0163E03DDF95
:1010600086E990E0AFD4CE0162E037DF11C0606264
:10107000CE0187DF84E991E1A5D46F856062CE015E
:1010800080DF86E990E09ED46F856062CE0179DFD3
:101090006F856062CE0175DF84E0888BCE017DDFD5
:1010A000CE01A7DF82E0898BCE0166E06ADFDF91A7
:1010B000CF9108956F927F928F92AF92CF92EF92DD
:1010C0000F931F93DF93CF93CDB7DEB73C01162F5D
:1010D000842FF301448325830683E782C086A1869B
:1010E00082869D8593879E8594879F85958798891D
:1010F000968761E091D4F30185818F3F11F061E023
:101100008BD4F301868161E087D4112319F0F301B8
:10111000178603C080E1F3018787C30160E141E0E6
:1011200020E06DDFCF91DF911F910F91EF90CF9075
:10113000AF908F907F906F9008958F92AF92CF92E3
:10114000DF92EF92FF920F931F93CF93DF93DC0117
:10115000362F542F722F102FFE2CDC2C8A2C139636
:101160001C921E92129786ED90E011969C938E939E
:1011700000D000D0EDB7FEB73196CDB7DEB71982FB
:10118000118212821382CD0161E0432F252F072F98
:10119000E12ECF2CAD2C8EDF0F900F900F900F9083
:1011A000DF91CF911F910F91FF90EF90DF90CF9043
:1011B000AF908F90089508951F920F920FB60F92DF
:1011C00011242F933F934F938F939F93EF93FF930C
:1011D0005A991CC04CB12091BA013091BB012F5FCC
:1011E0003F4F2F7330708091BC019091BD01281743
:1011F000390769F0E091BA01F091BB01E658FE4F62
:1012000040833093BB012093BA0101C08CB1FF91A0
:10121000EF919F918F914F913F912F910F900FBE22
:101220000F901F901895E0910E02F0910F02E05C74
:10123000FF4F8191919120813181821B930B8F739C
:101240009070892B09F0B7DF08951F920F920FB6A7
:101250000F9211242F933F938F939F93EF93FF93BC
:101260002091FE013091FF018091000290910102D6
:101270002817390711F4559813C0E0910002F09136
:101280000102E254FE4F2081809100029091010200
:1012900001968F73907090930102809300022CB995
:1012A000FF91EF919F918F913F912F910F900FBEE2
:1012B0000F901F901895AF92BF92DF92EF92FF921E
:1012C0000F931F93CF93DF93EC017A018B01DD2401
:1012D000403081EE580780E0680780E0780711F021
:1012E000DD24D39491E0A92EB12CEC89FD89DD2079
:1012F00069F0C50108A002C0880F991F0A94E2F79F
:10130000808360E079E08DE390E005C0108260E8C2
:1013100074E88EE190E0A80197014ED4215030404E
:1013200040405040569547953795279580E12030AD
:10133000380720F0DD2011F0DD24D7CFE889F989C6
:101340003083EA89FB89208319A2EE89FF894081D5
:1013500021E030E0C9010C8C02C0880F991F0A946B
:10136000E2F7482B4083EE89FF894081C9010D8C4B
:1013700002C0880F991F0A94E2F7482B4083EE8938
:10138000FF894081C9010E8C02C0880F991F0A9401
:10139000E2F7482B4083EE89FF8980810F8C02C0E1
:1013A000220F331F0A94E2F7209528232083DF9130
:1013B000CF911F910F91FF90EF90DF90BF90AF9072
:1013C0000895DC011C96ED91FC911D97E05CFF4FA8
:1013D0002191319180819181281B390B2F733070BD
:1013E000C9010895DC011C96ED91FC911D97E05C0C
:1013F000FF4F20813181E054F040DF01AE5BBF4FF1
:101400008D919C9111972817390719F42FEF3FEF11
:1014100007C08D919C91E80FF91F8081282F30E043
:10142000C9010895DC011C96ED91FC911D97E05CCB
:10143000FF4F20813181E054F040DF01AE5BBF4FB0
:101440008D919C9111972817390719F42FEF3FEFD1
:1014500010C08D919C911197E80FF91F20818D91FB
:101460009C91119701968F73907011969C938E9317
:1014700030E0C9010895DC0191968C919197882301
:1014800039F05496ED91FC915597808186FFF9CF04
:1014900091961C920895CF93DF93EC01EE85FF8522
:1014A000E05CFF4F20813181E054F0402F5F3F4FDF
:1014B0002F733070DF01AE5BBF4F8D919C91119700
:1014C00028173907D1F3E05CFF4F80819181E05408
:1014D000F040E80FF91F6083EE85FF85E05CFF4F69
:1014E00031832083EE89FF89208181E090E00F8C99
:1014F00002C0880F991F0A94E2F7282B208381E00D
:1015000089A3EC89FD8980818064808381E090E0FB
:10151000DF91CF910895109205021092040288EE97
:1015200093E0A0E0B0E08093060290930702A093BE
:101530000802B093090286EE90E090930302809334
:1015400002028AE791E090930F0280930E028EEBE5
:1015500091E0909311028093100220E430E03093E8
:1015600013022093120289E290E090931502809377
:1015700014028BE290E090931702809316028AE2A5
:1015800090E0909319028093180230931B022093ED
:101590001A028CE290E090931D0280931C0284E07A
:1015A00080931E0283E080931F0287E080932002D5
:1015B00085E08093210281E0809322020895CF93F9
:1015C000DF930AD231D9C3E1D9E023DA2097E9F3D6
:1015D0002ADEFBCFA0E0B0E0EFEEFAE019C37C0119
:1015E0006B018A01C0E0D0E00FC0D6016D916D01A2
:1015F000D701ED91FC910190F081E02DC701099593
:10160000C80FD91F015010400115110571F7CE0107
:10161000CDB7DEB7E8E018C3EF92FF920F931F93A8
:10162000CF93DF937C018B01C0E0D0E0F8010F5F26
:101630001F4F6491662359F0D701ED91FC91019001
:10164000F081E02DC7010995C80FD91FEFCFCE015A
:10165000CDB7DEB7E6E0FAC2DC01ED91FC91019076
:10166000F081E02D09950895CF93DF93EC0161158A
:10167000710519F420E030E00FC0DB010D9000206F
:10168000E9F71197A61BB70BE881F9810280F38176
:10169000E02DAD0109959C01C901DF91CF9108951D
:1016A0004F925F927F928F929F92AF92BF92CF9212
:1016B000DF92EF92FF920F931F93DF93CF93CDB7FB
:1016C000DEB7A1970FB6F894DEBF0FBECDBF2C01D9
:1016D000742ECB01223008F42AE019A231E2C32E85
:1016E000D12CCC0EDD1E822E9924AA24BB24672D7A
:1016F000752FA501940160D279018A01C801B70153
:10170000A50194013AD2472D461B0894C108D1087F
:101710004A3014F4405D01C0495CF6014083E11495
:10172000F1040105110521F07E2C5F2DC801DFCFEA
:10173000C201B60199DFA1960FB6F894DEBF0FBEC5
:10174000CDBFCF91DF911F910F91FF90EF90DF9070
:10175000CF90BF90AF909F908F907F905F904F9071
:101760000895DC012115310541F4ED91FC910190C2
:10177000F081E02D642F0995089592DF0895EF928E
:10178000FF920F931F939A01E62EFF2400E010E0D2
:10179000B801A701E6DF1F910F91FF90EF90089528
:1017A000A0E0B0E0E5EDFBE033C2EC016A017B01B3
:1017B0002115310541F4E881F9810190F081E02D96
:1017C000642F09951DC02A303105C9F477FF16C072
:1017D000E881F9810190F081E02D6DE209958C019D
:1017E00044275527BA014C195D096E097F09CE01BE
:1017F0002AE056DF9801280F391F03C02AE050DF86
:101800009C01C901CDB7DEB7E8E01EC2EF92FF929E
:101810000F931F937B019A010027F7FC0095102F6F
:10182000B801A701BDDF1F910F91FF90EF900895C0
:101830001F920F920FB60F9211242F933F938F9305
:101840009F93AF93BF938091280290912902A0911A
:101850002A02B0912B0230912C020196A11DB11DDC
:10186000232F2D5F2D3720F02D570196A11DB11D7F
:1018700020932C028093280290932902A0932A029D
:10188000B0932B028091240290912502A091260210
:10189000B09127020196A11DB11D8093240290935F
:1018A0002502A0932602B0932702BF91AF919F918A
:1018B0008F913F912F910F900FBE0F901F90189511
:1018C0009FB7F8942091240230912502409126027E
:1018D0005091270282B708B600FE06C08F3F21F064
:1018E0002F5F3F4F4F4F5F4F9FBF542F432F322FDC
:1018F0002227280F311D411D511D82E0220F331F69
:10190000441F551F8A95D1F7B901CA0108959B015B
:10191000AC017FB7F8948091240290912502A091A8
:101920002602B091270262B708B600FE05C06F3FDD
:1019300019F00196A11DB11D7FBFBA2FA92F982FB5
:101940008827860F911DA11DB11D62E0880F991F88
:10195000AA1FBB1F6A95D1F7BC012EC0FFB7F89430
:101960008091240290912502A0912602B091270235
:10197000E2B708B600FE05C0EF3F19F00196A11DC1
:10198000B11DFFBFBA2FA92F982F88278E0F911D49
:10199000A11DB11DE2E0880F991FAA1FBB1FEA9588
:1019A000D1F7861B970B885E9340C0F221503040E0
:1019B0004040504068517C4F21153105410551058B
:1019C00069F60895019739F0880F991F880F991FBC
:1019D00002970197F1F70895789483B7826083BFE7
:1019E00083B7816083BF89B7816089BF1EBC8EB514
:1019F00082608EBD8EB581608EBD8FB581608FBDDA
:101A000085B5846085BD85B5806485BD329A319A7F
:101A1000309A379A1AB80895CF93DF93482F50E041
:101A2000CA018F5B9C4FFC013491435D5C4FFA010E
:101A30008491882369F190E0880F991FFC01E15F90
:101A4000FC4FA591B491FC01E75EFC4FC591D49188
:101A5000662351F42FB7F8948C91932F9095892396
:101A60008C93888189230BC0623061F42FB7F8947E
:101A70008C91932F909589238C938881832B8883D5
:101A80002FBF06C09FB7F8948C91832B8C939FBF78
:101A9000DF91CF910895482F50E0CA018B5A9C4F97
:101AA000FC012491CA018F5B9C4FFC019491435D22
:101AB0005C4FFA013491332331F1222381F0243039
:101AC00039F0253049F0233051F48FB58F7702C0BB
:101AD0008FB58F7D8FBD03C085B58F7D85BDE32F0D
:101AE000F0E0EE0FFF1FE75EFC4FA591B4912FB71A
:101AF000F894662321F48C919095892302C08C91EF
:101B0000892B8C932FBF0895682F70E0CB018B5ADF
:101B10009C4FFC012491CB018F5B9C4FFC014491B5
:101B2000635D7C4FFB019491992319F420E030E030
:101B300022C0222381F0243039F0253049F02330AF
:101B400051F48FB58F7702C08FB58F7D8FBD03C0E5
:101B500085B58F7D85BD892F90E0880F991F8D5D9C
:101B60009C4FFC01A591B4918C9120E030E084233E
:101B700011F021E030E0C9010895629FD001739F08
:101B8000F001829FE00DF11D649FE00DF11D929F19
:101B9000F00D839FF00D749FF00D659FF00D992758
:101BA000729FB00DE11DF91F639FB00DE11DF91F7C
:101BB000BD01CF0111240895A1E21A2EAA1BBB1B5F
:101BC000FD010DC0AA1FBB1FEE1FFF1FA217B30709
:101BD000E407F50720F0A21BB30BE40BF50B661F1F
:101BE000771F881F991F1A9469F7609570958095E3
:101BF00090959B01AC01BD01CF0108952F923F92BA
:101C00004F925F926F927F928F929F92AF92BF920C
:101C1000CF92DF92EF92FF920F931F93CF93DF93B8
:101C2000CDB7DEB7CA1BDB0B0FB6F894DEBF0FBE15
:101C3000CDBF09942A88398848885F846E847D8462
:101C40008C849B84AA84B984C884DF80EE80FD8064
:101C50000C811B81AA81B981CE0FD11D0FB6F894DA
:101C6000DEBF0FBECDBFED010895EE0FFF1F059043
:0A1C7000F491E02D0994F894FFCFE1
:101C7A0001011B01210127012E0134013A01000053
:101C8A000100010001000100010001000100010042
:101C9A000200030003000400000102000102000127
:101CAA0002600008010A010C010E01100112011460
:101CBA0001160118016200680061000000000101BC
:101CCA0001020202010101010101010101000000FA
:101CDA0001030503040303050202000000040203D2
:101CEA00050400000000BC07EA0A000040001400D6
:101CFA005400000000004B0AEA0AE109120AF2093C
:021D0A003B0A92
:00000001FF
