:10000000C9C1EDC1ECC1EBC1EAC1E9C1E8C1E7C1B9
:10001000E6C128CAE4C1E3C1E2C1E1C1E0C1DFC178
:10002000DEC1DDC1DCC120556E646566696E656444
:100030000020525833532056310020525833532059
:1000400056322F563300204E616E6F57696900207B
:100050004561676C6520413350726F002052583300
:10006000534D00204D696E69204D574300260031E5
:10007000003A0046004F005C006300535441545561
:10008000530049443D005645523D0031452F32450D
:100090002F523D00454550524F4D0055702F446E34
:1000A000207468656E207E0055706461746520431D
:1000B0006F6E666967207E00457261736520436FCD
:1000C0006E666967207E00457261736520537461B6
:1000D0007473207E0057494E47204D4F44450044DD
:1000E00049502053570053696E676C652041696C15
:1000F0000044656C746100562D5461696C00447550
:10010000616C2041696C00455041204D4F444500D1
:1001100046756C6C20313030302D32303030004E2E
:100120006F726D20313130302D31393030005472E2
:1001300061636B696E670053455249414C525820C8
:100140004F52444552004E6F6E6500524554413146
:1001500061324600544145523161324600414554B6
:100160005231613246004D4F554E54204F52494551
:100170004E54004E6F726D616C00526F6C6C203982
:1001800030DF204C65667400526F6C6C203930DFB4
:100190002052696768740053544B2D4741494E20E3
:1001A0005448524F570046756C6C0048616C6600AD
:1001B00051756172746572004D41582053544B2D36
:1001C000524F544154450056657279204C6F772048
:1001D000302E323578004C6F7720302E3578004D38
:1001E000656469756D2031780048696768203278E8
:1001F000005665727920486967682034780052415A
:1002000054452053544B2D524F544154450044699A
:100210007361626C656400456E61626C656400497F
:100220004E464C494748542043414C49420056529F
:100230002D4741494E20412F452F520052415445F0
:100240002000484F4C44200041696C2000456C65FB
:10025000200052756420007B00820086008B000025
:10026000000000D500DF00E600F100F700FE000707
:100270000110011F012E0100000000370146014B53
:100280000154015D010000660173017A01880100DB
:100290000000009701A601AB01B00100000000B80A
:1002A00001C701D601DF01E901F101FE010E0217CC
:1002B000020000000000001F020E021702000000F2
:1002C0000000002E02000000000000000000003CC2
:1002D0000248024D02520200000000420248024D54
:1002E0000252020000000094009B00A800B800C762
:1002F000000000206E6565643D00726561643D002C
:10030000436667566572204D69736D61746368005A
:100310004366675665723D004F70656E466C69674F
:1003200068745374616200502F492F4400504F5439
:1003300000496E76616C2000000000003700340038
:1003400031000000000038003500320000000000DD
:1003500036003300300004040404040404040202E0
:100360000202020203030303030301020408102034
:10037000408001020408102001020408102000003F
:100380000000000000000003040500000000000061
:100390000000F00111241FBECFE5D4E0DEBFCDBFC9
:1003A00010E0A0E6B0E0EEEAF8E102C005900D92A0
:1003B000A23EB107D9F711E0A2EEB0E001C01D9254
:1003C000A337B107E1F713E0C4E9D3E003C02297F4
:1003D000FE0167DAC239D107D1F70BD766CA10CE52
:1003E000AF92CF92EF920F9382EE90E060E141E105
:1003F00022E108E079E0E72E5AE0C52E3BE0A32E8B
:10040000BAD60F91EF90CF90AF900895A0E0B0E0F2
:10041000EBE0F2E00DCA1C01D62E7A016BD82B015D
:100420003C010027F7FC0095102FC801B70128EE0A
:1004300033E040E050E0BBD94B015C01C0E0D0E0CC
:10044000CD2CDD24C7FCD09434C05F9B32C05F9BB1
:10045000FECF2CB1C130D10559F0C230D105A9F081
:10046000209729F5243219F58E2DC1E0D0E020C067
:10047000822F90E0C816D90614F48E2D15C0122FC5
:10048000822FC2E0D0E000E013C0120F8E2D815009
:10049000EE2031F0F101E00FF11D20830F5F08C065
:1004A000112311F481E010C0C0E0D0E001C08E2D16
:1004B000E82E20D864197509860997096815790509
:1004C0008A059B0514F280E0CDB7DEB7E2E1CCC926
:1004D000A0E0B0E0EDE6F2E0B2C9162FE82EFF246E
:1004E000E7FCF094E701CC0FDD1F6E01CE0CDF1CA2
:1004F000F601EE0FFF1FEE0FFF1FE95AFD4FA5900B
:10050000B49082EE90E0B501A1D682EE90E060E07A
:1005100041E06AD5FE01E259FF4F0190F081E02DE4
:10052000E230F10509F4B1C0E330F10534F430975D
:1005300061F0319709F03DC16FC0E330F10509F476
:10054000DBC0349709F035C167C0FE01EF56FF4F9D
:100550000190F081E02D0081E02FFF27E7FDF0956D
:10056000C601880F991FE80FF91FEE0FFF1FE95A08
:10057000FD4F6591749182EE90E068D60230E1F013
:10058000033041F1013009F014C160913201772745
:1005900067FD709582EE90E04AE050E051D780917F
:1005A0003201E82FFF27E7FDF095EE0FFF1FE3591B
:1005B000FF4F6591749156C04091330150913401C1
:1005C000609135017091360182EE90E02AE030E0D2
:1005D000E2D6EFC060913701772767FD709582EE14
:1005E00090E04AE050E02CD782EE90E06FE24ED6E9
:1005F00060913801772767FD709582EE90E04AE0C0
:1006000050E01ED782EE90E06FE240D66091390153
:10061000772767FD709533C09701220F331FF901CB
:10062000EF56FF4F0190F081E02D0081F701EC546F
:10063000FF4F80810817D4F0F701EF53FF4F8081FF
:100640008017A4F0E02FFF27E7FDF0952E0D3F1D4A
:10065000220F331FE20FF31FEE0FFF1FE95AFD4F6A
:100660006591749182EE90E0F1D5A3C082EE90E0A6
:1006700061E373E0EBD5602F772767FD709582EE1D
:1006800090E04AE050E0DCD694C0E12FFF27E7FD80
:10069000F095E857FF4FF080FE01EF56FF4FC08105
:1006A000D18110E000E01F1529F401E082EE90E016
:1006B0006BE5ECD56881603831F482EE90E06DE254
:1006C00073E0C4D508C0772767FD709582EE90E08F
:1006D0004AE050E0B5D6002321F082EE90E06DE5CF
:1006E000D5D5123021F082EE90E06FE2CFD51F5FBA
:1006F00021961330B9F65DC0E12FFF27E7FDF09595
:10070000DF01A555BF4F0C91E857FF4F9080FE01C8
:10071000EF56FF4FF080E18082EE90E088D482EEC9
:1007200090E0B50193D5112707FD1095F601EE0F66
:10073000FF1FE00FF11FEE0FFF1FE75AFD4F6591FE
:10074000749182EE90E082D582EE90E067E273E0F1
:100750007DD582EE90E060E041E046D46801CC0CAB
:10076000DD1C2F2D3E2DC901EC0110E000E0191514
:1007700029F401E082EE90E06BE588D5E881F9810B
:10078000EC0DFD1D6081718182EE90E04AE050E049
:1007900057D6002321F082EE90E06DE577D5123038
:1007A00021F082EE90E06FE271D51F5F2296133048
:1007B000E9F6CDB7DEB7EBE05EC85D9BFECF8CB946
:1007C0005F9BFECF8CB1662329F462E070E080E08D
:1007D00090E0B7D60895EF92FF920F931F93CF93B7
:1007E000DF93E82E192F062FF62E84E260E0E5DF76
:1007F000802F60E0E2DF2E2D312FC901EC0104C013
:100800008991F80E60E0D9DF9E012E192017C4F3FC
:100810008F2D819561E0D1DFCDB7DEB7E6E030C83E
:100820001F93CF93DF93CEECD0E01991812F60E03E
:100830000DD7812F61E049D780E0C23DD807A9F7E5
:10084000DF91CF911F9108950F931F9384B7877FF6
:1008500084BF98E10FB6F89491BD11BC0FBE10BCD7
:1008600080E189B9599A9AB986E880BDD9DF02EE4C
:1008700010E0C80160E142E020E0DFD3C801A2D36C
:100880001F910F910895A0E0B0E0E8E4F4E0D1C733
:1008900031D67B018C01C2E4D1E05EEC652E50E0E4
:1008A000752E4AE3842E41E0942E3AE4A32E31E0E3
:1008B000B32E2AE5C22E21E0D22E332492E0492E17
:1008C000512C19821882F301808138D720E030E062
:1008D000892B11F421E030E084E0220F331F8A9548
:1008E000E1F7F40180819181282B392B20313105EA
:1008F00071F1213131053CF4215030402230310575
:1009000008F077C009C02131310509F441C0223116
:10091000310509F06EC055C0F50180819181A28139
:10092000B381A8019701281B390B4A0B5B0BDA0135
:10093000C9018155934CA040B0400CF45AC041E02D
:1009400050E059834883F401118210821FC0F501E1
:1009500080819181A281B381A8019701281B390B65
:100960004A0B5B0BDA01C9018155934CA040B040A2
:100970000CF43FC05982488221E030E0F401318319
:100980002083F601E082F18202831383F5012DC0FA
:10099000F60180819181A281B381A8019701281B72
:1009A000390B4A0B5B0BDA01C901815C9742A94004
:1009B000B040FCF059824882F40151824082F60135
:1009C00014C0F60180819181A281B381A8019701B1
:1009D000281B390B4A0B5B0BDA01C901815A964877
:1009E000A140B04034F059824882E082F182028313
:1009F0001383332031F488819981892B11F03324BA
:100A0000339422960894611C711C22E030E0820E1F
:100A1000931E44E050E0A40EB51EC40ED51E51E056
:100A2000CA34D50709F04DCF832DCDB7DEB7E1E14C
:100A30001CC7ACE5B0E0EEE1F5E0FAC65BD5AC0171
:100A4000CB01DA012C013D01EE24FF24882400E0D3
:100A50009924939424E0222E02C0992493944AD599
:100A60005B016C01E114F10429F020E930ED43E071
:100A700050E004C020E533EC40E050E0D601C50171
:100A800084199509A609B709281739074A075B078A
:100A90000CF069C022E0E216F104F1F083E0E81600
:100AA000F10444F4E114F10471F0A1E0EA16F10458
:100AB000A1F40CC0B3E0EB16F10459F0E4E0EE163B
:100AC000F10459F409C0F3E0F98307C081E0898398
:100AD00004C0632D6F5F02C0198261E0CE010196F0
:100AE0007ADE1981CE0101966CE544E150E08EDC9E
:100AF000882309F4BFC110688981811709F0BAC140
:100B000021E0E216F104F1F083E0E816F10409F4C3
:100B1000B5C1E114F10429F58A81863021F094E011
:100B2000E92EF12CADC1A7EFB0E0FE0132968BE3C8
:100B300001900D928150E1F72501360181E0E82E08
:100B4000F12C11C0A2E3B1E0FE01329688E00190E1
:100B50000D928150E1F712E0E12EF12C882400E0A3
:100B60008FC125013601992009F442C082EE90E040
:100B70005ED2A2E0EA16F104B1F0B4E0EB16F104A3
:100B8000B1F0E114F104A1F582EE90E068E173E0C8
:100B90005DD382EE90E060E041E026D282EE90E00C
:100BA00060E173E01DC0882D602F92DC21C082EED1
:100BB00090E060E073E04AD382EE90E060E041E0D4
:100BC00013D282EE90E06AEF72E040D382EE90E0C2
:100BD0006A814AE050E0EDD382EE90E063EF72E08C
:100BE00035D382EE90E066E070E04AE050E028D431
:100BF000E2E0EE16F10409F046C145DE882309F46F
:100C000042C18091440190914501029739F5E82D48
:100C1000FF27E7FDF095EE0FFF1FE259FF4F8081A0
:100C200091810297029720F4002311F0015016C021
:100C30008820A1F08A94E82DFF27E7FDF095EE0FBC
:100C4000FF1FE259FF4F0190F081E02DE230F105E6
:100C500011F402E003C0339709F408E080914601E3
:100C600090914701029709F051C0E82DFF27E7FD59
:100C7000F095EE0FFF1FE259FF4F0190F081E02D3C
:100C8000E430F10519F580916100833071F0843012
:100C9000A1F08230D9F5DE011296E7EFF0E08BE3A8
:100CA00001900D928150E1F701C01A82298263E020
:100CB000E62EF12C5BE3352E29C01A82F2E0F9838F
:100CC00043E0E42EF12C38E0332E20C0E230F10571
:100CD00019F402303CF404C0339721F4083014F4C2
:100CE0000F5F14C02BE028158CF08394E82DFF27AC
:100CF000E7FDF095EE0FFF1FE259FF4F80819181D4
:100D0000049719F481E08093610000E0A82DBB27CF
:100D1000A7FDB095FD01EE0FFF1FE259FF4F408187
:100D200051814330510519F021E030E002C02AE042
:100D300030E08091420190914301029711F4B90192
:100D400002C060E070E080914801909149010297F3
:100D500029F466277727621B730B04C061157105A0
:100D600009F47BCE4230510541F0FD01EE0FFF1F2B
:100D70004330510509F057C025C0AA0FBB1FAF561D
:100D8000BF4FE02FFF27E7FDF095E857FF4F808129
:100D9000992787FD9095ED91FC91E80FF91F8081CF
:100DA000992787FD9095860F971FAFEF80389A0798
:100DB00014F480E805C08038910514F08FE790E0C6
:100DC00080834BCEA02FBB27A7FDB095EF56FF4FDA
:100DD00020813181FD01E857FF4F8081992787FDF0
:100DE0009095880F991F280F391FA555BF4F8C91DB
:100DF000992787FD9095880F991FD901ED91FC9156
:100E0000E80FF91F80819181860F971FB3E0893E1B
:100E10009B0714F088EE93E097FF02C080E090E01B
:100E2000918380831ACEEF56FF4F40815181FA01A2
:100E30008081282F332727FD3095260F371FFD018E
:100E4000EC54FF4FE0818E2F992787FD909528174E
:100E500039076CF0AF53BF4F8C91E82FFF27E7FDA8
:100E6000F095C901E217F3070CF4CF01E82FDA017E
:100E7000EC93F3CDE114F10409F473CEEE24FF24D6
:100E80002501360173CE9924EACD0F931F938C016F
:100E9000FC01868160E019D481E090E0ADD3F801D7
:100EA000868161E012D481E090E0A6D3F8018681CA
:100EB00060E00BD484E690E09FD31F910F910895DA
:100EC000A0E0B0E0E5E6F7E0BDC4D82EC92E282F9B
:100ED000392FC9018C01C0E0D0E0E62EFF24F801D3
:100EE000878161E0B3D3B7010C2E02C07595679579
:100EF0000A94E2F76170F8018781E7D321960F5FCA
:100F00001F4FC830D10559F78D2D9C2DBEDFCDB7B1
:100F1000DEB7E8E0B3C4A0E0B0E0E0E9F7E092C4F7
:100F2000D82EC92E282F392FC9018C01C0E0D0E05E
:100F3000E62EFF24F801878161E088D3B7010C2EEB
:100F400002C0759567950A94E2F76170F801878190
:100F5000BCD321960F5F1F4FC430D10559F78D2D9B
:100F60009C2D93DFCDB7DEB7E8E088C41F93CF9305
:100F7000DF93EC01162F8C81642FA7D38D818F3FD7
:100F800011F060E0A2D38F8584FF04C0CE01612FF1
:100F900097DF0CC0612F70E084E0759567958A95A6
:100FA000E1F7CE01B8DFCE01612FB5DFDF91CF9140
:100FB0001F91089541E0DADF81E090E0089540E07C
:100FC000D5DF0895FC016089862F8160808B696080
:100FD000CF01F5DF0895FC016089862F8460808B46
:100FE0006C60CF01ECDF0895A8E0B0E0E9EFF7E036
:100FF0002FC49C01FE013196AAEDB0E088E00D906F
:1010000001928150E1F7F9018389481710F0482FC8
:101010004150E42FF0E0EE0FFF1FEC0FFD1F818128
:10102000680F6068C901CBDF2896E2E02DC461E05B
:10103000C6DF80ED97E0E0D20895CF93DF93EC0117
:10104000423018F08F8588608F874B8B1C8A222353
:1010500029F0413019F48F8584608F8780E593EC07
:10106000CBD28C8160E031D38E8160E02ED38D8134
:101070008F3F11F060E029D36F8564FD16C0CE016B
:1010800063E049DF84E991E1B7D2CE0163E043DF59
:1010900084E991E1B1D2CE0163E03DDF86E990E0E1
:1010A000ABD2CE0162E037DF11C06062CE0187DFD4
:1010B00084E991E1A1D26F856062CE0180DF86E98B
:1010C00090E09AD26F856062CE0179DF6F856062B1
:1010D000CE0175DF84E0888BCE017DDFCE01A7DFF6
:1010E00082E0898BCE0166E06ADFDF91CF910895BF
:1010F0006F927F928F92AF92CF92EF920F931F9346
:10110000DF93CF93CDB7DEB73C01162F842FF301C9
:10111000448325830683E782C086A18682869D85D7
:1011200093879E8594879F8595879889968761E0A8
:101130008DD2F30185818F3F11F061E087D2F301F9
:10114000868161E083D2112319F0F301178603C071
:1011500080E1F3018787C30160E141E020E06DDFBA
:10116000CF91DF911F910F91EF90CF90AF908F9023
:101170007F906F9008958F92AF92CF92DF92EF920F
:10118000FF920F931F93CF93DF93DC01362F542FE1
:10119000722F102FFE2CDC2C8A2C13961C921E9280
:1011A000129786ED90E011969C938E9300D000D01C
:1011B000EDB7FEB73196CDB7DEB719821182128234
:1011C0001382CD0161E0432F252F072FE12ECF2C75
:1011D000AD2C8EDF0F900F900F900F90DF91CF917D
:1011E0001F910F91FF90EF90DF90CF90AF908F9075
:1011F0000895CF93DF930AD227DBC0E0D0E019DC5B
:101200002097E9F3FDD6FBCFA0E0B0E0E9E0F9E0FC
:1012100019C37C016B018A01C0E0D0E00FC0D60188
:101220006D916D01D701ED91FC910190F081E02D60
:10123000C7010995C80FD91F0150104001151105AC
:1012400071F7CE01CDB7DEB7E8E018C3EF92FF9299
:101250000F931F93CF93DF937C018B01C0E0D0E00D
:10126000F8010F5F1F4F6491662359F0D701ED918C
:10127000FC910190F081E02DC7010995C80FD91F9D
:10128000EFCFCE01CDB7DEB7E6E0FAC2DC01ED91DB
:10129000FC910190F081E02D09950895CF93DF93A3
:1012A000EC016115710519F420E030E00FC0DB019D
:1012B0000D900020E9F71197A61BB70BE881F98183
:1012C0000280F381E02DAD0109959C01C901DF91F8
:1012D000CF9108954F925F927F928F929F92AF929B
:1012E000BF92CF92DF92EF92FF920F931F93DF9303
:1012F000CF93CDB7DEB7A1970FB6F894DEBF0FBE80
:10130000CDBF2C01742ECB01223008F42AE019A2A3
:1013100031E2C32ED12CCC0EDD1E822E9924AA24BC
:10132000BB24672D752FA501940160D279018A0134
:10133000C801B701A50194013AD2472D461B089474
:10134000C108D1084A3014F4405D01C0495CF6017F
:101350004083E114F1040105110521F07E2C5F2D7D
:10136000C801DFCFC201B60199DFA1960FB6F8948C
:10137000DEBF0FBECDBFCF91DF911F910F91FF90C8
:10138000EF90DF90CF90BF90AF909F908F907F9025
:101390005F904F900895DC012115310541F4ED91E6
:1013A000FC910190F081E02D642F0995089592DF62
:1013B0000895EF92FF920F931F939A01E62EFF2458
:1013C00000E010E0B801A701E6DF1F910F91FF9048
:1013D000EF900895A0E0B0E0EFEEF9E033C2EC0149
:1013E0006A017B012115310541F4E881F981019001
:1013F000F081E02D642F09951DC02A303105C9F414
:1014000077FF16C0E881F9810190F081E02D6DE24F
:1014100009958C0144275527BA014C195D096E09BD
:101420007F09CE012AE056DF9801280F391F03C03B
:101430002AE050DF9C01C901CDB7DEB7E8E01EC24B
:10144000EF92FF920F931F937B019A010027F7FC05
:101450000095102FB801A701BDDF1F910F91FF90DC
:10146000EF9008951F920F920FB60F9211242F93B1
:101470003F938F939F93AF93BF9380916E01909111
:101480006F01A0917001B0917101309172010196CC
:10149000A11DB11D232F2D5F2D3720F02D57019653
:1014A000A11DB11D2093720180936E0190936F0175
:1014B000A0937001B093710180916A0190916B01CA
:1014C000A0916C01B0916D010196A11DB11D809399
:1014D0006A0190936B01A0936C01B0936D01BF9171
:1014E000AF919F918F913F912F910F900FBE0F90D1
:1014F0001F9018959FB7F89420916A0130916B0165
:1015000040916C0150916D0182B708B600FE06C093
:101510008F3F21F02F5F3F4F4F4F5F4F9FBF542FA3
:10152000432F322F2227280F311D411D511D82E0EC
:10153000220F331F441F551F8A95D1F7B901CA01E5
:1015400008959B01AC017FB7F89480916A01909156
:101550006B01A0916C01B0916D0162B708B600FEFD
:1015600005C06F3F19F00196A11DB11D7FBFBA2FB5
:10157000A92F982F8827860F911DA11DB11D62E00C
:10158000880F991FAA1FBB1F6A95D1F7BC012EC0F7
:10159000FFB7F89480916A0190916B01A0916C0162
:1015A000B0916D01E2B708B600FE05C0EF3F19F03B
:1015B0000196A11DB11DFFBFBA2FA92F982F882713
:1015C0008E0F911DA11DB11DE2E0880F991FAA1F6A
:1015D000BB1FEA95D1F7861B970B885E9340C0F23C
:1015E000215030404040504068517C4F211531051A
:1015F0004105510569F60895019739F0880F991F43
:10160000880F991F02970197F1F70895789483B78F
:10161000826083BF83B7816083BF89B7816089BFE0
:101620001EBC8EB582608EBD8EB581608EBD8FB5BD
:1016300081608FBD85B5846085BD85B5806485BDBD
:10164000329A319A309A379A1AB80895CF93DF9325
:10165000482F50E0CA0186599C4FFC0134914A5AE8
:101660005C4FFA018491882369F190E0880F991FFB
:10167000FC01E85CFC4FA591B491FC01EE5BFC4FD2
:10168000C591D491662351F42FB7F8948C91932F80
:10169000909589238C93888189230BC0623061F4F3
:1016A0002FB7F8948C91932F909589238C938881F0
:1016B000832B88832FBF06C09FB7F8948C91832B10
:1016C0008C939FBFDF91CF910895482F50E0CA01BE
:1016D00082589C4FFC012491CA0186599C4FFC0101
:1016E00094914A5A5C4FFA013491332331F1222309
:1016F00081F0243039F0253049F0233051F48FB592
:101700008F7702C08FB58F7D8FBD03C085B58F7D6C
:1017100085BDE32FF0E0EE0FFF1FEE5BFC4FA591C0
:10172000B4912FB7F894662321F48C919095892376
:1017300002C08C91892B8C932FBF0895682F70E085
:10174000CB0182589C4FFC012491CB0186599C4FC0
:10175000FC0144916A5A7C4FFB019491992319F43E
:1017600020E030E022C0222381F0243039F02530FF
:1017700049F0233051F48FB58F7702C08FB58F7D3C
:101780008FBD03C085B58F7D85BD892F90E0880F03
:10179000991F845B9C4FFC01A591B4918C9120E032
:1017A00030E0842311F021E030E0C9010895629F08
:1017B000D001739FF001829FE00DF11D649FE00D49
:1017C000F11D929FF00D839FF00D749FF00D659FAA
:1017D000F00D9927729FB00DE11DF91F639FB00DA9
:1017E000E11DF91FBD01CF0111240895A1E21A2EB8
:1017F000AA1BBB1BFD010DC0AA1FBB1FEE1FFF1FB5
:10180000A217B307E407F50720F0A21BB30BE40B04
:10181000F50B661F771F881F991F1A9469F760954B
:101820007095809590959B01AC01BD01CF01089505
:101830002F923F924F925F926F927F928F929F92E0
:10184000AF92BF92CF92DF92EF92FF920F931F93CE
:10185000CF93DF93CDB7DEB7CA1BDB0B0FB6F8947F
:10186000DEBF0FBECDBF09942A88398848885F84BF
:101870006E847D848C849B84AA84B984C884DF8030
:10188000EE80FD800C811B81AA81B981CE0FD11D14
:101890000FB6F894DEBF0FBECDBFED010895EE0F79
:0E18A000FF1F0590F491E02D0994F894FFCFFE
:1018AE0001010B01110117011E0124012A01000083
:1018BE000100010001000100010001000100010012
:1018CE0002000300030004000001020001020001F7
:1018DE00026000F800FA00FC00FE000001020104A4
:1018EE0001060108016200680061000000000101AC
:1018FE0001020202010101010101010101000000CA
:10190E0001030503040303050202000000040203A1
:10191E00040500000000DA0704090000400014006E
:02192E00540063
:00000001FF
