:100000000C9462000C948A000C948A000C948A0070
:100010000C948A000C948A000C948A000C948A0038
:100020000C948A000C948A000C948A000C947D1322
:100030000C948A000C94D9000C948A000C948A00C9
:100040000C94FE180C948A000C94C0160C940E1795
:100050000C948A000C943B030C948A000C948A0044
:100060000C948A000C948A000000000024002700F1
:100070002A0000000000250028002B0000000000DE
:1000800023002600290004040404040404040202DA
:100090000202020203030303030301020408102007
:1000A0004080010204081020010204081020000012
:1000B0000007000201000003040600000000000029
:1000C0000000751811241FBECFEFD4E0DEBFCDBFF6
:1000D00011E0A0E0B1E0E6EBF6E302C005900D927E
:1000E000AA3DB107D9F713E0AAEDB1E001C01D9216
:1000F000AC3BB107E1F710E0C4ECD0E004C02297BC
:10010000FE010E94551BC23CD107C9F70E94CB18C3
:100110000C94591B0C940000A0E0B0E0E2E9F0E080
:100120000C94261B7C01EB018A01690109C0CE01F8
:100130002196F6010995F70181937F010150104046
:1001400001151105A1F7CDB7DEB7E8E00C94421B0D
:10015000A0E0B0E0EEEAF0E00C94261BEC017B019D
:100160008A01690109C0CE012196F70161917F01E1
:10017000F60109950150104001151105A1F7CDB701
:10018000DEB7E8E00C94421B9C01F999FECF32BD2A
:1001900021BDF89A80B508959C01F999FECF1FBA48
:1001A00032BD21BD60BD0FB6F894FA9AF99A0FBE20
:1001B00008951F920F920FB60F9211248F939F9361
:1001C00080916A0290916B02019690936B028093EA
:1001D0006A0280916A0290916B02892B29F48091C6
:1001E0006C028F5F80936C029F918F910F900FBE76
:1001F0000F901F9018956091840070918500209158
:100200006A0230916B02E0916C02809184009091BF
:1002100085008627972797FDEECF80916A029091FF
:100220006B022817390739F780916C02E81719F724
:1002300040E050E0FFE0220F331F441F551FFA95A6
:10024000D1F78E2F90E0A0E0B0E0BB278695B79560
:10025000AA2799278827282B392B4A2B5B2B7695A1
:100260006795CB01A0E0B0E0282B392B4A2B5B2B04
:10027000B901CA010895AF92BF92CF92DF92EF9277
:10028000FF920F931F9328EE33E040E050E00E946E
:10029000C01A5B016C010E94FB007B018C010E9473
:1002A000FB006E197F09800B910B6A157B058C058D
:1002B0009D05A8F31F910F91FF90EF90DF90CF90D5
:1002C000BF90AF9008959B01AC018091FF02909187
:1002D0000003A0910103B0910203821B930BA40BB6
:1002E000B50B181619061A061B060CF44FC08091A0
:1002F0000303882301F5E0910403EF5FE370E093CB
:100300000403FF27E7FDF095E359FD4F808199270E
:1003100087FD9095880F991F80930303205C3D4BC8
:10032000404F5F4F2093FF0230930003409301033F
:1003300050930203089581508093030380FF24C0EB
:100340002D9AE0910403FF27E7FDF095EE0FFF1FC4
:10035000EF58FD4F80819181AA2797FDA095BA2F74
:100360006AE0880F991FAA1FBB1F6A95D1F7820FF9
:10037000931FA41FB51F8093FF0290930003A093C7
:100380000103B093020308952D98DBCF0895482F01
:1003900084EA8093BC002FEF30E011C021153105B5
:1003A00061F41092BC008091790290917A020196DA
:1003B00090937A028093790206C021503040809158
:1003C000BC0087FFEBCF4093BB0084E88093BC0068
:1003D0002FEF30E011C02115310561F41092BC00FF
:1003E0008091790290917A02019690937A0280939B
:1003F00079020895215030408091BC0087FFEBCFF7
:100400000895482F882311F484E801C084EC809378
:10041000BC002FEF30E011C02115310561F41092BE
:10042000BC008091790290917A02019690937A02B1
:100430008093790206C0215030408091BC0087FF34
:10044000EBCF9091BB00442319F484E98093BC0066
:10045000892F08950F931F93162F042F880F0E9442
:10046000C7011093BB0084E88093BC002FEF30E0FD
:1004700011C02115310561F41092BC008091790200
:1004800090917A02019690937A028093790206C045
:10049000215030408091BC0087FFEBCF0093BB0020
:1004A00084E88093BC002FEF30E011C021153105A6
:1004B00061F41092BC008091790290917A020196C9
:1004C00090937A028093790206C021503040809147
:1004D000BC0087FFEBCF84E98093BC001F910F9194
:1004E00008950F931F93082F162F880F0E94C7019E
:1004F0001093BB0084E88093BC002FEF30E011C064
:100500002115310561F41092BC008091790290911F
:100510007A02019690937A028093790206C0215064
:1005200030408091BC0087FFEBCF000F802F8160AF
:100530000E94C70181E00E9401021F910F9108955E
:100540001F93CF93DF93EB01142F880F81600E94DC
:10055000C70108C0115080E011160CF481E00E9420
:10056000010289931123B1F7DF91CF911F91089573
:10057000FF920F931F93CF93DF93082F162FEA015B
:10058000F22E880F0E94C7011093BB0084E880936D
:10059000BC002FEF30E011C02115310561F410923D
:1005A000BC008091790290917A02019690937A0230
:1005B0008093790206C0215030408091BC0087FFB3
:1005C000EBCF802FBE014F2D0E94A002CDB7DEB72A
:1005D000E5E00C94451B88E66EE340E80E942A02A1
:1005E00062E370E080E090E00E943B0188E66EE309
:1005F00043E00E942A0288E666E14EE10E942A0258
:1006000088E660E00E94710290E08E77883609F4F7
:1006100091E0892F0895A6E0B0E0E1E1F3E00C94C9
:10062000261B8C017B016A0188E66DE1AE014F5FFC
:100630005F4F26E00E94B802998180E02A8130E075
:10064000822B932BF801918380839B8180E02C8106
:1006500030E0822B932BF701918380839D8180E092
:100660002E8130E0822B932BF60191838083269696
:10067000E8E00C94421B1F920F920FB60F921124C8
:100680002F938F939F93EF93FF9390917C0097709C
:10069000E92FF0E0EE0FFF1FE55BFE4F0190F081C8
:1006A000E02D809179008083292F16C0E22FF0E0A1
:1006B000EE0FFF1FE55BFE4F80819181892B61F07A
:1006C00080917C00887F282B20937C0080917A0089
:1006D000806480937A0003C02F5F283039F7FF9140
:1006E000EF919F918F912F910F900FBE0F901F90C0
:1006F0001895CF93DF93ABE4B1E0FD0140E050E00B
:1007000061E070E080819181892B79F087B1EB0104
:10071000042E02C0CC0FDD1F0A94E2F79E01209543
:10072000822387B988B1282328B94F5F5F4F32965B
:100730004630510539F780E680937C0010927B00AB
:100740008FE880937A0020E08D919C911197892BFE
:1007500061F080917C00887F282B20937C00809121
:100760007A00806480937A0004C02F5F129628304C
:1007700059F7DF91CF910895EBE7F2E040E050E0C8
:1007800061E070E080819181892B79F034B1CB01F7
:10079000042E02C0880F991F0A94E2F7282F209593
:1007A000232324B925B1822B85B94F5F5F4F329641
:1007B0004830510539F7EBE8F2E040E050E061E005
:1007C00070E080819181892B79F037B1CB01042EC3
:1007D00002C0880F991F0A94E2F7282F209523233F
:1007E00027B928B1822B88B94F5F5F4F32964830C6
:1007F000510539F7E7E5F1E040E050E061E070E0F5
:1008000080819181892B79F03AB1CB01042E02C00D
:10081000880F991F0A94E2F7282F209523232AB9DD
:100820002BB1822B8BB94F5F5F4F32964830510509
:1008300039F7089560E070E040E050E0A1E0B0E0FA
:10084000362FFA01E558FD4F0190F081E02D3097E9
:1008500051F023B1CD01062E02C0880F991F0A94D2
:10086000E2F728232083FA01E557FD4F0190F0813C
:10087000E02D309751F026B1CD01032E02C0880F34
:10088000991F0A94E2F728232083FA01E95AFE4FC0
:100890000190F081E02D309749F029B1CD0102C0DF
:1008A000880F991F3A95E2F7282320836F5F7F4FC7
:1008B0004E5F5F4F4031510519F60895A6E0B0E054
:1008C000E4E6F4E00C941C1B7A8369831C012B0181
:1008D0009E838D839B012A5F3F4F3C832B83ED8159
:1008E000FE810681178180819181081B190B3801D7
:1008F000882477FC8094982CF10182899389A489BB
:10090000B589860D971DA81DB91D268D378D40A16F
:1009100051A1AA24BB246501A21AB30AC40AD50AAC
:100920008A159B05AC05BD054CF05C016D012817CF
:1009300039074A075B0714F459016A01F101A28AD9
:10094000B38AC48AD58AED81FE8184859585AA27DC
:1009500097FDA095BA2FA4019301281B390B4A0BD0
:100960005B0BCA01B90115870487F201248535851F
:10097000442737FD4095542F0E94C01A7B018C01FB
:1009800052E015950795F794E7945A95D1F7F2013F
:1009900020813181442737FD4095542FC401B30194
:1009A0000E94C01A43E095958795779567954A957B
:1009B000D1F7E60EF71E081F191FF20126813781B5
:1009C000442737FD4095542FC601B5010E94C01A37
:1009D00036E095958795779567953A95D1F7E60E28
:1009E000F71E081F191FE981FA81028804C01595B6
:1009F0000795F794E7940A94D2F7ED81FE81F3A668
:100A0000E2A63296FE83ED8324E030E0220E331E10
:100A100042E050E0440E551E8B819C8148165906D9
:100A200009F05DCF2696E2E10C94381BA6E0B0E019
:100A3000ECE1F5E00C942C1BCE010196BE016D5F3C
:100A40007F4FAE014B5F5F4F0E940B038B819C81F8
:100A50009093100280930F0249815A8150931202A1
:100A6000409311022D813E81309314022093130292
:100A700080913202909133028230910519F00397F0
:100A8000D1F40DC0309312022093110288279927C8
:100A9000841B950B90931402809313020CC088273B
:100AA0009927821B930B909312028093110250930B
:100AB0001402409313022696E2E00C94481BA0E037
:100AC000B0E0E5E6F5E00C94241B7C018C01EB0121
:100AD000F70160E070E02BC021813281888199812B
:100AE000281739070CF4C901928381832185328547
:100AF00088819981821793070CF4C90192878187B5
:100B000029913991442737FD4095542FD8011F96DC
:100B1000AD90BD90CD90DC905297A20EB31EC41E36
:100B2000D51E1F96AD92BD92CD92DC9252979B013D
:100B30006F5F7F4F32960C5F1F4FD70111968D91DB
:100B40009C911297281739073CF2CDB7DEB7EAE03F
:100B50000C94401BA0E0B0E0E0EBF5E00C94261B09
:100B6000EC017C0163E2C62ED12CC80ED91E00E038
:100B700010E011C02BA53CA5442737FD4095542F0C
:100B8000F70167857089818992890E94011BF601AE
:100B9000219331936F0198010F5F1F4F84E090E024
:100BA000E80EF91E89819A81281739071CF3CDB701
:100BB000DEB7E8E00C94421BA8E0B0E0E2EEF5E01E
:100BC0000C94261B8C018091DA019091DB019A83B1
:100BD00089838091DE019091DF019C838B838091DA
:100BE000E0019091E1019E838D838091DC019091E1
:100BF000DD0198878F83C801BE016F5F7F4F0E9420
:100C00005F05D8019B968D919C919C9701969C962F
:100C10009C938E939B978436910509F070C0119632
:100C2000ED90FC9012976801F80160E040E050E020
:100C30000CC08385948523813481821B930B449758
:100C40000CF46F5F4F5F5F4F32964E155F058CF36C
:100C5000862F992787FD90958E159F05F9F4C80179
:100C60000E94AA05F80183A194A190931401809396
:100C7000130185A196A1909316018093150187A178
:100C800090A5909318018093170181A592A5909348
:100C90001A018093190181E0808331C0D8011C9230
:100CA00084E090E012969C938E931197F80140E0B7
:100CB00050E07FEFE72E7FE7F72E60E070E80BC093
:100CC000F282E18272876187D6011F961D921D9282
:100CD0001D921C9252979A014F5F5F4F329684E0AB
:100CE00090E0C80ED91ED80111968D919C91129753
:100CF000281739072CF39C961C921E929B972896D6
:100D0000E8E00C94421BA6E0B0E0E9E8F6E00C94C1
:100D1000261B8C0180910F02909110029A83898387
:100D200080911102909112029C838B838091130217
:100D3000909114029E838D83C801BE016F5F7F4F27
:100D40000E945F05F80183A594A5019694A783A747
:100D50008C52914009F064C0F801E180F280D80122
:100D600060E040E050E00CC08385948523813481AD
:100D7000821B930BC2970CF46F5F4F5F5F4F3296ED
:100D80004E155F058CF3862F992787FD90958E155C
:100D90009F05C9F4C8010E94AA05F80183A194A186
:100DA00090930A028093090285A196A190930C0268
:100DB00080930B0287A190A590930E0280930D0261
:100DC00081E080832DC0F801108283E090E092835F
:100DD0008183680140E050E0EFEFEE2EEFE7FE2E5A
:100DE00060E070E80DC01296FC92EE9211971A9690
:100DF0007C936E931997F6011786108A118A128ACE
:100E00009A014F5F5F4F129684E090E0C80ED91EA2
:100E1000F80181819281281739072CF314A613A6B3
:100E20002696E8E00C94421B409103015091040186
:100E300080910301909104014817590721F04091D6
:100E4000DA015091DB015093DB014093DA012091EC
:100E50000501309106018091050190910601281746
:100E6000390721F02091DE013091DF013093DF015D
:100E70002093DE0120910701309108018091070144
:100E8000909108012817390721F02091E001309155
:100E9000E1013093E1012093E001209109013091BB
:100EA0000A018091090190910A012817390721F060
:100EB0002091DC013091DD013093DD012093DC01D4
:100EC00020910B0130910C0180910B0190910C014C
:100ED0002817390721F02091E2013091E301309386
:100EE000E3012093E20120910D0130910E018091E8
:100EF0000D0190910E012817390721F02091E4018E
:100F00003091E5013093E5012093E40120910F0138
:100F10003091100180910F0190911001281739072D
:100F200021F02091E6013091E7013093E701209311
:100F3000E6012091110130911201809111019091EF
:100F400012012817390721F02091E8013091E901B9
:100F50003093E9012093E801809166029091670245
:100F6000029721F45093DD014093DC010895FC01C8
:100F700080916602909167028330910579F1843007
:100F8000910524F4029709F0B4C007C0843091059C
:100F900009F462C0059709F0ACC08081918120916D
:100FA000DA013091DB01820F931F9093FC01809353
:100FB000FB01808191812091DC013091DD01820F64
:100FC000931F90930202809301028281938120916A
:100FD000DE013091DF01820F931F31C040815181CA
:100FE0008091DA019091DB01480F591F6281738172
:100FF0008091DE019091DF01680F791FCB01840F92
:10100000951F9C01B3E035952795BA95E1F7959525
:101010008795280F391F275731403093FC012093C3
:10102000FB01461B570BCA01B3E095958795BA950E
:10103000E1F755954795840F951F84529A4F9093E9
:10104000FE018093FD01848195812091E001309122
:10105000E101820F931F49C0808191812091DA01C3
:101060003091DB01820F931F9093FC018093FB0171
:10107000808191812091DC013091DD01820F931FED
:101080009093020280930102628173818091DE015C
:101090009091DF01680F791F448155818091E001B3
:1010A0009091E101480F591FCA01860F971F9C01BB
:1010B000E3E035952795EA95E1F795958795280F13
:1010C000391F275731403093FE012093FD01461B05
:1010D000570BCA01A3E095958795AA95E1F7559519
:1010E0004795840F951F84529A4F909300028093E6
:1010F000FF018091E6019091E701909304028093B3
:1011000003028091E8019091E90190930602809397
:1011100005028091E4019091E5019093080280938B
:1011200007020895A8E0B0E0E8E9F8E00C942A1B73
:1011300080912E0290912F020397A9F5FE0131961E
:1011400088E0DF011D928A95E9F7CF010E94B70779
:10115000A2ECB1E00BE112E043E252E06D917C9130
:101160001197F80120813181FB018081918128173D
:1011700039070CF4C901F80191838083FA012081B9
:101180003181FB0180819181821793070CF4C901A1
:10119000FA0181939193AF0112960E5F1F4FF1E018
:1011A000AA3CBF07D9F685E192E00E94B70780E02C
:1011B00090E0FC01EE53FE4FA081B1814D915C9116
:1011C0001197FC01E55EFD4F0190F081E02D4E1777
:1011D0005F0754F0FC01ED5DFD4F20813181FA0184
:1011E000241735070CF4F901ED93FC93029688302F
:1011F0009105F9F62896E4E00C94461B81E0809373
:10120000AC022FB7F8948091FB019091FC01909370
:10121000EE018093ED018091FD019091FE0190938C
:10122000F0018093EF018091FF0190910002909373
:10123000F2018093F101809101029091020290935A
:10124000F4018093F3018091030290910402909342
:10125000F6018093F501809105029091060290932A
:10126000F8018093F7018091070290910802909312
:10127000FA018093F901EFE6F0E0808182608083DB
:10128000B19A809184009091850004969093890092
:10129000809388002FBF0895FC0182818383209171
:1012A000DA013091DB01458154E0213B350714F42C
:1012B00090E00DC0C901845195408159914010F4CE
:1012C00091E005C0285037400CF453C092E044230D
:1012D00019F082E0891B982F90832091DE013091D4
:1012E000DF01468154E0213B350714F490E00CC047
:1012F000C901845195408159914010F491E004C096
:1013000028503740C4F192E0442319F082E0891B51
:10131000982F91838781882351F48081882329F035
:10132000823029F481E08583108281E08783808583
:10133000882361F48181882319F0823039F404C054
:1013400081E0868382E0818381E0808730813F5F16
:10135000818123E08202C0011124380F32839381FE
:1013600080E0391729F081E09295907F932B948348
:1013700008959081B1CF9181CCCF282F30E03F6F7D
:10138000220F331FEFB7F89480918400909185006D
:10139000AC01405C5F4FBC016D5D7A4F8091840071
:1013A00090918500DA01A81BB90B1A161B06B4F33D
:1013B00020FF02C0579801C0579A4617570729F0D7
:1013C0003695279545575F4FE9CFEFBF0895EFB7A3
:1013D000F8944F9B49C016C020918400309185003D
:1013E0002058314C04C08FEF9FEF4F9B0BC0809172
:1013F000840090918500B901681B790B16161706B9
:1014000014F4F1CFAC0141505040CA0101961816B6
:10141000190614F34F5F5F4F19F420E030E826C03F
:101420008091840090918500AC0140565F4F20E090
:1014300030E0BC0163597B4F80918400909185001E
:10144000DA01A81BB90B1A161B06B4F389B136953D
:10145000279590E080789070282B392B46175707F6
:1014600029F045575F4FE8CF20E030E4EFBFC901D6
:101470000895EF92FF920F931F93CF93DF93E82E7F
:10148000192F062FF62E84E20E94BD09802F0E949C
:10149000BD092E2D312FC901EC0104C08991F80E30
:1014A0000E94BD099E012E192017C4F38F2D81952E
:1014B0000E94BD09CDB7DEB7E6E00C94441B8F92C5
:1014C0009F92AF92BF92CF92DF92FF920F931F93A2
:1014D000CF93DF934C015A01C0E0D0E0C62EDD244B
:1014E000C7FCD09402C0812F182FC5010E94E709C4
:1014F0009C018070907C892B69F5822FC130D105C9
:1015000059F0C230D105A1F0209779F7243259F76C
:10151000812FC1E0D0E0E8CF90E0C816D90614F4DE
:10152000812F15C0822FF22EC2E0D0E000E0DCCF88
:10153000F20E812F8150112331F0F401E00FF11DE3
:1015400020830F5FD1CFFF2011F481E004C0C0E001
:10155000D0E0CACF80E0DF91CF911F910F91FF9033
:10156000DF90CF90BF90AF909F908F900895FF92A3
:101570000F931F93CF93DF93FF24F39411C1E09156
:101580008F01F0919001A081B18116962D913C912F
:101590001797CF01F9010995982F8091E3028823CD
:1015A00019F49F3009F00CC1E82FFF27E7FDF095F3
:1015B000EC51FD4F90838F5F8093E30289310CF4EF
:1015C000EFC0A0913002B091310212978D0144E03A
:1015D000000F111F4A95E1F7055E1E4FE801E881F3
:1015E000F9814091E60250E0942F88272091E5028E
:1015F00030E0822B932B97709695879585519C4F61
:1016000091838083FD0184E0EE0FFF1F8A95E1F74F
:10161000E35EFE4F0190F081E02D2091E70230E083
:10162000C90175E0880F991F7A95E1F763E0569537
:1016300047956A95E1F7842B952B9770969587953A
:1016400085519C4F9183808374E0AA0FBB1F7A95CC
:10165000E1F7FD01E15EFE4F0190F081E02D409148
:10166000E90250E08091E80290E0880F991F880F0E
:10167000991F76E0369527957A95E1F7822B932B83
:101680009A01322F2227330F330F822B932B97701F
:101690009695879585519C4F91838083EE81FF813C
:1016A0002091EA0230E0C9019695982F88279795F6
:1016B000879556954795842B952B9770969587958A
:1016C00085519C4F91838083AD5DBE4FED91FC9120
:1016D0004091EB0250E0CA0174E0880F991F7A959F
:1016E000E1F764E0369527956A95E1F7822B932B15
:1016F00097709695879585519C4F91838083EA8555
:10170000FB856091ED0270E08091EC0290E0880F23
:10171000991F440F452F441F550B5195842B952B32
:101720009B01322F2227330F822B932B9770969594
:10173000879585519C4F91838083EC85FD85209111
:10174000EE0230E0C901B6E0880F991FBA95E1F7C3
:101750007695679576956795862B972B97709695D6
:10176000879585519C4F91838083EE85FF8580917D
:10177000EF0290E043E0880F991F4A95E1F7B5E04A
:1017800036952795BA95E1F7822B932B96958795F9
:1017900085519C4F918380831092E302F092E20284
:1017A000E0918F01F0919001A081B18114962D916B
:1017B0003C911597CF01F9010995892B09F0DFCEEE
:1017C0008091E202CDB7DEB7E5E00C94451B809135
:1017D0008F019091900140EA56E861E070E02EE2BE
:1017E0000E94491708951F93CF93DF93EC01142FA4
:1017F0004BE350E024EC30E00E948C00888181179C
:1018000011F08FEF12C090E020E030E0FE01E20F17
:10181000F31F8081980F2F5F3F4F2B333105B1F7B6
:10182000992311F480E001C08EEFDF91CF911F91D9
:101830000895DC0140E020E030E0FD01E20FF31FFD
:101840008081480F2F5F3F4F2A333105B1F7419513
:10185000DA964C93DA97CB01BD014BE350E02CECC8
:1018600030E00E94A8000895A3E1B0E0EAE3FCE0C4
:101870000C941C1B1C0181E089838CE292E09B8309
:101880008A8302969D838C8302969F838E83029621
:101890009987888702969B878A8702969D878C877F
:1018A00002969F878E870296998B888BCE01019630
:1018B0009B8B8A8BD0902C02DD0CCC246624EE24EA
:1018C000FF248701E0E88E2EEAE19E2EE6E0AE2EB0
:1018D000B12C72E0772E2C010E94FB009B01AC0121
:1018E000DC01CB018E199F09A00BB10B881699065C
:1018F000AA06BB060CF051C0171424F5872D9927B2
:1019000087FD9095FC01E170F07080FD03C088E0D8
:1019100097E002C08CED95E09093FE018093FD016D
:101920008CED95E09093FC018093FB01EE0FFF1F7F
:10193000EE0FFF1FE855FE4F80809180A280B3809C
:101940007A9429C0DD2039F11D1424F46CE271E091
:10195000A1E003C064ED7EEFAFEF8D2D992787FDE9
:101960009095FC01E170F07080FF03C08CED95E074
:1019700003C0CB0184529A4F9093FC018093FB01EA
:10198000EE0FFF1FEE0FFF1FE855FE4F8080918086
:10199000A280B380DA1A79018A010E94B70A8823EB
:1019A00019F091E090939B0280919B02882329F08B
:1019B00010929B020E94140702C0662041F08091A1
:1019C000AC02882309F08CC00E94FE0866247720B0
:1019D00009F082CFC1010E944C09882309F47CCF11
:1019E000F1018481843561F0853520F4823509F078
:1019F00063C013C0863559F0883509F05DC02AC030
:101A0000F1E0FC1514F0CC2470C0CA946EC086E0DE
:101A10008C150CF468C0C39468C0AC2DBB27A7FD1F
:101A2000B095FD01EE0FFF1FE40DF51D0180F28161
:101A3000E02D8081282F332727FD30952F5F3F4FE2
:101A4000A055BE4F8C91992787FD909582179307DB
:101A5000F4F41CC0AC2DBB27A7FDB095FD01EE0F23
:101A6000FF1FE40DF51D0180F281E02D8081282FFC
:101A7000332727FD309521503040A754BE4F8C911D
:101A8000992787FD9095281739070CF49C0120832E
:101A900020E08C2D992787FD9095FC01EE0FFF1F0C
:101AA000E40DF51D0180F281E02DD080DD0C2223B4
:101AB00019F00196782E770C8981823009F00CCFCD
:101AC0008BE292E060E070E00E94190C8BE292E001
:101AD00060E071E00E94190C6396E2E10C94381BFF
:101AE0006624639474CF58E0C52E21E0D2CFADE8D0
:101AF000B0E0EDE7FDE00C941C1B0E94FB001B0115
:101B00002C01DE011196EAE9F1E086E001900D92E8
:101B10008150E1F781E08C8B8B8B85E08D8B198E6A
:101B2000188E1B8E1A8E84E090E09E8F8D8FFE01A2
:101B30007F96DE019F9640E050E00FEF1FE760E0E8
:101B400070E809C011830083718760871D921D9220
:101B50001D921D9232969A014F5F5F4F8D8D9E8D23
:101B6000281739077CF3FE01E95BFF4F11821082D1
:101B7000FE01E75BFF4F83E090E092838183DF010A
:101B80001396BF016D5E7F4F40E050E06F018FEF15
:101B9000E82E8FE7F82E00E010E80EC01196FC92B8
:101BA000EE9219961C930E931897FB0111921192C5
:101BB00011921192BF0112969A014F5F5F4FF60189
:101BC00081819281281739074CF31C8E108214A64C
:101BD00013A62092DE023092DF024092E002509281
:101BE000E102C657DF4F288239824A825B82CA5897
:101BF000D040CA57DF4F288239824A825B82C6585A
:101C0000D040CE57DF4F288239824A825B82C25849
:101C1000D04082017101C258DF4F288239824A8246
:101C20005B82CE57D040EB962CAE3DAE4EAE5FAE53
:101C3000EB97EE961FAEEE97ED961FAEED97F1E0A7
:101C4000EC96FFAFEC9708C0C258DF4FA882B9826C
:101C5000CA82DB82CE57D0400E94FB005B016C0140
:101C60000E9463010E94B70A882319F021E02093A3
:101C70009B0280919B02882399F4D601C501C65727
:101C8000DF4F488159816A817B81CA58D040841BCB
:101C9000950BA60BB70B81539547A040B040D4F1EC
:101CA00010929B020E9414078C8D882369F0C657FE
:101CB000DF4FA882B982CA82DB82CA58D04061E075
:101CC000EE966FAFEE9726C0CE014C960E94DC05D3
:101CD0002A968FAD2A97882311F492E001C090E0F4
:101CE00020E08C8D882309F421E0920F90936E02FE
:101CF00088EC90E09093740280937302C657DF4F94
:101D0000A882B982CA82DB82CA58D04091E0EE969E
:101D10009FAFEE978091AC02882339F5EE96EFAD38
:101D2000EE97EE2311F1D601C501CA57DF4F288186
:101D300039814A815B81C658D040821B930BA40B2A
:101D4000B50B81559644A040B0407CF00E949208AB
:101D50000E94FE08CA57DF4FA882B982CA82DB827E
:101D6000C658D040EE961FAEEE97D601C501CE57AD
:101D7000DF4F488159816A817B81C258D040841BE2
:101D8000950BA60BB70B81519742A040B04054F180
:101D90000E9416052A968FAD2A978823D9F4CE0182
:101DA000875B9F4F0E9483062A968FAD2A978823D0
:101DB00011F492E001C090E020E08C8D882309F4BA
:101DC00021E0920F90936E0268EC70E070937402C1
:101DD00060937302CE57DF4FA882B982CA82DB823A
:101DE000C258D040EC967FADEC97772309F44EC0F3
:101DF000CE0143960E944C09882309F447C0ED9612
:101E00008FADED97E82FFF27E7FDF095EF56FE4FDA
:101E10009F898081981721F0ED961FAEED9707C03E
:101E2000ED969FADED979F5FED969FAFED97ED9689
:101E30002FADED97E22FFF27E7FDF095EF56FE4F10
:101E400080818F3F81F4CE0143960E94340C2EE0B6
:101E500088E190E00FB6F894A895809360000FBEDB
:101E600020936000FFCFD601C50182199309A40910
:101E7000B509815C914EA44EB04024F0EC961FAEA3
:101E8000EC9704C041E0EC964FAFEC978C8D882323
:101E900009F4E2CE2A968FAD2A97882309F4DCCE86
:101EA000D601C5018E199F09A00BB10B8151974234
:101EB000A040B0400CF41BC380916802909169026D
:101EC0008130910559F48091E2019091E301845CA5
:101ED00095400CF09BC080E090E00DC0892B09F08C
:101EE00095C08091E2019091E301855F95400CF4EB
:101EF0008DC081E090E09093690280936802892B05
:101F000011F084E001C080E080936E0288EC90E0E4
:101F100090937402809373021092BF021092C002D9
:101F20001092C1021092C2021092CB021092CC0207
:101F30001092CD021092CE021092C3021092C402EF
:101F40001092C5021092C6021092CF021092D002D7
:101F50001092D1021092D2021092C7021092C802BF
:101F60001092C9021092CA021092D3021092D402A7
:101F70001092D5021092D60280913A0290913B02C3
:101F8000029709F043C0D601C501EB962CAD3DADDB
:101F90004EAD5FADEB97821B930BA40BB50B81523B
:101FA000914AA740B0401CF0E7961FAEE797E7962E
:101FB0004FADE7974F5FE7964FAFE797433004F198
:101FC0008091DA019091DB019093140180931301C9
:101FD0008091DE019091DF019093160180931501AD
:101FE0008091E0019091E101909318018093170195
:101FF0008091DC019091DD0190931A018093190189
:10200000EB96ACAEBDAECEAEDFAEEB97E091DC01B1
:10201000F091DD018091DA019091DB01E80FF91F69
:102020008091130190911401E81BF90B8091190123
:1020300090911A01E81BF90B4091DE015091DF01EC
:102040008091150190911601481B590BA091E00158
:10205000B091E1018091170190911801A81BB90B73
:10206000809134028150282F332727FD3095CF01EE
:102070009595879597FF03C0909581959F4F022E68
:1020800002C0880F991F0A94E2F761E08139960730
:1020900014F080E991E060E971E0681B790B7887C2
:1020A0006F83CA0157FF04C088279927841B950BAB
:1020B000022E02C0880F991F0A94E2F771E081395D
:1020C000970714F080E991E060E971E0681B790BF3
:1020D0007A876987CD01B7FF04C0882799278A1BB3
:1020E0009B0BBC0102C0660F771F2A95E2F781E0C7
:1020F0006139780714F060E971E010E9812E11E090
:10210000912E861A970A9C868B862091E201309147
:10211000E30195E02D3D39072CF067E02D363607B9
:102120005CF007C08CED95E0821B930B81599140C8
:102130001CF000E911E011C085E02D3D380724F0C6
:1021400089010C5D154004C00CED15E0021B130B5A
:102150000931110514F400E010E0E0906802F090FD
:10216000690291E0E916F10459F0E114F10409F073
:1021700054C08091380290913902029709F04DC005
:10218000809136029091370201979F01082E02C07C
:10219000220F331F0A94E2F701963E872D87082EFF
:1021A00002C0440F551F0A94E2F7588B4F87AD01C8
:1021B00002C0440F551F8A95E2F75A8B498B8981DB
:1021C0009A8197FD05C088279927821B930B01C030
:1021D000C9019093AE028093AD028B819C812F85C3
:1021E000388997FD05C088279927821B930B01C06A
:1021F000C9019093B0028093AF028D819E8197FDBB
:1022000003C0509541955F4F5093B2024093B10285
:10221000E1E0EE16F10471F055C01092AE0210929A
:10222000AD021092B0021092AF021092B202109260
:10223000B10248C06F817885882777FD8095982FF7
:1022400024EF3FEB40E050E00E94C01AF9E0959582
:10225000879577956795FA95D1F76093CB02709340
:10226000CC028093CD029093CE0269857A8588272F
:1022700077FD8095982F0E94C01AE9E09595879583
:1022800077956795EA95D1F76093CF027093D00266
:102290008093D1029093D202B401882777FD809574
:1022A000982F0E94C01A29E0959587957795679594
:1022B0002A95D1F76093D3027093D4028093D5020C
:1022C0009093D60220910F02309110028091090262
:1022D00090910A02281B390BF0E220303F0714F0DE
:1022E0002FEF3FE1C90120EE8030920714F480E027
:1022F00090EE9093B4028093B3022091110230913A
:10230000120280910B0290910C02281B390B40E2C3
:102310002030340714F02FEF3FE1C90150EE203098
:10232000350714F480E090EE9093B6028093B502E6
:10233000209113023091140280910D0290910E02AF
:10234000281B390B60E22030360714F02FEF3FE1F5
:10235000C90170EE2030370714F480E090EE9093BE
:10236000B8028093B702EF2819F062E572E002C06C
:102370006FE372E08DEA92E00E945E04EE24FF2497
:102380003801882477FC8094982C87010B5E1D4FC0
:10239000E1E0F0E0EC0FFD1FEE0DFF1D60817181AB
:1023A000882777FD8095982FF701E355FD4F22A5EB
:1023B00033A5442737FD4095542F0E94C01AB7E03B
:1023C0009595879577956795BA95D1F7E7E0F0E011
:1023D000EC0FFD1FEE0DFF1D20813181442737FDDD
:1023E0004095542F0E94C01A9B01AC01A9E055955D
:1023F000479537952795AA95D1F7C401B3010E9457
:10240000C01AF9E09595879577956795FA95D1F774
:10241000F8017183608322E030E0E20EF31E36E0C3
:10242000E316F10409F0B1CF2091DD0212160CF091
:102430005CC08091DE029091DF02A091E002B09139
:10244000E102B601A501481B590B6A0B7B0BDB01AE
:10245000CA0181549D40A340B0405CF021502093BC
:10246000DD02A092DE02B092DF02C092E002D092C2
:10247000E1028091DD02992787FD90954091150238
:1024800050911602BC016170707080FF03C026E994
:1024900030E002C02AE63FEF240F351F30931602CA
:1024A0002093150240911702509118026115710591
:1024B00019F026E930E002C02AE63FEF240F351F6D
:1024C00030931802209317022091190230911A02BA
:1024D000672B19F48AE69FEF02C086E990E0820F2D
:1024E000931F90931A028093190286017501D601F9
:1024F000C501C258DF4F288139814A815B81CE579F
:10250000D040821B930BA40BB50B8C59914AA7406A
:10251000B0400CF4A1CB80913C02803839F480911A
:102520000001282F30E02058304004C0282F3327E6
:1025300027FD309580913D02803839F4809101016A
:10254000482F50E04058504004C0482F552747FDC1
:10255000509580913E02803831F48091020190E0E4
:102560008058904003C0992787FD90953A8329832E
:102570005C834B839E838D83295F3F4F2F303105D2
:1025800010F41A8219828B819C8107960F9710F4A0
:102590001C821B828D819E8107960F9710F41E82EC
:1025A0001D82EBE4F1E020E080819181892B61F0D4
:1025B00080917C00887F282B20937C0080917A007A
:1025C000806480937A0040CB2F5F3296283061F789
:1025D0003BCBACE5B0E0EFEEF2E10C94261B1092A1
:1025E000800081E08093810057985F9848E552E031
:1025F00000E06E010894C11CD11C92E0E92EF12C80
:10260000EC0EFD1EC6016CE50E945F0A882309F4EA
:1026100045C089818230B9F0833018F4813029F4C3
:1026200006C08330D1F0843009F110E02AC0C70120
:1026300060E870E048E050E024EC30E00E948C005C
:1026400010E069E01FC080E890E0B70148E050E08A
:102650002CEC30E00E94A80013C0C70160E070E0DD
:1026600046E00E94F30B10E06CE30CC0C70160E091
:1026700070E00E94190CC70160E071E00E94190C23
:1026800011E061E0898180688983C6010E94390A6E
:1026900001E044EF51E0112309F4B4CF802FC45A74
:1026A000DF4FE8E00C94421B1F931FEF1F5FE12FE9
:1026B000FF27E7FDF095EE0FFF1FE958FE4F8081E1
:1026C0009181892B69F41F5FE12FFF27E7FDF095CA
:1026D000EE0FFF1FE958FE4F80819181892B59F041
:1026E000E12FFF27E7FDF095E957FE4F808161E07C
:1026F0000E94DA19DBCF1F9108951F920F920FB637
:102700000F9211242F933F934F935F936F937F9377
:102710008F939F93AF93BF93CF93DF93EF93FF93E9
:10272000E091FE02FF27E7FDF095E957FE4F80811B
:1027300060E00E94191AE091FD02E7FD4BC0C091D4
:102740008400D0918500FF27E7FDF095E957FE4F03
:10275000808161E00E94191A8091FD02E82FFF2715
:10276000E7FDF095EE0FFF1FE958FE4F0190F08155
:10277000E02D208131818093FE02482F4F5F4093EE
:10278000FD02E42FFF27E7FDF095EE0FFF1FE9584C
:10279000FE4F80819181892B91F4E42FEF5FE093CC
:1027A000FD02FF27E7FDF095EE0FFF1FE958FE4FF2
:1027B00080819181892B19F48FEF8093FD02225043
:1027C0003040220F331F2C0F3D1F30938900209380
:1027D000880009C01092FD021092AC0280916F0037
:1027E0008D7F80936F00FF91EF91DF91CF91BF912B
:1027F000AF919F918F917F916F915F914F913F9199
:102800002F910F900FBE0F901F901895EF92FF928F
:102810000F931F937A018B01882341F083E161E0DC
:102820000E94191A82E161E00E94191A1092B900FF
:1028300060E074E284EF90E0A80197010E94DF1A43
:102840002051304040405040569547953795279548
:102850002093B8001F910F91FF90EF90089581E0B1
:1028600040E85AE166E070E00E9406140E94EB0224
:10287000882349F485E080936F0288EC90E0909380
:102880007602809375020895EF92FF920F931F9343
:10289000CF93DF93F82EE62E862F61E00E94DA199F
:1028A0008F2D60E00E94DA198F2D61E00E94191AC5
:1028B0006AE070E080E090E00E943B01C0E0D0E080
:1028C000CE018170082F8E2D602F0E94191A8F2D36
:1028D0000E946D1A112707FD10958017910711F0BE
:1028E00000E005C02196C830D10551F701E08E2DDA
:1028F00060E00E94DA19802FCDB7DEB7E6E00C94D5
:10290000441BA0E8B0E0E7E8F4E10C94281B259A0A
:102910008091B8039091B903009711F09C0102C017
:102920002CEB33E0CE010196821B930B803891058E
:102930004CF484E180936F028EE190E090937602F4
:102940008093750284B7877F84BF88E10FB6F894BF
:1029500080936000109260000FBE21E030E0309361
:102960002D0220932C0280E880933C0280933D024C
:1029700080933E0230932F0220932E0284E090E059
:1029800090933102809330023093330220933202CD
:10299000309335022093340283E090E09093370225
:1029A00080933602309339022093380282E090E01F
:1029B00090933B0280933A0284EF91E0909340021F
:1029C00080933F02109246021092450290934C026F
:1029D00080934B02909342028093410210924802EE
:1029E0001092470290934E0280934D0290934402BE
:1029F0008093430210924A0210924902909350022F
:102A000080934F0228E020935102909353028093C9
:102A10005202909359028093580290935F028093E0
:102A20005E02909355028093540290935B028093D0
:102A30005A029093610280936002909357028093B0
:102A4000560290935D0280935C02909363028093A0
:102A500062022093640285E064E00E9444148823AB
:102A600011F400E001C007E0CE01039660E870E0D9
:102A700048E050E024EC30E00E948C00002361F438
:102A80008B81813049F48C819D81AE81BF818E54D0
:102A90009146AC4BB04071F081E08B838EE491E6BF
:102AA000ACEBB0E08C839D83AE83BF831886198620
:102AB0001A860860CE010B9660E070E046E00E9446
:102AC000F30B87FD0260CE018A5B9F4F60E071E0EF
:102AD00046E00E94F30B87FD046083E08093DD02F3
:102AE000E02EFF24C701867090708230910531F08E
:102AF0008430910579F0892B81F119C08E010A5B30
:102B00001F4FC80160E070E00E94190C88858F5F3C
:102B100088870BC08E01055F1F4FC80160E071E020
:102B20000E94190C89858F5F8987C80118C086E0CB
:102B300080932B028BE292E060E070E00E94190C1F
:102B40008BE292E060E071E00E94190C8A858F5F51
:102B50008A8789E08093DD020AC0CE010B96ABE242
:102B6000B2E0FC018BE301900D928150E1F7C701C7
:102B70008E709070892B59F080E890E0BE016D5FF7
:102B80007F4F48E050E02CEC30E00E94A800E0FECF
:102B90000BC000E285B1802785B964E670E080E073
:102BA00090E00E944619F6CF0E94E912882361F056
:102BB0002EE088E190E00FB6F894A895809360002D
:102BC0000FBE20936000FFCF1092800082E08093C0
:102BD000810081E080936F0085B5887F85BD0E946C
:102BE000E70B80912E0290912F0282309105D1F057
:102BF0008330910561F10197F1F580E090E048EEB6
:102C000053E020ED37E0FC01E55EFD4F518340834A
:102C1000FC01ED5DFD4F31832083029688309105E4
:102C200091F729C080E090E04CE454E02CE637E0D6
:102C3000FC01E55EFD4F51834083FC01ED5DFD4FDE
:102C40003183208302968830910591F714C080E08B
:102C500090E042EE54E026ED36E0FC01E55EFD4FEB
:102C600051834083FC01ED5DFD4F3183208302964B
:102C70008830910591F70E94BC030E941A0480914C
:102C80002C0290912D029C0121303105C9F48091D4
:102C9000EB01882319F4E0E0F0E002C0E2E0F0E0AC
:102CA00020E030E08091EC01882311F021E030E059
:102CB000E22BF32BEE0FFF1FE056FE4F20813181F8
:102CC0003093670220936602223031050CF12530E3
:102CD000310524F025303105D9F40EC010927E0163
:102CE00010927D018FEF80938A018BE091E09093A9
:102CF000AB028093AA020CC08BE091E090936E012E
:102D000080936D0189E091E09093700180936F0151
:102D1000109268011092670110926A011092690185
:102D200010926C0110926B0185EF91E090938001FD
:102D300080937F018AE080938B0187EF91E09093ED
:102D400082018093810189E080938C0180916602E9
:102D500080936D0288E592E09093720280937102F5
:102D60000E9479030E9454130E942F140E9414079A
:102D70000E949208C058DF4FE6E00C94441B08956F
:102D80001F920F920FB60F9211242F933F934F93E0
:102D90008F939F93EF93FF938091C00082FD1DC09E
:102DA0004091C60020914503309146032F5F3F4F6D
:102DB0002F7330708091470390914803281739078B
:102DC00071F0E0914503F0914603EB5FFC4F4083C7
:102DD000309346032093450302C08091C600FF91C3
:102DE000EF919F918F914F913F912F910F900FBE37
:102DF0000F901F901895E0919903F0919A03E05C71
:102E0000FF4F8191919120813181821B930B8F73B0
:102E10009070892B11F00E94BF1608951F920F9297
:102E20000FB60F9211242F933F938F939F93EF939D
:102E3000FF932091890330918A0380918B039091B5
:102E40008C032817390731F48091C1008F7D80935E
:102E5000C10014C0E0918B03F0918C03E75BFC4F41
:102E6000208180918B0390918C0301968F739070D9
:102E700090938C0380938B032093C600FF91EF9176
:102E80009F918F913F912F910F900FBE0F901F90A8
:102E90001895A0E0B0E0EFE4F7E10C94241BEC01FE
:102EA0007A018B01C22EDD24403081EE580780E08C
:102EB000680780E0780711F0DD24D39471E0A72E35
:102EC000B12CEC89FD89DD2069F0C50108A002C0A4
:102ED000880F991F0A94E2F7808360E079E08DE320
:102EE00090E005C0108260E874E88EE190E0A801EF
:102EF00097010E94DF1A21503040404050405695C3
:102F000047953795279580E12030380720F0DD2060
:102F100011F0DD24D6CFE889F9893083EA89FB896D
:102F20002083E88DF98DC082EE89FF89408121E000
:102F300030E0C9010C8C02C0880F991F0A94E2F797
:102F4000482B4083EE89FF894081C9010D8C02C066
:102F5000880F991F0A94E2F7482B4083EE89FF8976
:102F60004081C9010E8C02C0880F991F0A94E2F7B4
:102F7000482B4083EE89FF8980810F8C02C0220F8D
:102F8000331F0A94E2F7209528232083CDB7DEB7BC
:102F9000EAE00C94401BDC011C96ED91FC911D971E
:102FA000E05CFF4F2191319180819181281B390B89
:102FB0002F733070C9010895DC011C96ED91FC91CE
:102FC0001D97E05CFF4F20813181E054F040DF012C
:102FD000AE5BBF4F8D919C9111972817390719F45B
:102FE0002FEF3FEF07C08D919C91E80FF91F808173
:102FF000282F30E0C9010895DC011C96ED91FC9169
:103000001D97E05CFF4F20813181E054F040DF01EB
:10301000AE5BBF4F8D919C9111972817390719F41A
:103020002FEF3FEF10C08D919C911197E80FF91F82
:1030300020818D919C91119701968F7390701196BC
:103040009C938E9330E0C9010895DC0191968C9198
:103050009197882339F05496ED91FC915597808192
:1030600086FFF9CF91961C920895CF93DF93EC01E0
:10307000EE85FF85E05CFF4F20813181E054F04018
:103080002F5F3F4F2F733070DF01AE5BBF4F8D91CD
:103090009C91119728173907D1F3E05CFF4F80818D
:1030A0009181E054F040E80FF91F6083EE85FF85C1
:1030B000E05CFF4F31832083EE89FF89208181E02E
:1030C00090E00F8C02C0880F991F0A94E2F7282B1A
:1030D000208381E089A3EC89FD89808180648083DD
:1030E00081E090E0DF91CF910895109290031092CB
:1030F0008F0388EE93E0A0E0B0E08093910390937B
:103100009203A0939303B09394038EEC91E0909379
:103110008E0380938D0385E093E090939A038093D0
:10312000990389E493E090939C0380939B0385EC3F
:1031300090E090939E0380939D0384EC90E09093A5
:10314000A00380939F0380EC90E09093A203809370
:10315000A10381EC90E09093A4038093A30382ECFD
:1031600090E09093A6038093A50386EC90E0909363
:10317000A8038093A70384E08093A90383E080934E
:10318000AA0387E08093AB0385E08093AC0381E0E2
:103190008093AD030895CF93DF930E949F190E94FF
:1031A0008114CBEFD6E10E94770D2097E1F30E94C6
:1031B000FB16F9CFA0E0B0E0E0EEF8E10C94261B9E
:1031C0007C016B018A01C0E0D0E00FC0D6016D9197
:1031D0006D01D701ED91FC910190F081E02DC701C7
:1031E0000995C80FD91F015010400115110571F73D
:1031F000CE01CDB7DEB7E8E00C94421B1F920F92D0
:103200000FB60F9211242F933F938F939F93AF93F9
:10321000BF938091B3039091B403A091B503B09193
:10322000B6033091B7030196A11DB11D232F2D5F69
:103230002D3720F02D570196A11DB11D2093B70306
:103240008093B3039093B403A093B503B093B603F4
:103250008091AF039091B003A091B103B091B203FC
:103260000196A11DB11D8093AF039093B003A0936D
:10327000B103B093B203BF91AF919F918F913F91F2
:103280002F910F900FBE0F901F9018959B01AC01CE
:103290007FB7F8948091AF039091B003A091B103F0
:1032A000B091B20366B5A89B05C06F3F19F00196B7
:1032B000A11DB11D7FBFBA2FA92F982F8827860F78
:1032C000911DA11DB11D62E0880F991FAA1FBB1F90
:1032D0006A95D1F7BC012DC0FFB7F8948091AF0378
:1032E0009091B003A091B103B091B203E6B5A89B51
:1032F00005C0EF3F19F00196A11DB11DFFBFBA2F08
:10330000A92F982F88278E0F911DA11DB11DE2E0D6
:10331000880F991FAA1FBB1FEA95D1F7861B970B31
:10332000885E9340C8F22150304040405040685180
:103330007C4F211531054105510571F608957894AA
:1033400084B5826084BD84B5816084BD85B58260AA
:1033500085BD85B5816085BDEEE6F0E08081816048
:103360008083E1E8F0E01082808182608083808148
:1033700081608083E0E8F0E0808181608083E1EB20
:10338000F0E0808184608083E0EBF0E08081816008
:103390008083EAE7F0E080818460808380818260BE
:1033A00080838081816080838081806880831092A7
:1033B000C1000895CF93DF93482F50E0CA0186568D
:1033C0009F4FFC0134914A575F4FFA018491882343
:1033D00069F190E0880F991FFC01E859FF4FA59112
:1033E000B491FC01EE58FF4FC591D491662351F47E
:1033F0002FB7F8948C91932F909589238C93888183
:1034000089230BC0623061F42FB7F8948C91932F0D
:10341000909589238C938881832B88832FBF06C046
:103420009FB7F8948C91832B8C939FBFDF91CF91A2
:103430000895482F50E0CA0182559F4FFC01249106
:10344000CA0186569F4FFC0194914A575F4FFA017B
:103450003491332309F440C0222351F1233071F019
:10346000243028F42130A1F0223011F514C0263088
:10347000B1F02730C1F02430D9F404C0809180002D
:103480008F7703C0809180008F7D8093800010C073
:1034900084B58F7702C084B58F7D84BD09C08091CB
:1034A000B0008F7703C08091B0008F7D8093B00013
:1034B000E32FF0E0EE0FFF1FEE58FF4FA591B49100
:1034C0002FB7F894662321F48C919095892302C03C
:1034D0008C91892B8C932FBF0895682F70E0CB01BE
:1034E00082559F4FFC012491CB0186569F4FFC01D2
:1034F00044916A577F4FFB019491992319F420E07E
:1035000030E03CC0222351F1233071F0243028F404
:103510002130A1F0223011F514C02630B1F027304F
:10352000C1F02430D9F404C0809180008F7703C0AB
:10353000809180008F7D8093800010C084B58F774C
:1035400002C084B58F7D84BD09C08091B0008F77A3
:1035500003C08091B0008F7D8093B000892F90E0F0
:10356000880F991F84589F4FFC01A591B4918C91AD
:1035700020E030E0842311F021E030E0C90108951B
:10358000629FD001739FF001829FE00DF11D649F47
:10359000E00DF11D929FF00D839FF00D749FF00DD3
:1035A000659FF00D9927729FB00DE11DF91F639F74
:1035B000B00DE11DF91FBD01CF0111240895A1E255
:1035C0001A2EAA1BBB1BFD010DC0AA1FBB1FEE1F9D
:1035D000FF1FA217B307E407F50720F0A21BB30BE8
:1035E000E40BF50B661F771F881F991F1A9469F764
:1035F00060957095809590959B01AC01BD01CF01C0
:10360000089597FB092E05260ED057FD04D0D7DF6D
:103610000AD0001C38F450954095309521953F4FC5
:103620004F4F5F4F0895F6F790958095709561958F
:103630007F4F8F4F9F4F08952F923F924F925F92EF
:103640006F927F928F929F92AF92BF92CF92DF92B2
:10365000EF92FF920F931F93CF93DF93CDB7DEB717
:10366000CA1BDB0B0FB6F894DEBF0FBECDBF0994AB
:103670002A88398848885F846E847D848C849B8402
:10368000AA84B984C884DF80EE80FD800C811B8110
:10369000AA81B981CE0FD11D0FB6F894DEBF0FBE3F
:1036A000CDBFED010895EE0FFF1F0590F491E02DC1
:0636B0000994F894FFCF1D
:1036B600FFFFFFDC05DC05DC05DC05E803DC05E8CF
:1036C60003DC05DC05DC05DC05DC05070105010F6F
:1036D6000103010B0109010D0111010F0103010590
:1036E6000107010B0109010D011101030105010F7C
:1036F6000107010B0109010D011101000101010280
:10370600010000000000000000EA01EB01EC0100EE
:103716000000000000000003010501070100000091
:1037260000000000000000ED01EF01F101F30100CF
:103736000000000000000004050607FFFFFFFF8DE4
:10374600037889988778899887FF00000000000031
:103756000500040003000200A0860100801A06008E
:10376600050304030305020202010101010101012F
:103776000101FB01FD01FF010102000000003518F7
:0A378600DA18CB17FC17DC17251822
:00000001FF
