:100000000C9461000C947E000C947E000C94900380
:100010000C947E000C941A040C947E000C947E00C8
:100020000C947E000C947E000C947E000C948C1337
:100030000C947E000C9480000C947E000C947E0046
:100040000C94A4160C947E000C947E000C947E00FC
:100050000C947E000C94AF020C947E000C947E00F5
:100060000C947E000C947E00000000002400270009
:100070002A0000000000250028002B0000000000DE
:1000800023002600290004040404040404040202DA
:100090000202020203030303030301020408102007
:1000A0004080010204081020010204081020000012
:1000B0000007000201000003040600000000000029
:1000C000000011241FBECFEFD4E0DEBFCDBF11E092
:1000D000A0E0B1E0EAE9F1E302C005900D92A63B91
:1000E000B107D9F712E0A6EBB1E001C01D92AB3F1A
:1000F000B107E1F70E9495160C94CB180C94000000
:100100001F920F920FB60F9211248F939F9380919D
:100110005C0290915D02019690935D0280935C0277
:1001200080915C0290915D02892B29F480915E029E
:100130008F5F80935E029F918F910F900FBE0F9003
:100140001F901895609184007091850020915C0249
:1001500030915D02E0915E02809184009091850073
:100160008627972797FDEECF80915C0290915D02E4
:100170002817390739F780915E02E81719F740E030
:1001800050E0FFE0220F331F441F551FFA95D1F7AF
:100190008E2F90E0A0E0B0E0BB278695B795AA2708
:1001A00099278827282B392B4A2B5B2B7695679527
:1001B000CB01A0E0B0E0282B392B4A2B5B2BB901F7
:1001C000CA010895AF92BF92CF92DF92EF92FF9251
:1001D0000F931F9328EE33E040E050E00E94101888
:1001E0005B016C010E94A2007B018C010E94A200B5
:1001F0006E197F09800B910B6A157B058C059D0597
:10020000A8F31F910F91FF90EF90DF90CF90BF90D8
:10021000AF900895882321F0813021F42D9A08951C
:100220002D98089585B190E2892785B90895EF92B8
:10023000FF920F931F937B018C018091E8029091B4
:10024000E902A091EA02B091EB028E199F09A00B7E
:10025000B10B181619061A061B060CF450C0809133
:10026000EC02882321F5E091ED02EF5FE370E0936B
:10027000ED02FF27E7FDF095E15AFD4F80819927B8
:1002800087FD9095880F991F8093EC0280E492E49B
:10029000AFE0B0E0E80EF91E0A1F1B1FE092E80273
:1002A000F092E9020093EA021093EB0228C0815019
:1002B0008093EC0281700E940A01E091ED02FF2719
:1002C000E7FDF095EE0FFF1FED59FD4F8081918105
:1002D000AA2797FDA095BA2F2AE0880F991FAA1F79
:1002E000BB1F2A95D1F78E0D9F1DA01FB11F8093B4
:1002F000E8029093E902A093EA02B093EB021F9107
:100300000F91FF90EF9008959A01AB01882311F0AF
:10031000459A449A1092B90060E074E284EF90E04C
:100320000E942F182051304040405040569547952C
:10033000379527952093B80008952FEF30E011C02E
:100340002115310561F41092BC0080916B029091EF
:100350006C02019690936C0280936B020895215079
:1003600030408091BC0087FFEBCF0895FF920F9340
:100370001F93F82E0CEB10E084EAF80180830E94B2
:100380009D01F092BB0084E8F80180830E949D01EA
:100390001F910F91FF9008958093BB0084E8809394
:1003A000BC000E949D0108951F93182F882311F40B
:1003B00084E801C084EC8093BC000E949D01909170
:1003C000BB00112319F484E98093BC00892F1F918D
:1003D00008950F931F93162F042F880F0E94B601C4
:1003E000812F0E94CC01802F0E94CC0184E9809350
:1003F000BC001F910F9108950F931F93182F062F84
:10040000880F0E94B601802F0E94CC01110F812F0E
:1004100081600E94B60181E00E94D4011F910F917A
:1004200008951F93CF93DF93EB01142F880F816002
:100430000E94B60108C0115080E011160CF481E052
:100440000E94D40189931123B1F7DF91CF911F91BD
:100450000895DF92EF92FF920F931F93E82EF62EEE
:100460008A01D22E880F0E94B6018F2D0E94CC01E6
:100470008E2DB8014D2D0E9411021F910F91FF90FA
:10048000EF90DF90089588E66EE340E80E94E9016E
:1004900062E370E080E090E00E94E20088E66EE3B4
:1004A00043E00E94E90188E666E14EE10E94E9012D
:1004B00088E660E00E94FC0190E08E77883609F4BF
:1004C00091E0892F0895A6E0B0E0E9E6F2E00C940F
:1004D00076188C017B016A0188E66DE1AE014F5F01
:1004E0005F4F26E00E942902998180E02A8130E056
:1004F000822B932BF801918380839B8180E02C8158
:1005000030E0822B932BF701918380839D8180E0E3
:100510002E8130E0822B932BF601918380832696E7
:10052000E8E00C949218282F17C0E22FF0E0EE0FAD
:10053000FF1FE55DFE4F80819181892B61F08091E5
:100540007C00887F822B80937C0080917A0080647D
:1005500080937A0008952F5F263038F308951F9214
:100560000F920FB60F9211242F933F934F935F93E7
:100570006F937F938F939F93AF93BF93EF93FF936B
:1005800080917C008770E82FF0E0EE0FFF1FE55DA3
:10059000FE4F0190F081E02D9091790090838F5F64
:1005A0000E949302FF91EF91BF91AF919F918F9124
:1005B0007F916F915F914F913F912F910F900FBE5F
:1005C0000F901F901895EBE2F1E040E050E061E001
:1005D00070E080819181892B79F087B1DB01042E55
:1005E00002C0AA0FBB1F0A94E2F79D012095822347
:1005F00087B988B1282328B94F5F5F4F32964630BC
:10060000510539F780E680937C0010927B008FE8DB
:1006100080937A0080E00E9493020895CF93DF9345
:10062000EB01DA01FC0140E050E061E070E0808124
:100630009181892B79F03881CB01042E02C0880F7B
:10064000991F0A94E2F7282F2095232328832C91C1
:10065000822B8C934F5F5F4F32964830510539F7AC
:10066000DF91CF9108958DE692E064E270E045E27B
:1006700050E00E940E0387E391E067E270E048E2F9
:1006800050E00E940E0387E491E06AE270E04BE2E2
:1006900050E00E940E03089560E070E040E050E0FA
:1006A000A1E0B0E0362FFA01E359FD4F0190F0814F
:1006B000E02D309751F023B1CD01062E02C0880FF6
:1006C000991F0A94E2F728232083FA01E95CFE4F80
:1006D0000190F081E02D309751F026B1CD01032E2D
:1006E00002C0880F991F0A94E2F728232083FA0199
:1006F000E95BFE4F0190F081E02D309749F029B180
:10070000CD0102C0880F991F3A95E2F72823208374
:100710006F5F7F4F4E5F5F4F4031510519F608956F
:100720001F920F920FB60F921124AF92BF92CF92E9
:10073000DF92EF92FF920F931F932F933F934F936C
:100740005F936F937F938F939F93AF93BF93CF9359
:10075000DF93EF93FF9300918400109185008091C7
:10076000D70293B19093D7027894292F28278095A8
:100770008923A7E5B1E0E8EDF2E060E070E0C22E89
:10078000DD24E82EFF2421E0CD91DC911197209704
:1007900079F1C601062E02C0959587950A94E2F775
:1007A00080FF26C0C701062E02C0959587950A9442
:1007B000E2F780FF03C0118300831AC0808191811A
:1007C000A801481B590B569547958CE7A82E8CEF2E
:1007D000B82EA40EB51E81EBA81684E0B80640F42E
:1007E0005983488380918E02681711F420937D020B
:1007F0006F5F7F4F129632966830710529F6FF9130
:10080000EF91DF91CF91BF91AF919F918F917F91A8
:100810006F915F914F913F912F911F910F91FF9099
:10082000EF90DF90CF90BF90AF900F900FBE0F90E2
:100830001F9018951F920F920FB60F921124CF920E
:10084000DF92EF92FF920F931F932F933F934F935B
:100850005F936F937F938F939F93AF93BF93CF9348
:10086000DF93EF93FF93E0908400F09085008091F8
:10087000C60299B19093C6027894292F28278095B3
:100880008923AEE7B2E0E7ECF2E060E070E0C22E70
:10089000DD24082F10E0CD91DC911197209721F1F4
:1008A000C601062E02C0959587950A94E2F780FF4F
:1008B0001BC0C801062E02C0959587950A94E2F7E1
:1008C00080FF03C0F182E0820FC080819181A70187
:1008D000481B590B56954795CA0184589340815B34
:1008E000944010F4598348836F5F7F4F129632967D
:1008F0006830710581F6FF91EF91DF91CF91BF9143
:10090000AF919F918F917F916F915F914F913F91A7
:100910002F911F910F91FF90EF90DF90CF900F904C
:100920000FBE0F901F901895809168008160809392
:100930006800E7E5F1E040E050E061E070E08081D0
:100940009181892BA1F020916B00CB01042E02C074
:10095000880F991F0A94E2F7282B20936B0034B17B
:10096000282F2095232324B925B1822B85B94F5FE9
:100970005F4F32964830510511F781E080938E0227
:1009800080916800846080936800EEE7F2E040E0C8
:1009900050E061E070E080819181892BA1F020918D
:1009A0006D00CB01042E02C0880F991F0A94E2F754
:1009B000282B20936D003AB1282F209523232AB9A4
:1009C0002BB1822B8BB94F5F5F4F32964830510568
:1009D00011F70895A6E0B0E0E0EFF4E00C946C1895
:1009E0007A8369831C012B019E838D839B012A5F7F
:1009F0003F4F3C832B83ED81FE81068117818081EF
:100A00009181081B190B3801882477FC8094982C5D
:100A1000F10182899389A489B589860D971DA81D46
:100A2000B91D268D378D40A151A1AA24BB24650193
:100A3000A21AB30AC40AD50A8A159B05AC05BD05DE
:100A40004CF05C016D01281739074A075B0714F465
:100A500059016A01F101A28AB38AC48AD58AED815B
:100A6000FE8184859585AA2797FDA095BA2FA401BC
:100A70009301281B390B4A0B5B0BCA01B90115877F
:100A80000487F20124853585442737FD4095542F8E
:100A90000E9410187B018C0152E015950795F79480
:100AA000E7945A95D1F7F20120813181442737FD2F
:100AB0004095542FC401B3010E94101843E095954E
:100AC0008795779567954A95D1F7E60EF71E081F2B
:100AD000191FF20126813781442737FD4095542F95
:100AE000C601B5010E94101836E095958795779557
:100AF00067953A95D1F7E60EF71E081F191FE98191
:100B0000FA81028804C015950795F794E7940A9432
:100B1000D2F7ED81FE81F3A6E2A63296FE83ED8345
:100B200024E030E0220E331E42E050E0440E551E19
:100B30008B819C814816590609F05DCF2696E2E12B
:100B40000C948818A6E0B0E0E8EAF5E00C947C1874
:100B5000CE010196BE016D5F7F4FAE014B5F5F4FCF
:100B60000E9463028B819C819093F5018093F40134
:100B700049815A815093F7014093F6012D813E81BE
:100B80003093F9012093F801809120029091210285
:100B90008230910519F00397D1F40DC03093F7011D
:100BA0002093F60188279927841B950B9093F901D0
:100BB0008093F8010CC088279927821B930B909390
:100BC000F7018093F6015093F9014093F8012696BE
:100BD000E2E00C94981881E040E85AE166E070E0A9
:100BE0000E9484010E944302882349F485E0809397
:100BF000610288EC90E09093680280936702089508
:100C00000F931F93CF93DF93FC011082772767FD2B
:100C1000709572836183DC01EC0140E050E00FEFDE
:100C20001FE760E070E80CC012961C930E931197BA
:100C30001A967C936E9319971F86188A198A1A8AB6
:100C40009A014F5F5F4F12962496818192812817F7
:100C5000390754F314A613A6DF91CF911F910F917A
:100C60000895A0E0B0E0E7E3F6E00C9474187C018E
:100C70008C01EB01F70160E070E02BC02181328133
:100C800088819981281739070CF4C90192838183DF
:100C90002185328588819981821793070CF4C901D7
:100CA0009287818729913991442737FD4095542FA8
:100CB000D8011F96AD90BD90CD90DC905297A20EBA
:100CC000B31EC41ED51E1F96AD92BD92CD92DC926E
:100CD00052979B016F5F7F4F32960C5F1F4FD7017A
:100CE00011968D919C911297281739073CF2CDB738
:100CF000DEB7EAE00C949018A0E0B0E0E2E8F6E09D
:100D00000C947618EC017C0163E2C62ED12CC80E3F
:100D1000D91E00E010E011C02BA53CA5442737FDEB
:100D20004095542FF70167857089818992890E94C7
:100D30005118F601219331936F0198010F5F1F4FF6
:100D400084E090E0E80EF91E89819A81281739071E
:100D50001CF3CDB7DEB7E8E00C949218CF93DF9385
:100D6000FC01EB0161817281A0E040E050E00DC028
:100D70008385948523813481821B930B8C179D0777
:100D80000CF4AF5F4F5F5F4F32964617570784F3FF
:100D900020E08A2F992787FD90958617970709F4F9
:100DA00021E0822FDF91CF910895A8E0B0E0EBED34
:100DB000F6E00C947A188C018091B6019091B701FD
:100DC0009A8389838091BA019091BB019C838B8324
:100DD0008091BC019091BD019E838D838091B8016B
:100DE0009091B90198878F83C801BE016F5F7F4FD3
:100DF0000E943106F80183A594A5019694A783A7C4
:100E00008436910551F5C80164E170E00E94AE0698
:100E10008823F9F0C8010E947C06F80183A194A1FF
:100E2000909314018093130185A196A190931601CC
:100E30008093150187A190A59093180180931701C5
:100E400081A592A590931A018093190181E0808376
:100E500004C0C80164E00E9400062896E4E00C94F7
:100E60009618A6E0B0E0E7E3F7E00C947A188C015E
:100E70008091F4019091F5019A8389838091F60124
:100E80009091F7019C838B838091F8019091F901F7
:100E90009E838D83C801BE016F5F7F4F0E94310624
:100EA000F80183A594A5019694A783A78C5291403D
:100EB00021F5C80162E370E00E94AE068823C9F004
:100EC000C8010E947C06F80183A194A19093EF01D0
:100ED0008093EE0185A196A19093F1018093F0019A
:100EE00087A190A59093F3018093F20181E0808324
:100EF00004C0C80163E00E9400062696E4E00C945A
:100F00009618209103013091040180910301909182
:100F100004012817390721F43093B7012093B60153
:100F20002091050130910601809105019091060103
:100F30002817390721F43093BB012093BA0120917F
:100F4000070130910801809107019091080128174D
:100F5000390721F43093BD012093BC0120910B018E
:100F600030910C0180910B0190910C0128173907E9
:100F700021F43093BF012093BE0120910D013091E7
:100F80000E0180910D0190910E012817390721F46F
:100F90003093C1012093C00120910F0130911001C5
:100FA00080910F01909110012817390721F4309397
:100FB000C3012093C201209111013091120180914F
:100FC0001101909112012817390721F43093C501BE
:100FD0002093C401809154029091550205974CF4DE
:100FE0008091B6019091B7019093B9018093B801B7
:100FF00008952091090130910A0180910901909191
:101000000A012817390721F43093B9012093B80158
:101010000895A0E0B0E0EFE0F8E00C947618FC0151
:10102000A0915402B0915502A530B105D1F0A6307F
:10103000B10564F4A330B10509F43EC0A430B10594
:101040000CF0F8C0129709F0B1C10BC0A730B10580
:1010500009F4F0C0A730B1057CF1189709F0A6C1DA
:1010600037C1808191812091B6013091B701820F03
:10107000931F9093E1018093E00180819181209101
:10108000B8013091B901820F931F9093E7018093CB
:10109000E601828193812091BA013091BB01820FD8
:1010A000931F9093E3018093E201848195812091C5
:1010B000BC013091BD01BBC0C090B601D090B7015A
:1010C000008111810C0D1D1D1093E1010093E001C1
:1010D000E090B801F090B901C081D181CE0DDF1D43
:1010E000D093E701C093E6014091C6015091C7013A
:1010F00044525A4F80819181480F591F62817381F8
:101100008091BA019091BB01680F791FCB01840FC8
:10111000951F9C01359527953595279535952795EC
:1011200095958795280F391F275731403093E30154
:101130002093E201461B570BCA0133E09595879532
:101140003A95E1F755954795840F951F84529A4F2C
:101150009093E5018093E4012091BC013091BD01A1
:10116000169709F05EC044E0223E340774F0295718
:101170003540273C310518F082E090E002C081E064
:1011800090E0029709F012C121C08091190190915D
:101190001A018C0D9D1D8E199F092091130130910C
:1011A0001401821B930B9595879584529A4F9093C7
:1011B000E1018093E0018C5D95402CED35E0281B2A
:1011C000390B3093E7012093E601F0C02091020132
:1011D00062817381E091C801F091C9016E0F7F1F98
:1011E000882777FD8095982F30E02058304044279D
:1011F00037FD4095542F0E941018A7E095958795CC
:1012000077956795AA95D1F7060F171F1093E101FF
:101210000093E001C61BD70BD093E701C093E60112
:10122000C5C09093E1018093E00184819581820F94
:10123000931F49C0808191812091B6013091B701FF
:10124000820F931F9093E1018093E001808191814F
:101250002091B8013091B901820F931F9093E7015B
:101260008093E601628173818091BA019091BB0104
:10127000680F791F448155818091BC019091BD0117
:10128000480F591FCA01860F971F9C01F3E035953F
:101290002795FA95E1F795958795280F391F2757D8
:1012A00031403093E3012093E201461B570BCA0102
:1012B000B3E095958795BA95E1F755954795840FD5
:1012C000951F84529A4F9093E5018093E4016EC07C
:1012D0006091B6017091B701009113011091140152
:1012E00020813181C281D3818091C8019091C9014F
:1012F000C80FD91FA481B5818091CA019091CB01FB
:10130000A80FB91F8091090190910A018C54944053
:1013100097FF03C040E050E016C080910901909112
:101320000A018C54944095958795855F91401CF0F7
:1013300044EF51E008C04091090150910A014C541A
:1013400054405595479564527A4F601B710B620F5C
:10135000731FFE01E60FF71F9A012A1B3B0B37FF95
:1013600002C020E030E0CF01821B930B9093E1019B
:101370008093E0012E0F3F1F3093E3012093E201A1
:101380006C1B7D0B9A012A0F3B1F37FF02C020E028
:1013900030E0C901860F971F9093E7018093E60123
:1013A000621B730B7093E5016093E4018091C201AD
:1013B0009091C3019093E9018093E8018091C40169
:1013C0009091C5019093EB018093EA018091C00157
:1013D0009091C1019093ED018093EC01CDB7DEB700
:1013E000E8E00C949218A8E0B0E0E9EFF9E00C9482
:1013F0007A1880911302909114020397A9F5FE01C7
:10140000319688E0DF011D928A95E9F7CF010E94AD
:101410000908AEEAB1E000E012E048E052E06D9168
:101420007C911197F80120813181FB0180819181AC
:10143000281739070CF4C901F80191838083FA0158
:1014400020813181FB0180819181821793070CF407
:10145000C901FA0181939193AF0112960E5F1F4F5C
:10146000F1E0A63BBF07D9F68AEF91E00E94090898
:1014700080E090E0FC01E255FE4FA081B1814D91EA
:101480005C911197FC01E050FE4F0190F081E02D3E
:101490004E175F0754F0FC01E85FFD4F208131815A
:1014A000FA01241735070CF4F901ED93FC93029629
:1014B00088309105F9F62896E4E00C94961880910E
:1014C0009002882309F050C081E0809390028FEF52
:1014D00080938F022FB7F8948091E0019091E10101
:1014E0009093D3018093D2018091E2019091E30126
:1014F0009093D5018093D4018091E4019091E5010E
:101500009093D7018093D6018091E6019091E701F5
:101510009093D9018093D8018091E8019091E901DD
:101520009093DB018093DA018091EA019091EB01C5
:101530009093DD018093DC018091EC019091ED01AD
:101540009093DF018093DE0180916F008260809331
:101550006F00B19A809184009091850004969093D9
:101560008900809388002FBF0895FC0181E081836A
:10157000808385E082831682158210861782089503
:101580009C0144E0813B940714F490E00DC0845129
:1015900095408159914010F491E006C028503740A1
:1015A00014F49FEF06C092E0662319F082E0891BD5
:1015B000982F892F0895CF93DF93EC018A818B8335
:1015C0008091B6019091B7016D810E94C00A87FF9A
:1015D00088838091BA019091BB016E810E94C00AFC
:1015E00087FF89838F81882351F48881882329F09C
:1015F000823029F481E08D83188281E08F83888591
:10160000882361F48981882319F0823039F404C079
:1016100081E08E8382E0898381E0888738813F5F23
:10162000898123E08202C0011124380F3A839B8113
:1016300080E0391729F081E09295907F932B9C836D
:10164000DF91CF910895282F30E03F6F220F331F95
:10165000EFB7F8948091840090918500AC01405CD4
:101660005F4FBC016D5D7A4F809184009091850041
:10167000DA01A81BB90B1A161B06B4F320FF02C02F
:10168000579801C0579A4617570729F0369527955E
:1016900045575F4FE9CFEFBF0895EFB7F8944F9BE1
:1016A00049C016C020918400309185002058314CEB
:1016B00004C08FEF9FEF4F9B0BC0809184009091EF
:1016C0008500B901681B790B1616170614F4F1CFC3
:1016D000AC0141505040CA0101961816190614F386
:1016E0004F5F5F4F19F420E030E826C080918400FE
:1016F00090918500AC0140565F4F20E030E0BC0186
:1017000063597B4F8091840090918500DA01A81B7A
:10171000B90B1A161B06B4F389B13695279590E0DC
:1017200080789070282B392B4617570729F045579A
:101730005F4FE8CF20E030E4EFBFC9010895EF929A
:10174000FF920F931F93CF93DF93E82E192F062F4D
:10175000F62E84E20E94230B802F0E94230B2E2D55
:10176000312FC901EC0104C08991F80E0E94230BAE
:101770009E012E192017C4F38F2D81950E94230BF3
:10178000CDB7DEB7E6E00C9494188F929F92AF929B
:10179000BF92CF92DF92FF920F931F93CF93DF936D
:1017A0004C015A01C0E0D0E0C62EDD24C7FCD09425
:1017B00002C0812F182FC5010E944D0B9C01807023
:1017C000907C892B69F5822FC130D10559F0C23048
:1017D000D105A1F0209779F7243259F7812FC1E084
:1017E000D0E0E8CF90E0C816D90614F4812F15C0D8
:1017F000822FF22EC2E0D0E000E0DCCFF20E812F8B
:101800008150112331F0F401E00FF11D20830F5FAF
:10181000D1CFFF2011F481E004C0C0E0D0E0CACFF6
:1018200080E0DF91CF911F910F91FF90DF90CF90DB
:10183000BF90AF909F908F9008951F93CF93DF93A9
:10184000EC01142F44E450E00E94A3188881811712
:1018500011F08FEF12C090E020E030E0FE01E20FC7
:10186000F31F8081980F2F5F3F4F24343105B1F76C
:10187000992311F480E001C08EEFDF91CF911F9189
:101880000895DC0190E020E030E0FD01E20FF31F5D
:101890008081980F2F5F3F4F23343105B1F7AD5B47
:1018A000BF4F91959C93A354B040CD0144E450E0C8
:1018B0000E94B3180895A1E1B0E0E1E6FCE00C94C9
:1018C0006C181C0181E0898381E192E09B838A830B
:1018D00002969D838C830D969F838E8302969987B3
:1018E000888702969B878A8702969D878C870296B7
:1018F0009F878E87CE010196998B888BD09011029D
:10190000DD0CCC246624EE24FF248701F0E88F2E22
:10191000FAE19F2EF6E0AF2EB12CE2E07E2E2C01F4
:101920000E94A2009B01AC01DC01CB018E199F0932
:10193000A00BB10B88169906AA06BB060CF051C085
:10194000171424F5872D992787FD9095FC01E170E8
:10195000F07080FD03C088E097E002C08CED95E058
:101960009093E3018093E2018CED95E09093E10187
:101970008093E001EE0FFF1FEE0FFF1FEA56FE4FB0
:1019800080809180A280B3807A9429C0DD2039F1D3
:101990001D1424F46CE271E0A1E003C064ED7EEF5D
:1019A000AFEF8D2D992787FD9095FC01E170F070C8
:1019B00080FF03C08CED95E003C0CB0184529A4FA9
:1019C0009093E1018093E001EE0FFF1FEE0FFF1FE8
:1019D000EA56FE4F80809180A280B380DA1A7901A6
:1019E0008A0180917D02882329F010927D020E9455
:1019F000810702C0662041F080919002882309F09F
:101A00008CC00E945F0A6624772009F089CFC1014B
:101A10000E94DB0A882309F483CFF1018481843595
:101A200061F0853520F4823509F063C013C0863536
:101A300059F0883509F05DC02AC0F1E0FC1514F0BA
:101A4000CC2470C0CA946EC085E08C150CF468C0BC
:101A5000C39468C0AC2DBB27A7FDB095FD01EE0F68
:101A6000FF1FE40DF51D0180F281E02D8081282FFC
:101A7000332727FD30952F5F3F4FA256BE4F8C91E5
:101A8000992787FD909582179307F4F41CC0AC2D1D
:101A9000BB27A7FDB095FD01EE0FFF1FE40DF51D5F
:101AA0000180F281E02D8081282F332727FD30959A
:101AB00021503040AA55BE4F8C91992787FD9095B3
:101AC000281739070CF49C01208320E08C2D9927DE
:101AD00087FD9095FC01EE0FFF1FE40DF51D0180C1
:101AE000F281E02DD080DD0C222319F00196782EB2
:101AF000770C8981823009F013CF80E192E060E0B9
:101B000070E00E94410C80E192E060E071E00E9490
:101B1000410C6196E2E10C9488186624639474CFBA
:101B2000A7E0CA2E21E0D2CFA1E9B0E0EAE9FDE0CA
:101B30000C946C180E94A2001B012C01DE0111966E
:101B4000E8E7F1E086E001900D928150E1F78E0127
:101B50000D5E1F4FC8010E94B50A4CE1E42EF12C26
:101B6000EC0EFD1EC70164E00E94000639E4C32E9E
:101B7000D12CCC0EDD1EC60163E00E94000620922F
:101B8000C2023092C3024092C4025092C502C657AC
:101B9000DF4F288239824A825B82CA58D040CA57B6
:101BA000DF4F288239824A825B82C658D040CE57A6
:101BB000DF4F288239824A825B82C258D04042017C
:101BC0003101C258DF4F288239824A825B82CE5768
:101BD000D040EB962CAE3DAE4EAE5FAEEB97EE96A0
:101BE0001FAEEE97ED961FAEED9721E0EC962FAF6E
:101BF000EC97C257DF4FE882CE58D040C157DF4F35
:101C0000F882CF58D040C057DF4F0883C059D0402A
:101C1000CF56DF4F1883C159D0400E94A2005B010C
:101C20006C010E94170180917D028823A1F4D601E6
:101C3000C501C657DF4F488159816A817B81CA58E7
:101C4000D040841B950BA60BB70B81539547A04042
:101C5000B0400CF442C010927D020E9481078C8D2E
:101C6000882369F0C657DF4FA882B982CA82DB8217
:101C7000CA58D04061E0EE966FAFEE972EC0C257C3
:101C8000DF4F8881CE58D040C157DF4F9881CF5861
:101C9000D0400E94D5062A968FAD2A97882311F44A
:101CA00092E001C090E020E08C8D882309F421E0CF
:101CB000920F9093600288EC90E09093660280937C
:101CC0006502C657DF4FA882B982CA82DB82CA5832
:101CD000D04091E0EE969FAFEE97809190028823DE
:101CE00079F5EE96AFADEE97AA2351F1A6019501D5
:101CF000CA57DF4F688179818A819B81C658D0405D
:101D0000261B370B480B590B8091580290915902B2
:101D1000A0915A02B0915B0282179307A407B507FE
:101D20007CF40E94F3090E945F0ACA57DF4FA88221
:101D3000B982CA82DB82C658D040EE961FAEEE97BB
:101D4000D601C501CE57DF4F288139814A815B8199
:101D5000C258D040821B930BA40BB50B8151974204
:101D6000A040B04054F10E94A2052A968FAD2A9758
:101D70008823D9F4CE01875B9F4F0E9431072A96B2
:101D80008FAD2A97882311F492E001C090E020E003
:101D90008C8D882309F421E0920F9093600248EC27
:101DA00050E05093660240936502CE57DF4FA88201
:101DB000B982CA82DB82C258D040EC965FADEC9704
:101DC000552309F456C0C057DF4F8881C059D04011
:101DD000CF56DF4F9881C159D0400E94DB0A88233B
:101DE00009F447C0ED966FADED97E62FFF27E7FDAD
:101DF000F095E159FE4F9F898081981721F0ED966B
:101E00001FAEED9707C0ED967FADED977F5FED9626
:101E10007FAFED97ED968FADED97E82FFF27E7FDAC
:101E2000F095E159FE4F80818F3F81F4CE014396BA
:101E30000E945B0C2EE088E190E00FB6F894A89524
:101E4000809360000FBE20936000FFCFD601C501D4
:101E500082199309A409B509815C914EA44EB04042
:101E600024F0EC961FAEEC9704C0F1E0EC96FFAFC7
:101E7000EC978C8D882329F02A968FAD2A9788239A
:101E8000C9F58091B8019091B9012091B6013091C6
:101E9000B701820F931F2091190130911A01821B03
:101EA000930B2091130130911401821B930B959594
:101EB00087959093C7018093C6018091BA01909154
:101EC000BB012091150130911601821B930B909359
:101ED000C9018093C8018091BC019091BD012091FE
:101EE000170130911801821B930B9093CB018093C3
:101EF000CA0193CED601C50186199709A809B90967
:101F000081519742A040B0400CF424C38091560206
:101F1000909157028130910559F48091BE019091C2
:101F2000BF01845C95400CF09BC080E090E00DC048
:101F3000892B09F095C08091BE019091BF01855F0A
:101F400095400CF48DC081E090E09093570280930F
:101F50005602892B11F084E001C080E0809360027A
:101F600068EC70E070936602609365021092A302C1
:101F70001092A4021092A5021092A6021092AF0233
:101F80001092B0021092B1021092B2021092A70207
:101F90001092A8021092A9021092AA021092B30203
:101FA0001092B4021092B5021092B6021092AB02D7
:101FB0001092AC021092AD021092AE021092B702D3
:101FC0001092B8021092B9021092BA0280912802BF
:101FD00090912902029709F043C0D601C501EB9602
:101FE0002CAD3DAD4EAD5FADEB97821B930BA40BBB
:101FF000B50B8152914AA740B0401CF0E7961FAE46
:10200000E797E7964FADE7974F5FE7964FAFE797B4
:10201000433004F18091B6019091B701909314017F
:10202000809313018091BA019091BB0190931601A6
:10203000809315018091BC019091BD01909318018E
:10204000809317018091B8019091B90190931A0182
:1020500080931901EB96ACAEBDAECEAEDFAEEB9782
:102060004091B8015091B9018091B6019091B701AA
:10207000480F591F8091190190911A01481B590B63
:102080008091130190911401481B590B5595479568
:102090005093C7014093C601E091BA01F091BB0192
:1020A0008091150190911601E81BF90BF093C9017D
:1020B000E093C801A091BC01B091BD0180911701CE
:1020C00090911801A81BB90BB093CB01A093CA0142
:1020D000809122028150282F332727FD3095CA0195
:1020E00057FF04C088279927841B950B022E02C036
:1020F000880F991F0A94E2F761E08139960714F07E
:1021000080E991E060E971E0681B790B78876F8363
:10211000CF01F7FF04C0882799278E1B9F0B022E43
:1021200002C0880F991F0A94E2F771E0813997077E
:1021300014F080E991E060E971E0681B790B7A871F
:102140006987CD01B7FF04C0882799278A1B9B0B9D
:10215000BC0102C0660F771F2A95E2F781E0613962
:10216000780714F060E971E010E9612E11E0712E3A
:10217000661A770A7C866B862091BE013091BF017A
:1021800095E02D3D39072CF067E02D3636075CF0E1
:1021900007C08CED95E0821B930B815991401CF098
:1021A00000E911E011C085E02D3D380724F08901D8
:1021B0000C5D154004C00CED15E0021B130B09313A
:1021C000110514F400E010E0809056029090570240
:1021D00091E08916910459F08114910409F050C0DE
:1021E0008091260290912702029709F049C08091C0
:1021F00024029A01082E02C0220F331F0A94E2F72C
:102200003E872D87082E02C0EE0FFF1F0A94E2F7CB
:10221000F88BEF87AD0102C0440F551F8A95E2F796
:102220005A8B498B89819A8197FD05C08827992708
:10223000821B930B01C0C90190939202809391027B
:102240008B819C812F85388997FD05C08827992728
:10225000821B930B01C0C901909394028093930257
:102260008D819E8197FD03C0509541955F4F50939E
:10227000960240939502A1E08A16910471F055C030
:102280001092920210929102109294021092930274
:10229000109296021092950248C06F817885882727
:1022A00077FD8095982F24EF3FEB40E050E00E94AF
:1022B0001018F9E09595879577956795FA95D1F778
:1022C0006093AF027093B0028093B1029093B20218
:1022D00069857A85882777FD8095982F0E94101848
:1022E000E9E09595879577956795EA95D1F760939D
:1022F000B3027093B4028093B5029093B602B30117
:10230000882777FD8095982F0E94101839E09595C1
:102310008795779567953A95D1F76093B702709353
:10232000B8028093B9029093BA022091F4013091DF
:10233000F5018091EE019091EF01281B390BB0E27D
:1023400020303B0714F02FEF3FE1C901E0EE2030D1
:102350003E0714F480E090EE9093980280939702E9
:102360002091F6013091F7018091F0019091F101F7
:10237000281B390BF0E220303F0714F02FEF3FE12C
:10238000C90120EE8030920714F480E090EE909323
:102390009A02809399022091F8013091F90180917D
:1023A000F2019091F301281B390B40E220303407F1
:1023B00014F02FEF3FE1C90150EE2030350714F43F
:1023C00080E090EE90939C0280939B02892819F004
:1023D00060E472E002C06DE272E081E992E00E9486
:1023E000EA04EE24FF243801882477FC8094982C9A
:1023F000870106501E4FE1E0F0E0EC0FFD1FEE0DEF
:10240000FF1D60817181882777FD8095982FF701E6
:10241000EF56FD4F22A533A5442737FD4095542F95
:102420000E94101827E095958795779567952A95CE
:10243000D1F7E7E0F0E0EC0FFD1FEE0DFF1D20816E
:102440003181442737FD4095542F0E9410189B017D
:10245000AC01B9E05595479537952795BA95D1F7D1
:10246000C401B3010E941018A9E09595879577954E
:102470006795AA95D1F7D8016D937C93E2E0F0E0DF
:10248000EE0EFF1EF6E0EF16F10409F0B1CF209139
:10249000C10212160CF05CC08091C2029091C3027E
:1024A000A091C402B091C502B601A501481B590B09
:1024B0006A0B7B0BDB01CA0181549D40A340B040F5
:1024C0005CF021502093C102A092C202B092C302DC
:1024D000C092C402D092C5028091C102992787FDA3
:1024E00090954091FA015091FB01BC0161707070B0
:1024F00080FF03C026E930E002C02AE63FEF240F48
:10250000351F3093FB012093FA014091FC0150915B
:10251000FD016115710519F026E930E002C02AE6D7
:102520003FEF240F351F3093FD012093FC012091D4
:10253000FE013091FF01672B19F48AE69FEF02C07C
:1025400086E990E0820F931F9093FF018093FE0134
:1025500035014601D601C501C258DF4F28813981B6
:102560004A815B81CE57D040821B930BA40BB50BE5
:102570008C59914AA740B0400CF44FCB80912A026D
:10258000803839F480910001282F30E02058304005
:1025900004C0282F332727FD309580912B028038E7
:1025A00039F480910101482F50E04058504004C058
:1025B000482F552747FD509580912C02803831F4E3
:1025C0008091020190E08058904003C0992787FDD8
:1025D00090953A8329835C834B839E838D83295F07
:1025E0003F4F2F30310510F41A8219828B819C8164
:1025F00007960F9710F41C821B828D819E8107968F
:102600000F9710F41E821D8280E00E949302C25830
:10261000DF4FA882B982CA82DB82CE57D040FDCA82
:10262000A5E6B0E0E6E1F3E10C94761810928000A4
:1026300081E08093810057985F9848E552E000E080
:102640006E010894C11CD11C62E0E62EF12CEC0E48
:10265000FD1EC60165E60E94C50B882309F441C032
:1026600089818230A9F0833018F4813029F406C0C2
:102670008330B1F08430E9F010E026C0C70160E893
:1026800070E048E050E00E94A31810E069E01DC02F
:10269000C70160E870E048E050E00E94B31813C042
:1026A000C70160E070E048E00E941D0C10E065E4A6
:1026B0000CC0C70160E070E00E94410CC70160E0FF
:1026C00071E00E94410C11E061E08981806889839A
:1026D000C6010E949F0B01E044EF51E0112309F471
:1026E000B8CF802FCB59DF4FE8E00C949218CF93EE
:1026F000DF93C0E0D0E0FE01E959FE4F808187FD05
:1027000004C0808161E00E9471172196C830D10514
:1027100091F7DF91CF9108951F920F920FB60F920C
:1027200011240F931F932F933F934F935F936F93B6
:102730007F938F939F93AF93BF93EF93FF9380917A
:102740008F0287FD42C0E0918F02FF27E7FDF095E1
:10275000E959FE4F808160E00E94DD1736C080910C
:102760008F028F5F80938F02E0918F02FF27E7FD3A
:10277000F095E959FE4F808187FD27C000918400C4
:1027800010918500E0918F02FF27E7FDF095E95950
:10279000FE4F808161E00E94DD17E0918F02FF27EC
:1027A000E7FDF095EE0FFF1FE55EFE4F0190F08113
:1027B000E02D808191810297880F991F800F911FD2
:1027C00090938900809388000BC080918F0287309E
:1027D00034F21092900280916F008D7F80936F0091
:1027E000FF91EF91BF91AF919F918F917F916F91E9
:1027F0005F914F913F912F911F910F910F900FBEBD
:102800000F901F901895A0E0B0E0E9E0F4E10C947F
:102810007618182F062F862F61E00E947117812FDE
:1028200060E00E947117812F61E00E94DD176AE06D
:1028300070E080E090E00E94E200C0E0D0E0812FF4
:10284000992787FD9095FC01EA57FF4FE491F0E04E
:10285000EE0FFF1FE458FF4FC590D49086569F4F50
:10286000FC018491E82EFF24CE018170182F802F67
:10287000612F0E94DD17F601808120E030E090E0BA
:102880008E219F21892B11F021E030E0812F9927A3
:1028900087FD90952817390711F010E005C02196A3
:1028A000C830D10509F711E0802F60E00E94711750
:1028B000812FCDB7DEB7E8E00C949218A2E9B0E022
:1028C000E4E6F4E10C947818259A8091F70290914F
:1028D000F802009711F09C0102C02BEF32E0CE010C
:1028E0000196821B930B803891054CF484E1809310
:1028F00061028EE190E0909368028093670284B752
:10290000877F84BF88E10FB6F894809360001092AF
:1029100060000FBE21E030E03093120220931102DC
:1029200080E880932A0280932B0280932C023093BC
:1029300014022093130210921502EEE7F1E0A6E1D3
:10294000B2E081918D9321E0E638F207D1F742E0C1
:1029500050E050931F0240931E0221E030E030937C
:10296000210220932002309323022093220283E04D
:1029700090E09093250280932402309327022093C5
:102980002602509329024093280284EF91E090930D
:102990002E0280932D0210923402109233029093F3
:1029A0003A02809339029093300280932F02109262
:1029B00036021092350290933C0280933B02909332
:1029C00032028093310210923802109237029093B3
:1029D0003E0280933D0228E020933F029093410203
:1029E00080934002909347028093460290934D0259
:1029F00080934C0290934302809342029093490249
:102A00008093480290934F0280934E029093450228
:102A10008093440290934B0280934A029093510218
:102A2000809350022093520286E065E00E940314D6
:102A3000882311F400E001C007E0CE01039660E8AE
:102A400070E048E050E00E94A318002361F48B81FD
:102A5000853049F48C819D81AE81BF818E54914631
:102A6000AC4BB04071F085E08B838EE491E6ACEB2B
:102A7000B0E08C839D83AE83BF83188619861A8647
:102A80000860CE010B9660E070E048E00E941D0CEB
:102A900087FD0260CE01815B9F4F60E071E048E0FE
:102AA0000E941D0C87FD046083E08093C102E02E2C
:102AB000FF24C701867090708230910531F0843018
:102AC000910579F0892B81F119C08E01015B1F4FAF
:102AD000C80160E070E00E94410C88858F5F8887A4
:102AE0000BC08E01055F1F4FC80160E071E00E94BE
:102AF000410C89858F5F8987C80118C088E0809361
:102B0000100280E192E060E070E00E94410C80E100
:102B100092E060E071E00E94410C8A858F5F8A87B5
:102B200089E08093C1020AC0CE010B96A0E1B2E019
:102B3000FC0184E401900D928150E1F7C7018E7091
:102B40009070892B41F0CE01039660E870E048E078
:102B500050E00E94B318E0FE0AC082E00E940A0121
:102B600064E670E080E090E00E941217F6CF0E94C9
:102B70001013882361F02EE088E190E00FB6F894FE
:102B8000A895809360000FBE20936000FFCF109245
:102B9000800082E08093810081E080936F0085B5A2
:102BA000887F85BD80911302909114028230910537
:102BB000D1F08330910561F10197F1F580E090E06B
:102BC00048EE53E020ED37E0FC01E050FE4F51832A
:102BD0004083FC01E85FFD4F3183208302968830FB
:102BE000910591F729C080E090E04CE454E02CE698
:102BF00037E0FC01E050FE4F51834083FC01E85F69
:102C0000FD4F3183208302968830910591F714C0DF
:102C100080E090E042EE54E026ED36E0FC01E0502A
:102C2000FE4F51834083FC01E85FFD4F31832083D9
:102C300002968830910591F780911502992787FDBA
:102C4000909528EE33E0AC01429FC001439F900D68
:102C5000529F900D1124AA2797FDA095BA2F80931B
:102C6000580290935902A0935A02B0935B020E94BB
:102C700033030E944C0380911102909112029093B1
:102C80005502809354020197E9F48091CF01882383
:102C900019F4E2E0F0E002C0E0E0F0E020E030E033
:102CA0008091D001882311F421E030E0E22BF32B56
:102CB000EE0FFF1FEA57FE4F8081918190935502DE
:102CC000809354028091540290915502059734F0FC
:102CD00082E090E0909355028093540280915402D8
:102CE00090915502019731F482E090E09093550263
:102CF000809354028091540280935F0288E592E0B1
:102D000090936402809363020E94E3020E94940401
:102D10000E9477130E94EB050E9481070E94F3092D
:102D2000CE56DF4FE6E00C949418CF93DF930E94C9
:102D300036170E945E14C0E0D0E00E94940D2097E8
:102D4000E1F30E940000F9CF1F920F920FB60F928D
:102D500011242F933F938F939F93AF93BF938091B1
:102D6000F2029091F302A091F402B091F502309139
:102D7000F6020196A11DB11D232F2D5F2D3720F0E6
:102D80002D570196A11DB11D2093F6028093F202EA
:102D90009093F302A093F402B093F5028091EE02B7
:102DA0009091EF02A091F002B091F1020196A11D65
:102DB000B11D8093EE029093EF02A093F002B093C6
:102DC000F102BF91AF919F918F913F912F910F9001
:102DD0000FBE0F901F9018959FB7F8942091EE02A8
:102DE0003091EF024091F0025091F10286B5A89B1C
:102DF00006C08F3F21F02F5F3F4F4F4F5F4F9FBF68
:102E0000542F432F322F2227280F311D411D511DD2
:102E100082E0220F331F441F551F8A95D1F7B90155
:102E2000CA010895EF92FF920F931F93CF93DF9300
:102E30007B018C010E94EC16EB010EC00E94EC1687
:102E40006C1B7D0B685E7340C8F30894E108F108C1
:102E500001091109C851DC4FE114F1040105110504
:102E600069F7CDB7DEB7E6E00C949418789484B592
:102E7000826084BD84B5816084BD85B5826085BD76
:102E800085B5816085BDEEE6F0E08081816080835C
:102E9000E1E8F0E01082808182608083808181603F
:102EA0008083E0E8F0E0808181608083E1EBF0E006
:102EB000808184608083E0EBF0E0808181608083AA
:102EC000EAE7F0E080818460808380818260808393
:102ED0008081816080838081806880831092C100BE
:102EE0000895CF93DF93482F50E0CA0186569F4F35
:102EF000FC0134914A575F4FFA018491882369F1AC
:102F000090E0880F991FFC01E859FF4FA591B491FB
:102F1000FC01EE58FF4FC591D491662351F42FB7B1
:102F2000F8948C91932F909589238C938881892391
:102F30000BC0623061F42FB7F8948C91932F909569
:102F400089238C938881832B88832FBF06C09FB7EA
:102F5000F8948C91832B8C939FBFDF91CF91089530
:102F6000833071F0843028F48130A1F0823021F573
:102F700014C08630B1F08730D1F08430E9F404C059
:102F8000809180008F7703C0809180008F7D809337
:102F90008000089584B58F7702C084B58F7D84BD8D
:102FA00008958091B0008F778093B000089580914C
:102FB000B0008F7D8093B0000895FF920F931F9310
:102FC000F62E482F50E0CA0182559F4FFC012491F4
:102FD000CA0186569F4FFC0114914A575F4FFA0170
:102FE00004910023C9F0222319F0822F0E94B01708
:102FF000E02FF0E0EE0FFF1FEE58FF4FA591B491C8
:103000009FB7F894FF2021F48C911095812302C082
:103010008C91812B8C939FBF1F910F91FF900895EE
:10302000629FD001739FF001829FE00DF11D649FAC
:10303000E00DF11D929FF00D839FF00D749FF00D38
:10304000659FF00D9927729FB00DE11DF91F639FD9
:10305000B00DE11DF91FBD01CF0111240895A1E2BA
:103060001A2EAA1BBB1BFD010DC0AA1FBB1FEE1F02
:10307000FF1FA217B307E407F50720F0A21BB30B4D
:10308000E40BF50B661F771F881F991F1A9469F7C9
:1030900060957095809590959B01AC01BD01CF0125
:1030A000089597FB092E05260ED057FD04D0D7DFD3
:1030B0000AD0001C38F450954095309521953F4F2B
:1030C0004F4F5F4F0895F6F79095809570956195F5
:1030D0007F4F8F4F9F4F08952F923F924F925F9255
:1030E0006F927F928F929F92AF92BF92CF92DF9218
:1030F000EF92FF920F931F93CF93DF93CDB7DEB77D
:10310000CA1BDB0B0FB6F894DEBF0FBECDBF099410
:103110002A88398848885F846E847D848C849B8467
:10312000AA84B984C884DF80EE80FD800C811B8175
:10313000AA81B981CE0FD11D0FB6F894DEBF0FBEA4
:10314000CDBFED010895DC01CB01FC01F999FECF63
:1031500006C0F2BDE1BDF89A319600B40D9241501F
:103160005040B8F70895DC01CB0103C02D910E94B7
:10317000BE1841505040D0F70895262FF999FECF40
:103180001FBA92BD81BD20BD0FB6F894FA9AF99A84
:0A3190000FBE01960895F894FFCFDA
:10319A00FFFFFFDC05DC05DC05DC05E803DC05E8F0
:1031AA0003DC05DC05DC05DC05DC05D601D401DA27
:1031BA0001D2010000D801DE01DC0100000001019A
:1031CA0001020100000000D0010000000000000020
:1031DA0000000000000000CF01CC01CD01CE01D1DA
:1031EA00010000000000000301050107010B0100B6
:1031FA00000000000000000706FF05FFFFFFFF7840
:10320A0089988778899887FF0000000000000001EC
:10321A000203040506070200030004000500080073
:10322A00060007000200A0860100801A06000503B6
:10323A000303040202020101010101010101E0018B
:06324A00E201E401E601CF
:00000001FF
