:100000000C9484010C94AC010C94AC010C94AC01E4
:100010000C94AC010C94AC010C94AC010C94AC01AC
:100020000C94AC010C94AC010C94991A0C941D1B0B
:100030000C94AC010C94AC010C94AC010C94AC018C
:100040000C94AC010C9407140C94AC010C94AC010E
:100050000C94FB010C94AC010C94AC010C94661C48
:100060000C94AC010C94EE160C943C170C94AC015F
:100070000C94AC010C946B040C94AC010C94AC018A
:100080000C94AC010C94AC010C94AC010C94AC013C
:100090000C94AC010C94AC010C94AC010C94AC012C
:1000A0000C94AC010C94AC010C94AC01B01DB31DCC
:1000B000A61DAA1DD41DD41DD41DB71DBB1DBF1D5B
:1000C000C51DC91DD41DCF1D040309042203410011
:1000D00072006400750069006E006F0020004C0023
:1000E00065006F006E006100720064006F0018030D
:1000F000410072006400750069006E006F0020000E
:100100004C004C004300120100020000004041235B
:1001100036800001010200011201000202000040CD
:100120004123368000010102000100C18081C1002D
:10013000000000240027002A002D003000000000ED
:1001400000250028002B002E0031000000000023B5
:1001500000260029002C002F0004040404040304DA
:100160000502020202040302020202060606060655
:100170000604040202020404080201104080401038
:1001800020408040800802040180402010020110BD
:1001900080102040400000000200080E0000030410
:1001A00001000B0000000000000000000000000043
:1001B000000000070605040100080A0B0C0D0908E1
:1001C0000B0002020201000904000001020200000B
:1001D0000524001001052401010104240206052460
:1001E0000600010705810310004009040100020A0E
:1001F00000000007050202400000070583024000DE
:100200000005010902A1010901A1008501050919E3
:1002100001290315002501950375018102950175DA
:1002200005810305010930093109381581257F75DC
:100230000895038106C0C005010906A101850205D4
:100240000719E029E7150025017501950881029538
:1002500001750881039506750815002565050719C0
:100260000029658100C009040200010300000009A3
:1002700021010100012265000705840340000100FF
:10028000000000000000002A2B28000000000000F1
:100290000000000000000000000000000000002C32
:1002A0009EB4A0A1A2A434A6A7A5AE362D373827A8
:1002B0001E1F20212223242526B333B62EB7B89F34
:1002C0008485868788898A8B8C8D8E8F9091929376
:1002D0009495969798999A9B9C9D2F3130A3AD3514
:1002E0000405060708090A0B0C0D0E0F1011121356
:1002F0001415161718191A1B1C1DAFB1B0B5000044
:10030000A818E919821E841F11241FBECFEFDAE05E
:10031000DEBFCDBF11E0A0E0B1E0E2E4F2E402C054
:1003200005900D92A03DB107D9F714E0A0EDB1E022
:1003300001C01D92A632B107E1F713E0C8E0D3E097
:1003400004C02297FE010E941B21C030D107C9F7CB
:100350000E94FE180C941F210C940000A0E0B0E055
:10036000E4EBF1E00C94EC207C01EB018A016901E3
:1003700009C0CE012196F6010995F70181937F010D
:100380000150104001151105A1F7CDB7DEB7E8E027
:100390000C940821A0E0B0E0E0EDF1E00C94EC203A
:1003A000EC017B018A01690109C0CE012196F701A8
:1003B00061917F01F6010995015010400115110569
:1003C000A1F7CDB7DEB7E8E00C9408219C01F999BC
:1003D000FECF32BD21BDF89A80B508959C01F999F0
:1003E000FECF1FBA32BD21BD60BD0FB6F894FA9A98
:1003F000F99A0FBE08951F920F920FB60F92112413
:100400008F939F9380915D0290915E0201969093ED
:100410005E0280935D0280915D0290915E02892B65
:1004200029F480915F028F5F80935F029F918F918B
:100430000F900FBE0F901F901895609184007091DF
:10044000850020915D0230915E02E0915F02809113
:100450008400909185008627972797FDEECF8091A5
:100460005D0290915E022817390739F780915F028B
:10047000E81719F740E050E0FFE0220F331F441F58
:10048000551FFA95D1F78E2F90E0A0E0B0E0BB2782
:100490008695B795AA2799278827282B392B4A2B89
:1004A0005B2B76956795CB01A0E0B0E0282B392B2C
:1004B0004A2B5B2BB901CA010895AF92BF92CF922C
:1004C000DF92EF92FF920F931F9328EE33E040E00C
:1004D00050E00E9486205B016C010E941D027B019E
:1004E0008C010E941D026E197F09800B910B6A1509
:1004F0007B058C059D05A8F31F910F91FF90EF9050
:10050000DF90CF90BF90AF9008959B01AC01809198
:10051000010390910203A0910303B0910403821B95
:10052000930BA40BB50B181619061A061B060CF430
:1005300058C080910503882301F5E0910603EF5F21
:10054000E370E0930603FF27E7FDF095E05AFD4FC7
:100550008081992787FD9095880F991F80930503C7
:10056000205C3D4B404F5F4F2093010330930203CB
:10057000409303035093040308958150809305032F
:100580008095982F917080FF04C0913021F45D9A7E
:1005900006C05D9804C08BB190E289278BB9E091C9
:1005A0000603FF27E7FDF095EE0FFF1FEC59FD4F07
:1005B00080819181AA2797FDA095BA2F6AE0880FC4
:1005C000991FAA1FBB1F6A95D1F7820F931FA41F03
:1005D000B51F8093010390930203A0930303B0938C
:1005E00004030895482F84EA8093BC002FEF30E085
:1005F00011C02115310561F41092BC0080916C028C
:1006000090916D02019690936D0280936C0206C0EA
:10061000215030408091BC0087FFEBCF4093BB005E
:1006200084E88093BC002FEF30E011C02115310524
:1006300061F41092BC0080916C0290916D02019661
:1006400090936D0280936C02089521503040809108
:10065000BC0087FFEBCF0895482F882311F484E86E
:1006600001C084EC8093BC002FEF30E011C0211555
:10067000310561F41092BC0080916C0290916D0282
:10068000019690936D0280936C0206C02150304019
:100690008091BC0087FFEBCF9091BB00442319F4FD
:1006A00084E98093BC00892F08950F931F93162F20
:1006B000042F880F0E94F2021093BB0084E88093FD
:1006C000BC002FEF30E011C02115310561F410920C
:1006D000BC0080916C0290916D02019690936D0226
:1006E00080936C0206C0215030408091BC0087FF8F
:1006F000EBCF0093BB0084E88093BC002FEF30E089
:1007000011C02115310561F41092BC0080916C027A
:1007100090916D02019690936D0280936C0206C0D9
:10072000215030408091BC0087FFEBCF84E980935B
:10073000BC001F910F9108950F931F93082F162F40
:10074000880F0E94F2021093BB0084E88093BC00E3
:100750002FEF30E011C02115310561F41092BC007B
:1007600080916C0290916D02019690936D0280933E
:100770006C0206C0215030408091BC0087FFEBCF57
:10078000000F802F81600E94F20281E00E942C0302
:100790001F910F9108951F93CF93DF93EB01142FB7
:1007A000880F81600E94F20208C0115080E011168B
:1007B0000CF481E00E942C0389931123B1F7DF919F
:1007C000CF911F910895FF920F931F93CF93DF93C3
:1007D000082F162FEA01F22E880F0E94F2021093C2
:1007E000BB0084E88093BC002FEF30E011C02115DE
:1007F000310561F41092BC0080916C0290916D0201
:10080000019690936D0280936C0206C02150304097
:100810008091BC0087FFEBCF802FBE014F2D0E943F
:10082000CB03CDB7DEB7E5E00C940B2188E66BE691
:1008300040E80E94550362E370E080E090E00E948F
:100840005D0288E66BE643E00E94550388E66AE1B4
:1008500040E00E94550388E66BE148E10E945503A1
:1008600088E665E70E949C0390E08E77883609F45D
:1008700091E0892F0895A6E0B0E0E1E4F4E00C9463
:10088000EC208C017B016A0188E663E4AE014F5FD6
:100890005F4F26E00E94E303998180E02A8130E0E7
:1008A000822B932BF801918380839B8180E02C81A4
:1008B00030E0822B932BF701918380839D8180E030
:1008C0002E8130E0822B932BF60191838083269634
:1008D000E8E00C9408211F920F920FB60F9211249A
:1008E0002F938F939F93EF93FF9390917C0097703A
:1008F000E92FF0E0EE0FFF1FE259FD4F0190F0816C
:10090000E02D809179008083292F16C0E22FF0E03E
:10091000EE0FFF1FE259FD4F80819181892B61F01D
:1009200080917C00887F282B20937C0080917A0026
:10093000806480937A0003C02F5F283039F7FF91DD
:10094000EF919F918F912F910F900FBE0F901F905D
:100950001895CF93DF93AEE6B2E0FD0140E050E0A2
:1009600061E070E080819181892B79F087B1EB01A2
:10097000042E02C0CC0FDD1F0A94E2F79E012095E1
:10098000822387B988B1282328B94F5F5F4F3296F9
:100990004630510539F780E680937C0010927B0049
:1009A0008FE880937A0020E08D919C911197892B9C
:1009B00061F080917C00887F282B20937C008091BF
:1009C0007A00806480937A0004C02F5F12962830EA
:1009D00059F7DF91CF910895EAE7F2E040E050E067
:1009E00061E070E080819181892B79F034B1CB0195
:1009F000042E02C0880F991F0A94E2F7282F209531
:100A0000232324B925B1822B85B94F5F5F4F3296DE
:100A10004830510539F7EAE8F2E040E050E061E0A3
:100A200070E080819181892B79F037B1CB01042E60
:100A300002C0880F991F0A94E2F7282F20952323DC
:100A400027B928B1822B88B94F5F5F4F3296483063
:100A5000510539F7EAE9F2E040E050E061E070E08A
:100A600080819181892B79F03AB1CB01042E02C0AB
:100A7000880F991F0A94E2F7282F209523232AB97B
:100A80002BB1822B8BB94F5F5F4F329648305105A7
:100A900039F7089560E070E040E050E0A1E0B0E098
:100AA000362FFA01E658FD4F0190F081E02D309786
:100AB00051F023B1CD01062E02C0880F991F0A9470
:100AC000E2F728232083FA01E657FD4F0190F081D9
:100AD000E02D309751F026B1CD01032E02C0880FD2
:100AE000991F0A94E2F728232083FA01E656FD4F66
:100AF0000190F081E02D309749F029B1CD0102C07D
:100B0000880F991F3A95E2F7282320836F5F7F4F64
:100B10004E5F5F4F4031510519F60895A6E0B0E0F1
:100B2000E4E9F5E00C94E2207A8369831C012B014F
:100B30009E838D839B012A5F3F4F3C832B83ED81F6
:100B4000FE810681178180819181081B190B380174
:100B5000882477FC8094982CF10182899389A48958
:100B6000B589860D971DA81DB91D268D378D40A10D
:100B700051A1AA24BB246501A21AB30AC40AD50A4A
:100B80008A159B05AC05BD054CF05C016D0128176D
:100B900039074A075B0714F459016A01F101A28A77
:100BA000B38AC48AD58AED81FE8184859585AA277A
:100BB00097FDA095BA2FA4019301281B390B4A0B6E
:100BC0005B0BCA01B90115870487F20124853585BD
:100BD000442737FD4095542F0E9486207B018C01CD
:100BE00052E015950795F794E7945A95D1F7F201DD
:100BF00020813181442737FD4095542FC401B30132
:100C00000E94862043E095958795779567954A954C
:100C1000D1F7E60EF71E081F191FF2012681378152
:100C2000442737FD4095542FC601B5010E94862008
:100C300036E095958795779567953A95D1F7E60EC5
:100C4000F71E081F191FE981FA81028804C0159553
:100C50000795F794E7940A94D2F7ED81FE81F3A605
:100C6000E2A63296FE83ED8324E030E0220E331EAE
:100C700042E050E0440E551E8B819C814816590677
:100C800009F05DCF2696E2E10C94FE20A6E0B0E0EC
:100C9000ECE4F6E00C94F220CE010196BE016D5F0B
:100CA0007F4FAE014B5F5F4F0E943B048B819C8165
:100CB000909581959F4F9093030280930202498102
:100CC0005A8166277727641B750B70930502609322
:100CD00004022D813E813093070220930602809109
:100CE0002502909126028230910519F00397B1F404
:100CF00009C03093050220930402509307024093E9
:100D000006020CC088279927821B930B909305023B
:100D10008093040270930702609306022696E2E035
:100D20000C940E21A0E0B0E0E8E9F6E00C94EA2093
:100D30007C018C01EB01F70160E070E02BC02181A8
:100D4000328188819981281739070CF4C90192836F
:100D500081832185328588819981821793070CF4DC
:100D6000C9019287818729913991442737FD4095A0
:100D7000542FD8011F96AD90BD90CD90DC90529726
:100D8000A20EB31EC41ED51E1F96AD92BD92CD926B
:100D9000DC9252979B016F5F7F4F32960C5F1F4F23
:100DA000D70111968D919C911297281739073CF223
:100DB000CDB7DEB7EAE00C940621A0E0B0E0E3EEA8
:100DC000F6E00C94EC20EC017C0163E2C62ED12C01
:100DD000C80ED91E00E010E011C02BA53CA5442789
:100DE00037FD4095542FF701678570898189928975
:100DF0000E94C720F601219331936F0198010F5F84
:100E00001F4F84E090E0E80EF91E89819A8128172F
:100E100039071CF3CDB7DEB7E8E00C940821A8E051
:100E2000B0E0E5E1F7E00C94EC208C018091D0017A
:100E30009091D1019A8389838091D4019091D501B9
:100E40009C838B838091D6019091D7019E838D8363
:100E50008091D2019091D30198878F83C801BE0100
:100E60006F5F7F4F0E949206D8019B968D919C9157
:100E70009C9701969C969C938E939B9784369105A4
:100E800009F070C01196ED90FC9012976801F8017E
:100E900060E040E050E00CC083859485238134817C
:100EA000821B930B44970CF46F5F4F5F5F4F32963A
:100EB0004E155F058CF3862F992787FD90958E152B
:100EC0009F05F9F4C8010E94DD06F80183A194A1F1
:100ED000909314018093130185A196A1909316011C
:100EE0008093150187A190A5909318018093170115
:100EF00081A592A590931A018093190181E08083C6
:100F000031C0D8011C9284E090E012969C938E939D
:100F10001197F80140E050E07FEFE72E7FE7F72ED2
:100F200060E070E80BC0F282E18272876187D601CF
:100F30001F961D921D921D921C9252979A014F5F0F
:100F40005F4F329684E090E0C80ED91ED80111960A
:100F50008D919C911297281739072CF39C961C921F
:100F60001E929B972896E8E00C940821A6E0B0E03A
:100F7000ECEBF7E00C94EC208C0180910202909154
:100F800003029A83898380910402909105029C83D5
:100F90008B8380910602909107029E838D83C80106
:100FA000BE016F5F7F4F0E949206F80183A594A552
:100FB000019694A783A78C52914009F064C0F80170
:100FC000E180F280D80160E040E050E00CC0838511
:100FD000948523813481821B930BC2970CF46F5F3D
:100FE0004F5F5F4F32964E155F058CF3862F992722
:100FF00087FD90958E159F05C9F4C8010E94DD06F6
:10100000F80183A194A19093FD018093FC0185A137
:1010100096A19093FF018093FE0187A190A59093E4
:1010200001028093000281E080832DC0F8011082CC
:1010300083E090E092838183680140E050E0EFEF2D
:10104000EE2EEFE7FE2E60E070E80DC01296FC92E7
:10105000EE9211971A967C936E931997F601178664
:10106000108A118A128A9A014F5F5F4F129684E0AC
:1010700090E0C80ED91EF8018181928128173907A6
:101080002CF314A613A62696E8E00C9408214091B0
:1010900003015091040180910301909104014817CC
:1010A000590721F04091D0015091D1015093D101C5
:1010B0004093D001209105013091060180910501F6
:1010C000909106012817390721F02091D401309121
:1010D000D5013093D5012093D4012091070130919F
:1010E000080180910701909108012817390721F024
:1010F0002091D6013091D7013093D7012093D601AA
:101100002091090130910A018091090190910A0111
:101110002817390721F02091D2013091D301309363
:10112000D3012093D20120910B0130910C018091C9
:101130000B0190910C012817390721F02091D8015B
:101140003091D9013093D9012093D80120910D011C
:1011500030910E0180910D0190910E0128173907F1
:1011600021F02091DA013091DB013093DB012093F3
:10117000DA0120910F013091100180910F019091BF
:1011800010012817390721F02091DC013091DD0191
:101190003093DD012093DC01209111013091120187
:1011A00080911101909112012817390721F02091A7
:1011B000DE013091DF013093DF012093DE01809169
:1011C000590290915A02029721F45093D30140930F
:1011D000D2010895FC018091590290915A02833006
:1011E000910579F18430910524F4029709F0B4C097
:1011F00007C08430910509F462C0059709F0ACC0BE
:10120000808191812091D0013091D101820F931F73
:101210009093EF018093EE01808191812091D20122
:101220003091D301820F931F9093F5018093F401C5
:10123000828193812091D4013091D501820F931F37
:1012400031C0408151818091D0019091D101480FEE
:10125000591F628173818091D4019091D501680FEB
:10126000791FCB01840F951F9C01B3E0359527951D
:10127000BA95E1F795958795280F391F2757314083
:101280003093EF012093EE01461B570BCA01B3E0E8
:1012900095958795BA95E1F755954795840F951FD4
:1012A00084529A4F9093F1018093F001848195814B
:1012B0002091D6013091D701820F931F49C08081C0
:1012C00091812091D0013091D101820F931F909391
:1012D000EF018093EE01808191812091D2013091C4
:1012E000D301820F931F9093F5018093F4016281E3
:1012F00073818091D4019091D501680F791F448149
:1013000055818091D6019091D701480F591FCA018C
:10131000860F971F9C01E3E035952795EA95E1F745
:1013200095958795280F391F275731403093F10144
:101330002093F001461B570BCA01A3E095958795B2
:10134000AA95E1F755954795840F951F84529A4FBA
:101350009093F3018093F2018091DC019091DD0183
:101360009093F7018093F6018091DE019091DF0167
:101370009093F9018093F8018091DA019091DB015B
:101380009093FB018093FA010895A8E0B0E0EBECA4
:10139000F9E00C94F02080912102909122020397B1
:1013A000A9F5FE01319688E0DF011D928A95E9F7E3
:1013B000CF010E94EA08A8E9B1E00EE012E046E1A0
:1013C00052E06D917C911197F80120813181FB01F0
:1013D00080819181281739070CF4C901F8019183A4
:1013E0008083FA0120813181FB0180819181821704
:1013F00093070CF4C901FA0181939193AF011296FE
:101400000E5F1F4FF1E0A03ABF07D9F688E092E0E7
:101410000E94EA0880E090E0FC01E856FE4FA081BF
:10142000B1814D915C911197FC01E25FFD4F0190FC
:10143000F081E02D4E175F0754F0FC01EA5EFD4F8E
:1014400020813181FA01241735070CF4F901ED935D
:10145000FC93029688309105F9F62896E4E00C9406
:101460000C2181E08093AB022FB7F8948091EE01BC
:101470009091EF019093E1018093E0018091F00160
:101480009091F1019093E3018093E2018091F20148
:101490009091F3019093E5018093E4018091F40130
:1014A0009091F5019093E7018093E6018091F60118
:1014B0009091F7019093E9018093E8018091F80100
:1014C0009091F9019093EB018093EA018091FA01E8
:1014D0009091FB019093ED018093EC01EFE6F0E039
:1014E000808182608083B19A809184009091850090
:1014F000049690938900809388002FBF0895FC0183
:10150000828183832091D0013091D101458154E0C3
:10151000213B350714F490E00DC0C901845195407A
:101520008159914010F491E005C0285037400CF4E7
:1015300053C092E0442319F082E0891B982F9083D6
:101540002091D4013091D501468154E0213B3507EB
:1015500014F490E00CC0C901845195408159914028
:1015600010F491E004C028503740C4F192E04423C5
:1015700019F082E0891B982F91838781882351F489
:101580008081882329F0823029F481E085831082CC
:1015900081E087838085882361F48181882319F025
:1015A000823039F404C081E0868382E0818381E067
:1015B000808730813F5F818123E08202C001112456
:1015C000380F3283938180E0391729F081E09295BA
:1015D000907F932B948308959081B1CF9181CCCF4C
:1015E000282F30E03F6F220F331FEFB7F894809120
:1015F000840090918500AC01405C5F4FBC016D5D43
:101600007A4F8091840090918500DA01A81BB90B74
:101610001A161B06B4F320FF02C03F9801C03F9A80
:101620004617570729F03695279545575F4FE9CF5D
:10163000EFBF0895EFB7F894379B49C016C02091CB
:101640008400309185002058314C04C08FEF9FEF0B
:10165000379B0BC08091840090918500B901681B75
:10166000790B1616170614F4F1CFAC014150504017
:10167000CA0101961816190614F34F5F5F4F19F44B
:1016800020E030E826C08091840090918500AC0174
:1016900040565F4F20E030E0BC0163597B4F8091A2
:1016A000840090918500DA01A81BB90B1A161B065D
:1016B000B4F386B13695279590E080789070282B0A
:1016C000392B4617570729F045575F4FE8CF20E0E1
:1016D00030E4EFBFC9010895EF92FF920F931F937B
:1016E000CF93DF93E82E192F062FF62E84E20E9467
:1016F000F00A802F0E94F00A2E2D312FC901EC0133
:1017000004C08991F80E0E94F00A9E012E1920173C
:10171000C4F38F2D81950E94F00ACDB7DEB7E6E0C5
:101720000C940A218F929F92AF92BF92CF92DF9238
:10173000FF920F931F93CF93DF934C015A01C0E0A8
:10174000D0E0C62EDD24C7FCD09402C0812F182F14
:10175000C5010E941A0B9C018070907C892B69F551
:10176000822FC130D10559F0C230D105A1F02097A8
:1017700079F7243259F7812FC1E0D0E0E8CF90E02B
:10178000C816D90614F4812F15C0822FF22EC2E09C
:10179000D0E000E0DCCFF20E812F8150112331F038
:1017A000F401E00FF11D20830F5FD1CFFF2011F472
:1017B00081E004C0C0E0D0E0CACF80E0DF91CF91EB
:1017C0001F910F91FF90DF90CF90BF90AF909F90AF
:1017D0008F900895CF92DF92EF92FF921F93E09146
:1017E0006301F0916401A081B18114962D913C9127
:1017F0001597CF01F9010995892B09F470C0A091C3
:101800006301B0916401ED91FC9111970680F7811D
:10181000E02DCD010995182F0E941D029B01AC01FE
:101820008091E1029091E202A091E302B091E40282
:1018300069017A01C81AD90AEA0AFB0AD701C60166
:1018400089559B41A040B04014F01092E5022093CE
:10185000E1023093E2024093E3025093E40280916C
:10186000E502E82FFF27E7FDF095EA51FD4F1083D1
:101870008F5F8093E5028F309CF1A8EEB2E05C911F
:1018800040E011968C91119790E0842B952B292F95
:101890002695269526952F702830C4F4E0912302D2
:1018A000F0912402329733E0EE0FFF1F3A95E1F7F3
:1018B000E20FF11DEE0FFF1FE55EFE4F0190F0817C
:1018C000E02D977084529E4F91838083129682E020
:1018D000A63FB807A1F61092E50281E002C001C060
:1018E00080E01F91FF90EF90DF90CF90089580915E
:1018F00063019091640140E052EC61E070E00E946D
:10190000771708951F93CF93DF93EC01142F4BE3C8
:1019100050E026EE31E00E94AE018881811711F07F
:101920008FEF12C090E020E030E0FE01E20FF31FE5
:101930008081980F2F5F3F4F2B333105B1F79923EB
:1019400011F480E001C08EEFDF91CF911F910895D7
:10195000DC0140E020E030E0FD01E20FF31F808178
:10196000480F2F5F3F4F2A333105B1F74195DA9683
:101970004C93DA97CB01BD014BE350E02EEE31E002
:101980000E94CA010895A3E1B0E0E9ECFCE00C94E8
:10199000E2201C0181E089838FE192E09B838A83AE
:1019A00002969D838C8302969F838E8302969987ED
:1019B000888702969B878A8702969D878C870296E6
:1019C0009F878E870296998B888BCE0101969B8B81
:1019D0008A8BD0901F02DD0CCC246624EE24FF24D9
:1019E000870130E8832E3AE1932E36E0A32EB12C06
:1019F00022E0722E2C010E941D029B01AC01DC0131
:101A0000CB018E199F09A00BB10B88169906AA0667
:101A1000BB060CF051C0171424F5872D992787FDBC
:101A20009095FC01E170F07080FD03C088E097E0C4
:101A300002C08CED95E09093F1018093F0018CED64
:101A400095E09093EF018093EE01EE0FFF1FEE0FF4
:101A5000FF1FE258FE4F80809180A280B3807A946D
:101A600029C0DD2039F11D1424F46CE271E0A1E0FD
:101A700003C064ED7EEFAFEF8D2D992787FD909524
:101A8000FC01E170F07080FF03C08CED95E003C0B5
:101A9000CB0184529A4F9093EF018093EE01EE0FA9
:101AA000FF1FEE0FFF1FE258FE4F80809180A28043
:101AB000B380DA1A79018A010E94EA0B882319F0AF
:101AC00091E09093AA028091AA02882329F01092B3
:101AD000AA020E94470802C0662041F08091AB0232
:101AE000882309F08CC00E94310A6624772009F00F
:101AF00082CFC1010E947F0A882309F47CCFF101C3
:101B00008481843561F0853520F4823509F063C025
:101B100013C0863559F0883509F05DC02AC0F1E060
:101B2000FC1514F0CC2470C0CA946EC086E08C15ED
:101B30000CF468C0C39468C0AC2DBB27A7FDB0955A
:101B4000FD01EE0FFF1FE40DF51D0180F281E02D78
:101B50008081282F332727FD30952F5F3F4FAA57CD
:101B6000BE4F8C91992787FD909582179307F4F4C7
:101B70001CC0AC2DBB27A7FDB095FD01EE0FFF1FCC
:101B8000E40DF51D0180F281E02D8081282F33279F
:101B900027FD309521503040A157BE4F8C91992799
:101BA00087FD9095281739070CF49C01208320E0CD
:101BB0008C2D992787FD9095FC01EE0FFF1FE40DFA
:101BC000F51D0180F281E02DD080DD0C222319F07B
:101BD0000196782E770C8981823009F00CCF8EE146
:101BE00092E060E070E00E94A80C8EE192E060E07C
:101BF00071E00E94A80C6396E2E10C94FE2066243A
:101C0000639474CF48E0C42E21E0D2CFADE8B0E0B9
:101C1000ECE0FEE00C94E2200E941D021B012C016E
:101C2000DE011196E8E7F1E086E001900D92815027
:101C3000E1F781E08C8B8B8B85E08D8B198E188E74
:101C40001B8E1A8E84E090E09E8F8D8FFE017F9612
:101C5000DE019F9640E050E00FEF1FE760E070E884
:101C600009C011830083718760871D921D921D92A8
:101C70001D9232969A014F5F5F4F8D8D9E8D281772
:101C800039077CF3FE01E95BFF4F11821082FE01F0
:101C9000E75BFF4F83E090E092838183DF0113963F
:101CA000BF016D5E7F4F40E050E06F018FEFE82E87
:101CB0008FE7F82E00E010E80EC01196FC92EE922D
:101CC00019961C930E931897FB0111921192119281
:101CD0001192BF0112969A014F5F5F4FF601818109
:101CE0009281281739074CF31C8E108214A613A674
:101CF0002092DD023092DE024092DF025092E0023A
:101D0000C657DF4F288239824A825B82CA58D04048
:101D1000CA57DF4F288239824A825B82C658D04038
:101D2000CE57DF4F288239824A825B82C258D04028
:101D300082017101C258DF4F288239824A825B8258
:101D4000CE57D040EB962CAE3DAE4EAE5FAEEB978D
:101D5000EE961FAEEE97ED961FAEED97F1E0EC9686
:101D6000FFAFEC9708C0C258DF4FA882B982CA8281
:101D7000DB82CE57D0400E941D025B016C010E94A5
:101D800085020E94EA0B882319F021E02093AA0221
:101D90008091AA02882399F4D601C501C657DF4F66
:101DA000488159816A817B81CA58D040841B950B38
:101DB000A60BB70B81539547A040B040D4F11092C9
:101DC000AA020E9447088C8D882369F0C657DF4F0E
:101DD000A882B982CA82DB82CA58D04061E0EE96FE
:101DE0006FAFEE9726C0CE014C960E940F072A9641
:101DF0008FAD2A97882311F492E001C090E020E093
:101E00008C8D882309F421E0920F9093610288EC75
:101E100090E09093670280936602C657DF4FA882D6
:101E2000B982CA82DB82CA58D04091E0EE969FAF59
:101E3000EE978091AB02882339F5EE96EFADEE97E1
:101E4000EE2311F1D601C501CA57DF4F2881398130
:101E50004A815B81C658D040821B930BA40BB50B03
:101E600081559644A040B0407CF00E94C5090E9474
:101E7000310ACA57DF4FA882B982CA82DB82C658AC
:101E8000D040EE961FAEEE97D601C501CE57DF4F7C
:101E9000488159816A817B81C258D040841B950B4F
:101EA000A60BB70B81519742A040B04054F10E945D
:101EB00046062A968FAD2A978823D9F4CE01875BF0
:101EC0009F4F0E94B6072A968FAD2A97882311F458
:101ED00092E001C090E020E08C8D882309F421E09D
:101EE000920F9093610268EC70E0709367026093C8
:101EF0006602CE57DF4FA882B982CA82DB82C258FF
:101F0000D040EC967FADEC97772309F44EC0CE011C
:101F100043960E947F0A882309F447C0ED968FAD4F
:101F2000ED97E82FFF27E7FDF095E159FE4F9F89D8
:101F30008081981721F0ED961FAEED9707C0ED96C2
:101F40009FADED979F5FED969FAFED97ED962FAD0F
:101F5000ED97E22FFF27E7FDF095E159FE4F8081D5
:101F60008F3F81F4CE0143960E94C30C2EE088E19E
:101F700090E00FB6F894A895809360000FBE209370
:101F80006000FFCFD601C50182199309A409B509E4
:101F9000815C914EA44EB04024F0EC961FAEEC97BD
:101FA00004C041E0EC964FAFEC978C8D882309F488
:101FB000E2CE2A968FAD2A97882309F4DCCED6018B
:101FC000C5018E199F09A00BB10B81519742A0400A
:101FD000B0400CF416C380915B0290915C0281309A
:101FE000910559F48091D8019091D901845C954074
:101FF0000CF09BC080E090E00DC0892B09F095C0EB
:102000008091D8019091D901855F95400CF48DC0E5
:1020100081E090E090935C0280935B02892B11F049
:1020200084E001C080E08093610288EC90E09093AE
:102030006702809366021092BE021092BF02109255
:10204000C0021092C1021092CA021092CB021092EA
:10205000CC021092CD021092C2021092C3021092D2
:10206000C4021092C5021092CE021092CF021092BA
:10207000D0021092D1021092C6021092C7021092A2
:10208000C8021092C9021092D2021092D30210928A
:10209000D4021092D50280912D0290912E020297C7
:1020A00009F043C0D601C501EB962CAD3DAD4EAD58
:1020B0005FADEB97821B930BA40BB50B8152914A3A
:1020C000A740B0401CF0E7961FAEE797E7964FADEC
:1020D000E7974F5FE7964FAFE797433004F1809162
:1020E000D0019091D10190931401809313018091BC
:1020F000D4019091D50190931601809315018091A0
:10210000D6019091D7019093180180931701809187
:10211000D2019091D30190931A0180931901EB960B
:10212000ACAEBDAECEAEDFAEEB97E091D201F0919A
:10213000D3018091D0019091D101E80FF91F8091D6
:10214000130190911401E81BF90B809119019091F2
:102150001A01E81BF90B4091D4015091D5018091EF
:10216000150190911601481B590BA091D601B09111
:10217000D7018091170190911801A81BB90B80918C
:1021800027028150282F332727FD3095CF019595C1
:10219000879597FF03C0909581959F4F022E02C0AF
:1021A000880F991F0A94E2F761E08139960714F0CD
:1021B00080E991E060E971E0681B790B78876F83B3
:1021C000CA0157FF04C088279927841B950B022E4C
:1021D00002C0880F991F0A94E2F771E081399707CE
:1021E00014F080E991E060E971E0681B790B7A876F
:1021F0006987CD01B7FF04C0882799278A1B9B0BED
:10220000BC0102C0660F771F2A95E2F781E06139B1
:10221000780714F060E971E010E9812E11E0912E49
:10222000861A970A9C868B862091D8013091D90115
:1022300095E02D3D39072CF067E02D3636075CF030
:1022400007C08CED95E0821B930B815991401CF0E7
:1022500000E911E00CC085E02D3D380724F089012C
:102260000C5D154004C00CED15E0021B130BE09053
:102270005B02F0905C0291E0E916F10459F0E11480
:10228000F10409F054C080912B0290912C02029726
:1022900009F04DC08091290290912A0201979F0177
:1022A000082E02C0220F331F0A94E2F701963E87E0
:1022B0002D87082E02C0440F551F0A94E2F7588B51
:1022C0004F87AD0102C0440F551F8A95E2F75A8B24
:1022D000498B89819A8197FD05C088279927821BA0
:1022E000930B01C0C9019093AD028093AC028B8126
:1022F0009C812F85388997FD05C088279927821BE7
:10230000930B01C0C9019093AF028093AE028D81FF
:102310009E8197FD03C0509541955F4F5093B10248
:102320004093B002E1E0EE16F10471F055C0109256
:10233000AD021092AC021092AF021092AE02109257
:10234000B1021092B00248C06F817885882777FD6E
:102350008095982F24EF3FEB40E050E00E948620CC
:10236000B9E09595879577956795BA95D1F760937C
:10237000CA027093CB028093CC029093CD02698500
:102380007A85882777FD8095982F0E948620A9E07E
:102390009595879577956795AA95D1F76093CE0225
:1023A0007093CF028093D0029093D102B40188271A
:1023B00077FD8095982F0E948620F9E09595879566
:1023C00077956795FA95D1F76093D2027093D3020F
:1023D0008093D4029093D50220910202309103029F
:1023E0008091FC019091FD01281B390BF0E2203017
:1023F0003F0714F02FEF3FE1C90120EE8030920734
:1024000014F480E090EE9093B3028093B202209196
:102410000402309105028091FE019091FF01281B7A
:10242000390B40E22030340714F02FEF3FE1C901AF
:1024300050EE2030350714F480E090EE9093B50212
:102440008093B4022091060230910702809100022D
:1024500090910102281B390B60E22030360714F0FE
:102460002FEF3FE1C90170EE2030370714F480E010
:1024700090EE9093B7028093B602EF2819F065E4CE
:1024800072E002C062E372E08CEA92E00E948E0584
:10249000EE24FF243801882477FC8094982C87014F
:1024A000085F1D4FE1E0F0E0EC0FFD1FEE0DFF1D9A
:1024B00060817181882777FD8095982FF701E45519
:1024C000FD4F22A533A5442737FD4095542F0E9488
:1024D0008620E7E09595879577956795EA95D1F7FA
:1024E000E7E0F0E0EC0FFD1FEE0DFF1D20813181D4
:1024F000442737FD4095542F0E9486209B01AC0154
:1025000069E055954795379527956A95D1F7C401A8
:10251000B3010E94862049E0959587957795679548
:102520004A95D1F7F8017183608322E030E0E20E32
:10253000F31E36E0E316F10409F0B1CF2091DC027E
:1025400012160CF05CC08091DD029091DE02A09129
:10255000DF02B091E002B601A501481B590B6A0BDE
:102560007B0BDB01CA0181549D40A340B0405CF06D
:1025700021502093DC02A092DD02B092DE02C092D4
:10258000DF02D092E0028091DC02992787FD9095CE
:102590004091080250910902BC016170707080FF87
:1025A00003C026E930E002C02AE63FEF240F351FC2
:1025B000309309022093080240910A0250910B02C5
:1025C0006115710519F026E930E002C02AE63FEFF7
:1025D000240F351F30930B0220930A0220910C0226
:1025E00030910D02672B19F48AE69FEF02C086E94D
:1025F00090E0820F931F90930D0280930C0286014E
:102600007501D601C501C258DF4F288139814A8141
:102610005B81CE57D040821B930BA40BB50B8C591A
:10262000914AA740B0400CF4A6CB80912F0280388D
:1026300039F480910001282F30E02058304004C048
:10264000282F332727FD309580913002803839F4C8
:1026500080910101482F50E04058504004C0482F5D
:10266000552747FD509580913102803831F4809193
:10267000020190E08058904003C0992787FD909513
:102680003A8329835C834B839E838D83295F3F4FED
:102690002F30310510F41A8219828B819C810796A4
:1026A0000F9710F41C821B828D819E8107960F97D5
:1026B00010F41E821D82EEE6F2E020E0808191811E
:1026C000892B61F080917C00887F282B20937C00EF
:1026D00080917A00806480937A0045CB2F5F329698
:1026E000283061F740CBACE5B0E0E9E7F3E10C94CA
:1026F000EC201092800081E0809381003F98479801
:1027000048E552E000E06E010894C11CD11C92E043
:10271000E92EF12CEC0EFD1EC6016CE50E94920B19
:10272000882309F445C089818230B9F0833018F4D8
:10273000813029F406C08330D1F0843009F110E0F3
:102740002AC0C70160E870E048E050E026EE31E0C2
:102750000E94AE0110E069E01FC080E890E0B70180
:1027600048E050E02EEE31E00E94CA0113C0C701DC
:1027700060E070E046E00E94820C10E06CE30CC068
:10278000C70160E070E00E94A80CC70160E071E042
:102790000E94A80C11E061E0898180688983C601EC
:1027A0000E946C0B01E044EF51E0112309F4B4CF17
:1027B000802FC45ADF4FE8E00C9408211F931FEFCD
:1027C0001F5FE12FFF27E7FDF095EE0FFF1FE55B91
:1027D000FE4F80819181892B69F41F5FE12FFF27D4
:1027E000E7FDF095EE0FFF1FE55BFE4F80819181C5
:1027F000892B59F0E12FFF27E7FDF095E55AFE4FB1
:10280000808161E00E945D1DDBCF1F9108951F92C2
:102810000F920FB60F9211242F933F934F935F9314
:102820006F937F938F939F93AF93BF93CF93DF93D8
:10283000EF93FF93E0910003FF27E7FDF095E55A42
:10284000FE4F808160E00E94D51DE091FF02E7FD10
:102850004BC0C0918400D0918500FF27E7FDF09523
:10286000E55AFE4F808161E00E94D51D8091FF02F4
:10287000E82FFF27E7FDF095EE0FFF1FE55BFE4F0A
:102880000190F081E02D2081318180930003482F59
:102890004F5F4093FF02E42FFF27E7FDF095EE0F17
:1028A000FF1FE55BFE4F80819181892B91F4E42F1E
:1028B000EF5FE093FF02FF27E7FDF095EE0FFF1FAC
:1028C000E55BFE4F80819181892B19F48FEF809316
:1028D000FF0222503040220F331F2C0F3D1F309338
:1028E00089002093880009C01092FF021092AB0269
:1028F00080916F008D7F80936F00FF91EF91DF914A
:10290000CF91BF91AF919F918F917F916F915F9187
:102910004F913F912F910F900FBE0F901F901895E0
:10292000EF92FF920F931F937A018B01882341F05E
:1029300083E061E00E94D51D82E061E00E94D51D28
:102940001092B90060E074E284EF90E0A801970172
:102950000E94A52020513040404050405695479558
:10296000379527952093B8001F910F91FF90EF9016
:10297000089581E040E85AE166E070E00E9490141A
:102980000E941604882349F485E08093620288EC53
:1029900090E090936902809368020895EF92FF920D
:1029A0000F931F93CF93DF93F82EE62E862F61E0CF
:1029B0000E945D1D8F2D60E00E945D1D8F2D61E0E6
:1029C0000E94D51D6AE070E080E090E00E945D0208
:1029D000C0E0D0E0CE018170082F8E2D602F0E94C4
:1029E000D51D8F2D0E94081E112707FD10958017F9
:1029F000910711F000E005C02196C830D10551F7CC
:102A000001E08E2D60E00E945D1D802FCDB7DEB706
:102A1000E6E00C940A21A0E8B0E0E1E1F5E10C94D5
:102A2000EE20559A8091220490912304009711F092
:102A30009C0102C026E234E0CE010196821B930B7A
:102A4000803891054CF484E1809362028EE190E03D
:102A5000909369028093680221E030E03093200275
:102A600020931F0280E880932F028093300280938E
:102A70003102309322022093210283E090E0909370
:102A80002402809323023093260220932502309360
:102A900028022093270290932A02809329023093E0
:102AA0002C0220932B0282E090E090932E028093E0
:102AB0002D0284EF91E090933302809332021092C2
:102AC00039021092380290933F0280933E02909315
:102AD00035028093340210923B0210923A02909396
:102AE0004102809340029093370280933602109205
:102AF0003D0210923C02909343028093420228E0F0
:102B000020934402909346028093450290934C0296
:102B100080934B029093520280935102909348020B
:102B20008093470290934E0280934D0290935402FB
:102B30008093530290934A028093490290935002EB
:102B400080934F0290935602809355022093570230
:102B500085E066E00E94CE14882311F400E001C0F5
:102B600007E0CE01039660E870E048E050E026EE12
:102B700031E00E94AE01002361F48B81833049F47F
:102B80008C819D81AE81BF818E549146AC4BB0400B
:102B900071F083E08B838EE491E6ACEBB0E08C8344
:102BA0009D83AE83BF83188619861A860860CE017E
:102BB0000B9660E070E046E00E94820C87FD0260A8
:102BC000CE018A5B9F4F60E071E046E00E94820C7C
:102BD00087FD046083E08093DC02E02EFF24C701C0
:102BE000867090708230910531F08430910579F0D3
:102BF000892B81F119C08E010A5B1F4FC80160E06B
:102C000070E00E94A80C88858F5F88870BC08E01BA
:102C1000055F1F4FC80160E071E00E94A80C898524
:102C20008F5F8987C80118C086E080931E028EE1FD
:102C300092E060E070E00E94A80C8EE192E060E01B
:102C400071E00E94A80C8A858F5F8A8789E0809353
:102C5000DC020AC0CE010B96AEE1B2E0FC018BE3D0
:102C600001900D928150E1F7C7018E709070892B11
:102C700059F080E890E0BE016D5F7F4F48E050E082
:102C80002EEE31E00E94CA01E0FE0BC000E28BB1E3
:102C900080278BB964E670E080E090E00E94AE1C73
:102CA000F6CF0E947313882361F02EE088E190E054
:102CB0000FB6F894A895809360000FBE2093600033
:102CC000FFCF1092800082E08093810081E08093AA
:102CD0006F0085B5887F85BD0E94770C80912102A9
:102CE0009091220282309105D1F08330910561F1FB
:102CF0000197F1F580E090E048EE53E020ED37E0F9
:102D0000FC01E25FFD4F51834083FC01EA5EFD4F11
:102D10003183208302968830910591F729C080E0A5
:102D200090E04CE454E02CE637E0FC01E25FFD4F1C
:102D300051834083FC01EA5EFD4F3183208302967C
:102D40008830910591F714C080E090E042EE54E0A5
:102D500026ED36E0FC01E25FFD4F51834083FC012C
:102D6000EA5EFD4F3183208302968830910591F70A
:102D70000E94EC040E944A0520911F0280912002CB
:102D80002093590280935A0288EE91E09093540167
:102D90008093530185E080935F018AEE91E09093E8
:102DA00056018093550186E0809360012093600274
:102DB00088E592E090936502809364020E94A904E2
:102DC0000E94DE130E94B9140E9447080E94C509A0
:102DD000C058DF4FE6E00C940A2108951F920F922D
:102DE0000FB60F9211242F933F934F938F939F937E
:102DF000EF93FF938091C80082FD1DC04091CE00EB
:102E000020914703309148032F5F3F4F2F7330705D
:102E10008091490390914A032817390771F0E09196
:102E20004703F0914803E95FFC4F40833093480328
:102E30002093470302C08091CE00FF91EF919F91B4
:102E40008F914F913F912F910F900FBE0F901F9038
:102E50001895E0919B03F0919C03E05CFF4F8191FA
:102E6000919120813181821B930B8F739070892BFC
:102E700011F00E94ED1608951F920F920FB60F9257
:102E800011242F933F938F939F93EF93FF93209160
:102E90008B0330918C0380918D0390918E032817C2
:102EA000390731F48091C9008F7D8093C90014C027
:102EB000E0918D03F0918E03E55BFC4F20818091C2
:102EC0008D0390918E0301968F73907090938E0373
:102ED00080938D032093CE00FF91EF919F918F916E
:102EE0003F912F910F900FBE0F901F901895AF92AA
:102EF000BF92DF92EF92FF920F931F93CF93DF93D6
:102F0000EC017A018B01DD24403081EE580780E02E
:102F1000680780E0780711F0DD24D39491E0A92EB2
:102F2000B12CEC89FD89DD2069F0C50108A002C043
:102F3000880F991F0A94E2F7808360E079E08DE3BF
:102F400090E005C0108260E874E88EE190E0A8018E
:102F500097010E94A5202150304040405040569596
:102F600047953795279580E12030380720F0DD2000
:102F700011F0DD24D6CFE889F9893083EA89FB890D
:102F8000208319A2EE89FF89408121E030E0C90148
:102F90000C8C02C0880F991F0A94E2F7482B4083DB
:102FA000EE89FF894081C9010D8C02C0880F991FED
:102FB0000A94E2F7482B4083EE89FF894081C901DA
:102FC0000E8C02C0880F991F0A94E2F7482B4083A9
:102FD000EE89FF8980810F8C02C0220F331F0A9473
:102FE000E2F7209528232083DF91CF911F910F9145
:102FF000FF90EF90DF90BF90AF900895DC011C969A
:10300000ED91FC911D97E05CFF4F21913191808102
:103010009181281B390B2F733070C9010895DC0191
:103020001C96ED91FC911D97E05CFF4F2081318152
:10303000E054F040DF01AE5BBF4F8D919C91119742
:103040002817390719F42FEF3FEF07C08D919C9196
:10305000E80FF91F8081282F30E0C9010895DC01B5
:103060001C96ED91FC911D97E05CFF4F2081318112
:10307000E054F040DF01AE5BBF4F8D919C91119702
:103080002817390719F42FEF3FEF10C08D919C914D
:103090001197E80FF91F20818D919C91119701964E
:1030A0008F73907011969C938E9330E0C9010895B0
:1030B000DC0191968C919197882339F05496ED918B
:1030C000FC915597808186FFF9CF91961C920895C7
:1030D000CF93DF93EC01EE85FF85E05CFF4F20810D
:1030E0003181E054F0402F5F3F4F2F733070DF018C
:1030F000AE5BBF4F8D919C91119728173907D1F383
:10310000E05CFF4F80819181E054F040E80FF91FAF
:103110006083EE85FF85E05CFF4F31832083EE897D
:10312000FF89208181E090E00F8C02C0880F991FF9
:103130000A94E2F7282B208381E089A3EC89FD899A
:1031400080818064808381E090E0DF91CF91089559
:10315000109292031092910388EE93E0A0E0B0E009
:103160008093930390939403A0939503B093960355
:1031700084EA91E09093900380938F0387E093E03B
:1031800090939C0380939B038BE493E090939E0326
:1031900080939D038DEC90E09093A00380939F0318
:1031A0008CEC90E09093A2038093A10388EC90E0D4
:1031B0009093A4038093A30389EC90E09093A603DB
:1031C0008093A5038AEC90E09093A8038093A703D3
:1031D0008EEC90E09093AA038093A90384E08093FF
:1031E000AB0383E08093AC0387E08093AD0385E07D
:1031F0008093AE0381E08093AF030895CF93DF9374
:103200000E94071D89EB93E00E94EA190E940B15AA
:10321000C9E2D7E10E94060E2097E1F30E94291728
:10322000F9CFA0E0B0E0E7E1F9E10C94EC207C01FB
:103230006B018A01C0E0D0E00FC0D6016D916D0135
:10324000D701ED91FC910190F081E02DC701099526
:10325000C80FD91F015010400115110571F7CE019B
:10326000CDB7DEB7E8E00C940821282F8091B30396
:103270008823C1F057FF1AC015C028989093B20355
:103280008091F1008193E217F307B9F741155105D9
:1032900039F08091F200882319F48BE68093E800DE
:1032A000AFBF02C04FEF5FEFCA010895AFB7F89408
:1032B00027702093E9008091F200282F30E0241736
:1032C00035070CF4A901FB019B01240F311D94E685
:1032D000DACFA1E0B0E0EFE6F9E10C94F220BE0114
:1032E0006F5F7F4F41E050E00E943519019719F060
:1032F0002FEF3FEF03C08981282F30E0C9012196CD
:10330000E2E00C940E21FF920F931F93F82E142FDE
:10331000052F4091B6035091B703212F302FC901DB
:10332000DC01FB016EEF29C0F7FE02C0949101C0E1
:1033300090812091B4033091B50324173507ACF484
:103340008091E8008570E1F38091E80082FF03C07E
:103350002FEF3FEF17C09093F100C90101968F73D3
:103360009070892B11F46093E8002F5F3F4F3093EA
:10337000B5032093B403119731961097A9F6812FC6
:10338000902F9C01C9011F910F91FF9008959C01FE
:103390008091E80082FFFCCFF901260F311D03C0A8
:1033A0008091F1008193E217F307D1F7289884E622
:1033B0008093B2038BEF8093E800CB010895809354
:1033C000E9008091F200882319F08AE38093E800F5
:1033D000089508951092B30381E08093D70080EAA6
:1033E0008093D80082E189BD09B400FEFDCF61E081
:1033F00070E080E090E00E94AE1C80E98093D800ED
:103400008CE08093E2001092E000559A209A089593
:10341000A0E0B0E0EEE0FAE10C94E520E82E842E86
:10342000752E8091B303882371F18B01242F352FE2
:10343000C901EC017AEFF72E67E0962E9E2050E44A
:10344000552E8E2D90E040E2A42EB12CA822B92258
:103450003AE3632E20E4C22ED12CC822D92258C0D0
:103460009FB7F8949092E9008091E80085FD02C032
:1034700020E004C08091F200252D281B9FBF22234D
:1034800061F4FA9419F42FEF3FEF4DC061E070E062
:1034900080E090E00E94AE1C3BC0822F90E0C817F5
:1034A000D9070CF42C2FC21BD1094FB7F894909276
:1034B000E900A114B10421F406C01092F1002150DA
:1034C0002223D9F719C0E7FC03C0F801922F10C0DE
:1034D000C801322F06C0FC010196E491E093F1008F
:1034E00031503323C1F706C081918093F100915090
:1034F0009923D1F7020F111D8091E80085FF05C0C7
:10350000209729F4C114D10411F06092E8004FBF54
:10351000209709F0A5CF5D9884E68093B103282D0C
:10352000372DC9019C01C901CDB7DEB7EFE00C947E
:1035300001211F920F920FB60F9211242F933F93E8
:103540004F935F936F937F938F939F93AF93BF93AB
:10355000EF93FF938091E1001092E100982F83FF99
:103560000FC01092E90081E08093EB001092EC0014
:1035700082E38093ED001092B30388E08093F00023
:1035800092FF34C083E08093E9008091F2008823A9
:1035900019F08AE38093E8008FB7F89492E0909353
:1035A000E9009091F2008FBF992321F087E094E029
:1035B0000E94C21E8091B103882351F08091B10313
:1035C00081508093B1038091B103882309F45D9AFF
:1035D0008091B203882351F08091B203815080938F
:1035E000B2038091B203882309F4289AFF91EF91E6
:1035F000BF91AF919F918F917F916F915F914F910B
:103600003F912F910F900FBE0F901F901895A1E042
:10361000B0E0EDE0FBE10C94F02019828E010F5F29
:103620001F4FC8010E94E81EC8010E947A208981AC
:1036300090E02196E4E00C940C211F920F920FB6BB
:103640000F921124EF92FF921F932F933F934F936A
:103650005F936F937F938F939F93AF93BF93EF93FA
:10366000FF93DF93CF93CDB7DEB76197DEBFCDBFBA
:103670001092E9008091E80083FF0FC1FE013196AE
:103680009E01275F3F4F03C08091F1008193E217B5
:10369000F307D1F7289884E68093B20382EF8093F2
:1036A000E800998197FF05C08091E80080FFFCCF7A
:1036B00003C08EEF8093E800292F30E0C9018076A7
:1036C0009070892B09F0C2C08A81882329F4109256
:1036D000F1001092F100D6C0813009F4D3C08330DC
:1036E00009F4D0C0853049F48091E80080FFFCCF18
:1036F0008B8180688093E300C5C0863009F07CC070
:103700001C81EF80F8841230C1F51092E90010920C
:10371000B5031092B4031092B7031092B6030E943F
:10372000071B99E0FE013996DF01292F1D922A958A
:10373000E9F799871A8791E09E8790E8988B9AEF2E
:10374000998B2091B4033091B503275F3F4F3C879D
:103750002B878D871092E9001092B5031092B40365
:10376000F092B703E092B60380E0BF0149E050E079
:103770000E9483190E94071B85C01092E9001092D5
:10378000B5031092B403F092B703E092B60312327D
:1037900041F482E290E00E947220892B09F476C005
:1037A00071C0113079F488E0E816F10419F481E071
:1037B0008093B8038091B803882309F06BC0E6E0DA
:1037C000F1E013C0133009F061C08B81882319F434
:1037D000E8ECF0E00AC0823019F4ECECF0E005C04F
:1037E000813009F053C0EEEEF0E0449180E8BF0173
:1037F00050E00E94831946C0873009F447C08830E2
:1038000021F481E08093F1003DC08930D9F5237027
:103810003070232BD9F5EBE2F1E091E031E026E3C3
:103820009093E9003093EB0084918093EC00209317
:10383000ED009F5F3196953099F78EE78093EA000F
:103840001092EA008B818093B3031CC08F8198850E
:103850001092E9001092B5031092B4039093B7034D
:103860008093B6038D81882329F4CE0101960E94AE
:10387000F41E06C0823051F4CE0101960E944A1F08
:10388000882321F08EEF8093E80007C081E28093C7
:10389000EB0003C0E8E1F1E0A8CF6196DEBFCDBF49
:1038A000CF91DF91FF91EF91BF91AF919F918F9158
:1038B0007F916F915F914F913F912F911F91FF9059
:1038C000EF900F900FBE0F901F9018951F920F92C0
:1038D0000FB60F9211242F933F938F939F93AF9323
:1038E000BF938091BE039091BF03A091C003B0919C
:1038F000C1033091C2030196A11DB11D232F2D5F7D
:103900002D3720F02D570196A11DB11D2093C20324
:103910008093BE039093BF03A093C003B093C103F1
:103920008091BA039091BB03A091BC03B091BD03F9
:103930000196A11DB11D8093BA039093BB03A09380
:10394000BC03B093BD03BF91AF919F918F913F9105
:103950002F910F900FBE0F901F9018959B01AC01F7
:103960007FB7F8948091BA039091BB03A091BC03F8
:10397000B091BD0366B5A89B05C06F3F19F00196D5
:10398000A11DB11D7FBFBA2FA92F982F8827860FA1
:10399000911DA11DB11D62E0880F991FAA1FBB1FB9
:1039A0006A95D1F7BC012DC0FFB7F8948091BA0396
:1039B0009091BB03A091BC03B091BD03E6B5A89B59
:1039C00005C0EF3F19F00196A11DB11DFFBFBA2F31
:1039D000A92F982F88278E0F911DA11DB11DE2E000
:1039E000880F991FAA1FBB1FEA95D1F7861B970B5B
:1039F000885E9340C8F221503040404050406851AA
:103A00007C4F211531054105510571F608957894D3
:103A100084B5826084BD84B5816084BD85B58260D3
:103A200085BD85B5816085BDEEE6F0E08081816071
:103A30008083E1E8F0E01082808182608083808171
:103A400081608083E0E8F0E0808181608083E1E94B
:103A5000F0E0808182608083808181608083E0E902
:103A6000F0E0808181608083E1ECF0E0808184601F
:103A70008083808182608083808181608083E3ECA9
:103A8000F0E0808181608083E0ECF0E08081826002
:103A90008083E2ECF0E0808181608083EAE7F0E0FF
:103AA0008081846080838081826080838081816066
:103AB00080838081806880830895CF93DF93482F2F
:103AC00050E0CA0189589E4FFC013491475A5E4F1D
:103AD000FA018491882369F190E0880F991FFC0115
:103AE000E15DFE4FA591B491FC01E35CFE4FC591F1
:103AF000D491662351F42FB7F8948C91932F90951D
:103B000089238C93888189230BC0623061F42FB79D
:103B1000F8948C91932F909589238C938881832B93
:103B200088832FBF06C09FB7F8948C91832B8C930A
:103B30009FBFDF91CF91089590E0FC013197EE3067
:103B4000F10590F5EA5AFF4F0C94192180918000FD
:103B50008F7703C0809180008F7D809380000895CF
:103B600084B58F7702C084B58F7D84BD0895809120
:103B700090008F7707C0809190008F7D03C0809167
:103B80009000877F8093900008958091C0008F7788
:103B900003C08091C0008F7D8093C0000895809104
:103BA000C200877F8093C2000895FF920F931F93F6
:103BB000F62E482F50E0CA018B569E4FFC012491EF
:103BC000CA0189589E4FFC011491475A5E4FFA0171
:103BD00004910023C9F0222319F0822F0E949C1D1A
:103BE000E02FF0E0EE0FFF1FE35CFE4FA591B491D4
:103BF0009FB7F894FF2021F48C911095812302C087
:103C00008C91812B8C939FBF1F910F91FF900895F2
:103C10000F931F93482F50E0CA018B569E4FFC0113
:103C20002491CA0189589E4FFC010491475A5E4F66
:103C3000FA011491112319F420E030E015C0222379
:103C400019F0822F0E949C1D812F90E0880F991FF0
:103C5000855B9E4FFC01A591B4918C9120E030E0F2
:103C6000802311F021E030E0C9011F910F910895E8
:103C7000209103043091040480910504909106047E
:103C8000281B390B2F733070C9010895209103044C
:103C90003091040480910504909106042817390797
:103CA00019F42FEF3FEF09C0E0910504F0910604ED
:103CB000ED53FC4F8081282F30E0C90108952091F9
:103CC00003043091040480910504909106042817A0
:103CD000390719F42FEF3FEF13C0E0910504F0917D
:103CE0000604ED53FC4F2081809105049091060459
:103CF00001968F739070909306048093050430E0D2
:103D0000C901089510920A041092090488EE93E004
:103D1000A0E0B0E080930B0490930C04A0930D04FA
:103D2000B0930E0484EB91E0909308048093070411
:103D30000895A1E0B0E0EFE9FEE10C94F0208C01E1
:103D4000698380916C01882369F083E0BE016F5F15
:103D50007F4F41E050E00E94081A1816190614F42B
:103D60009C0107C081E090E0F8019383828320E00A
:103D700030E0C9012196E4E00C940C2183E00E941C
:103D8000DF190895CF93DF9312C082E00E94691972
:103D90002FEF8F3F9207C9F0E0910304F0910404E4
:103DA000ED53FC4F8083D0930404C0930304C0916F
:103DB0000304D09104042196CF73D0708091050440
:103DC00090910604C817D90701F7DF91CF910895A4
:103DD000FC0180818E5F808380E86FEB71E042E4BC
:103DE00050E00E9483190895FC0181819081913AED
:103DF00059F4813209F04CC080E065E671E047E09B
:103E000050E00E94831942C0913209F041C08032D3
:103E100039F485E691E067E070E00E94C71936C08A
:103E2000823209F035C0828180936C0180916501F6
:103E300090916601A0916701B0916801805B944008
:103E4000A040B04019F580916C0180FD12C087E759
:103E500097E790930108809300082BE088E190E0B9
:103E60000FB6F894A895809360000FBE2093600071
:103E70000DC088E10FB6F894809360001092600046
:103E80000FBEA895109201081092000881E00895D5
:103E900080E00895FC0191818081813A31F4913074
:103EA00089F080E0933089F40DC0813269F49B3051
:103EB00021F4828180936D0105C09A3029F48281BA
:103EC00080936E0181E0089580E00895EF92FF9263
:103ED0000F931F938C01E62EDC01ED91FC91048081
:103EE000F581E02D0995F82ED801ED91FC91068021
:103EF000F781E02DC8016E2D09958F2D90E01F915F
:103F00000F91FF90EF9008951092150410921904EC
:103F10001092180486EC91E0909317048093160495
:103F20000895A1E0B0E0E7E9FFE10C94EE20898379
:103F30008B017A0184E0BE016F5F7F4F41E050E06A
:103F40000E94081A84E4B801A7010E94081A219669
:103F5000E6E00C940A2182E048E050E00E94911FC4
:103F60000895FC0116821782108611861286138628
:103F700014823496BF010E94AB1F0895DC0168389B
:103F800010F0685829C0E62FF0E067FF13C0E05832
:103F9000F04081E090E002C0880F991FEA95E2F7B7
:103FA000809514962C911497282314962C9314978B
:103FB00060E012C0E158FD4F6491662319F420E0DF
:103FC00030E01DC067FF08C014968C9114978D7F58
:103FD00014968C9314976F77FD0190E0662321F07F
:103FE0008681861709F416829F5F31969630B1F765
:103FF000CD011496BD010E94AB1F21E030E0C90144
:104000000895CF93DF93DC01683810F0685825C01D
:10401000E62FF0E067FF12C0E058F04081E090E04A
:1040200002C0880F991FEA95E2F714962C91149715
:10403000282B14962C93149760E00FC0E158FD4F85
:1040400064916623D9F167FF08C014968C91149788
:10405000826014968C9314976F7716968C911697AE
:104060008617A9F117968C911797861781F11896E4
:104070008C911897861759F119968C911997861774
:1040800031F11A968C911A97861709F11B968C912B
:104090001B978617E1F0ED01E0E0F0E09E2F8E81A6
:1040A000882321F4EA0FFB1F668306C09F5F3196C9
:1040B0002196E630F10591F7963049F481E090E0E1
:1040C00013969C938E93129720E030E007C0CD01A9
:1040D0001496BD010E94AB1F21E030E0C901DF91C1
:1040E000CF91089580E861E072E045E650E00E94DB
:1040F00083190895FC0180818F5F808380E866E6E4
:1041000072E049E150E00E9483190895629FD00156
:10411000739FF001829FE00DF11D649FE00DF11D82
:10412000929FF00D839FF00D749FF00D659FF00D31
:104130009927729FB00DE11DF91F639FB00DE11D1E
:10414000F91FBD01CF0111240895A1E21A2EAA1B67
:10415000BB1BFD010DC0AA1FBB1FEE1FFF1FA21737
:10416000B307E407F50720F0A21BB30BE40BF50B34
:10417000661F771F881F991F1A9469F760957095BD
:10418000809590959B01AC01BD01CF01089597FBEF
:10419000092E05260ED057FD04D0D7DF0AD0001C0B
:1041A00038F450954095309521953F4F4F4F5F4FD4
:1041B0000895F6F790958095709561957F4F8F4F94
:1041C0009F4F08952F923F924F925F926F927F92EE
:1041D0008F929F92AF92BF92CF92DF92EF92FF9217
:1041E0000F931F93CF93DF93CDB7DEB7CA1BDB0BC3
:1041F0000FB6F894DEBF0FBECDBF09942A88398868
:1042000048885F846E847D848C849B84AA84B9846E
:10421000C884DF80EE80FD800C811B81AA81B9817A
:10422000CE0FD11D0FB6F894DEBF0FBECDBFED018E
:104230000895EE0FFF1F0590F491E02D0994F89476
:02424000FFCFAE
:10424200FFFFFFDC05DC05DC05DC05E803DC05E837
:1042520003DC05DC05DC05DC05DC05070105010FD7
:104262000103010B0109010D0111010F01030105F8
:104272000107010B0109010D011101030105010FE4
:104282000107010B0109010D011101E001E201E445
:1042920001E6010000000000000000090A0B0DFF0A
:1042A200FFFFFF8F0300E100000000000001017822
:1042B20089988778899887FF000000000000A0860F
:1042C2000100801A0600050304030305020202012D
:1042D2000101010101010101EE01F001F201F4010C
:1042E2000000000068181119FE172F180F1858182F
:1042F20000000000991E1119381E5F1E461EBE1EC8
:10430200C21E00000000661F11190120BE1FB11F4E
:00000001FF
