:100000000C9461000C947E000C947E000C942305EB
:100010000C947E000C9447050C947E000C947E009A
:100020000C947E000C947E000C94B1040C94D610B9
:100030000C947E000C94CD000C947E000C947E00F9
:100040000C94E4130C947E000C947E000C947E00BF
:100050000C947E000C942F030C947E000C947E0074
:100060000C947E000C947E00000000002400270009
:100070002A0000000000250028002B0000000000DE
:1000800023002600290004040404040404040202DA
:100090000202020203030303030301020408102007
:1000A0004080010204081020010204081020000012
:1000B0000007000201000003040600000000000029
:1000C000000011241FBECFEFD4E0DEBFCDBF11E092
:1000D000A0E0B1E0E4ECFBE202C005900D92AE3D81
:1000E000B107D9F713E0AEEDB1E001C01D92AE311A
:1000F000B107E1F70E94D5130C94E0150C940000B1
:10010000A0E0B0E0E6E8F0E00C94B3157C01EB0170
:100110008A01690109C0CE012196F6010995F7010E
:1001200081937F010150104001151105A1F7CDB752
:10013000DEB7E8E00C94CF15A0E0B0E0E2EAF0E032
:100140000C94B315EC017B018A01690109C0CE0151
:100150002196F70161917F01F60109950150104048
:1001600001151105A1F7CDB7DEB7E8E00C94CF1566
:100170009C01F999FECF32BD21BDF89A80B5089552
:100180009C01F999FECF1FBA32BD21BD60BD0FB6EB
:10019000F894FA9AF99A0FBE08951F920F920FB62B
:1001A0000F9211248F939F93809145029091460264
:1001B000019690934602809345028091450290916A
:1001C0004602892B29F4809147028F5F8093470272
:1001D0009F918F910F900FBE0F901F901895609177
:1001E0008400709185002091450230914602E09193
:1001F000470280918400909185008627972797FD7C
:10020000EECF80914502909146022817390739F7C1
:1002100080914702E81719F740E050E0FFE0220F15
:10022000331F441F551FFA95D1F78E2F90E0A0E0A1
:10023000B0E0BB278695B795AA2799278827282B52
:10024000392B4A2B5B2B76956795CB01A0E0B0E06C
:10025000282B392B4A2B5B2BB901CA010895AF9289
:10026000BF92CF92DF92EF92FF920F931F9328EEEF
:1002700033E040E050E00E944D155B016C010E94AC
:10028000EF007B018C010E94EF006E197F09800B4B
:10029000910B6A157B058C059D05A8F31F910F91A5
:1002A000FF90EF90DF90CF90BF90AF9008959B01AB
:1002B000AC018091FA029091FB02A091FC02B091F6
:1002C000FD02821B930BA40BB50B181619061A0618
:1002D0001B060CF44FC08091FE02882301F5E091CB
:1002E000FF02EF5FE370E093FF02FF27E7FDF09569
:1002F000E85BFD4F8081992787FD9095880F991FB6
:100300008093FE02205C3D4B404F5F4F2093FA02EA
:100310003093FB024093FC025093FD0208958150FC
:100320008093FE0280FF24C02D9AE091FF02FF27F8
:10033000E7FDF095EE0FFF1FE45BFD4F808191819B
:10034000AA2797FDA095BA2F6AE0880F991FAA1FC8
:10035000BB1F6A95D1F7820F931FA41FB51F80930F
:10036000FA029093FB02A093FC02B093FD02089561
:100370002D98DBCF0895482F84EA8093BC002FEF9F
:1003800030E011C02115310561F41092BC0080915C
:100390005402909155020196909355028093540215
:1003A00006C0215030408091BC0087FFEBCF4093C6
:1003B000BB0084E88093BC002FEF30E011C0211512
:1003C000310561F41092BC00809154029091550265
:1003D0000196909355028093540208952150304025
:1003E0008091BC0087FFEBCF0895482F882311F43C
:1003F00084E801C084EC8093BC002FEF30E011C092
:100400002115310561F41092BC0080915402909145
:1004100055020196909355028093540206C02150D4
:1004200030408091BC0087FFEBCF9091BB0044230C
:1004300019F484E98093BC00892F08950F931F93CA
:10044000162F042F880F0E94BB011093BB0084E875
:100450008093BC002FEF30E011C02115310561F40D
:100460001092BC0080915402909155020196909395
:1004700055028093540206C0215030408091BC0048
:1004800087FFEBCF0093BB0084E88093BC002FEF85
:1004900030E011C02115310561F41092BC0080914B
:1004A0005402909155020196909355028093540204
:1004B00006C0215030408091BC0087FFEBCF84E91B
:1004C0008093BC001F910F9108950F931F93082FE5
:1004D000162F880F0E94BB011093BB0084E8809305
:1004E000BC002FEF30E011C02115310561F41092EE
:1004F000BC00809154029091550201969093550250
:100500008093540206C0215030408091BC0087FF88
:10051000EBCF000F802F81600E94BB0181E00E9421
:10052000F5011F910F9108951F93CF93DF93EB0176
:10053000142F880F81600E94BB0108C0115080E019
:1005400011160CF481E00E94F50189931123B1F793
:10055000DF91CF911F910895FF920F931F93CF9337
:10056000DF93082F162FEA01F22E880F0E94BB019D
:100570001093BB0084E88093BC002FEF30E011C0E3
:100580002115310561F41092BC00809154029091C4
:1005900055020196909355028093540206C0215053
:1005A00030408091BC0087FFEBCF802FBE014F2DE4
:1005B0000E949402CDB7DEB7E5E00C94D21588E630
:1005C0006EE340E80E941E0262E370E080E090E08B
:1005D0000E942F0188E66EE343E00E941E0288E637
:1005E00066E14EE10E941E0288E660E00E9465021C
:1005F00090E08E77883609F491E0892F0895A6E07F
:10060000B0E0E5E0F3E00C94B3158C017B016A01E6
:1006100088E66DE1AE014F5F5F4F26E00E94AC02BD
:10062000998180E02A8130E0822B932BF80191831D
:1006300080839B8180E02C8130E0822B932BF7011B
:10064000918380839D8180E02E8130E0822B932BEB
:10065000F601918380832696E8E00C94CF151F92D3
:100660000F920FB60F9211242F938F939F93EF93B6
:10067000FF9390917C009770E92FF0E0EE0FFF1F41
:10068000EA5BFE4F0190F081E02D8091790080833C
:10069000292F16C0E22FF0E0EE0FFF1FEA5BFE4F9E
:1006A00080819181892B61F080917C00887F282B4B
:1006B00020937C0080917A00806480937A0003C04C
:1006C0002F5F283039F7FF91EF919F918F912F91F4
:1006D0000F900FBE0F901F901895CF93DF93A6E455
:1006E000B1E0FD0140E050E061E070E08081918187
:1006F000892B79F087B1EB01042E02C0CC0FDD1FEE
:100700000A94E2F79E012095822387B988B12823B5
:1007100028B94F5F5F4F32964630510539F780E672
:1007200080937C0010927B008FE880937A0020E019
:100730008D919C911197892B61F080917C00887F2D
:10074000282B20937C0080917A00806480937A002B
:1007500004C02F5F1296283059F7DF91CF9108958A
:10076000E2E5F1E040E050E061E070E080819181FD
:10077000892B79F034B1CB01042E02C0880F991F68
:100780000A94E2F7282F2095232324B925B1822B40
:1007900085B94F5F5F4F32964830510539F7E2E631
:1007A000F1E040E050E061E070E080819181892BD0
:1007B00079F037B1CB01042E02C0880F991F0A943B
:1007C000E2F7282F2095232327B928B1822B88B957
:1007D0004F5F5F4F32964830510539F7E2E7F1E05D
:1007E00040E050E061E070E080819181892B79F0F8
:1007F0003AB1CB01042E02C0880F991F0A94E2F788
:10080000282F209523232AB92BB1822B8BB94F5F38
:100810005F4F32964830510539F7089560E070E037
:1008200040E050E0A1E0B0E0362FFA01EE5AFE4F72
:100830000190F081E02D309751F023B1CD01062ECB
:1008400002C0880F991F0A94E2F728232083FA0137
:10085000EE59FE4F0190F081E02D309751F026B116
:10086000CD01032E02C0880F991F0A94E2F72823B6
:100870002083FA01EE58FE4F0190F081E02D309771
:1008800049F029B1CD0102C0880F991F3A95E2F7CE
:10089000282320836F5F7F4F4E5F5F4F40315105AC
:1008A00019F60895A0E0B0E0E8E5F4E00C94B11585
:1008B00000918400109185008091090393B1909379
:1008C00009037894292F282780958923A2E8B1E08D
:1008D000EAE0F3E060E070E0C22EDD24E82EFF24C1
:1008E00021E0CD91DC911197209779F1C601062E78
:1008F00002C0959587950A94E2F780FF26C0C7014C
:10090000062E02C0959587950A94E2F780FF03C0F2
:10091000118300831AC080819181A801481B590B63
:10092000569547958CE7A82E8CEFB82EA40EB51ED1
:1009300081EBA81684E0B80640F45983488380917F
:100940005702681711F4209356026F5F7F4F12967B
:1009500032966830710529F6CDB7DEB7EAE00C941F
:10096000CD151F920F920FB60F9211242F933F9324
:100970004F935F936F938F939F93EF93FF93209188
:1009800086003091870078948091F7029091F80268
:10099000A901481B590B569547953093F8022093AF
:1009A000F7028BE0493B580758F08091F6028150DE
:1009B000809357021092F60281E08093F90235C0CD
:1009C0008091F902882389F16091F602683068F518
:1009D00083E04438580748F188E04533580728F544
:1009E000262F30E0E0914202F0914302319793E0EC
:1009F000EE0FFF1F9A95E1F7E20FF31FEE0FFF1FB7
:100A0000EA5DFE4F0190F081E02D5183408380919B
:100A10005702992787FD90952817390719F481E027
:100A2000809356026F5F6093F602FF91EF919F9162
:100A30008F916F915F914F913F912F910F900FBECA
:100A40000F901F9018951F920F920FB60F921124BE
:100A50002F933F934F935F936F937F938F939F93C6
:100A6000AF93BF93EF93FF930E945204FF91EF91D6
:100A7000BF91AF919F918F917F916F915F914F91B6
:100A80003F912F910F900FBE0F901F9018951F92BE
:100A90000F920FB60F921124CF92DF92EF92FF9236
:100AA0000F931F932F933F934F935F936F937F9376
:100AB0008F939F93AF93BF93CF93DF93EF93FF9366
:100AC000E0908400F09085008091E50299B19093C8
:100AD000E5027894292F282780958923A8E5B2E09C
:100AE000E6EEF2E060E070E0C22EDD24082F10E0B8
:100AF000CD91DC911197209721F1C601062E02C0FD
:100B0000959587950A94E2F780FF1BC0C801062ED1
:100B100002C0959587950A94E2F780FF03C0F182A1
:100B2000E0820FC080819181A701481B590B569527
:100B30004795CA0184589340815B944010F45983CF
:100B400048836F5F7F4F129632966830710581F649
:100B5000FF91EF91DF91CF91BF91AF919F918F91D5
:100B60007F916F915F914F913F912F911F910F91C5
:100B7000FF90EF90DF90CF900F900FBE0F901F90DF
:100B8000189580914202909143021816190674F448
:100B900080916F00806280936F0080918100806CF3
:100BA0008093810083E080935702089580916800CC
:100BB000816080936800E2E8F1E040E050E061E0AD
:100BC00070E080819181892BA1F020916B00CB0195
:100BD000042E02C0880F991F0A94E2F7282B209355
:100BE0006B0034B1282F2095232324B925B1822B03
:100BF00085B94F5F5F4F32964830510511F781E05C
:100C00008093570280916800846080936800E8E5D3
:100C1000F2E040E050E061E070E080819181892B5A
:100C2000A1F020916D00CB01042E02C0880F991F06
:100C30000A94E2F7282B20936D003AB1282F2095D3
:100C400023232AB92BB1822B8BB94F5F5F4F32968A
:100C50004830510511F70895A4E0B0E0E2E3F6E072
:100C60000C94A9153C017BE2872E912C880E991ECD
:100C7000AC014A5F5F4F5C834B83C7969A8389833D
:100C8000EB81FC81218D328D83899489A901481BD8
:100C9000590B1A01442437FC4094542C878D90A1A1
:100CA000281B390B5901CC24B7FCC094DC2CA601BD
:100CB0009501D7FE07C022273327A9012A193B092E
:100CC0004C095D09F30182899389AA2797FDA095B4
:100CD000BA2F281739074A075B0734F0F40110824E
:100CE0001182128213823CC0EB81FC812081318110
:100CF000442737FD4095542FC201B1010E944D1584
:100D00009B01AC0166E055954795379527956A9507
:100D1000D1F7F40180819181A281B381280F391F1D
:100D20004A1F5B1FF301E488F58806891789D801FB
:100D3000C70180959095A095B095281739074A0767
:100D40005B074CF0DA01C901E216F3060407150748
:100D500014F4D801C701F40180839183A283B38383
:100D60004B815C8146505040FA012081318136969A
:100D7000FC83EB83442737FD4095542FC201B1011A
:100D80000E944D157B018C0133E015950795F79472
:100D9000E7943A95D1F7F40181919191A191B191A4
:100DA0004F01E80EF91E0A1F1B1FEB81FC812681F3
:100DB0003781442737FD4095542FC601B5010E9465
:100DC0004D1522E095958795779567952A95D1F7EA
:100DD000E61AF70A080B190BF301008C04C01595ED
:100DE0000795F794E7940A94D2F7EB81FC81F2AA75
:100DF000E1AA818D928D90A3878F3296FC83EB833D
:100E000049815A818416950609F03ACF2496E2E189
:100E10000C94C515A6E0B0E0E0E1F7E00C94B9153C
:100E2000CE010196BE016D5F7F4FAE014B5F5F4FFC
:100E30000E94FF028B819C8190932702809326025F
:100E400089819A8190932902809328028D819E81C5
:100E500090932B0280932A022696E2E00C94D515FB
:100E6000A0E0B0E0E6E3F7E00C94B1157C018C0162
:100E7000EB01F70160E070E02BC0218132818881B5
:100E80009981281739070CF4C90192838183218540
:100E9000328588819981821793070CF4C901928762
:100EA000818729913991442737FD4095542FD801E6
:100EB0001F96AD90BD90CD90DC905297A20EB31EC0
:100EC000C41ED51E1F96AD92BD92CD92DC92529754
:100ED0009B016F5F7F4F32960C5F1F4FD7011196BA
:100EE0008D919C911297281739073CF2CDB7DEB748
:100EF000EAE00C94CD15A0E0B0E0E1E8F7E00C9456
:100F0000B315EC017C01E3E2CE2ED12CC80ED91E24
:100F100000E010E011C02BA53CA5442737FD40950B
:100F2000542FF70167857089818992890E948E15F7
:100F3000F601219331936F0198010F5F1F4F84E0F9
:100F400090E0E80EF91E89819A81281739071CF371
:100F5000CDB7DEB7E8E00C94CF15A8E0B0E0E3EB46
:100F6000F7E00C94B3158C018091E2019091E301BC
:100F70009A8389838091E6019091E7019C838B831A
:100F80008091E8019091E9019E838D838091E40135
:100F90009091E50198878F83C801BE016F5F7F4FF5
:100FA0000E943007D8019B968D919C919C97019649
:100FB0009C969C938E939B978436910509F070C004
:100FC0001196ED90FC9012976801F80160E040E006
:100FD00050E00CC08385948523813481821B930B60
:100FE00044970CF46F5F4F5F5F4F32964E155F056D
:100FF0008CF3862F992787FD90958E159F05F9F420
:10100000C8010E947B07F80183A194A190931F015E
:1010100080931E0185A196A19093210180932001C8
:1010200087A190A5909323018093220181A592A589
:10103000909325018093240181E0808331C0D80101
:101040001C9284E090E012969C938E931197F80185
:1010500040E050E0AFEFEA2EAFE7FA2E60E070E834
:101060000BC0F282E18272876187D6011F961D92C2
:101070001D921D921C9252979A014F5F5F4F3296BC
:1010800084E090E0C80ED91ED80111968D919C91F4
:101090001297281739072CF39C961C921E929B9747
:1010A0002896E8E00C94CF15A6E0B0E0EAE5F8E079
:1010B0000C94B3158C0180912602909127029A839B
:1010C000898380912802909129029C838B8380914F
:1010D0002A0290912B029E838D83C801BE016F5F0F
:1010E0007F4F0E943007F80183A594A5019694A72D
:1010F00083A78436910509F063C0E180F280D801AE
:1011000060E040E050E00CC0838594852381348109
:10111000821B930BC2970CF46F5F4F5F5F4F329649
:101120004E155F058CF3862F992787FD90958E15B8
:101130009F05C9F4C8010E947B07F80183A194A10F
:10114000909321028093200285A196A1909323027F
:101150008093220287A190A5909325028093240278
:1011600081E080832DC0F801108283E090E09283BB
:101170008183680140E050E08FEFE82E8FE7F82E82
:1011800060E070E80DC01296FC92EE9211971A96EC
:101190007C936E931997F6011786108A118A128A2A
:1011A0009A014F5F5F4F129684E090E0C80ED91EFF
:1011B000F80181819281281739072CF314A613A610
:1011C0002696E8E00C94CF1540910C0150910D014A
:1011D00080910C0190910D014817590721F0409121
:1011E000E2015091E3015093E3014093E201209129
:1011F0000E0130910F0180910E0190910F0128177F
:10120000390721F02091E6013091E7013093E701A1
:101210002093E6012091100130911101809110017D
:10122000909111012817390721F02091E8013091A0
:10123000E9013093E9012093E801209112013091F6
:10124000130180911201909113012817390721F0A1
:101250002091E4013091E5013093E5012093E40110
:101260002091140130911501809114019091150184
:101270002817390721F02091EA013091EB013093D2
:10128000EB012093EA012091160130911701809122
:101290001601909117012817390721F02091EC01D0
:1012A0003091ED013093ED012093EC012091180174
:1012B000309119018091180190911901281739076F
:1012C00021F02091EE013091EF013093EF01209356
:1012D000EE0120911A0130911B0180911A01909129
:1012E0001B012817390721F02091F0013091F101FD
:1012F0003093F1012093F00180913E0290913F02E2
:10130000892B21F45093E5014093E4010895FC01F9
:1013100080913E0290913F028130910591F182309F
:1013200091051CF4892B41F097C08230910509F496
:1013300058C0039709F090C0808191812091E2010B
:101340003091E301820F931F909305028093040272
:10135000808191812091E4013091E501820F931FFA
:1013600090930B0280930A02828193812091E6017F
:101370003091E701820F931F90930702809306023A
:1013800023C0208131818091E2019091E301280FF7
:10139000391F428153818091E6019091E701480F06
:1013A000591FCA01820F931F959587959093050247
:1013B00080930402241B350B3595279524523A4F10
:1013C0003093070220930602848195812091E801E1
:1013D0003091E901820F931F9093090280930802D4
:1013E0003BC0808191812091E2013091E301820F25
:1013F000931F909305028093040280819181209134
:10140000E4013091E501820F931F90930B028093CA
:101410000A02428153818091E6019091E701480FD1
:10142000591F248135818091E8019091E901280FAD
:10143000391FC901840F951F9595879590930702D1
:1014400080930602241B350B3595279524523A4F7D
:1014500030930902209308028091EE019091EF01F0
:1014600090930D0280930C028091F0019091F10114
:1014700090930F0280930E020895A8E0B0E0E3E499
:10148000FAE00C94B71580914002909141020297C6
:10149000A9F5FE01319688E0DF011D928A95E9F7F2
:1014A000CF010E948709A5EDB1E000E112E048E11B
:1014B00052E06D917C911197F80120813181FB01FF
:1014C00080819181281739070CF4C901F8019183B3
:1014D0008083FA0120813181FB0180819181821713
:1014E00093070CF4C901FA0181939193AF0112960D
:1014F0000E5F1F4FF1E0AD3DBF07D9F688E392E0E4
:101500000E94870980E090E0FC01EB52FE4FA08131
:10151000B1814D915C911197FC01E05FFD4F01900D
:10152000F081E02D4E175F0754F0FC01E85EFD4F9F
:1015300020813181FA01241735070CF4F901ED936C
:10154000FC93029688309105F9F62896E4E00C9415
:10155000D31581E0809368022FB7F894809104023C
:10156000909105029093F9018093F8018091060211
:10157000909107029093FB018093FA0180910802F9
:10158000909109029093FD018093FC0180910A02E1
:1015900090910B029093FF018093FE0180910C02C9
:1015A00090910D02909301028093000280910E02AF
:1015B00090910F029093030280930202EFE6F0E015
:1015C000808182608083B19A8091840090918500AF
:1015D000049690938900809388002FBF0895FC01A2
:1015E000828183832091E2013091E30144E0213B39
:1015F000340714F480E00CC0C9018451954081592E
:10160000914010F481E004C0285037409CF182E002
:1016100080832091E6013091E70144E0213B3407CB
:1016200014F480E00CC0C901845195408159914067
:1016300010F481E004C028503740F4F082E0818348
:1016400040814F5F992787FD909522E030E0281B6D
:10165000390BC901880F991F820F931F480F4283CE
:10166000938180E0491729F081E09295907F942B37
:10167000948308958081CCCF8181E1CF1F93CF9354
:10168000DF93EC01162F60E070E04BE050E028EBB8
:1016900030E00E9480008881811711F08FEF12C026
:1016A00090E020E030E0FE01E20FF31F8081980F10
:1016B0002F5F3F4F2B303105B1F7992311F480E0B4
:1016C00001C08EEFDF91CF911F910895DC0190E072
:1016D00020E030E0FD01E20FF31F8081980F2F5FC3
:1016E0003F4F2A303105B1F791951A969C931A977E
:1016F00080E090E0BD014BE050E020EC30E00E9443
:101700009C000895A2E1B0E0E8E8FBE00C94A91584
:101710001C01CE01089661E00E943E0B99859F5FF7
:1017200099838B8584508A838C8584508B838D85A7
:1017300084508C838E858F5F8D8388898F5F8E83A5
:1017400081E08F83B92EBB0CDD24AA24EE24FF2474
:101750008701E0E86E2EEAE17E2EE6E08E2E912CE7
:1017600072E0C72E2E010894411C511C0E94EF000C
:101770009B01AC01DC01CB018E199F09A00BB10BC1
:10178000681679068A069B060CF051C01C1424F5D5
:101790008C2D992787FD9095FC01E170F07080FDFC
:1017A00003C088E097E002C08CED95E090930702BB
:1017B000809306028CED95E09093050280930402DD
:1017C000EE0FFF1FEE0FFF1FE154FE4F6080718090
:1017D00082809380CA9429C0BB2039F11B1424F461
:1017E0006CE271E0A1E003C064ED7EEFAFEF8B2D02
:1017F000992787FD9095FC01E170F07080FF03C090
:101800008CED95E003C0CB0184529A4F9093050272
:1018100080930402EE0FFF1FEE0FFF1FE154FE4FF7
:101820006080718082809380BA1A79018A018091E8
:101830005602882329F0109256020E94E40802C042
:10184000AA2041F080916802882309F0A2C00E947A
:10185000A90AAA24CC2009F089CFC1010E94EF0A6D
:10186000882309F483CFF1018481843561F08535C3
:1018700020F4823509F055C01DC0863579F08835D1
:1018800009F04FC030C0F1E0FD1514F0DD2401C0B7
:10189000DA94CD2CCC0C82E0C80E43C094E09D15A8
:1018A0001CF486E0D82E01C0D394CD2CCC0CE2E001
:1018B000CE0E37C0AD2DBB27A7FDB095F201EA0FC4
:1018C000FB1F8081282F332727FD30952F5F3F4F47
:1018D000FD01E953FE4F8081992787FD909582177E
:1018E0009307D4F418C0AD2DBB27A7FDB095F20126
:1018F000EA0FFB1F8081282F332727FD30952150C9
:101900003040FD01E253FE4F8081992787FD90957D
:10191000281739070CF49C01A40DB51D2C93B22E89
:10192000BB0CF6E0DF1649F58F81823031F58981F5
:10193000992787FD909501979A8789878A818C5F7F
:101940008B878B818C5F8C878C818C5F8D878D8161
:10195000992787FD909501979F878E878E8199277C
:1019600087FD90950197998B888BCE0108960E94F0
:10197000660B6296E2E10C94C5151C140CF0F6CED1
:10198000ED2DFF27E7FDF095E40DF51DB080BB0CB4
:10199000EDCEAA24A3945ECFAAE7B0E0E2EDFCE08E
:1019A0000C94A9150E94EF001B012C01DE01169674
:1019B000E9EBF1E086E001900D928150E1F7DE0164
:1019C0001C96E3EBF1E086E001900D928150E1F787
:1019D00084E090E09C8B8B8BFE017596DE019596E2
:1019E00040E050E00FEF1FE760E070E809C01183AE
:1019F0000083718760871D921D921D921D92329601
:101A00009A014F5F5F4F8B899C89281739077CF3B8
:101A10001EAE1DAEFE01E05CFF4F83E090E09183BF
:101A20008083CE01CF96DC011396BC016D5E7F4FA3
:101A300040E050E07F01EFEFCE2EEFE7DE2E00E03A
:101A400010E80EC01196DC92CE9219961C930E935C
:101A50001897FB011192119211921192BF011296E7
:101A60009A014F5F5F4FF7018081918128173907F5
:101A70004CF31A8A1FAEFE01E659FF4F1182108205
:101A8000EB962CAE3DAE4EAE5FAEEB97E7962CAE2E
:101A90003DAE4EAE5FAEE79782017101E3962CAE8C
:101AA0003DAE4EAE5FAEE397AF961FAEAF97AE962C
:101AB0001FAEAE97F1E0AD96FFAFAD9706C0E396CF
:101AC000ACAEBDAECEAEDFAEE3970E94EF005B01E1
:101AD0006C010E94570180915602882389F4D60137
:101AE000C501EB962CAD3DAD4EAD5FADEB97821BC6
:101AF000930BA40BB50B81539547A040B0400CF15C
:101B0000109256020E94E4088A89882309F01AC3B9
:101B1000CE0142960E94AD078FAD882311F492E06A
:101B200001C090E020E08A89882309F421E0920F27
:101B30009093490248EC50E050934F0240934E027C
:101B400001C3AF965FADAF97552309F4B3C0809141
:101B50006802882309F0AEC00E943D0A0E94A90ACB
:101B6000D601C501E7962CAD3DAD4EAD5FADE79713
:101B7000821B930BA40BB50B81519742A040B04040
:101B80000CF495C00E940A078FAD8823C1F4CE01E2
:101B9000CF960E9454088FAD882311F492E001C0C3
:101BA00090E020E08A89882309F421E0920F909345
:101BB000490248EC50E050934F0240934E0280910E
:101BC0002602909127022091200230912102821B4F
:101BD000930B9093270280932602AA2797FDA09546
:101BE000BA2F20912C0230912D0240912E0250915B
:101BF0002F02820F931FA41FB51F80932C02909376
:101C00002D02A0932E02B0932F0280912802909172
:101C100029022091220230912302821B930B909380
:101C2000290280932802AA2797FDA095BA2F209118
:101C30003002309131024091320250913302820FD2
:101C4000931FA41FB51F8093300290933102A0937D
:101C50003202B093330280912A0290912B0220919C
:101C6000240230912502821B930B90932B028093C8
:101C70002A02AA2797FDA095BA2F2091340230910D
:101C800035024091360250913702820F931FA41FF4
:101C9000B51F8093340290933502A0933602B0931F
:101CA0003702E796ACAEBDAECEAEDFAEE797AF96ED
:101CB0001FAEAF97AD965FADAD97552309F44EC0FB
:101CC000CE0101960E94EF0A882309F447C0AE9620
:101CD0008FADAE97E82FFF27E7FDF095E655FE4F55
:101CE0009D818081981721F0AE961FAEAE9707C0F8
:101CF000AE969FADAE979F5FAE969FAFAE97AE96F6
:101D0000AFADAE97EA2FFF27E7FDF095E655FE4F02
:101D100080818F3F81F4CE0101960E94820B2EE0DC
:101D200088E190E00FB6F894A895809360000FBE0C
:101D300020936000FFCFD601C50182199309A40941
:101D4000B509815C914EA44EB04024F0AD961FAE13
:101D5000AD9704C0F1E0AD96FFAFAD978A898823B7
:101D600009F4B3CE8FAD882309F4AFCED601C501F7
:101D70008E199F09A00BB10B81519742A040B04032
:101D80000CF4A1C12091E4013091E5018091E201C0
:101D90009091E301280F391F809124019091250132
:101DA000281B390B80911E0190911F01281B390BB4
:101DB0003595279537FF03C0309521953F4F6091AA
:101DC000E6017091E7018091200190912101681B4B
:101DD000790B77FF03C0709561957F4F4091E801C3
:101DE0005091E9018091220190912301481B590BE8
:101DF00057FF03C0509541955F4FC901A1E02139BC
:101E00003A0714F080E991E0E0E9F1E0E81BF90B12
:101E1000FD87EC87CB01F1E061397F0714F080E9A1
:101E200091E0A0E9B1E0A81BB90BBF87AE87CA015A
:101E3000B1E041395B0714F080E991E0E0E9F1E0BD
:101E4000E81BF90BF98BE88B8091EA019091EB018B
:101E5000F4E08C349F071CF400E010E00AC0A7E017
:101E60008D369A071CF000E213E003C08C010C547D
:101E7000144080914402882339F48091EC019091C0
:101E8000ED01855A9640D4F0253631051CF46536AF
:101E9000710584F010922C0210922D0210922E02E5
:101EA00010922F02109230021092310210923202E0
:101EB0001092330245365105CCF010C010922C021E
:101EC00010922D0210922E0210922F0210923002C8
:101ED00010923102109232021092330210923402A8
:101EE0001092350210923602109237021092C00200
:101EF0001092BF021092C2021092C1021092C4024C
:101F00001092C302ECE2F2E025EC32E08081918194
:101F1000A281B38144E0B595A795979587954A9599
:101F2000D1F7803040EE94074FEFA4074FEFB4078E
:101F30001CF480E090EE0CC0803050E2950750E039
:101F4000A50750E0B50724F08FEF9FE1A0E0B0E0D7
:101F5000D9018D939D939D013496B2E0E833FB0740
:101F6000A9F686EA92E00E942C0610928302109253
:101F700082021092850210928402109287021092BF
:101F800086028091260290912702E0E280309E072F
:101F900014F08FEF9FE1F0EE80309F0714F480E0A3
:101FA00090EE90938902809388028091280290910C
:101FB000290220E28030920714F08FEF9FE130EE8B
:101FC0008030930714F480E090EE90938B0280931E
:101FD0008A0280912A0290912B0240E2803094077D
:101FE00014F08FEF9FE150EE8030950714F480E0FD
:101FF00090EE90938D0280938C0289E692E00E948D
:102000002C06EE24FF243801882477FC8094982C39
:102010008701085C1D4FF701E759FD4F67A970ADB7
:10202000882777FD8095982FF701EA55FD4F27A95E
:1020300030AD442737FD4095542F620F731F841F26
:10204000951FE6E0F0E0EC0FFD1FEE0DFF1D208177
:102050003181442737FD4095542F0E944D15B7E03C
:102060009595879577956795BA95D1F7ECE0F0E06F
:10207000EC0FFD1FEE0DFF1D20813181442737FD40
:102080004095542F0E944D15272F382F492F552743
:1020900047FD5A95C401B3010E944D15F9E095958D
:1020A000879577956795FA95D1F7D8016D937C93CD
:1020B000E2E0F0E0EE0EFF1EF6E0EF16F10409F0AC
:1020C000A7CF86017501D601C501E3962CAD3DADC4
:1020D0004EAD5FADE397821B930BA40BB50B8C59F0
:1020E000914AA740B0400CF4F0CC8091DF012091E0
:1020F000E0014091E10190E0805890409F838E8301
:1021000030E0205830403987288750E04058504010
:102110005B874A87E6E4F1E020E080819181892BAA
:1021200061F080917C00887F282B20937C00809137
:102130007A00806480937A00C2CC2F5F3296283078
:1021400061F7BDCCEB96ACAEBDAECEAEDFAEEB97DD
:1021500041E0AF964FAFAF97FACC1F931FEF1F5FD1
:10216000E12FFF27E7FDF095EE0FFF1FEE56FE4F24
:1021700080819181892B69F41F5FE12FFF27E7FDA3
:10218000F095EE0FFF1FEE56FE4F80819181892B57
:1021900059F0E12FFF27E7FDF095EE55FE4F8081C6
:1021A00061E00E946714DBCF1F9108951F920F9288
:1021B0000FB60F9211242F933F934F935F936F931A
:1021C0007F938F939F93AF93BF93CF93DF93EF93BF
:1021D000FF93E091E402FF27E7FDF095EE55FE4FF7
:1021E000808160E00E94A614E091E302E7FD4BC00D
:1021F000C0918400D0918500FF27E7FDF095EE5552
:10220000FE4F808161E00E94A6148091E302E82FD6
:10221000FF27E7FDF095EE0FFF1FEE56FE4F0190F2
:10222000F081E02D208131818093E402482F4F5FBF
:102230004093E302E42FFF27E7FDF095EE0FFF1F29
:10224000EE56FE4F80819181892B91F4E42FEF5F50
:10225000E093E302FF27E7FDF095EE0FFF1FEE5638
:10226000FE4F80819181892B19F48FEF8093E302D7
:1022700022503040220F331F2C0F3D1F3093890016
:102280002093880009C01092E302109268028091A6
:102290006F008D7F80936F00FF91EF91DF91CF9161
:1022A000BF91AF919F918F917F916F915F914F916E
:1022B0003F912F910F900FBE0F901F901895EF92A6
:1022C000FF920F931F937A018B01882341F083E1E2
:1022D00061E00E94A61482E161E00E94A6141092BF
:1022E000B90060E074E284EF90E0A80197010E94D9
:1022F0006C152051304040405040569547953795D9
:1023000027952093B8001F910F91FF90EF900895AB
:1023100081E040E85AE166E070E00E945F110E94AF
:10232000DF02882349F485E080934A0288EC90E03C
:1023300090935102809350020895EF92FF920F9371
:102340001F93CF93DF93E82EF62E60E00E94671470
:102350008F2D61E00E946714C0E0D0E0CE01817053
:10236000082F8F2D602F0E94A6148E2D0E94FA1424
:10237000112707FD10958017910711F000E005C0A7
:102380002196C430D10551F701E08F2D60E00E9405
:102390006714802FCDB7DEB7E6E00C94D115ADE021
:1023A000B0E0E5EDF1E10C94B8152D9A80911A0397
:1023B00090911B03009711F09C0102C02EE133E0C5
:1023C000CE010196821B930B803891054CF484E179
:1023D00080934A028EE190E09093510280935002E4
:1023E00084B7877F84BF88E10FB6F894809360003C
:1023F000109260000FBE1092800082E080938100F6
:1024000081E080936F0085B5887F85BD60E078E0CE
:1024100070937C0260937B022FEF3FE140E050E03D
:1024200020937D0230937E0240937F02509380027E
:10243000EAE0E093810284EF91E090936A02809356
:1024400069029093700280936F029093760280935A
:10245000750290936C0280936B029093720280934A
:102460007102909378028093770290936E0280932A
:102470006D02909374028093730290937A0280931A
:1024800079027093B9026093B8022093BA02309334
:10249000BB024093BC025093BD02E093BE029093F6
:1024A000A7028093A6029093AD028093AC02909312
:1024B000B3028093B2029093A9028093A8029093F2
:1024C000AF028093AE029093B5028093B4029093D2
:1024D000AB028093AA029093B1028093B0029093D2
:1024E000B7028093B60285E064E00E949D11182F28
:1024F000882339F4CE01039661E00E943E0B8823C5
:1025000009F181E08B8320913E0230913F0280915E
:1025100009018E8380910A018F8380910B01888746
:1025200080914002909141029A878987809142026E
:10253000909143029C878B873D832C83CE01039629
:102540000E94660B8C819D8190933F0280933E0296
:10255000EE81E0930901AF81A0930A0198859093E1
:102560000B01FF27E7FDF095E050FF4F808180933E
:10257000DF01BB27A7FDB095A050BF4F8C91809382
:10258000E001E92FFF27E7FDF095E050FF4F808144
:102590008093E10129853A853093410220934002DE
:1025A0008B859C859093430280934202112371F0A6
:1025B00084E680934B028EE190E0909353028093E7
:1025C00052020E94EF000E945701FBCF21303105DB
:1025D000D1F02230310561F1232BF1F580E090E05C
:1025E00048EE53E020ED37E0FC01E05FFD4F518302
:1025F0004083FC01E85EFD4F3183208302968830E2
:10260000910591F729C080E090E04CE454E02CE67D
:1026100037E0FC01E05FFD4F51834083FC01E85E41
:10262000FD4F3183208302968830910591F714C0C5
:1026300080E090E042EE54E026ED36E0FC01E05F01
:10264000FD4F51834083FC01E85EFD4F31832083C1
:1026500002968830910591F70E94B0030E940E0403
:102660008091F501882319F440E050E002C042E077
:1026700050E020E030E08091F601882311F021E065
:1026800030E0CA01822B932B8130910579F08230A2
:1026900091051CF4892B39F017C08230910569F03F
:1026A000039791F40DC083E090E002C082E090E0D7
:1026B00090933F0280933E0207C081E090E0F8CF04
:1026C00010923F0210923E0240913E0250913F0212
:1026D00043305105C1F48091F20122E131E08823B9
:1026E00039F030938901209388011092DE010BC0EC
:1026F000109277011092760130935D0220935C0274
:1027000081E08093DE018091F401882319F481E057
:102710008093440280914202909143021816190658
:10272000F4F41092830110928201109285011092AC
:102730008401109287011092860180E092E09093CC
:102740009B0180939A018AE08093A60182E092E047
:1027500090939D0180939C0189E08093A701842F31
:102760008F5F8093480288E592E090934D028093BA
:102770004C020E946D030E94C1050E94AD100E9490
:1027800088110E94E40810923902109238021092C7
:102790003B0210923A0210923D0210923C020E94BB
:1027A0003D0A2D96E3E00C94D415CF93DF930E945D
:1027B0002C140E94CF11C0E0D0E00E94CC0C2097D6
:1027C000E1F30E940000F9CF1F920F920FB60F9213
:1027D00011242F933F938F939F93AF93BF93809137
:1027E000040390910503A0910603B0910703309173
:1027F00008030196A11DB11D232F2D5F2D3720F059
:102800002D570196A11DB11D209308038093040349
:1028100090930503A0930603B093070380910003F0
:1028200090910103A0910203B09103030196A11DB1
:10283000B11D8093000390930103A0930203B09312
:102840000303BF91AF919F918F913F912F910F9073
:102850000FBE0F901F901895789484B5826084BD48
:1028600084B5816084BD85B5826085BD85B5816094
:1028700085BDEEE6F0E0808181608083E1E8F0E0F4
:102880001082808182608083808181608083E0E823
:10289000F0E0808181608083E1EBF0E08081846002
:1028A0008083E0EBF0E0808181608083EAE7F0E004
:1028B0008081846080838081826080838081816068
:1028C00080838081806880831092C1000895CF93B7
:1028D000DF93482F50E0CA0186569F4FFC01349188
:1028E0004A575F4FFA018491882369F190E0880F7D
:1028F000991FFC01E859FF4FA591B491FC01EE58D6
:10290000FF4FC591D491662351F42FB7F8948C9161
:10291000932F909589238C93888189230BC06230F3
:1029200061F42FB7F8948C91932F909589238C9311
:102930008881832B88832FBF06C09FB7F8948C9122
:10294000832B8C939FBFDF91CF910895482F50E048
:10295000CA0182559F4FFC012491CA0186569F4FA0
:10296000FC0194914A575F4FFA013491332309F4E3
:1029700040C0222351F1233071F0243028F421305B
:10298000A1F0223011F514C02630B1F02730C1F08B
:102990002430D9F404C0809180008F7703C08091E7
:1029A00080008F7D8093800010C084B58F7702C037
:1029B00084B58F7D84BD09C08091B0008F7703C03E
:1029C0008091B0008F7D8093B000E32FF0E0EE0F98
:1029D000FF1FEE58FF4FA591B4912FB7F8946623CF
:1029E00021F48C919095892302C08C91892B8C9332
:1029F0002FBF0895682F70E0CB0182559F4FFC01D7
:102A00002491CB0186569F4FFC0144916A577F4F1A
:102A1000FB019491992319F420E030E03CC022237B
:102A200051F1233071F0243028F42130A1F022300C
:102A300011F514C02630B1F02730C1F02430D9F49C
:102A400004C0809180008F7703C0809180008F7DCB
:102A50008093800010C084B58F7702C084B58F7DCD
:102A600084BD09C08091B0008F7703C08091B00011
:102A70008F7D8093B000892F90E0880F991F845834
:102A80009F4FFC01A591B4918C9120E030E084230C
:102A900011F021E030E0C9010895629FD001739FD9
:102AA000F001829FE00DF11D649FE00DF11D929FEA
:102AB000F00D839FF00D749FF00D659FF00D992729
:102AC000729FB00DE11DF91F639FB00DE11DF91F4D
:102AD000BD01CF0111240895A1E21A2EAA1BBB1B30
:102AE000FD010DC0AA1FBB1FEE1FFF1FA217B307DA
:102AF000E407F50720F0A21BB30BE40BF50B661FF0
:102B0000771F881F991F1A9469F7609570958095B3
:102B100090959B01AC01BD01CF01089597FB092E53
:102B200005260ED057FD04D0D7DF0AD0001C38F49C
:102B300050954095309521953F4F4F4F5F4F0895E9
:102B4000F6F790958095709561957F4F8F4F9F4FC9
:102B500008952F923F924F925F926F927F928F9241
:102B60009F92AF92BF92CF92DF92EF92FF920F931C
:102B70001F93CF93DF93CDB7DEB7CA1BDB0B0FB626
:102B8000F894DEBF0FBECDBF09942A8839884888E3
:102B90005F846E847D848C849B84AA84B984C88479
:102BA000DF80EE80FD800C811B81AA81B981CE0F70
:102BB000D11D0FB6F894DEBF0FBECDBFED01089555
:042BC000F894FFCFB7
:102BC4000020406080A0C0E0FF080808DC05DC05A8
:102BD400DC05DC05D007DC05E803DC05DC05DC05E9
:102BE400DC05DC05DC0510010E0118010C011401E3
:102BF400120116011A011C011C011C011C011C01FB
:102C04001C011C011C010000DF01E001E1010000C6
:102C140000000000000000000000F50100000000BA
:102C24000000F601000000000000000000000000A9
:102C34000000F701F201F301F401000000000000BC
:102C440000000C010E01100114010000000000003E
:102C54000000F801FA01FC01FE0100000000000080
:102C6400000004050607FFFFFFFF7889988778892D
:102C74009887FF9001900190017F007F007F00A062
:102C8400860100801A06000404040403020201FC05
:0E2C9400FCFC0101010402060208020A020013
:00000001FF
