:100000000C9463000C948B000C948B000C94C00235
:100010000C948B000C944A030C948B000C948B0072
:100020000C948B000C948B000C948B000C949D080A
:100030000C948B000C948D000C948B000C948B0012
:100040000C947D100C948B000C948B000C948B0002
:100050000C948B000C9482020C948B000C948B00FB
:100060000C94E80E0C948B00000000002400270084
:100070002A0000000000250028002B0000000000DE
:1000800023002600290004040404040404040202DA
:100090000202020203030303030301020408102007
:1000A0004080010204081020010204081020000012
:1000B0000007000201000003040600000000000029
:1000C00000008208550E11241FBECFEFD4E0DEBF22
:1000D000CDBF11E0A0E0B1E0E2EBF4E202C0059098
:1000E0000D92AE39B107D9F713E0AEE9B1E001C026
:1000F0001D92AD36B107E1F710E0C6ECD0E004C0C8
:100100002297FE010E945312C23CD107C9F70E94F8
:10011000E6110C9457120C9400001F920F920FB628
:100120000F9211248F939F938091D5019091D601C6
:1001300001969093D6018093D5018091D50190913D
:10014000D601892B29F48091D7018F5F8093D70145
:100150009F918F910F900FBE0F901F9018956091F7
:100160008400709185002091D5013091D601E091F5
:10017000D70180918400909185008627972797FD6D
:10018000EECF8091D5019091D6012817390739F724
:100190008091D701E81719F740E050E0FFE0220F07
:1001A000331F441F551FFA95D1F78E2F90E0A0E022
:1001B000B0E0BB278695B795AA2799278827282BD3
:1001C000392B4A2B5B2B76956795CB01A0E0B0E0ED
:1001D000282B392B4A2B5B2BB901CA010895AF920A
:1001E000BF92CF92DF92EF92FF920F931F9328EE70
:1001F00033E040E050E00E94F5115B016C010E9489
:10020000AF007B018C010E94AF006E197F09800B4B
:10021000910B6A157B058C059D05A8F31F910F9125
:10022000FF90EF90DF90CF90BF90AF900895482F50
:1002300084EA8093BC002FEF30E08091BC0087FD02
:100240000EC021503040C9F78091D8019091D9015A
:1002500001969093D9018093D8011092BC004093ED
:10026000BB0084E88093BC002FEF30E08091BC009D
:1002700087FD0EC021503040C9F78091D801909180
:10028000D90101969093D9018093D8011092BC00B6
:100290000895482F882311F484E801C084EC8093EA
:1002A000BC002FEF30E08091BC0087FD0EC02150D4
:1002B0003040C9F78091D8019091D901019690936F
:1002C000D9018093D8011092BC009091BB004423C7
:1002D00019F484E98093BC00892F08950F931F932C
:1002E000162F042F880F0E9417011093BB0084E87B
:1002F0008093BC002FEF30E08091BC0087FD0EC0E2
:1003000021503040C9F78091D8019091D9010196D0
:100310009093D9018093D8011092BC000093BB0048
:1003200084E88093BC002FEF30E08091BC0087FD13
:100330000EC021503040C9F78091D8019091D90169
:1003400001969093D9018093D8011092BC0084E962
:100350008093BC001F910F9108950F931F93082F56
:10036000162F880F0E9417011093BB0084E880931A
:10037000BC002FEF30E08091BC0087FD0EC0215003
:100380003040C9F78091D8019091D901019690939E
:10039000D9018093D8011092BC00000F802F81609A
:1003A0000E94170181E00E9449011F910F91089559
:1003B0001F93CF93DF93EB01142F880F81600E946E
:1003C000170108C0115080E011160CF481E00E9462
:1003D000490189931123B1F7DF91CF911F910895BE
:1003E000FF920F931F93CF93DF93082F162FEA01ED
:1003F000F22E880F0E9417011093BB0084E88093AF
:10040000BC002FEF30E08091BC0087FD0EC0215072
:100410003040C9F78091D8019091D901019690930D
:10042000D9018093D8011092BC00802FBE014F2DBE
:100430000E94D801DF91CF911F910F91FF900895F5
:1004400088E66EE340E80E946E0162E370E080E0BF
:1004500090E00E94EF0088E66EE343E00E946E01A8
:1004600088E666E14EE10E946E0188E660E00E9447
:10047000AD0190E08E77883609F491E0892F0895D8
:10048000CF92DF92EF92FF920F931F93DF93CF9360
:1004900000D000D000D0CDB7DEB78C017B016A015F
:1004A00088E66DE1AE014F5F5F4F26E00E94F001EC
:1004B000998180E02A8130E0822B932BF80191838F
:1004C00080839B8180E02C8130E0822B932BF7018D
:1004D000918380839D8180E02E8130E0822B932B5D
:1004E000F6019183808326960FB6F894DEBF0FBE87
:1004F000CDBFCF91DF911F910F91FF90EF90DF90D3
:10050000CF9008951F920F920FB60F9211242F9340
:100510008F939F93EF93FF9390917C009770E92FB7
:10052000F0E0EE0FFF1FE95DFE4F0190F081E02D3E
:10053000809179008083292F16C0E22FF0E0EE0F22
:10054000FF1FE95DFE4F80819181892B61F08091D1
:100550007C00887F282B20937C0080917A00806427
:1005600080937A0003C02F5F283039F7FF91EF9115
:100570009F918F912F910F900FBE0F901F90189504
:100580001F920F920FB60F921124AF92BF92CF928B
:10059000DF92EF92FF920F931F932F933F934F930E
:1005A0005F936F937F938F939F93AF93BF93CF93FB
:1005B000DF93EF93FF930091840010918500809169
:1005C0008A0293B190938A027894292F28278095E4
:1005D0008923A3E6B1E0EBE8F2E060E070E0C22E30
:1005E000DD24E82EFF2421E0CD91DC9111972097A6
:1005F00079F1C601062E02C0959587950A94E2F717
:1006000080FF26C0C701062E02C0959587950A94E3
:10061000E2F780FF03C0118300831AC080819181BB
:10062000A801481B590B569547958CE7A82E8CEFCF
:10063000B82EA40EB51E81EBA81684E0B80640F4CF
:10064000598348838091E601681711F42093E701EC
:100650006F5F7F4F129632966830710529F6FF91D1
:10066000EF91DF91CF91BF91AF919F918F917F914A
:100670006F915F914F913F912F911F910F91FF903B
:10068000EF90DF90CF90BF90AF900F900FBE0F9084
:100690001F9018951F920F920FB60F921124CF92B0
:1006A000DF92EF92FF920F931F932F933F934F93FD
:1006B0005F936F937F938F939F93AF93BF93CF93EA
:1006C000DF93EF93FF93E0908400F090850080919A
:1006D000790299B1909379027894292F28278095EF
:1006E0008923A8EEB1E0EAE7F2E060E070E0C22E14
:1006F000DD24082F10E0CD91DC911197209721F196
:10070000C601062E02C0959587950A94E2F780FFF0
:100710001BC0C801062E02C0959587950A94E2F782
:1007200080FF03C0F182E0820FC080819181A70128
:10073000481B590B56954795CA0184589340815BD5
:10074000944010F4598348836F5F7F4F129632961E
:100750006830710581F6FF91EF91DF91CF91BF91E4
:10076000AF919F918F917F916F915F914F913F9149
:100770002F911F910F91FF90EF90DF90CF900F90EE
:100780000FBE0F901F9018952F923F924F925F923D
:100790006F927F928F929F92AF92BF92CF92DF9291
:1007A000EF92FF920F931F93CF93DF93F5E02F2EDD
:1007B000F2E03F2EEBE06E2EE2E07E2EC0E0D0E0D5
:1007C000FE01E150FE4F40805180FE01E750FE4F98
:1007D000808191819201281B390B79010027F7FC58
:1007E0000095102FF101808191819201281B390B16
:1007F0004901AA2497FCA094BA2CD501C401B7FEE4
:1008000007C088279927DC0188199909AA09BB091B
:1008100080509840A040B04034F0F3011082118223
:10082000128213823EC0FE01E55EFE4F20813181BF
:10083000442737FD4095542FC801B7010E94F51198
:100840009B01AC0176E055954795379527957A95AC
:10085000D1F7F30180819181A281B381280F391FE3
:100860004A1F5B1F2030F0E23F07F0E04F07F0E047
:100870005F0724F02FEF3FE140E050E0CA01B901EB
:10088000603020EE72072FEF82072FEF920724F4DB
:1008900060E070EE8FEF9FEFF301608371838283DE
:1008A000938367E1C62E62E0D62ECC0EDD1EFE01DC
:1008B000EB5EFE4F20813181442737FD4095542F58
:1008C000C801B7010E94F5117B018C0153E0159519
:1008D0000795F794E7945A95D1F7F3018191919197
:1008E000A191B1913F01E80EF91E0A1F1B1FFE01E5
:1008F000EF5DFE4F20813181442737FD4095542F15
:10090000C501B4010E94F51142E095958795779550
:1009100067954A95D1F7E61AF70A080B190B3AE0E2
:1009200015950795F794E7943A95D1F7F601F1827A
:10093000E082F101419251921F012296C630D10509
:1009400009F03ECFDF91CF911F910F91FF90EF9073
:10095000DF90CF90BF90AF909F908F907F906F90DF
:100960005F904F903F902F900895DF93CF9300D0EA
:1009700000D000D0CDB7DEB7CE010196BE016D5FCD
:100980007F4FAE014B5F5F4F0E9440028B819C8185
:100990009093CC018093CB0189819A819093CE0171
:1009A0008093CD018D819E819093D0018093CF0162
:1009B00026960FB6F894DEBF0FBECDBFCF91DF9164
:1009C0000895AF92BF92CF92DF92EF92FF920F9372
:1009D0001F93CF93DF937C018C01EB01F70160E063
:1009E00070E02BC0208131818881998128173907D7
:1009F0000CF4C90191838083208531858881998198
:100A0000821793070CF4C901918780872991399146
:100A1000442737FD4095542FD8011E96AD90BD90C8
:100A2000CD90DC905197A20EB31EC41ED51E1E960B
:100A3000AD92BD92CD92DC9251979B016F5F7F4F3B
:100A400032960C5F1F4FD7018D919C912817390763
:100A50004CF2DF91CF911F910F91FF90EF90DF90BB
:100A6000CF90BF90AF900895CF92DF92EF92FF9218
:100A70000F931F93CF93DF93EC016C017C0100E097
:100A800010E010C02AA53BA5442737FD4095542F00
:100A9000F60166857785808991890E943612F70173
:100AA00031A320A398010F5F1F4F84E090E0C80E90
:100AB000D91EE2E0F0E0EE0EFF1E88819981281732
:100AC000390704F3DF91CF911F910F91FF90EF90C1
:100AD000DF90CF9008950F931F93DF93CF93CDB7FF
:100AE000DEB728970FB6F894DEBF0FBECDBF80915A
:100AF000A5019091A6019A8389838091A701909185
:100B0000A8019C838B838091A9019091AA019E8367
:100B10008D838091AB019091AC0198878F838DE19B
:100B200092E0BE016F5F7F4F0E94E1048091470217
:100B30009091480201969093480280934702843630
:100B4000910509F073C000911D0210911E02EFE1A2
:100B5000F2E0DF0160E040E050E00FC018968D91B8
:100B60009C9119972D913C911197821B930B44975F
:100B70000CF46F5F4F5F5F4F12964017510774F38D
:100B8000862F992787FD90958017910799F58DE11C
:100B900092E00E94340580913F0290914002909330
:100BA0000E0180930D018091410290914202909339
:100BB000100180930F018091430290914402909321
:100BC0001201809311018091450290914602909309
:100BD00014018093130110927502809176028111A5
:100BE00082E08093DB0188EC90E09093E1018093B8
:100BF000E0011CC084E090E090931E0280931D02EF
:100C0000AFE2B2E02FEF3FE780E090E809C0318328
:100C10002083918780871D921D921D921D9232968E
:100C200042E0E732F40799F711A210A228960FB616
:100C3000F894DEBF0FBECDBFCF91DF911F910F9112
:100C40000895DF93CF9300D000D000D0CDB7DEB7AA
:100C50008091CB019091CC019A8389838091CD01C1
:100C60009091CE019C838B838091CF019091D00194
:100C70009E838D8389E492E0BE016F5F7F4F0E9467
:100C8000E104809173029091740201969093740232
:100C9000809373028436910509F08CC0A0914902BB
:100CA000B0914A02EBE4F2E060E040E050E00CC0BA
:100CB0008085918520813181821B930BC2970CF432
:100CC0006F5F4F5F5F4F32964A175B078CF3862F3B
:100CD000992787FD90958A179B0771F589E492E023
:100CE0000E94340580916B0290916C029093C60132
:100CF0008093C50180916D0290916E029093C8011E
:100D00008093C70180916F02909170029093CA0105
:100D10008093C901109276021092DB0180917502D6
:100D2000882319F081E08093DB0188EC90E09093B8
:100D3000E1018093E0013EC083E090E090934A029D
:100D4000809349022FEF3FE730934C0220934B02F0
:100D500080E090E8909354028093530210925B02DB
:100D600010925C0210925D0210925E0230934E026D
:100D700020934D02909356028093550210925F0289
:100D8000109260021092610210926202309350023F
:100D900020934F029093580280935702109263025F
:100DA0001092640210926502109266021092740210
:100DB0001092730226960FB6F894DEBF0FBECDBF19
:100DC000CF91DF91089540910301509104018091EA
:100DD0000301909104014817590721F04091A501A2
:100DE0005091A6015093A6014093A50120910501C1
:100DF000309106018091050190910601281739076D
:100E000021F02091A7013091A8013093A8012093EF
:100E1000A70120910701309108018091070190916D
:100E200008012817390721F02091A9013091AA0162
:100E30003093AA012093A9012091090130910A0160
:100E40008091090190910A012817390721F020911A
:100E5000AB013091AC013093AC012093AB012091F8
:100E60000B0130910C0180910B0190910C0128171E
:100E7000390721F02091AD013091AE013093AE01E0
:100E80002093AD018091D3019091D401892B21F45D
:100E90005093A8014093A70108958091D1019091AA
:100EA000D2018130910571F18230910509F460C061
:100EB000892B09F09CC02091170230911802809173
:100EC000A5019091A601820F931F9093BE0180937C
:100ED000BD018091A7019091A801820F931F90936B
:100EE000C0018093BF018091190290911A02209154
:100EF000A9013091AA01820F931F9093C2018093A0
:100F0000C10127C020911702309118028091A501DC
:100F10009091A601280F391F4091190250911A0291
:100F20008091A9019091AA01480F591FCA01820F0F
:100F3000931F959587959093BE018093BD01241BC7
:100F4000350B3595279524523A4F3093C2012093A3
:100F5000C10180911B0290911C022091AB01309144
:100F6000AC01820F931F9093C4018093C3013FC0D3
:100F700020911702309118028091A5019091A6014D
:100F8000820F931F9093BE018093BD018091A701B2
:100F90009091A801820F931F9093C0018093BF018D
:100FA0004091190250911A028091A9019091AA01D1
:100FB000480F591F20911B0230911C028091AB01F8
:100FC0009091AC01280F391FC901840F951F959589
:100FD00087959093C2018093C101241B350B3595F1
:100FE000279524523A4F3093C4012093C301809136
:100FF000BD019091BE0123E0883E92071CF488EE6B
:1010000093E006C027E0813D920714F080ED97E061
:101010009093BE018093BD018091BF019091C0016A
:1010200023E0883E92071CF488EE93E006C027E098
:10103000813D920714F080ED97E09093C00180937A
:10104000BF018091C1019091C20123E0883E9207C7
:101050001CF488EE93E006C027E0813D920714F06F
:1010600080ED97E09093C2018093C1018091C3010C
:101070009091C40123E0883E92071CF488EE93E02F
:1010800006C027E0813D920714F080ED97E0909331
:10109000C4018093C301089581E08093F8012FB7C4
:1010A000F8948091BD019091BE019093B601809318
:1010B000B5018091BF019091C0019093B8018093D8
:1010C000B7018091C1019091C2019093BA018093C0
:1010D000B9018091C3019091C4019093BC018093A8
:1010E000BB01EFE6F0E0808182608083B19A80915D
:1010F00084009091850004969093890080938800E5
:101100002FBF08958EE991E00E9479100895CF9342
:10111000DF93C0E0D0E006C0A358BE4F8C9161E0E1
:101120000E940011DE01FE01E358FE4F80812196EE
:1011300087FFF2CFDF91CF9108951F920F920FB6E4
:101140000F9211242F933F934F935F936F937F934D
:101150008F939F93AF93BF93CF93DF93EF93FF93BF
:10116000E0917802FF27E7FDF095E358FE4F80817C
:1011700060E00E943F11E0917702E7FD34C0C0912A
:101180008400D0918500FF27E7FDF095E358FE4FDE
:10119000808161E00E943F11A0917702EA2FFF2732
:1011A000E7FDF095EE0FFF1FED58FE4F0190F08127
:1011B000E02D0190F081E02D3297EE0FFF1FA093FC
:1011C0007802AF5FA0937702BB27A7FDB095AA0F67
:1011D000BB1FAD58BE4F8D919C91892B69F48FEF49
:1011E0008093770209C0109277021092F8018091E3
:1011F0006F008D7F80936F00EC0FFD1FF0938900CF
:10120000E0938800FF91EF91DF91CF91BF91AF9173
:101210009F918F917F916F915F914F913F912F910E
:101220000F900FBE0F901F901895CF92DF92EF9204
:10123000FF920F931F93CF93DF938091680081609B
:101240008093680033E6E32E31E0F32EC0E0D0E077
:1012500021E0C22ED12CF70180819181892BC1F030
:1012600080916B00A6010C2E02C0440F551F0A94FA
:10127000E2F7842B80936B00CE01885F182F60E02B
:101280000E940011812F61E00E943F11C093E6018E
:101290002196E2E0F0E0EE0EFF1EC830D105D9F64F
:1012A0008091680084608093680008EE11E0C0E0DF
:1012B000D0E091E0E92EF12CF80180819181892B19
:1012C000A1F020916D00C7010C2E02C0880F991F5C
:1012D0000A94E2F7282B20936D008C2F60E00E9487
:1012E00000118C2F61E00E943F1121960E5F1F4F6D
:1012F000C830D10509F7DF91CF911F910F91FF9071
:10130000EF90DF90CF9008950F931F93CF93DF93CB
:10131000EC01162F062F085F88819981892B41F0F7
:10132000812F60E00E940011812F61E00E943F1137
:1013300022961F5F101781F7DF91CF911F910F91B8
:10134000089583E391E068E00E94840983E491E0DA
:101350006EE00E94840983E591E060E00E948409C8
:101360000895EF92FF921F93CF93DF9347E2E42E0D
:1013700041E0F42EE7011EE088819981892B41F03C
:10138000812F60E00E940011812F60E00E943F11D8
:1013900022961F5F143181F780E680937C001092C3
:1013A0007B008FE880937A0020E0F70180819181B3
:1013B000892B61F080917C00887F282B20937C0012
:1013C00080917A00806480937A0007C02F5F82E06A
:1013D00090E0E80EF91E283041F7DF91CF911F9180
:1013E000FF90EF900895EF92FF920F931F937A0171
:1013F0008B01882341F082E161E00E943F1183E18B
:1014000061E00E943F111092B90060E074E284EF45
:1014100090E0A80197010E941412205130404040F2
:10142000504056954795379527952093B8001F91C2
:101430000F91FF90EF90089581E040E85AE166E057
:1014400070E00E94F3090E942002882349F485E09D
:101450008093DC0188EC90E09093E3018093E201BB
:101460000895FF920F931F93CF93DF93FF2400E023
:1014700010E0F801ED5CFE4FC081D181209729F08A
:101480008F2D885F0E9493118883F801ED5BFE4FDA
:10149000C081D181209729F08F2D825F0E94931106
:1014A0008883F801ED5AFE4FC081D181209721F049
:1014B0008F2D0E9493118883F3940E5F1F4F88E055
:1014C000F816B9F6DF91CF911F910F91FF90089513
:1014D000823011F460E009C0813011F461E005C090
:1014E0008DE00E94931161E068278DE00E943F111A
:1014F0000895EF92FF920F931F937B018C018091CF
:101500009B0290919C02A0919D02B0919E028E1927
:101510009F09A00BB10B181619061A061B060CF42E
:1015200054C080919F02882321F5E091A002EF5FD3
:10153000E370E093A002FF27E7FDF095E652FE4F2F
:101540008081992787FD9095880F991F80939F022E
:1015500080E492E4AFE0B0E0E80EF91E0A1F1B1F22
:10156000E0929B02F0929C0200939D0210939E02D7
:101570002CC0815080939F0280FD02C082E001C098
:1015800081E00E94680AE091A002FF27E7FDF09544
:10159000EE0FFF1FE252FE4F80819181AA2797FD37
:1015A000A095BA2F7AE0880F991FAA1FBB1F7A95C2
:1015B000D1F78E0D9F1DA01FB11F80939B029093AA
:1015C0009C02A0939D02B0939E021F910F91FF90E9
:1015D000EF9008952F923F924F925F926F927F9279
:1015E0008F929F92AF92BF92CF92DF92EF92FF9233
:1015F0000F931F93DF93CF93CDB7DEB765970FB6E9
:10160000F894DEBF0FBECDBFDE011196E8E8F1E031
:1016100086E001900D928150E1F7DE011796E2E835
:10162000F1E086E001900D928150E1F784E090E0D6
:1016300090931E0280931D02EFE1F2E0DF015096CD
:1016400040E050E00FEF1FE760E070E809C0118351
:101650000083718760871D921D921D921D923296A4
:101660009A014F5F5F4F80911D0290911E022817D3
:1016700039076CF3109248021092470241E0409300
:10168000750283E090E090934A02809349022FEF25
:101690003FE730934C0220934B0280E090E8909318
:1016A00054028093530210925B0210925C021092DB
:1016B0005D0210925E0230934E0220934D02909391
:1016C00056028093550210925F02109260021092AF
:1016D0006102109262023093500220934F02909365
:1016E0005802809357021092630210926402109283
:1016F0006502109266021092740210927302409377
:10170000760283E08093DB0188EC90E09093E10126
:101710008093E0011A8A1B8A1C8A1D8A1E861F86F6
:10172000188A198A882499245401222433242101F7
:101730001D8602C0160127010E94AF006B017C01CB
:101740000E94790A8091E701882379F4D701C601C4
:101750002A893B894C895D89821B930BA40BB50BAD
:1017600081539547A040B04064F01092E7010E9479
:10177000E30680917502882309F4B6C10E946B05C7
:10178000B3C14D85442309F44FC08091F8018823EB
:1017900009F0AFC10E944D070E944C08D701C60155
:1017A0002E853F8548895989821B930BA40BB50B65
:1017B00081519742A040B040B4F10E94B50480919D
:1017C0007602882311F00E9421068091CB0190912E
:1017D000CC012091C5013091C601821B930B9093DF
:1017E000CC018093CB018091CD019091CE012091CD
:1017F000C7013091C801821B930B9093CE01809357
:10180000CD018091CF019091D0012091C9013091FB
:10181000CA01821B930B9093D0018093CF01CE8697
:10182000DF86E88AF98A1D8680917502882309F08F
:1018300083CF80917602882309F07ECFD701C6013D
:1018400088199909AA09BB0981519742A040B04063
:101850000CF411C11092FA011092F9011092FC01DE
:101860001092FB011092FE011092FD018091CB01BC
:101870009091CC0150E28030950714F08FEF9FE1FA
:10188000E0EE80309E0714F480E090EE909300022A
:101890008093FF018091CD019091CE01F0E28030E4
:1018A0009F0714F08FEF9FE120EE8030920714F431
:1018B00080E090EE90930202809301028091CF012C
:1018C0009091D00130E28030930714F08FEF9FE1C8
:1018D00040EE8030940714F480E090EE9093040280
:1018E000809303020E94C4032091A7013091A801B4
:1018F0008091A5019091A601280F391F80910F01B9
:1019000090911001281B390B80910D0190910E01CF
:10191000281B390B3595279537FF03C03095219546
:101920003F4F51E02139350714F020E931E080E9DB
:1019300091E0821B930B98878F832091A9013091AE
:10194000AA018091110190911201281B390B37FFD8
:1019500003C0309521953F4F81E02139380714F0BD
:1019600020E931E080E991E0821B930B9A87898717
:101970002091AB013091AC01809113019091140141
:10198000281B390B37FF03C0309521953F4FE1E00D
:1019900021393E0714F020E931E080E991E0821B13
:1019A000930B9C878B878091AD019091AE01F4E001
:1019B0008C349F071CF480E090E009C027E08D364E
:1019C00092071CF080E293E002C08C549440F7E14F
:1019D000AF2EF2E0BF2E00E010E03C01882477FC3F
:1019E0008094982CE1E0F0E0EC0FFD1FE00FF11F78
:1019F00060817181882777FD8095982FF50120817E
:101A00003181442737FD4095542F0E94F511E7E0BE
:101A10009595879577956795EA95D1F7E7E0F0E09A
:101A2000EC0FFD1FE00FF11F20813181442737FDAE
:101A30004095542F0E94F5119B01AC01232F342FA8
:101A4000452F552747FD5A95C401B3010E94F51152
:101A500029E095958795779567952A95D1F7F501B2
:101A6000619371935F010E5F1F4F0630110509F0FE
:101A7000B9CF46015701D701C60182199309A409BC
:101A8000B5098C519748A140B0400CF455CE8091D7
:101A90000001209101014091020190E080589040A6
:101AA0009A83898330E0205830403C832B8350E078
:101AB000405850405E834D83E7E2F1E020E08081B2
:101AC0009181892B61F080917C00887F282B209365
:101AD0007C0080917A00806480937A002BCE2F5F07
:101AE0003296283061F726CECA8ADB8AEC8AFD8AD4
:101AF0004CCE21E02D8798CEDF93CF9300D0CDB789
:101B0000DEB78DE061E00E9400111092800082E05B
:101B10008093810081E080936F0085B5887F85BDCB
:101B20000E94A1090E94310A1092D2011092D101A3
:101B30001092D4011092D3018091B201882319F43C
:101B400040E050E002C042E050E020E030E0809110
:101B5000B301882311F021E030E0CA01822B932BDE
:101B60008130910561F08230910561F0892B81F41B
:101B700081E090E09093D4018093D30109C082E08A
:101B800090E002C081E090E09093D2018093D10177
:101B90008091D3019091D401019799F48091AF0184
:101BA00025E031E0882329F030936A012093690110
:101BB00008C010925801109257013093ED01209304
:101BC000EC018091D1018F5F8093DA0188E592E08A
:101BD0009093DF018093DE010E94B1090E941509F4
:101BE0000E9487080E941C0A0E94E30610921802B5
:101BF0001092170210921A021092190210921C02EF
:101C000010921B020E944D078091690390916A0314
:101C1000009711F09C0102C02DE633E0CE01019641
:101C2000821B930B883C91054CF488E28093DD0184
:101C30008EE190E09093E5018093E4010E94EA0A2E
:101C40000F900F90CF91DF9108952091C20230E064
:101C50008091C102281B3109C90108954091C10238
:101C60008091C202481718F02FEF3FEF0AC0E42F0F
:101C7000F0E0EF55FD4F8081282F30E04F5F40931B
:101C8000C102C9010895E091C1028091C202E81722
:101C900018F0EFEFFFEF06C0F0E0EF55FD4F808149
:101CA000E82FF0E0CF01089508951092E902109214
:101CB000E80288EE93E0A0E0B0E08093EA0290931F
:101CC000EB02A093EC02B093ED0282E991E09093D5
:101CD000E7028093E6020895CF92DF92EF92FF929F
:101CE0000F931F93CF93DF937C016B018A01809147
:101CF000E5028823A1F0C0E0D0E00DC0D701ED914E
:101D0000FC91D601AC0FBD1F0190F081E02DC70101
:101D10006C9109952196C017D10780F304C0CB01BF
:101D2000642F0E94CD0EC801DF91CF911F910F91BA
:101D3000FF90EF90DF90CF900895DF93CF930F92B5
:101D4000CDB7DEB7FC0169838091E5028823C9F035
:101D50008091E402803238F081E090E093838283C6
:101D600020E030E015C08091E302E82FF0E0ED5371
:101D7000FD4F998190838F5F8093E3028093E4020B
:101D800005C0CE01019661E00E94CD0E21E030E059
:101D9000C9010F90CF91DF910895482F613210F063
:101DA00081E008958091F202843011F082E008957C
:101DB00060933D03ACE1B3E0842F9C01F90102C0C4
:101DC00081918D938E2F841B8617D0F380E0089528
:101DD0001F920F920FB60F9211242F933F934F93A0
:101DE0005F936F937F938F939F93AF93BF93EF9383
:101DF000FF938091B90090E0887F907080369105C4
:101E000009F4F2C081369105CCF58832910509F4C8
:101E10007BC089329105B4F48031910509F46FC01B
:101E2000813191053CF4009709F447C1089709F006
:101E30004FC165C08831910509F466C0809709F0EB
:101E400047C182C08034910509F4A4C08134910552
:101E500044F48033910509F482C0C89709F038C171
:101E600089C08035910509F489C08835910509F448
:101E700096C08834910509F02BC1AEC08839910510
:101E800009F413C189399105ECF48837910509F4F7
:101E9000ABC0893791054CF48836910509F4A4C08C
:101EA0008037910509F014C19FC08838910509F465
:101EB000FCC08039910509F49DC08038910509F076
:101EC00007C198C0803B910509F4C6C0813B9105CC
:101ED0004CF4803A910509F49FC0883A910509F0C5
:101EE000F7C0BAC0803C910509F4E3C0883C910575
:101EF00009F4DFC0883B910509F0EAC0C2C08091B7
:101F0000F3028093BB00CFC090911A0380911B0312
:101F1000981768F490911A03E92FF0E0E650FD4F0E
:101F200080818093BB009F5F90931A03BCC0809117
:101F3000F402882309F44BC085ED8093BC008091A6
:101F4000BC0084FDFCCFC2C080E280935F0385EDBE
:101F50008093BC008091BC0084FDFCCFB7C080E3BF
:101F600080935F0385ED8093BC008091BC0084FD6D
:101F7000FCCFACC088E380935F039BC080911A03C1
:101F80009091BB00E82FF0E0E650FD4F90838F5F0B
:101F900080931A0390911A0380911B0382C0809151
:101FA0001A039091BB00E82FF0E0E650FD4F9083BC
:101FB0008F5F80931A038091F402882341F085EDAE
:101FC0008093BC008091BC0084FDFCCF7FC081E089
:101FD0008093F50284EA6EC085ED8093BC00809109
:101FE000BC0084FDFCCF72C083E08093F2021092AB
:101FF0005E0359C080915E03803208F056C0809124
:102000005E039091BB00E82FF0E0E25CFC4F908310
:102010008F5F80935E0347C080915E03803230F40F
:10202000E0915E03F0E0E25CFC4F108285ED80936E
:10203000BC008091BC0084FDFCCF1092F202609144
:102040005E03E091F802F091F9028EE393E070E014
:10205000099510925E032DC084E08093F2021092E5
:102060003C0310923D03E091F602F091F7020995CE
:1020700080913D03882329F481E080933D031092F1
:102080001C0390913C03E92FF0E0E45EFC4F80815B
:102090008093BB009F5F90933C0390913C038091A1
:1020A0003D03981710F485EC01C085E88093BC00CF
:1020B0000FC085EC8093BC0009C010925F0385EDD2
:1020C0008093BC008091BC0084FDFCCF1092F20292
:1020D000FF91EF91BF91AF919F918F917F916F9100
:1020E0005F914F913F912F910F900FBE0F901F90D6
:1020F0001895FC0188E6808308951F920F920FB611
:102100000F9211242F933F938F939F93AF93BF937D
:102110008091640390916503A0916603B091670379
:10212000309168030196A11DB11D232F2D5F2D371E
:1021300020F02D570196A11DB11D209368038093B7
:10214000640390936503A0936603B0936703809143
:10215000600390916103A0916203B09163030196C3
:10216000A11DB11D8093600390936103A09362034E
:10217000B0936303BF91AF919F918F913F912F9146
:102180000F900FBE0F901F901895789484B58260C1
:1021900084BD84B5816084BD85B5826085BD85B50B
:1021A000816085BDEEE6F0E0808181608083E1E8BA
:1021B000F0E01082808182608083808181608083F2
:1021C000E0E8F0E0808181608083E1EBF0E08081F5
:1021D00084608083E0EBF0E0808181608083EAE7C7
:1021E000F0E0808184608083808182608083808150
:1021F000816080838081806880831092C10008950F
:10220000CF93DF93482F50E0CA0186569F4FFC01C1
:1022100034914A575F4FFA018491882369F190E025
:10222000880F991FFC01E859FF4FA591B491FC015B
:10223000EE58FF4FC591D491662351F42FB7F8940F
:102240008C91932F909589238C93888189230BC03F
:10225000623061F42FB7F8948C91932F9095892375
:102260008C938881832B88832FBF06C09FB7F894F7
:102270008C91832B8C939FBFDF91CF910895482F32
:1022800050E0CA0182559F4FFC012491CA01865635
:102290009F4FFC0194914A575F4FFA0134913323C9
:1022A00009F440C0222351F1233071F0243028F486
:1022B0002130A1F0223011F514C02630B1F02730C2
:1022C000C1F02430D9F404C0809180008F7703C01E
:1022D000809180008F7D8093800010C084B58F77BF
:1022E00002C084B58F7D84BD09C08091B0008F7716
:1022F00003C08091B0008F7D8093B000E32FF0E0A9
:10230000EE0FFF1FEE58FF4FA591B4912FB7F89431
:10231000662321F48C919095892302C08C91892B9E
:102320008C932FBF0895682F70E0CB0182559F4F8B
:10233000FC012491CB0186569F4FFC0144916A57C2
:102340007F4FFB019491992319F420E030E03CC0C9
:10235000222351F1233071F0243028F42130A1F0F0
:10236000223011F514C02630B1F02730C1F02430EE
:10237000D9F404C0809180008F7703C080918000E1
:102380008F7D8093800010C084B58F7702C084B5A4
:102390008F7D84BD09C08091B0008F7703C080918C
:1023A000B0008F7D8093B000892F90E0880F991F37
:1023B00084589F4FFC01A591B4918C9120E030E0AE
:1023C000842311F021E030E0C9010895CF93DF9319
:1023D0000E94C5100E947C0DC0E0D0E00E94EA0A75
:1023E0002097E1F30E940000F9CF629FD001739F14
:1023F000F001829FE00DF11D649FE00DF11D929FA1
:10240000F00D839FF00D749FF00D659FF00D9927DF
:10241000729FB00DE11DF91F639FB00DE11DF91F03
:10242000BD01CF0111240895A1E21A2EAA1BBB1BE6
:10243000FD010DC0AA1FBB1FEE1FFF1FA217B30790
:10244000E407F50720F0A21BB30BE40BF50B661FA6
:10245000771F881F991F1A9469F76095709580956A
:1024600090959B01AC01BD01CF01089597FB092E0A
:1024700005260ED057FD04D0D7DF0AD0001C38F453
:1024800050954095309521953F4F4F4F5F4F0895A0
:10249000F6F790958095709561957F4F8F4F9F4F80
:1024A0000895EE0FFF1F0590F491E02D0994F89424
:0224B000FFCF5C
:1024B200808080DC05DC05DC05DC05D007DC05DC82
:1024C20005DC05DC05F401F401F401F401F401F486
:1024D20001F401F401F40100000001010102010014
:1024E2000000000000000000000000B20100000037
:1024F200000000B301000000000000000000000026
:10250200000000B401AF01B001B101000000000001
:102512000000000301070109010B01000000000097
:10252200000000B501B901BB01B7010000040506B6
:1025320007FF90019001900180FF80FF80FF000063
:0E25420000009D0E6C0E250E2E0E430E540E44
:00000001FF
