:100000000C9463000C948B000C948B000C94A20253
:100010000C948B000C9424020C948B000C948B0099
:100020000C948B000C948B000C948B000C948B0024
:100030000C948B000C948B000C946B030C948B0031
:100040000C941F100C948B000C948B000C948B0060
:100050000C948B000C948D000C948B000C948B00F2
:100060000C94440C0C948B0000000000240027002A
:100070002A0000000000250028002B0000000000DE
:1000800023002600290004040404040404040202DA
:100090000202020203030303030301020408102007
:1000A0004080010204081020010204081020000012
:1000B0000007000201000003040600000000000029
:1000C00000001F02E00A11241FBECFEFD4E0DEBF04
:1000D000CDBF11E0A0E0B1E0EEE8F5E202C005908E
:1000E0000D92AA38B107D9F713E0AAE8B1E001C030
:1000F0001D92A933B107E1F710E0C6ECD0E004C0CF
:100100002297FE010E94C112C23CD107C9F70E948A
:100110001F120C94C5120C9400001F920F920FB680
:100120000F9211242F938F939F93EF93FF939091AE
:100130007C009770E92FF0E0EE0FFF1FEF5CFE4FA1
:100140000190F081E02D809179008083292F16C0E5
:10015000E22FF0E0EE0FFF1FEF5CFE4F80819181F8
:10016000892B61F080917C00887F282B20937C0074
:1001700080917A00806480937A0003C02F5F2830DA
:1001800039F7FF91EF919F918F912F910F900FBEB3
:100190000F901F90189580E680937C0010927B0052
:1001A0008FE880937A00E1E3F1E020E080819181A3
:1001B000892B61F080917C00887F282B20937C0024
:1001C00080917A00806480937A0008952F5F329640
:1001D000283061F708952F923F924F925F926F926D
:1001E0007F928F929F92AF92BF92CF92DF92EF92C7
:1001F000FF920F931F93CF93DF93FCEE2F2EF1E02E
:100200003F2EE2EF6E2EE1E07E2EC0E0D0E0FE0158
:10021000EA51FE4F40805180FE01E052FE4F808146
:1002200091819201281B390B79010027F7FC009579
:10023000102FF101808191819201281B390B490116
:10024000AA2497FCA094BA2CD501C401B7FE07C01C
:1002500088279927DC0188199909AA09BB098050C8
:100260009840A040B04034F0F30110821182128215
:1002700013823EC0FE01EB5DFE4F20813181442799
:1002800037FD4095542FC801B7010E943C129B01D5
:10029000AC0176E055954795379527957A95D1F736
:1002A000F30180819181A281B381280F391F4A1FF8
:1002B0005B1F2030F0E23F07F0E04F07F0E05F0700
:1002C00024F02FEF3FE140E050E0CA01B901603077
:1002D00020EE72072FEF82072FEF920724F460E0E1
:1002E00070EE8FEF9FEFF3016083718382839383BE
:1002F0006EEFC62E61E0D62ECC0EDD1EFE01E15E55
:10030000FE4F20813181442737FD4095542FC8018D
:10031000B7010E943C127B018C0153E015950795B3
:10032000F794E7945A95D1F7F30181919191A191B6
:10033000B1913F01E80EF91E0A1F1B1FFE01E55D8A
:10034000FE4F20813181442737FD4095542FC50150
:10035000B4010E943C1242E0959587957795679588
:100360004A95D1F7E61AF70A080B190B3AE01595EA
:100370000795F794E7943A95D1F7F601F182E08278
:10038000F101419251921F012296C630D10509F028
:100390003ECFDF91CF911F910F91FF90EF90DF90B3
:1003A000CF90BF90AF909F908F907F906F905F9015
:1003B0004F903F902F900895EF92FF920F931F93CD
:1003C000CF93DF93E02E8C01E901FA01FF242EC0C8
:1003D000D8012D913C9188819981281739070CF417
:1003E000C901D8018D939C93DB012D913C918881AB
:1003F0009981821793070CF4C901DB018D939D93BA
:10040000BD0129913991442737FD4095542F8081B2
:100410009181A281B381820F931FA41FB51F819385
:100420009193A193B193F3940E5F1F4FFE1484F246
:10043000DF91CF911F910F91FF90EF9008958AE87F
:1004400091E00E94830F08951F920F920FB60F92B2
:100450001124AF92BF92CF92DF92EF92FF920F934F
:100460001F932F933F934F935F936F937F938F933C
:100470009F93AF93BF93CF93DF93EF93FF930E942C
:1004800075107B018C0199B1789480912802282FF6
:1004900029278095892390932802A0EDB1E0E9E215
:1004A000F2E060E070E0A22EBB24C82EDD24CD91E6
:1004B000DC911197209721F1C501062E02C0959578
:1004C00087950A94E2F780FF1BC0C601062E02C082
:1004D000959587950A94E2F780FF05C0E082F18246
:1004E000028313830DC080819181A701481B590BA2
:1004F000CA0184589340815B944010F45983488327
:100500006F5F7F4F129634966830710581F6FF91C8
:10051000EF91DF91CF91BF91AF919F918F917F919B
:100520006F915F914F913F912F911F910F91FF908C
:10053000EF90DF90CF90BF90AF900F900FBE0F90D5
:100540001F9018951F920F920FB60F921124AF9221
:10055000BF92CF92DF92EF92FF920F931F932F9350
:100560003F934F935F936F937F938F939F93AF933B
:10057000BF93CF93DF93EF93FF930E9475107B019E
:100580008C0193B1789480914902282F2927809576
:10059000892390934902A1E5B1E0EAE4F2E060E04A
:1005A00070E0A22EBB24C82EDD24CD91DC911197E2
:1005B000209721F1C501062E02C0959587950A94D2
:1005C000E2F780FF1BC0C601062E02C095958795F5
:1005D0000A94E2F780FF05C0E082F1820283138370
:1005E0000DC080819181A701481B590BCA01845815
:1005F0009340815B944010F4598348836F5F7F4F31
:10060000129634966830710581F6FF91EF91DF9173
:10061000CF91BF91AF919F918F917F916F915F919A
:100620004F913F912F911F910F91FF90EF90DF908D
:10063000CF90BF90AF900F900FBE0F901F90189566
:10064000CF93DF93C0E0D0E006C0A559BE4F8C9198
:1006500061E00E943911DE01FE01E559FE4F808103
:10066000219687FFF2CF14BC80916E008260809348
:100670006E00DF91CF910895DF93CF9300D000D02B
:1006800000D0CDB7DEB78AE891E0BE016F5F7F4F43
:10069000AE014D5F5F4F9E012B5F3F4F0E94DB0F0E
:1006A0008B819C8190939B0180939A0189819A818F
:1006B00090939D0180939C018D819E8190939F01D9
:1006C00080939E0126960FB6F894DEBF0FBECDBF75
:1006D000CF91DF9108951F920F920FB60F921124C0
:1006E0001F932F933F934F935F936F937F938F93BA
:1006F0009F93AF93BF93EF93FF938091180288234A
:1007000071F488E192E00E942E12892B41F08091D1
:1007100023028093220288E192E00E943812E09145
:100720007601E7FD0CC0FF27E7FDF095E559FE4F88
:10073000808160E00E9478118FEF80937601E091D4
:100740002302E7FD31C0FF27E7FDF095E559FE4F95
:10075000808161E00E94781180912302882351F406
:100760000E947510609324027093250280932602E4
:1007700090932702E0912302FF27E7FDF095EE0F0B
:10078000FF1FEF59FE4F0190F081E02D8081918194
:1007900002969595879595958795909321028093DC
:1007A00020028FEF809323028091200290912102FA
:1007B0008B3F910514F01AEF21C0182F809122026F
:1007C00080937601282F2F5F20932202E22FFF27AC
:1007D000E7FDF095EE0FFF1FEF59FE4F80819181ED
:1007E000892B19F02093230209C08FEF80932202F6
:1007F0008FEF9FE790932102809320028091200247
:1008000090912102811B91099093210280932002F3
:100810008091220287FF1FC00E9475102091240240
:10082000309125024091260250912702621B730BE2
:10083000840B950B2091150130911601442737FD4B
:100840004095542F261737074807590720F4109270
:1008500023021092220287B5180F17BDFF91EF9166
:10086000BF91AF919F918F917F916F915F914F91C8
:100870003F912F911F910F900FBE0F901F901895D1
:10088000CF92DF92EF92FF920F931F93CF93DF935C
:100890008091680081608093680021E5E22E21E06C
:1008A000F22EC0E0D0E091E0C92ED12CF70180817A
:1008B0009181892BB1F080916B00A6010C2E02C0B2
:1008C000440F551F0A94E2F7842B80936B00CE01EE
:1008D000885F182F60E00E943911812F61E00E942B
:1008E00078112196E2E0F0E0EE0EFF1EC830D1054F
:1008F000E9F68091680084608093680000ED11E063
:10090000C0E0D0E081E0E82EF12CF80180819181F7
:10091000892BA1F020916D00C7010C2E02C0880F19
:10092000991F0A94E2F7282B20936D008C2F60E02A
:100930000E9439118C2F61E00E94781121960E5F80
:100940001F4FC830D10509F7DF91CF911F910F914B
:10095000FF90EF90DF90CF9008950F931F93CF9368
:10096000DF93EC01162F062F085F88819981892B70
:1009700041F0812F60E00E943911812F61E00E94D7
:10098000781122961F5F101781F7DF91CF911F9189
:100990000F91089580EB91E068E00E94AD0480EC37
:1009A00091E06EE00E94AD0481E491E060E00E947D
:1009B000AD040895FF920F931F93CF93DF93FF240D
:1009C00000E010E0F801E055FE4FC081D181209792
:1009D00029F08F2D885F0E94CC118883F801E054A4
:1009E000FE4FC081D181209729F08F2D825F0E9418
:1009F000CC118883F801EF5BFE4FC081D181209735
:100A000021F08F2D0E94CC118883F3940E5F1F4F2D
:100A100088E0F816B9F6DF91CF911F910F91FF9002
:100A20000895823011F460E009C0813011F461E072
:100A300005C08DE00E94CC1161E068278DE00E9426
:100A4000781108952F923F924F925F926F927F920A
:100A50008F929F92AF92BF92CF92DF92EF92FF92CE
:100A60000F931F93DF93CF93CDB7DEB7A8970FB641
:100A7000F894DEBF0FBECDBFB9E14B2E512C4C0E0A
:100A80005D1EA9E06A2E712C6C0E7D1EF1E1EF2E29
:100A9000F12CEC0EFD1E1E010894211C311CD2010C
:100AA00080E090E0F301E80FF91F2FEF3FE731837B
:100AB0002083F701E80FF91F40E050E8518340839D
:100AC0001D921D921D921D9202968830910551F73C
:100AD0000E9475104B015C01CC24DD2428C00E94CB
:100AE0003C0380919A0190919B019A838983809124
:100AF0009C0190919D019C838B8380919E0190919C
:100B00009F019E838D83C301B701A201910103E080
:100B10000E94DC01C60164E670E00E945B12892B32
:100B200019F483E00E9411050894C11CD11C0E9495
:100B30007510681979098A099B09605472448F40BD
:100B4000904068F260E040E050E0F701E40FF51FEC
:100B5000D301A40FB51F808191812D913C91821BFF
:100B6000930BC2970CF46F5F4E5F5F4F4630510599
:100B700061F7633009F093CF76010027F7FC009509
:100B8000102F698D7A8D8B8D9C8DA80197010E9405
:100B9000901230939501209394016D8D7E8D8F8DF1
:100BA00098A1A80197010E94901230939701209379
:100BB000960169A17AA18BA19CA1A80197010E942D
:100BC0009012309399012093980120E0E9E06E2E75
:100BD000712C6C0E7D1E71E1E72EF12CEC0EFD1ECA
:100BE00069E1462E512C4C0E5D1E212C50E8352E0D
:100BF0001FC0E22FFF27E7FDF095BF01660F771FAB
:100C0000C301860F971F4FEF5FE7DC014D935C93A5
:100C10006E0D7F1DDB012D923C92EE0FFF1FEE0F3C
:100C2000FF1FE40DF51D10821182128213822F5FC7
:100C30002430FCF20E9475104B015C01CC24DD24B1
:100C400043C02FB7F89480910301909104019A83D7
:100C5000898380910501909106019C838B8380910B
:100C60000701909108019E838D83809109019091E5
:100C70000A0198878F832FBF8091A2019091A301D1
:100C8000892B41F480910301909104019093060116
:100C900080930501C301B701A2019E012F5F3F4F61
:100CA00004E00E94DC01C60162E370E00E945B1276
:100CB000892B19F483E00E9411050894C11CD11CF2
:100CC00088EE93E00E94F4100E947510681979096B
:100CD0008A099B09605472448F40904008F4B1CF58
:100CE00060E040E050E0F701E40FF51FD301A40FEE
:100CF000B51F808191812D913C91821B930B44976C
:100D00000CF46F5F4E5F5F4F4830510561F7643000
:100D100011F020E06ECF76010027F7FC0095102F30
:100D2000698D7A8D8B8D9C8DA80197010E94901200
:100D300030930E0120930D016D8D7E8D8F8D98A1C6
:100D4000A80197010E9490123093100120930F0187
:100D500069A17AA18BA19CA1A80197010E94901280
:100D600030931201209311016DA17EA18FA198A54E
:100D7000A80197010E94901230931401209313014F
:100D800082E00E941105A8960FB6F894DEBF0FBE50
:100D9000CDBFCF91DF911F910F91FF90EF90DF902A
:100DA000CF90BF90AF909F908F907F906F905F900B
:100DB0004F903F902F900895EF92FF920F931F93C3
:100DC0007B018C0180916A0290916B02A0916C0270
:100DD000B0916D028E199F09A00BB10B1816190660
:100DE0001A061B060CF454C080916E02882321F56C
:100DF000E0916F02EF5FE370E0936F02FF27E7FD82
:100E0000F095EC55FE4F8081992787FD9095880FCE
:100E1000991F80936E0280E492E4AFE0B0E0E80EA8
:100E2000F91E0A1F1B1FE0926A02F0926B020093E8
:100E30006C0210936D022CC0815080936E0280FD75
:100E400002C082E001C081E00E941105E0916F02C2
:100E5000FF27E7FDF095EE0FFF1FE855FE4F80815D
:100E60009181AA2797FDA095BA2F2AE0880F991F94
:100E7000AA1FBB1F2A95D1F78E0D9F1DA01FB11F62
:100E800080936A0290936B02A0936C02B0936D0200
:100E90001F910F91FF90EF9008952F923F924F92E4
:100EA0005F926F927F928F929F92AF92BF92CF92FA
:100EB000DF92EF92FF920F931F93DF93CF9300D0B7
:100EC00000D0CDB7DEB70E9475107B018C01E09297
:100ED0001402F09215020093160210931702C80133
:100EE000B7010E94DC068091100290911102A0913E
:100EF0001202B0911302A8019701281B390B4A0B6B
:100F00005B0BDA01C9018C519748A140B0400CF449
:100F10003DC06FB7F894809100012091010140918C
:100F200002016FBF90E08058904090930702809339
:100F3000060230E020583040309309022093080226
:100F400050E04058504050930B0240930A02E1E3B6
:100F5000F1E020E080819181892B61F080917C001B
:100F6000887F282B20937C0080917A008064809376
:100F70007A0004C02F5F3296283061F7E0921002A9
:100F8000F0921102009312021093130280910C024E
:100F900090910D02A0910E02B0910F02A80197014D
:100FA000281B390B4A0B5B0BDA01C90181519742AF
:100FB000A040B0400CF40AC20E9475108FB7F8949C
:100FC0006090030170900401409105015091060169
:100FD0005A834983409007015090080120900901ED
:100FE00030900A01C0900B01D0900C018FBF80910E
:100FF000A2019091A301892B41F48091030190916A
:10100000040190930601809305011092E101109272
:10101000E0011092E3011092E2011092E5011092BA
:10102000E4010E943C0320919A0130919B01809140
:10103000940190919501281B390B30939B012093CB
:101040009A0140919C0150919D018091960190914F
:101050009701481B590B50939D0140939C0160914F
:101060009E0170919F018091980190919901681B58
:10107000790B70939F0160939E0180E220303807C6
:1010800014F02FEF3FE190EE2030390714F420E008
:1010900030EE3093E7012093E601CA01E0E24030F0
:1010A0005E0714F08FEF9FE1F0EE80309F0714F49D
:1010B00080E090EE9093E9018093E801CB0120E27B
:1010C0006030720714F08FEF9FE130EE80309307AD
:1010D00014F480E090EE9093EB018093EA010E947B
:1010E000EB0029813A81260D371D80910F019091E7
:1010F0001001281B390B80910D0190910E01281BC6
:10110000390B3595279537FF03C0309521953F4F13
:1011100041E02139340714F020E931E080E991E021
:10112000821B930B90937101809370018091110148
:10113000909112019201281B390B37FF03C03095A3
:1011400021953F4F51E02139350714F020E931E076
:1011500080E991E0821B930B90937301809372015D
:1011600080911301909114019101281B390B37FFD5
:1011700003C0309521953F4F81E02139380714F0A5
:1011800020E931E080E991E0821B930B9093750197
:10119000809374019CE4C91694E0D9061CF480E0A5
:1011A00090E00BC0EDE6CE16E7E0DE061CF080E234
:1011B00093E003C0C6018C54944090930502809341
:1011C0000402BEEFCB2EB1E0DB2E1C821B824C0151
:1011D000AA2497FCA094BA2CEB81FC81EA5FFD4F16
:1011E00060817181882777FD8095982FF601208195
:1011F0003181442737FD4095542F0E943C12A7E0CF
:101200009595879577956795AA95D1F7EB81FC81A0
:10121000E059FE4F20813181442737FD4095542FFE
:101220000E943C12272F382F492F552747FD5A95EA
:10123000C501B4010E943C12E9E095958795779528
:101240006795EA95D1F7F601619371936F012B8150
:101250003C812E5F3F4F3C832B832630310509F0C4
:10126000BBCF8091A0019091A10181309105C1F087
:1012700082309105A1F1009709F053C08091FE01E1
:101280009091FF01BC01660D771DA981BA81A80F5D
:10129000B91F4091000250910102440D551D18C024
:1012A0002091FE013091FF01260D371D8091000233
:1012B00090910102840D951DBC01620F731F7595FD
:1012C0006795A901481B590B5595479544525A4FAC
:1012D0008091020290910302820D931D22C08091A1
:1012E000FE019091FF01BC01660D771DA981BA81B5
:1012F000A80FB91F2091000230910102240D351D65
:101300008091020290910302820D931DAC01420F65
:10131000531F55954795821B930B9595879584523E
:101320009A4F33E0683E73071CF4E8EEF3E007C021
:10133000FB0127E0613D720714F0E0EDF7E033E0D8
:10134000A83EB3071CF468EE73E007C0BD0127E0B8
:10135000A13DB20714F060ED77E033E0483E53075B
:101360001CF428EE33E007C09A0147E0213D340722
:1013700014F020ED37E053E0883E95071CF448EE6A
:1013800053E007C0AC0187E0413D580714F040ED41
:1013900057E08FB7F894F0931801E093170170931A
:1013A0001E0160931D0130931A012093190150937F
:1013B0001C0140931B018FBF0E947510E0920C022C
:1013C000F0920D0200930E0210930F020F900F90F7
:1013D0000F900F90CF91DF911F910F91FF90EF90A1
:1013E000DF90CF90BF90AF909F908F907F906F9045
:1013F0005F904F903F902F90089588E28093A701CF
:101400008EE190E09093AF018093AE010E94751041
:101410000E94DC06FBCF86EB92E00E94800B8AE8FC
:1014200091E00E94A80F8AE891E061E00E94870F96
:101430008AE891E063E00E949D0F8AE891E066E00F
:101440000E94920F8AE891E00E94D30F882359F4FA
:1014500085E08093A6018CE291E09093AD018093AA
:10146000AC010E94FD0908958DE061E00E943911F0
:101470000E94CA040E94DA0480919201882319F420
:1014800040E050E002C042E050E020E030E08091D7
:101490009301882311F021E030E0CA01822B932BC5
:1014A0008130910561F08230910561F0892B81F4E2
:1014B00081E090E09093A3018093A20109C082E0B3
:1014C00090E002C081E090E09093A1018093A001A0
:1014D0008091A2019091A301009771F4109268018C
:1014E000109267018FEF80936E018BE091E09093F3
:1014F000DF018093DE010EC0019761F48BE091E083
:10150000909358018093570185E091E090935A01A0
:10151000809359018091A0018F5F8093A40188E599
:1015200092E09093A9018093A8010E94CB000E94B1
:1015300040040E9420030E940B0A64EF71E080E0E7
:1015400090E00E949B100E942205089581E0809304
:10155000B502609392021092B3021092B402089501
:101560002091910230E080919002281B3109C9013D
:1015700008954091900280919102481718F02FEF42
:101580003FEF0AC0E42FF0E0E059FD4F8081282FA3
:1015900030E04F5F40939002C9010895E0919002BE
:1015A00080919102E81718F0EFEFFFEF06C0F0E02E
:1015B000E059FD4F8081E82FF0E0CF0108950895B4
:1015C0001092B9021092B80288EE93E0A0E0B0E069
:1015D0008093BA029093BB02A093BC02B093BD0269
:1015E0008DE791E09093B7028093B6020895CF9271
:1015F000DF92EF92FF920F931F93CF93DF937C01C3
:101600006B018A018091B5028823A1F0C0E0D0E08F
:101610000DC0D701ED91FC91D601AC0FBD1F01901B
:10162000F081E02DC7016C9109952196C017D10773
:1016300080F304C0CB01642F0E94290CC801DF9104
:10164000CF911F910F91FF90EF90DF90CF90089571
:10165000DF93CF930F92CDB7DEB7FC016983809102
:10166000B5028823C9F08091B402803238F081E05D
:1016700090E09383828320E030E015C08091B30234
:10168000E82FF0E0ED56FD4F998190838F5F8093B6
:10169000B3028093B40205C0CE01019661E00E94BE
:1016A000290C21E030E0C9010F90CF91DF9108951E
:1016B0000F93062F8091920263E972E04091B40289
:1016C00021E00E94D40B1092B3021092B402109247
:1016D000B5020F91089561E00E94580B08954132C0
:1016E00008F040E2862F60E772E00E948B0B1092B8
:1016F000900280939102089521E00E946F0B08955B
:1017000010929002109291021092B3021092B402C1
:101710000E94D50D0895382F413210F040E042C0AC
:101720008091C2028823E1F791E09093C202209356
:10173000C4028FEF80932F031092EA02415040932E
:10174000EB024F5F9093C3028091C302330F832B50
:101750008093C3028091C502813041F41092C5028A
:101760008091C3028093BB0085EC01C085EE80931D
:10177000BC008091C2028130E1F38091EA028417BB
:1017800010F44091EA0220E030E00AC0FB01E20FD1
:10179000F31FD901A653BD4F8C9180832F5F3F4F1C
:1017A0002417A0F3842F08950F931F93582F122FFF
:1017B000413210F081E04AC08091C2028823E1F7F3
:1017C00082E08093C2020093C4028FEF80932F03C4
:1017D0001092EA024093EB02AAECB2E0FB0102C0D5
:1017E00081918D938E2F861B8417D0F31092C302A4
:1017F0008091C302550F852B8093C3028091C5024F
:10180000813041F41092C5028091C3028093BB00E5
:1018100085EC01C085EE8093BC00112321F08091FE
:10182000C2028230E1F380912F038F3F11F480E0F8
:101830000DC080912F03803211F482E007C08091A7
:101840002F03803311F084E001C083E01F910F91DA
:101850000895482F613210F081E008958091C2020E
:10186000843011F082E0089560930D03ACEEB2E095
:10187000842F9C01F90102C081918D938E2F841BCE
:101880008617D0F380E008951F920F920FB60F9243
:1018900011242F933F934F935F936F937F938F9375
:1018A0009F93AF93BF93EF93FF938091B90090E024
:1018B000887F90708036910509F4F2C081369105D9
:1018C000CCF58832910509F47BC089329105B4F4D6
:1018D0008031910509F46FC0813191053CF4009786
:1018E00009F447C1089709F04FC165C088319105D7
:1018F00009F466C0809709F047C182C08034910521
:1019000009F4A4C08134910544F48033910509F4AD
:1019100082C0C89709F038C189C08035910509F4A3
:1019200089C08835910509F496C08834910509F07D
:101930002BC1AEC08839910509F413C189399105CD
:10194000ECF48837910509F4ABC0893791054CF464
:101950008836910509F4A4C08037910509F014C1B7
:101960009FC08838910509F4FCC08039910509F4BD
:101970009DC08038910509F007C198C0803B910552
:1019800009F4C6C0813B91054CF4803A910509F4F5
:101990009FC0883A910509F0F7C0BAC0803C910514
:1019A00009F4E3C0883C910509F4DFC0883B910548
:1019B00009F0EAC0C2C08091C3028093BB00CFC0CF
:1019C0009091EA028091EB02981768F49091EA02F4
:1019D000E92FF0E0E653FD4F80818093BB009F5FCD
:1019E0009093EA02BCC08091C402882309F44BC0E2
:1019F00085ED8093BC008091BC0084FDFCCFC2C00B
:101A000080E280932F0385ED8093BC008091BC0021
:101A100084FDFCCFB7C080E380932F0385ED8093D6
:101A2000BC008091BC0084FDFCCFACC088E38093F7
:101A30002F039BC08091EA029091BB00E82FF0E059
:101A4000E653FD4F90838F5F8093EA029091EA0204
:101A50008091EB0282C08091EA029091BB00E82F56
:101A6000F0E0E653FD4F90838F5F8093EA02809110
:101A7000C402882341F085ED8093BC008091BC00B6
:101A800084FDFCCF7FC081E08093C50284EA6EC0F4
:101A900085ED8093BC008091BC0084FDFCCF72C0BA
:101AA00083E08093C20210922E0359C080912E03CE
:101AB000803208F056C080912E039091BB00E82F31
:101AC000F0E0E25FFC4F90838F5F80932E0347C06E
:101AD00080912E03803230F4E0912E03F0E0E25F3B
:101AE000FC4F108285ED8093BC008091BC0084FD8A
:101AF000FCCF1092C20260912E03E091C802F091D7
:101B0000C9028EE093E070E0099510922E032DC07B
:101B100084E08093C20210920C0310920D03E091B6
:101B2000C602F091C702099580910D03882329F41C
:101B300081E080930D031092EC0290910C03E92F49
:101B4000F0E0E451FD4F80818093BB009F5F909354
:101B50000C0390910C0380910D03981710F485EC01
:101B600001C085E88093BC000FC085EC8093BC0069
:101B700009C010922F0385ED8093BC008091BC00BA
:101B800084FDFCCF1092C202FF91EF91BF91AF9103
:101B90009F918F917F916F915F914F913F912F9185
:101BA0000F900FBE0F901F9018951092C20281E007
:101BB0008093C4021092C50282E161E00E94781114
:101BC00083E161E00E947811E9EBF0E080818E7F93
:101BD000808380818D7F808388E48093B80085E452
:101BE0008093BC000895EF92FF920F931F93CF93C1
:101BF000DF93582F162FE42E022FF32E86EB92E060
:101C0000652F0E94A60A86EB92E0612F0E94280BA6
:101C1000202F3F2DC901EC0110E006C086EB92E0B9
:101C200069910E94280B1F5F1E15C0F386EB92E09E
:101C30000E946B0B90E0882309F491E0892FDF91DB
:101C4000CF911F910F91FF90EF900895DF93CF9365
:101C50000F92CDB7DEB7498341E09E012F5F3F4F22
:101C60000E94F30D0F90CF91DF9108952F923F9234
:101C70004F925F926F927F928F929F92AF92BF929C
:101C8000CF92DF92EF92FF920F931F93DF93CF9348
:101C900000D000D00F92CDB7DEB7882E6983942E86
:101CA0003B832A830E9467105B016C01FF24EE24B2
:101CB000292C33242801662477244BC086EB92E03C
:101CC000682D0E94A60A86EB92E069810E94280B8B
:101CD00086EB92E00E946B0B86EB92E0682D0E94EF
:101CE000A60AA1014E1951094132510514F040E2F2
:101CF00050E086EB92E0682D0E947C0B2F2D33275D
:101D000027FD30958A819B81280F391F3D832C83C5
:101D100086EB92E00E94B00A892B09F452C00115AB
:101D2000110561F00E9467106A197B098C099D09F1
:101D3000641575058605970508F043C086EB92E0AB
:101D40000E94B90AEC81FD818193FD83EC83F394B9
:101D5000DFCFE91408F4B2CF01151105C9F00E94D4
:101D600067106A197B098C099D09980140E050E0D1
:101D7000621773078407950758F02F2D332727FD27
:101D80003095892D90E02817390714F4FF24FA9430
:101D90008F2D0F900F900F900F900F90CF91DF919C
:101DA0001F910F91FF90EF90DF90CF90BF90AF9079
:101DB0009F908F907F906F905F904F903F902F906B
:101DC000089586EB92E00E946B0B892DF0E2F915E5
:101DD00008F480E2E80EBDCF0F931F93FA0189014A
:101DE00041E09F010E94360E1F910F910895DF92EE
:101DF000EF92FF920F931F93DF93CF930F92CDB784
:101E0000DEB7E82ED62EF42E122F209177013091D6
:101E10007801AE014F5F5F4F0E94EC0E882341F1C5
:101E2000212F30E04F2D50E04F5F5F4F421B530B8F
:101E300081E090E002C0880F991F1A95E2F70197A0
:101E4000042E02C0880F991F0A94E2F7202F30E079
:101E500002C0220F331F4A95E2F7482F409559815F
:101E600045238223482B49838E2D6D2D0E94260EFB
:101E70000F90CF91DF911F910F91FF90EF90DF9026
:101E80000895CF92DF92EF92FF920F931F93DF930B
:101E9000CF930F92CDB7DEB7C42ED22E9701AE01ED
:101EA0004F5F5F4F0E94EC0E682F882309F18D2D44
:101EB00090E04C2D50E04F5F5F4F481B590B21E0E5
:101EC00030E002C0220F331FDA94E2F72150304095
:101ED000042E02C0220F331F0A94E2F78981822365
:101EE00090E002C0959587954A95E2F7F8018083C6
:101EF000862F0F90CF91DF911F910F91FF90EF9060
:101F0000DF90CF900895FC0188E6808308950F93B9
:101F1000FC01062F80816EE342E023E00E94F70E71
:101F20000F9108950F93FC01062F808166E142E036
:101F300023E00E94F70E0F9108950F93FC01062FE6
:101F4000808166E144E022E00E94F70E0F9108953F
:101F50000F931F938C0163E00E949D0FC80161E005
:101F60000E94870F1F910F910895CF92DF92EF92F9
:101F7000FF920F931F936C018C010F5F1F4FE09036
:101F80007701F0907801FC01808160E046E026E076
:101F90000E94410FF60181811F910F91FF90EF90F8
:101FA000DF90CF9008950E94B50F90E0843309F43C
:101FB00091E0892F08958F929F92AF92BF92CF9216
:101FC000DF92EF92FF920F931F937C016B015A01F6
:101FD00049019C012F5F3F4F0091770110917801DB
:101FE000FC0180816DE146E00E94360EF70191818F
:101FF00080E0228130E0822B932BF6019183808355
:10200000F701938180E0248130E0822B932BF5014E
:1020100091838083F701958180E0268130E0822BD7
:10202000932BF401918380831F910F91FF90EF9088
:10203000DF90CF90BF90AF909F908F9008951F92A8
:102040000F920FB60F9211242F933F938F939F936C
:10205000AF93BF938091340390913503A0913603E1
:10206000B0913703309138030196A11DB11D232F84
:102070002D5F2D3720F02D570196A11DB11D209306
:1020800038038093340390933503A0933603B093C1
:1020900037038091300390913103A0913203B091C6
:1020A00033030196A11DB11D80933003909331033A
:1020B000A0933203B0933303BF91AF919F918F915F
:1020C0003F912F910F900FBE0F901F9018958FB7D3
:1020D000F8942091340330913503409136035091A8
:1020E00037038FBFB901CA0108959FB7F8942091B3
:1020F000300330913103409132035091330386B560
:10210000A89B06C08F3F21F02F5F3F4F4F4F5F4F7F
:102110009FBF542F432F322F2227280F311D411DDF
:10212000511D82E0220F331F441F551F8A95D1F79E
:10213000B901CA0108959B01AC017FB7F894809161
:10214000300390913103A0913203B091330366B50F
:10215000A89B05C06F3F19F00196A11DB11D7FBF5F
:10216000BA2FA92F982F8827860F911DA11DB11D69
:1021700062E0880F991FAA1FBB1F6A95D1F7BC01A7
:102180002DC0FFB7F8948091300390913103A09156
:102190003203B0913303E6B5A89B05C0EF3F19F0B9
:1021A0000196A11DB11DFFBFBA2FA92F982F882717
:1021B0008E0F911DA11DB11DE2E0880F991FAA1F6E
:1021C000BB1FEA95D1F7861B970B885E9340C8F238
:1021D000215030404040504068517C4F211531051E
:1021E0004105510571F60895019739F0880F991F3F
:1021F000880F991F02970197F1F70895789484B595
:10220000826084BD84B5816084BD85B5826085BDF2
:1022100085B5816085BDEEE6F0E0808181608083D8
:10222000E1E8F0E0108280818260808380818160BB
:102230008083E0E8F0E0808181608083E1EBF0E082
:10224000808184608083E0EBF0E080818160808326
:10225000EAE7F0E08081846080838081826080830F
:102260008081816080838081806880831092C1003A
:102270000895CF93DF93482F50E0CA0186569F4FB1
:10228000FC0134914A575F4FFA018491882369F128
:1022900090E0880F991FFC01E859FF4FA591B49178
:1022A000FC01EE58FF4FC591D491662351F42FB72E
:1022B000F8948C91932F909589238C93888189230E
:1022C0000BC0623061F42FB7F8948C91932F9095E6
:1022D00089238C938881832B88832FBF06C09FB767
:1022E000F8948C91832B8C939FBFDF91CF910895AD
:1022F000482F50E0CA0182559F4FFC012491CA012A
:1023000086569F4FFC0194914A575F4FFA013491D2
:10231000332309F440C0222351F1233071F02430DB
:1023200028F42130A1F0223011F514C02630B1F08C
:102330002730C1F02430D9F404C0809180008F7719
:1023400003C0809180008F7D8093800010C084B591
:102350008F7702C084B58F7D84BD09C08091B000A5
:102360008F7703C08091B0008F7D8093B000E32F02
:10237000F0E0EE0FFF1FEE58FF4FA591B4912FB77D
:10238000F894662321F48C919095892302C08C9156
:10239000892B8C932FBF0895682F70E0CB01825555
:1023A0009F4FFC012491CB0186569F4FFC01449125
:1023B0006A577F4FFB019491992319F420E030E094
:1023C0003CC0222351F1233071F0243028F4213015
:1023D000A1F0223011F514C02630B1F02730C1F041
:1023E0002430D9F404C0809180008F7703C080919D
:1023F00080008F7D8093800010C084B58F7702C0ED
:1024000084B58F7D84BD09C08091B0008F7703C0F3
:102410008091B0008F7D8093B000892F90E0880F6D
:10242000991F84589F4FFC01A591B4918C9120E095
:1024300030E0842311F021E030E0C9010895CF930A
:10244000DF930E94FE100E94340AC0E0D0E00E9498
:102450004D072097E1F30E940000F9CFFC0120E036
:1024600030E08081882311F421E030E0C901089533
:10247000FC0181E080830895629FD001739FF00189
:10248000829FE00DF11D649FE00DF11D929FF00D04
:10249000839FF00D749FF00D659FF00D9927729F3B
:1024A000B00DE11DF91F639FB00DE11DF91FBD01C6
:1024B000CF011124089597FB092E07260AD077FD36
:1024C00004D049D006D000201AF4709561957F4F52
:1024D0000895F6F7909581959F4F0895A1E21A2EE1
:1024E000AA1BBB1BFD010DC0AA1FBB1FEE1FFF1FB8
:1024F000A217B307E407F50720F0A21BB30BE40B08
:10250000F50B661F771F881F991F1A9469F760954E
:102510007095809590959B01AC01BD01CF01089508
:1025200097FB092E05260ED057FD04D0D7DF0AD021
:10253000001C38F450954095309521953F4F4F4FF2
:102540005F4F0895F6F790958095709561957F4F50
:102550008F4F9F4F0895AA1BBB1B51E107C0AA1FB5
:10256000BB1FA617B70710F0A61BB70B881F991F34
:102570005A95A9F780959095BC01CD010895EE0F6D
:0E258000FF1F0590F491E02D0994F894FFCF11
:10258E00808080DC05DC05DC05DC05D007DC05DCA5
:10259E0005DC05DC05204EDC05DC05DC05DC05F480
:1025AE0001F401F401F401F401F401F401F401F475
:1025BE000100010101020100000000000000000006
:1025CE000000009101920193010000000000000044
:1025DE0000030107010901000000000000000000D7
:1025EE0000170119011B011D01000004050607FF5C
:1025FE00900190019001FFE80300000000280BF706
:0A260E000AB00AB90ACE0ADF0A007A
:00000001FF
