:100000000C9463000C948B000C948B000C94C00235
:100010000C948B000C944A030C948B000C948B0072
:100020000C948B000C948B000C948B000C94DE06CB
:100030000C948B000C948D000C948B000C948B0012
:100040000C94C50F0C948B000C948B000C948B00BB
:100050000C948B000C9482020C948B000C948B00FB
:100060000C94300E0C948B0000000000240027003C
:100070002A0000000000250028002B0000000000DE
:1000800023002600290004040404040404040202DA
:100090000202020203030303030301020408102007
:1000A0004080010204081020010204081020000012
:1000B0000007000201000003040600000000000029
:1000C0000000C3069D0D11241FBECFEFD4E0DEBF9C
:1000D000CDBF11E0A0E0B1E0E0E9F3E202C005909D
:1000E0000D92A838B107D9F713E0A8E8B1E001C034
:1000F0001D92AC30B107E1F710E0C6ECD0E004C0CF
:100100002297FE010E94C211C23CD107C9F70E948A
:100110002E110C94C6110C9400001F920F920FB672
:100120000F9211248F939F9380912F019091300112
:1001300001969093300180932F0180912F0190912F
:100140003001892B29F48091B4018F5F8093B40131
:100150009F918F910F900FBE0F901F9018956091F7
:1001600084007091850020912F0130913001E09141
:10017000B40180918400909185008627972797FD90
:10018000EECF80912F01909130012817390739F770
:100190008091B401E81719F740E050E0FFE0220F2A
:1001A000331F441F551FFA95D1F78E2F90E0A0E022
:1001B000B0E0BB278695B795AA2799278827282BD3
:1001C000392B4A2B5B2B76956795CB01A0E0B0E0ED
:1001D000282B392B4A2B5B2BB901CA010895AF920A
:1001E000BF92CF92DF92EF92FF920F931F9328EE70
:1001F00033E040E050E00E943D115B016C010E9441
:10020000AF007B018C010E94AF006E197F09800B4B
:10021000910B6A157B058C059D05A8F31F910F9125
:10022000FF90EF90DF90CF90BF90AF900895482F50
:1002300084EA8093BC002FEF30E08091BC0087FD02
:100240000EC021503040C9F78091B5019091B601A0
:1002500001969093B6018093B5011092BC00409333
:10026000BB0084E88093BC002FEF30E08091BC009D
:1002700087FD0EC021503040C9F78091B5019091A3
:10028000B60101969093B6018093B5011092BC001F
:100290000895482F882311F484E801C084EC8093EA
:1002A000BC002FEF30E08091BC0087FD0EC02150D4
:1002B0003040C9F78091B5019091B60101969093B5
:1002C000B6018093B5011092BC009091BB0044230D
:1002D00019F484E98093BC00892F08950F931F932C
:1002E000162F042F880F0E9417011093BB0084E87B
:1002F0008093BC002FEF30E08091BC0087FD0EC0E2
:1003000021503040C9F78091B5019091B601019616
:100310009093B6018093B5011092BC000093BB008E
:1003200084E88093BC002FEF30E08091BC0087FD13
:100330000EC021503040C9F78091B5019091B601AF
:1003400001969093B6018093B5011092BC0084E9A8
:100350008093BC001F910F9108950F931F93082F56
:10036000162F880F0E9417011093BB0084E880931A
:10037000BC002FEF30E08091BC0087FD0EC0215003
:100380003040C9F78091B5019091B60101969093E4
:10039000B6018093B5011092BC00000F802F8160E0
:1003A0000E94170181E00E9449011F910F91089559
:1003B0001F93CF93DF93EB01142F880F81600E946E
:1003C000170108C0115080E011160CF481E00E9462
:1003D000490189931123B1F7DF91CF911F910895BE
:1003E000FF920F931F93CF93DF93082F162FEA01ED
:1003F000F22E880F0E9417011093BB0084E88093AF
:10040000BC002FEF30E08091BC0087FD0EC0215072
:100410003040C9F78091B5019091B6010196909353
:10042000B6018093B5011092BC00802FBE014F2D04
:100430000E94D801DF91CF911F910F91FF900895F5
:1004400088E66EE340E80E946E0162E370E080E0BF
:1004500090E00E94EF0088E66EE343E00E946E01A8
:1004600088E666E14EE10E946E0188E660E00E9447
:10047000AD0190E08E77883609F491E0892F0895D8
:10048000CF92DF92EF92FF920F931F93DF93CF9360
:1004900000D000D000D0CDB7DEB78C017B016A015F
:1004A00088E66DE1AE014F5F5F4F26E00E94F001EC
:1004B000998180E02A8130E0822B932BF80191838F
:1004C00080839B8180E02C8130E0822B932BF7018D
:1004D000918380839D8180E02E8130E0822B932B5D
:1004E000F6019183808326960FB6F894DEBF0FBE87
:1004F000CDBFCF91DF911F910F91FF90EF90DF90D3
:10050000CF9008951F920F920FB60F9211242F9340
:100510008F939F93EF93FF9390917C009770E92FB7
:10052000F0E0EE0FFF1FEF5CFE4F0190F081E02D39
:10053000809179008083292F16C0E22FF0E0EE0F22
:10054000FF1FEF5CFE4F80819181892B61F08091CC
:100550007C00887F282B20937C0080917A00806427
:1005600080937A0003C02F5F283039F7FF91EF9115
:100570009F918F912F910F900FBE0F901F90189504
:100580001F920F920FB60F921124AF92BF92CF928B
:10059000DF92EF92FF920F931F932F933F934F930E
:1005A0005F936F937F938F939F93AF93BF93CF93FB
:1005B000DF93EF93FF930091840010918500809169
:1005C0002D0293B190932D027894292F282780959E
:1005D0008923ADE4B1E0EEE2F2E060E070E0C22E2B
:1005E000DD24E82EFF2421E0CD91DC9111972097A6
:1005F00079F1C601062E02C0959587950A94E2F717
:1006000080FF26C0C701062E02C0959587950A94E3
:10061000E2F780FF03C0118300831AC080819181BB
:10062000A801481B590B569547958CE7A82E8CEFCF
:10063000B82EA40EB51E81EBA81684E0B80640F4CF
:10064000598348838091E301681711F42093E401F2
:100650006F5F7F4F129632966830710529F6FF91D1
:10066000EF91DF91CF91BF91AF919F918F917F914A
:100670006F915F914F913F912F911F910F91FF903B
:10068000EF90DF90CF90BF90AF900F900FBE0F9084
:100690001F9018951F920F920FB60F921124CF92B0
:1006A000DF92EF92FF920F931F932F933F934F93FD
:1006B0005F936F937F938F939F93AF93BF93CF93EA
:1006C000DF93EF93FF93E0908400F090850080919A
:1006D0001C0299B190931C027894292F28278095A9
:1006E0008923A5EEB1E0EDE1F2E060E070E0C22E1A
:1006F000DD24082F10E0CD91DC911197209721F196
:10070000C601062E02C0959587950A94E2F780FFF0
:100710001BC0C801062E02C0959587950A94E2F782
:1007200080FF03C0F182E0820FC080819181A70128
:10073000481B590B56954795CA0184589340815BD5
:10074000944010F4598348836F5F7F4F129632961E
:100750006830710581F6FF91EF91DF91CF91BF91E4
:10076000AF919F918F917F916F915F914F913F9149
:100770002F911F910F91FF90EF90DF90CF900F90EE
:100780000FBE0F901F9018952F923F924F925F923D
:100790006F927F928F929F92AF92BF92CF92DF9291
:1007A000EF92FF920F931F93CF93DF93F2E02F2EE0
:1007B000F2E03F2EE8E06E2EE2E07E2EC0E0D0E0D8
:1007C000FE01E450FE4F40805180FE01EA50FE4F92
:1007D000808191819201281B390B79010027F7FC58
:1007E0000095102FF101808191819201281B390B16
:1007F0004901AA2497FCA094BA2CD501C401B7FEE4
:1008000007C088279927DC0188199909AA09BB091B
:1008100080509840A040B04034F0F3011082118223
:10082000128213823EC0FE01ED5DFE4F20813181B8
:10083000442737FD4095542FC801B7010E943D1150
:100840009B01AC0176E055954795379527957A95AC
:10085000D1F7F30180819181A281B381280F391FE3
:100860004A1F5B1F2030F0E23F07F0E04F07F0E047
:100870005F0724F02FEF3FE140E050E0CA01B901EB
:10088000603020EE72072FEF82072FEF920724F4DB
:1008900060E070EE8FEF9FEFF301608371838283DE
:1008A000938364E1C62E62E0D62ECC0EDD1EFE01DF
:1008B000E35EFE4F20813181442737FD4095542F60
:1008C000C801B7010E943D117B018C0153E01595D1
:1008D0000795F794E7945A95D1F7F3018191919197
:1008E000A191B1913F01E80EF91E0A1F1B1FFE01E5
:1008F000E75DFE4F20813181442737FD4095542F1D
:10090000C501B4010E943D1142E095958795779508
:1009100067954A95D1F7E61AF70A080B190B3AE0E2
:1009200015950795F794E7943A95D1F7F601F1827A
:10093000E082F101419251921F012296C630D10509
:1009400009F03ECFDF91CF911F910F91FF90EF9073
:10095000DF90CF90BF90AF909F908F907F906F90DF
:100960005F904F903F902F900895DF93CF9300D0EA
:1009700000D000D0CDB7DEB7CE010196BE016D5FCD
:100980007F4FAE014B5F5F4F0E9440028B819C8185
:100990009093AB018093AA0189819A819093AD01D4
:1009A0008093AC018D819E819093AF018093AE01C5
:1009B00026960FB6F894DEBF0FBECDBFCF91DF9164
:1009C0000895EF92FF920F931F93CF93DF93E02E42
:1009D0008C01E901FA01FF242EC0D8012D913C9130
:1009E00088819981281739070CF4C901D8018D93A2
:1009F0009C93DB012D913C9188819981821793070B
:100A00000CF4C901DB018D939D93BD0129913991AE
:100A1000442737FD4095542F80819181A281B38175
:100A2000820F931FA41FB51F81939193A193B1933C
:100A3000F3940E5F1F4FFE1484F2DF91CF911F914C
:100A40000F91FF90EF9008954091030150910401A0
:100A500080910301909104014817590721F04091BA
:100A60008F01509190015093900140938F012091FC
:100A7000050130910601809105019091060128172A
:100A8000390721F020919101309192013093920128
:100A90002093910120910701309108018091070175
:100AA000909108012817390721F020919301309186
:100AB0009401309394012093930120910901309186
:100AC0000A018091090190910A012817390721F044
:100AD00020919501309196013093960120939501D4
:100AE00020910B0130910C0180910B0190910C0130
:100AF0002817390721F02091970130919801309300
:100B00009801209397018091B2019091B301892BB4
:100B100021F4509392014093910108958091B00186
:100B20009091B1018130910571F18230910509F404
:100B300060C0892B09F09CC02091140230911502ED
:100B400080918F0190919001820F931F90939D014E
:100B500080939C018091910190919201820F931F4B
:100B600090939F0180939E018091160290911702AD
:100B70002091930130919401820F931F9093A101D2
:100B80008093A00127C0209114023091150280911A
:100B90008F0190919001280F391F409116025091BA
:100BA00017028091930190919401480F591FCA0137
:100BB000820F931F9595879590939D0180939C013B
:100BC000241B350B3595279524523A4F3093A101BC
:100BD0002093A00180911802909119022091950113
:100BE00030919601820F931F9093A3018093A201ED
:100BF0003FC0209114023091150280918F01909195
:100C00009001820F931F90939D0180939C0180918E
:100C1000910190919201820F931F90939F01809375
:100C20009E0140911602509117028091930190917C
:100C30009401480F591F2091180230911902809198
:100C4000950190919601280F391FC901840F951FB6
:100C5000959587959093A1018093A001241B350B56
:100C60003595279524523A4F3093A3012093A20142
:100C700080919C0190919D0123E0883E92071CF495
:100C800088EE93E006C027E0813D920714F080EDE6
:100C900097E090939D0180939C0180919E0190919B
:100CA0009F0123E0883E92071CF488EE93E006C083
:100CB00027E0813D920714F080ED97E090939F012B
:100CC00080939E018091A0019091A10123E0883E34
:100CD00092071CF488EE93E006C027E0813D92075E
:100CE00014F080ED97E09093A1018093A001809192
:100CF000A2019091A30123E0883E92071CF488EEA4
:100D000093E006C027E0813D920714F080ED97E064
:100D10009093A3018093A201089581E08093F5014F
:100D20002FB7F89480919C0190919D0190931601AA
:100D30008093150180919E0190919F0190931801DD
:100D4000809317018091A0019091A10190931A01C5
:100D5000809319018091A2019091A30190931C01AD
:100D600080931B01EFE6F0E0808182608083B19A7E
:100D700080918400909185000496909389008093DF
:100D800088002FBF089588E891E00E94C10F089560
:100D9000CF93DF93C0E0D0E006C0A959BE4F8C913D
:100DA00061E00E944810DE01FE01E959FE4F80819A
:100DB000219687FFF2CFDF91CF9108951F920F9276
:100DC0000FB60F9211242F933F934F935F936F931E
:100DD0007F938F939F93AF93BF93CF93DF93EF93C3
:100DE000FF93E0911B02FF27E7FDF095E959FE4FC5
:100DF000808160E00E948710E0911A02E7FD34C014
:100E0000C0918400D0918500FF27E7FDF095E95956
:100E1000FE4F808161E00E948710A0911A02EA2FA4
:100E2000FF27E7FDF095EE0FFF1FE35AFE4F0190FD
:100E3000F081E02D0190F081E02D3297EE0FFF1F41
:100E4000A0931B02AF5FA0931A02BB27A7FDB0952A
:100E5000AA0FBB1FA35ABE4F8D919C91892B69F499
:100E60008FEF80931A0209C010921A021092F501B6
:100E700080916F008D7F80936F00CE0FDF1FD09326
:100E80008900C0938800FF91EF91DF91CF91BF91CE
:100E9000AF919F918F917F916F915F914F913F9112
:100EA0002F910F900FBE0F901F901895CF92DF9249
:100EB000EF92FF920F931F93CF93DF93809168007F
:100EC0008160809368003DE4E32E31E0F32EC0E0C2
:100ED000D0E021E0C22ED12CF70180819181892BB5
:100EE000C1F080916B00A6010C2E02C0440F551F6B
:100EF0000A94E2F7842B80936B00CE01885F182F51
:100F000060E00E944810812F61E00E948710C0932A
:100F1000E3012196E2E0F0E0EE0EFF1EC830D105BD
:100F2000D9F68091680084608093680005EE11E036
:100F3000C0E0D0E091E0E92EF12CF80180819181B0
:100F4000892BA1F020916D00C7010C2E02C0880FE3
:100F5000991F0A94E2F7282B20936D008C2F60E0F4
:100F60000E9448108C2F61E00E94871021960E5F2E
:100F70001F4FC830D10509F7DF91CF911F910F9115
:100F8000FF90EF90DF90CF9008950F931F93CF9332
:100F9000DF93EC01162F062F085F88819981892B3A
:100FA00041F0812F60E00E944810812F61E00E9493
:100FB000871022961F5F101781F7DF91CF911F9145
:100FC0000F91089583EC91E068E00E94C50783EDDE
:100FD00091E06EE00E94C5078DE391E060E00E9421
:100FE000C5070895EF92FF921F93CF93DF9341E3DC
:100FF000E42E41E0F42EE7011EE088819981892BDF
:1010000041F0812F60E00E944810812F60E00E9433
:10101000871022961F5F143181F780E680937C0051
:1010200010927B008FE880937A0020E0F7018081A6
:101030009181892B61F080917C00887F282B2093FF
:101040007C0080917A00806480937A0007C02F5FD3
:1010500082E090E0E80EF91E283041F7DF91CF9151
:101060001F91FF90EF900895EF92FF920F931F93BF
:101070007A018B01882341F082E161E00E948710B0
:1010800083E161E00E9487101092B90060E074E291
:1010900084EF90E0A80197010E946F112051304029
:1010A0004040504056954795379527952093B80076
:1010B0001F910F91FF90EF900895FF920F931F9350
:1010C000CF93DF93FF2400E010E0F801ED53FE4FD3
:1010D000C081D181209729F08F2D885F0E94DB107D
:1010E0008883F801ED52FE4FC081D181209729F00D
:1010F0008F2D825F0E94DB108883F801E35CFE4F36
:10110000C081D181209721F08F2D0E94DB10888330
:10111000F3940E5F1F4F88E0F816B9F6DF91CF9178
:101120001F910F91FF900895823011F460E009C083
:10113000813011F461E005C08DE00E94DB1061E0B8
:1011400068278DE00E94871008952F923F924F925A
:101150005F926F927F928F929F92AF92BF92CF9247
:10116000DF92EF92FF920F931F93DF93CF93CDB750
:10117000DEB7A8970FB6F894DEBF0FBECDBF39E13A
:10118000432E512C4C0E5D1E29E0622E712C6C0EEC
:101190007D1E91E1E92EF12CEC0EFD1E1E0108943E
:1011A000211C311CD20180E090E0F301E80FF91F0F
:1011B0002FEF3FE731832083F701E80FF91F40E06D
:1011C00050E8518340831D921D921D921D920296FC
:1011D0008830910551F70E94AF004B015C01CC248F
:1011E000DD2428C00E94B5048091AA019091AB0132
:1011F0009A8389838091AC019091AD019C838B830C
:101200008091AE019091AF019E838D83C301B701A0
:10121000A201910103E00E94E104C60164E670E0CE
:101220000E945C11892B19F483E00E9494080894B1
:10123000C11CD11C0E94AF00681979098A099B0959
:10124000605472448F4090406CF260E040E050E0A7
:10125000F701E40FF51FD301A40FB51F8081918121
:101260002D913C91821B930BC2970CF46F5F4E5FE4
:101270005F4F4630510561F7633009F093CF760137
:101280000027F7FC0095102F698D7A8D8B8D9C8D32
:10129000A80197010E9491113093A5012093A40108
:1012A0006D8D7E8D8F8D98A1A80197010E9491115F
:1012B0003093A7012093A60169A17AA18BA19CA1DB
:1012C000A80197010E9491113093A9012093A801D0
:1012D00020E089E0682E712C6C0E7D1E01E1E02E6D
:1012E000F12CEC0EFD1E19E1412E512C4C0E5D1E11
:1012F000212CB0E83B2E1FC0E22FFF27E7FDF09521
:10130000BF01660F771FC301860F971F4FEF5FE77F
:10131000DC014D935C936E0D7F1DDB012D923C92A1
:10132000EE0FFF1FEE0FFF1FE40DF51D108211825F
:10133000128213822F5F2430FCF20E94AF004B0117
:101340005C01CC24DD2441C02FB7F89480910301C7
:10135000909104019A8389838091050190910601FF
:101360009C838B8380910701909108019E838D83DC
:101370008091090190910A0198878F832FBF8091F6
:10138000B2019091B301892B21F489819A819C83C8
:101390008B83C301B701A2019E012F5F3F4F04E081
:1013A0000E94E104C60162E370E00E945C11892B97
:1013B00019F483E00E9494080894C11CD11C61E0D8
:1013C00070E080E090E00E94EF000E94AF0068199A
:1013D00079098A099B09605472448F40904008F44F
:1013E000B3CF60E040E050E0F701E40FF51FD30118
:1013F000A40FB51F808191812D913C91821B930B8D
:1014000044970CF46F5F4E5F5F4F4830510561F7B2
:10141000643011F020E070CF76010027F7FC0095D2
:10142000102F698D7A8D8B8D9C8DA80197010E945C
:10143000911130930E0120930D016D8D7E8D8F8D56
:1014400098A1A80197010E94911130931001209357
:101450000F0169A17AA18BA19CA1A80197010E940B
:10146000911130931201209311016DA17EA18FA1E2
:1014700098A5A80197010E9491113093140120931F
:10148000130182E00E949408A8960FB6F894DEBF7C
:101490000FBECDBFCF91DF911F910F91FF90EF90C5
:1014A000DF90CF90BF90AF909F908F907F906F9084
:1014B0005F904F903F902F900895EF92FF920F937F
:1014C0001F937B018C0180913E0290913F02A0917D
:1014D0004002B09141028E199F09A00BB10B181662
:1014E00019061A061B060CF454C080914202882388
:1014F00021F5E0914302EF5FE370E0934302FF27A1
:10150000E7FDF095E954FE4F8081992787FD90957E
:10151000880F991F8093420280E492E4AFE0B0E02C
:10152000E80EF91E0A1F1B1FE0923E02F0923F02D6
:1015300000934002109341022CC0815080934202DC
:1015400080FD02C082E001C081E00E949408E09129
:101550004302FF27E7FDF095EE0FFF1FE554FE4F16
:1015600080819181AA2797FDA095BA2F4AE0880F24
:10157000991FAA1FBB1F4A95D1F78E0D9F1DA01F53
:10158000B11F80933E0290933F02A0934002B0931C
:1015900041021F910F91FF90EF9008952F923F927B
:1015A0004F925F926F927F928F929F92AF92BF9273
:1015B000CF92DF92EF92FF920F931F93DF93CF931F
:1015C000CDB7DEB761970FB6F894DEBF0FBECDBFC3
:1015D000DE011196E2E7F1E086E001900D92815084
:1015E000E1F7DE011796ECE6F1E086E001900D925E
:1015F0008150E1F7222433242101882499245401C5
:101600001E861F86188A198A1D8602C016012701A8
:101610000E94AF006B017C010E945D0A8091E40191
:10162000882331F01092E4010E94240521E02D87E7
:101630008091F501882309F047C03D85332379F473
:10164000D701C6012E853F8548895989821B930B96
:10165000A40BB50B81539547A040B040ACF10E945C
:101660008E050E948D060E94B5048091AA0190917A
:10167000AB012091A4013091A501821B930B9093A3
:10168000AB018093AA018091AC019091AD012091B2
:10169000A6013091A701821B930B9093AD0180931B
:1016A000AC018091AE019091AF012091A8013091E1
:1016B000A901821B930B9093AF018093AE01CE865C
:1016C000DF86E88AF98A1D86D701C601881999093B
:1016D000AA09BB0981519742A040B0400CF40FC148
:1016E0001092F7011092F6011092F9011092F80190
:1016F0001092FB011092FA018091AA019091AB0126
:1017000050E28030950714F08FEF9FE1E0EE8030DB
:101710009E0714F480E090EE9093FD018093FC010D
:101720008091AC019091AD01F0E280309F0714F000
:101730008FEF9FE120EE8030920714F480E090EE6E
:101740009093FF018093FE018091AE019091AF01D3
:1017500030E28030930714F08FEF9FE140EE80304D
:10176000940714F480E090EE9093010280930002BD
:101770000E94C403209191013091920180918F01C8
:1017800090919001280F391F80910F0190911001C5
:10179000281B390B80910D0190910E01281B390BEC
:1017A0003595279537FF03C0309521953F4F51E080
:1017B0002139350714F020E931E080E991E0821BFE
:1017C000930B98878F83209193013091940180919E
:1017D000110190911201281B390B37FF03C030957E
:1017E00021953F4F81E02139380714F020E931E09D
:1017F00080E991E0821B930B9A878987209195015C
:10180000309196018091130190911401281B390B9E
:1018100037FF03C0309521953F4FE1E021393E0766
:1018200014F020E931E080E991E0821B930B9C8762
:101830008B878091970190919801F4E08C349F07F9
:101840001CF480E090E009C027E08D3692071CF080
:1018500080E293E002C08C549440B4E1AB2EB2E03D
:10186000BB2E00E010E03C01882477FC8094982C8B
:10187000E1E0F0E0EC0FFD1FE00FF11F60817181EE
:10188000882777FD8095982FF501208131814427A5
:1018900037FD4095542F0E943D11A7E095958795FF
:1018A00077956795AA95D1F7E7E0F0E0EC0FFD1F7B
:1018B000E00FF11F20813181442737FD4095542FDF
:1018C0000E943D11272F382F492F552747FD5A9544
:1018D000C401B3010E943D11E9E095958795779584
:1018E0006795EA95D1F7F501619371935F010E5FFA
:1018F0001F4F0630110509F0BBCF46015701D70134
:10190000C60182199309A409B5098C519748A140D1
:10191000B0400CF47DCE80910001209101014091F6
:10192000020190E0805890409A83898330E02058EB
:1019300030403C832B8350E0405850405E834D83C1
:10194000E1E3F1E020E080819181892B61F08091D9
:101950007C00887F282B20937C0080917A00806413
:1019600080937A0053CE2F5F3296283061F74ECEA7
:1019700088E28093BA018EE190E09093C201809357
:10198000C1010E94AF000E945D0AFBCF81E040E8E8
:101990005AE166E070E00E9434080E942002882329
:1019A00059F485E08093B9018CE291E09093C001F5
:1019B0008093BF010E94B80C08958DE061E00E9401
:1019C00048101092800082E08093810081E0809333
:1019D0006F0085B5887F85BD80916E008E7F809376
:1019E0006E000E94E2070E945D081092B101109201
:1019F000B0011092B3011092B20180919A01882334
:101A000019F440E050E002C042E050E020E030E055
:101A100080919B01882311F021E030E0CA01822BE4
:101A2000932B8130910561F08230910561F0892B13
:101A300081F481E090E09093B3018093B20109C0FA
:101A400082E090E002C081E090E09093B101809349
:101A5000B0018091B2019091B301009771F410929E
:101A60006401109263018FEF80936A018BE091E033
:101A70009093F4018093F3010EC0019761F48BE021
:101A800091E0909354018093530185E091E090930D
:101A90005601809355018091B0018F5F8093B7010B
:101AA00088E592E09093BC018093BB010E94F2070D
:101AB0000E9456070E94C8060E94C60C0E94240578
:101AC0000E948E0564EF71E080E090E00E94EF00DC
:101AD0000E94A5080E94CE0A08952091650230E078
:101AE00080916402281B3109C90108954091640264
:101AF00080916502481718F02FEF3FEF0AC0E42FDE
:101B0000F0E0EC5BFD4F8081282F30E04F5F409389
:101B10006402C9010895E091640280916502E817AA
:101B200018F0EFEFFFEF06C0F0E0EC5BFD4F8081B7
:101B3000E82FF0E0CF010895089510928C021092E2
:101B40008B0288EE93E0A0E0B0E080938D0290934A
:101B50008E02A0938F02B09390028CE791E0909355
:101B60008A02809389020895CF92DF92EF92FF92CA
:101B70000F931F93CF93DF937C016B018A018091B8
:101B800088028823A1F0C0E0D0E00DC0D701ED911C
:101B9000FC91D601AC0FBD1F0190F081E02DC70173
:101BA0006C9109952196C017D10780F304C0CB0131
:101BB000642F0E94150EC801DF91CF911F910F91E4
:101BC000FF90EF90DF90CF900895DF93CF930F9227
:101BD000CDB7DEB7FC016983809188028823C9F004
:101BE00080918702803238F081E090E09383828395
:101BF00020E030E015C080918602E82FF0E0EA593D
:101C0000FD4F998190838F5F809386028093870236
:101C100005C0CE01019661E00E94150E21E030E082
:101C2000C9010F90CF91DF910895482F613210F0D4
:101C300081E0089580919502843011F082E008954A
:101C40006093E002AFEBB2E0842F9C01F90102C087
:101C500081918D938E2F841B8617D0F380E0089599
:101C60001F920F920FB60F9211242F933F934F9311
:101C70005F936F937F938F939F93AF93BF93EF93F4
:101C8000FF938091B90090E0887F90708036910535
:101C900009F4F2C081369105CCF58832910509F43A
:101CA0007BC089329105B4F48031910509F46FC08D
:101CB000813191053CF4009709F447C1089709F078
:101CC0004FC165C08831910509F466C0809709F05D
:101CD00047C182C08034910509F4A4C081349105C4
:101CE00044F48033910509F482C0C89709F038C1E3
:101CF00089C08035910509F489C08835910509F4BA
:101D000096C08834910509F02BC1AEC08839910581
:101D100009F413C189399105ECF48837910509F468
:101D2000ABC0893791054CF48836910509F4A4C0FD
:101D30008037910509F014C19FC08838910509F4D6
:101D4000FCC08039910509F49DC08038910509F0E7
:101D500007C198C0803B910509F4C6C0813B91053D
:101D60004CF4803A910509F49FC0883A910509F036
:101D7000F7C0BAC0803C910509F4E3C0883C9105E6
:101D800009F4DFC0883B910509F0EAC0C2C0809128
:101D900096028093BB00CFC09091BD028091BE029D
:101DA000981768F49091BD02E92FF0E0E356FD4FDB
:101DB00080818093BB009F5F9093BD02BCC08091E7
:101DC0009702882309F44BC085ED8093BC00809175
:101DD000BC0084FDFCCFC2C080E28093020385ED8D
:101DE0008093BC008091BC0084FDFCCFB7C080E331
:101DF0008093020385ED8093BC008091BC0084FD3C
:101E0000FCCFACC088E3809302039BC08091BD02ED
:101E10009091BB00E82FF0E0E356FD4F90838F5F79
:101E20008093BD029091BD028091BE0282C08091DC
:101E3000BD029091BB00E82FF0E0E356FD4F908388
:101E40008F5F8093BD0280919702882341F085EDDA
:101E50008093BC008091BC0084FDFCCF7FC081E0FA
:101E60008093980284EA6EC085ED8093BC008091D7
:101E7000BC0084FDFCCF72C083E080939502109279
:101E8000010359C080910103803208F056C080914F
:101E900001039091BB00E82FF0E0EF51FD4F9083DC
:101EA0008F5F8093010347C080910103803230F43B
:101EB000E0910103F0E0EF51FD4F108285ED80933A
:101EC000BC008091BC0084FDFCCF10929502609113
:101ED0000103E0919B02F0919C0281EE92E070E0A0
:101EE0000995109201032DC084E080939502109211
:101EF000DF021092E002E0919902F0919A020995B6
:101F00008091E002882329F481E08093E00210921E
:101F1000BF029091DF02E92FF0E0E154FD4F808194
:101F20008093BB009F5F9093DF029091DF028091CE
:101F3000E002981710F485EC01C085E88093BC009E
:101F40000FC085EC8093BC0009C01092020385EDA0
:101F50008093BC008091BC0084FDFCCF1092950260
:101F6000FF91EF91BF91AF919F918F917F916F9171
:101F70005F914F913F912F910F900FBE0F901F9047
:101F80001895FC0188E6808308951F920F920FB682
:101F90000F9211242F933F938F939F93AF93BF93EF
:101FA0008091070390910803A0910903B0910A035F
:101FB00030910B030196A11DB11D232F2D5F2D37ED
:101FC00020F02D570196A11DB11D20930B03809386
:101FD000070390930803A0930903B0930A03809129
:101FE000030390910403A0910503B09106030196A9
:101FF000A11DB11D8093030390930403A0930503D7
:10200000B0930603BF91AF919F918F913F912F9114
:102010000F900FBE0F901F901895789484B5826032
:1020200084BD84B5816084BD85B5826085BD85B57C
:10203000816085BDEEE6F0E0808181608083E1E82B
:10204000F0E0108280818260808380818160808363
:10205000E0E8F0E0808181608083E1EBF0E0808166
:1020600084608083E0EBF0E0808181608083EAE738
:10207000F0E08081846080838081826080838081C1
:10208000816080838081806880831092C100089580
:10209000CF93DF93482F50E0CA0186569F4FFC0133
:1020A00034914A575F4FFA018491882369F190E097
:1020B000880F991FFC01E859FF4FA591B491FC01CD
:1020C000EE58FF4FC591D491662351F42FB7F89481
:1020D0008C91932F909589238C93888189230BC0B1
:1020E000623061F42FB7F8948C91932F90958923E7
:1020F0008C938881832B88832FBF06C09FB7F89469
:102100008C91832B8C939FBFDF91CF910895482FA3
:1021100050E0CA0182559F4FFC012491CA018656A6
:102120009F4FFC0194914A575F4FFA01349133233A
:1021300009F440C0222351F1233071F0243028F4F7
:102140002130A1F0223011F514C02630B1F0273033
:10215000C1F02430D9F404C0809180008F7703C08F
:10216000809180008F7D8093800010C084B58F7730
:1021700002C084B58F7D84BD09C08091B0008F7787
:1021800003C08091B0008F7D8093B000E32FF0E01A
:10219000EE0FFF1FEE58FF4FA591B4912FB7F894A3
:1021A000662321F48C919095892302C08C91892B10
:1021B0008C932FBF0895682F70E0CB0182559F4FFD
:1021C000FC012491CB0186569F4FFC0144916A5734
:1021D0007F4FFB019491992319F420E030E03CC03B
:1021E000222351F1233071F0243028F42130A1F062
:1021F000223011F514C02630B1F02730C1F0243060
:10220000D9F404C0809180008F7703C08091800052
:102210008F7D8093800010C084B58F7702C084B515
:102220008F7D84BD09C08091B0008F7703C08091FD
:10223000B0008F7D8093B000892F90E0880F991FA8
:1022400084589F4FFC01A591B4918C9120E030E01F
:10225000842311F021E030E0C9010895CF93DF938A
:102260000E940D100E94DD0CC0E0D0E00E94CE0A5A
:102270002097E1F30E940000F9CF629FD001739F85
:10228000F001829FE00DF11D649FE00DF11D929F12
:10229000F00D839FF00D749FF00D659FF00D992751
:1022A000729FB00DE11DF91F639FB00DE11DF91F75
:1022B000BD01CF011124089597FB092E07260AD0EE
:1022C00077FD04D049D006D000201AF470956195AE
:1022D0007F4F0895F6F7909581959F4F0895A1E25D
:1022E0001A2EAA1BBB1BFD010DC0AA1FBB1FEE1F90
:1022F000FF1FA217B307E407F50720F0A21BB30BDB
:10230000E40BF50B661F771F881F991F1A9469F756
:1023100060957095809590959B01AC01BD01CF01B2
:10232000089597FB092E05260ED057FD04D0D7DF60
:102330000AD0001C38F450954095309521953F4FB8
:102340004F4F5F4F0895F6F7909580957095619582
:102350007F4F8F4F9F4F0895AA1BBB1B51E107C0B2
:10236000AA1FBB1FA617B70710F0A61BB70B881F25
:10237000991F5A95A9F780959095BC01CD010895B4
:10238000EE0FFF1F0590F491E02D0994F894FFCF14
:10239000808080DC05DC05DC05DC05D007DC05DCA5
:1023A00005DC05DC05DC05DC05DC05DC05F401F4F9
:1023B00001F401F401F401F401F401F401F4010069
:1023C000FF0001010102010000000000000000996F
:1023D000019A019B010000000000000000030107BA
:1023E00001090100000000000000000000150119B3
:1023F000011B011701000004050607FF9001900171
:10240000900180FF80FF80FF00000000E50DB40D0B
:082410006D0D760D8B0D9C0D86
:00000001FF
