:100000000C9461000C947E000C947E000C942A04E5
:100010000C947E000C944E040C947E000C947E0094
:100020000C947E000C947E000C94B8030C945F1228
:100030000C947E000C9480000C947E000C947E0046
:100040000C949F150C947E000C947E000C947E0002
:100050000C947E000C9478020C947E000C947E002C
:100060000C947E000C947E00000000002400270009
:100070002A0000000000250028002B0000000000DE
:1000800023002600290004040404040404040202DA
:100090000202020203030303030301020408102007
:1000A0004080010204081020010204081020000012
:1000B0000007000201000003040600000000000029
:1000C000000011241FBECFEFD4E0DEBFCDBF11E092
:1000D000A0E0B1E0E0EFFFE202C005900D92AC3E7F
:1000E000B107D9F713E0ACEEB1E001C01D92A33126
:1000F000B107E1F70E9490150C94F6170C940000DC
:100100001F920F920FB60F9211248F939F9380919D
:100110007F029091800201969093800280937F02EB
:1001200080917F0290918002892B29F48091810235
:100130008F5F809381029F918F910F900FBE0F90E0
:100140001F901895609184007091850020917F0226
:1001500030918002E091810280918400909185002D
:100160008627972797FDEECF80917F02909180029E
:100170002817390739F780918102E81719F740E00D
:1001800050E0FFE0220F331F441F551FFA95D1F7AF
:100190008E2F90E0A0E0B0E0BB278695B795AA2708
:1001A00099278827282B392B4A2B5B2B7695679527
:1001B000CB01A0E0B0E0282B392B4A2B5B2BB901F7
:1001C000CA010895AF92BF92CF92DF92EF92FF9251
:1001D0000F931F9328EE33E040E050E00E943B175E
:1001E0005B016C010E94A2007B018C010E94A200B5
:1001F0006E197F09800B910B6A157B058C059D0597
:10020000A8F31F910F91FF90EF90DF90CF90BF90D8
:10021000AF9008959B01AC018091EF029091F002A4
:10022000A091F102B091F202821B930BA40BB50BCB
:10023000181619061A061B060CF447C08091F30223
:10024000E091F4028823F1F4EF5FE370E093F402AD
:10025000FF27E7FDF095EE57FD4F8081992787FD39
:100260009095880F991F8093F302205C3D4B404F7F
:100270005F4F2093EF023093F0024093F1025093CE
:10028000F202089581508093F302FF27E7FDF09575
:10029000EE0FFF1FEA57FD4F80819181AA2797FD3E
:1002A000A095BA2F6AE0880F991FAA1FBB1F6A95F5
:1002B000D1F7820F931FA41FB51F8093EF02909375
:1002C000F002A093F102B093F20208952FEF30E014
:1002D00011C02115310561F41092BC0080918E028D
:1002E00090918F02019690938F0280938E020895D1
:1002F000215030408091BC0087FFEBCF0895FF92E2
:100300000F931F93F82E0CEB10E084EAF801808322
:100310000E946601F092BB0084E8F80180830E948D
:1003200066011F910F91FF9008958093BB0084E8B0
:100330008093BC000E94660108951F93182F8823A4
:1003400011F484E801C084EC8093BC000E94660133
:100350009091BB00112319F484E98093BC00892F8C
:100360001F9108950F931F93162F042F880F0E943B
:100370007F01812F0E949501802F0E94950184E9C1
:100380008093BC001F910F9108950F931F93182F16
:10039000062F880F0E947F01802F0E949501110F68
:1003A000812F81600E947F0181E00E949D011F9149
:1003B0000F9108951F93CF93DF93EB01142F880FB4
:1003C00081600E947F0108C0115080E011160CF47A
:1003D00081E00E949D0189931123B1F7DF91CF91B4
:1003E0001F910895DF92EF92FF920F931F93E82ED3
:1003F000F62E8A01D22E880F0E947F018F2D0E9437
:1004000095018E2DB8014D2D0E94DA011F910F919B
:10041000FF90EF90DF90089588E66EE340E80E9439
:10042000B20162E370E080E090E00E94E20088E6C2
:100430006EE343E00E94B20188E666E14EE10E946D
:10044000B20188E660E00E94C50190E08E778836B0
:1004500009F491E0892F0895A6E0B0E0E2E3F2E02C
:100460000C94A1178C017B016A0188E66DE1AE0155
:100470004F5F5F4F26E00E94F201998180E02A8160
:1004800030E0822B932BF801918380839B8180E065
:100490002C8130E0822B932BF701918380839D8107
:1004A00080E02E8130E0822B932BF60191838083B4
:1004B0002696E8E00C94BD17282F17C0E22FF0E035
:1004C000EE0FFF1FE55BFE4F80819181892B61F06C
:1004D00080917C00887F822B80937C0080917A00C1
:1004E000806480937A0008952F5F283038F3089550
:1004F0001F920F920FB60F9211242F933F934F9399
:100500005F936F937F938F939F93AF93BF93EF937B
:10051000FF9380917C008770E82FF0E0EE0FFF1FC3
:10052000E55BFE4F0190F081E02D90917900908382
:100530008F5F0E945C02FF91EF91BF91AF919F91FD
:100540008F917F916F915F914F913F912F910F907C
:100550000FBE0F901F901895EBE4F1E040E050E0E3
:1005600061E070E080819181892B79F087B1DB01B6
:10057000042E02C0AA0FBB1F0A94E2F79D0120952A
:10058000822387B988B1282328B94F5F5F4F3296FD
:100590004630510539F780E680937C0010927B004D
:1005A0008FE880937A0080E00E945C020895CF93E8
:1005B000DF93EB01DA01FC0140E050E061E070E024
:1005C00080819181892B79F03881CB01042E02C082
:1005D000880F991F0A94E2F7282F20952323288358
:1005E0002C91822B8C934F5F5F4F32964830510590
:1005F00039F7DF91CF91089587E591E064E270E0EB
:1006000045E250E00E94D70287E691E067E270E0A1
:1006100048E250E00E94D70287E791E06AE270E08A
:100620004BE250E00E94D702089560E070E040E0A5
:1006300050E0A1E0B0E0362FFA01E95AFE4F0190F8
:10064000F081E02D309751F023B1CD01062E02C08C
:10065000880F991F0A94E2F728232083FA01E959A9
:10066000FE4F0190F081E02D309751F026B1CD0181
:10067000032E02C0880F991F0A94E2F728232083D3
:10068000FA01E958FE4F0190F081E02D309749F0D2
:1006900029B1CD0102C0880F991F3A95E2F72823AE
:1006A00020836F5F7F4F4E5F5F4F4031510519F6DA
:1006B0000895A0E0B0E0EFE5F3E00C949F170091FF
:1006C0008400109185008091FE0293B19093FE0208
:1006D0007894292F282780958923A7E8B1E0EFEFA8
:1006E000F2E060E070E0C22EDD24E82EFF2421E07D
:1006F000CD91DC911197209779F1C601062E02C0A9
:10070000959587950A94E2F780FF26C0C701062ECB
:1007100002C0959587950A94E2F780FF03C0118384
:1007200000831AC080819181A801481B590B5695FE
:1007300047958CE7A82E8CEFB82EA40EB51E81EB42
:10074000A81684E0B80640F459834883809191024A
:10075000681711F4209390026F5F7F4F12963296C4
:100760006830710529F6CDB7DEB7EAE00C94BB1707
:100770001F920F920FB60F9211242F933F934F9316
:100780005F936F938F939F93EF93FF9320918600D6
:100790003091870078948091EC029091ED02A9014C
:1007A000481B590B569547953093ED022093EC0268
:1007B0008BE0493B580758F08091EB0281508093C1
:1007C00091021092EB0281E08093EE0235C080919D
:1007D000EE02882389F16091EB02683068F583E0CE
:1007E0004438580748F188E04533580728F5262F44
:1007F00030E0E0914502F0914602329793E0EE0F2F
:10080000FF1F9A95E1F7E20FF31FEE0FFF1FE55E62
:10081000FE4F0190F081E02D518340838091910241
:10082000992787FD90952817390719F481E080935F
:1008300090026F5F6093EB02FF91EF919F918F9118
:100840006F915F914F913F912F910F900FBE0F903D
:100850001F9018951F920F920FB60F9211242F938D
:100860003F934F935F936F937F938F939F93AF9338
:10087000BF93EF93FF930E945903FF91EF91BF91B4
:10088000AF919F918F917F916F915F914F913F9128
:100890002F910F900FBE0F901F9018951F920F92DF
:1008A0000FB60F921124CF92DF92EF92FF920F9327
:1008B0001F932F933F934F935F936F937F938F93E8
:1008C0009F93AF93BF93CF93DF93EF93FF93E0900A
:1008D0008400F09085008091DA0299B19093DA0259
:1008E0007894292F282780958923A2E9B2E0EBED9F
:1008F000F2E060E070E0C22EDD24082F10E0CD9120
:10090000DC911197209721F1C601062E02C0959522
:1009100087950A94E2F780FF1BC0C801062E02C02B
:10092000959587950A94E2F780FF03C0F182E082F3
:100930000FC080819181A701481B590B569547959F
:10094000CA0184589340815B944010F459834883D2
:100950006F5F7F4F129632966830710581F6FF9176
:10096000EF91DF91CF91BF91AF919F918F917F9147
:100970006F915F914F913F912F911F910F91FF9038
:10098000EF90DF90CF900F900FBE0F901F901895B3
:100990008091450290914602019771F080916F001D
:1009A000806280936F0080918100806C80938100D1
:1009B00083E0809391020895809168008160809324
:1009C0006800E7E8F1E040E050E061E070E080813D
:1009D0009181892BA1F020916B00CB01042E02C0E4
:1009E000880F991F0A94E2F7282B20936B0034B1EB
:1009F000282F2095232324B925B1822B85B94F5F59
:100A00005F4F32964830510511F781E08093910293
:100A100080916800846080936800E2E9F2E040E041
:100A200050E061E070E080819181892BA1F02091FC
:100A30006D00CB01042E02C0880F991F0A94E2F7C3
:100A4000282B20936D003AB1282F209523232AB913
:100A50002BB1822B8BB94F5F5F4F329648305105D7
:100A600011F70895A6E0B0E0E8E3F5E00C949717DD
:100A70007A8369831C012B019E838D839B012A5FEE
:100A80003F4F3C832B83ED81FE810681178180815E
:100A90009181081B190B3801882477FC8094982CCD
:100AA000F10182899389A489B589860D971DA81DB6
:100AB000B91D268D378D40A151A1AA24BB24650103
:100AC000A21AB30AC40AD50A8A159B05AC05BD054E
:100AD0004CF05C016D01281739074A075B0714F4D5
:100AE00059016A01F101A28AB38AC48AD58AED81CB
:100AF000FE8184859585AA2797FDA095BA2FA4012C
:100B00009301281B390B4A0B5B0BCA01B9011587EE
:100B10000487F20124853585442737FD4095542FFD
:100B20000E943B177B018C0142E015950795F794D5
:100B3000E7944A95D1F7F20120813181442737FDAE
:100B40004095542FC401B3010E943B1733E09595A3
:100B50008795779567953A95D1F7E60EF71E081FAA
:100B6000191FF20126813781442737FD4095542F04
:100B7000C601B5010E943B1726E0959587957795AC
:100B800067952A95D1F7E60EF71E081F191FE98110
:100B9000FA81028804C015950795F794E7940A94A2
:100BA000D2F7ED81FE81F3A6E2A63296FE83ED83B5
:100BB00024E030E0220E331E42E050E0440E551E89
:100BC0008B819C814816590609F05DCF2696E2E19B
:100BD0000C94B317A6E0B0E0E0EFF5E00C94A71793
:100BE000CE010196BE016D5F7F4FAE014B5F5F4F3F
:100BF0000E942C028B819C81909325028093240279
:100C000049815A8150932702409326022D813E81CB
:100C10003093290220932802809147029091480244
:100C20008230910519F00397D1F40DC0309327025B
:100C30002093260288279927841B950B90932902DD
:100C4000809328020CC088279927821B930B9093CE
:100C50002702809326025093290240932802269669
:100C6000E2E00C94C3170F931F93CF93DF93FC0123
:100C70001082772767FD709572836183DC01EC0138
:100C800040E050E00FEF1FE760E070E80CC0129604
:100C90001C930E9311971A967C936E9319971F8647
:100CA000188A198A1A8A9A014F5F5F4F1296249602
:100CB000818192812817390754F314A613A6DF9176
:100CC000CF911F910F910895A0E0B0E0EAE6F6E021
:100CD0000C949F177C018C01EB01F70160E070E040
:100CE0002BC02181328188819981281739070CF422
:100CF000C9019283818321853285888199818217F8
:100D000093070CF4C901928781872991399144276F
:100D100037FD4095542FD8011F96AD90BD90CD90D2
:100D2000DC905297A20EB31EC41ED51E1F96AD9224
:100D3000BD92CD92DC9252979B016F5F7F4F3296AE
:100D40000C5F1F4FD70111968D919C911297281718
:100D500039073CF2CDB7DEB7EAE00C94BB17A0E050
:100D6000B0E0E5EBF6E00C94A117EC017C0153E256
:100D7000C52ED12CC80ED91E00E010E011C02BA545
:100D80003CA5442737FD4095542FF70167857089AE
:100D9000818992890E947C17F601219331936F011A
:100DA00098010F5F1F4F84E090E0E80EF91E8981E3
:100DB0009A81281739071CF3CDB7DEB7E8E00C9409
:100DC000BD17CF93DF93FC01EB0161817281A0E03D
:100DD00040E050E00DC08385948523813481821BDF
:100DE000930B8C179D070CF4AF5F4F5F5F4F3296EC
:100DF0004617570784F320E08A2F992787FD90959F
:100E00008617970709F421E0822FDF91CF9108958B
:100E1000A8E0B0E0EEE0F7E00C94A5178C0180911B
:100E2000EC019091ED019A8389838091F00190917A
:100E3000F1019C838B838091F2019091F3019E8359
:100E40008D838091EE019091EF0198878F83C80187
:100E5000BE016F5F7F4F0E946406F80183A594A5D1
:100E6000019694A783A78436910551F5C80164E1E2
:100E700070E00E94E1068823F9F0C8010E94AF06E5
:100E8000F80183A194A1909314018093130185A18B
:100E900096A1909316018093150187A190A5909338
:100EA00018018093170181A592A590931A01809350
:100EB000190181E0808304C0C80164E00E94330608
:100EC0002896E4E00C94C117A6E0B0E0EAE6F7E06B
:100ED0000C94A5178C0180912402909125029A838D
:100EE000898380912602909127029C838B83809135
:100EF0002802909129029E838D83C801BE016F5FF5
:100F00007F4F0E946406F80183A594A5019694A7DB
:100F100083A78C52914021F5C80162E370E00E94E2
:100F2000E1068823C9F0C8010E94AF06F80183A139
:100F300094A190931F0280931E0285A196A1909385
:100F400021028093200287A190A590932302809391
:100F5000220281E0808304C0C80163E00E9433065E
:100F60002696E4E00C94C1174091030150910401CE
:100F700080910301909104014817590721F0409195
:100F8000EC015091ED015093ED014093EC01209163
:100F90000501309106018091050190910601281705
:100FA000390721F02091F0013091F1013093F101E6
:100FB0002093F001209107013091080180910701F1
:100FC000909108012817390721F02091F201309102
:100FD000F3013093F3012093F20120910901309144
:100FE0000A018091090190910A012817390721F01F
:100FF0002091EE013091EF013093EF012093EE014B
:1010000020910B0130910C0180910B0190910C010A
:101010002817390721F02091F4013091F501309320
:10102000F5012093F40120910D0130910E01809182
:101030000D0190910E012817390721F02091F6013A
:101040003091F7013093F7012093F60120910F01C1
:101050003091100180910F019091100128173907EC
:1010600021F02091F8013091F9013093F90120939A
:10107000F80120911101309112018091110190919C
:1010800012012817390721F02091FA013091FB0154
:101090003093FB012093FA0180917B0290917C02B6
:1010A000029721F45093EF014093EE010895FC0163
:1010B00080917B0290917C028330910579F184309C
:1010C000910524F4029709F0B4C007C0843091055B
:1010D00009F462C0059709F0ACC08081918120912C
:1010E000EC013091ED01820F931F909311028093D8
:1010F0001002808191812091EE013091EF01820FE9
:10110000931F9093170280931602828193812091FE
:10111000F0013091F101820F931F31C04081518164
:101120008091EC019091ED01480F591F628173810C
:101130008091F0019091F101680F791FCB01840F2C
:10114000951F9C01B3E035952795BA95E1F79595E4
:101150008795280F391F275731403093110220936C
:101160001002461B570BCA01B3E095958795BA95B7
:10117000E1F755954795840F951F84529A4F9093A8
:10118000130280931202848195812091F2013091A3
:10119000F301820F931F49C0808191812091EC015E
:1011A0003091ED01820F931F9093110280931002F2
:1011B000808191812091EE013091EF01820F931F88
:1011C0009093170280931602628173818091F001DF
:1011D0009091F101680F791F448155818091F2014E
:1011E0009091F301480F591FCA01860F971F9C0168
:1011F000F3E035952795FA95E1F795958795280FB2
:10120000391F275731403093130220931202461B97
:10121000570BCA0173E0959587957A95E1F7559537
:101220004795840F951F84529A4F9093150280938F
:1012300014028091F8019091F90190931902809322
:1012400018028091FA019091FB0190931B02809308
:101250001A028091F6019091F70190931D028093FC
:101260001C020895A8E0B0E0E8E3F9E00C94A517AB
:1012700080914302909144020397A9F5FE013196B3
:1012800088E0DF011D928A95E9F7CF010E94570897
:10129000A3EEB1E000E312E048E352E06D917C91EF
:1012A0001197F80120813181FB01808191812817FC
:1012B00039070CF4C901F80191838083FA01208178
:1012C0003181FB0180819181821793070CF4C90160
:1012D000FA0181939193AF0112960E5F1F4FF1E0D7
:1012E000AB3EBF07D9F68AE292E00E94570880E041
:1012F00090E0FC01ED51FE4FA081B1814D915C91D8
:101300001197FC01E05DFD4F0190F081E02D4E173B
:101310005F0754F0FC01E85CFD4F20813181FA0148
:10132000241735070CF4F901ED93FC9302968830ED
:101330009105F9F62896E4E00C94C11781E08093BA
:10134000A2022FB7F894809110029091110290930D
:1013500003028093020280911202909113029093F3
:1013600005028093040280911402909115029093DB
:1013700007028093060280911602909117029093C3
:1013800009028093080280911802909119029093AB
:101390000B0280930A0280911A0290911B02909393
:1013A0000D0280930C0280911C0290911D0290937B
:1013B0000F0280930E02EFE6F0E08081826080836E
:1013C000B19A809184009091850004969093890051
:1013D000809388002FBF0895FC0181E08183808382
:1013E00085E08283168215821086178208959C01FB
:1013F00044E0813B940714F490E00DC08451954083
:101400008159914010F491E006C02850374014F4FF
:101410009FEF06C092E0662319F082E0891B982FA7
:10142000892F0895CF93DF93EC018A818B8380917C
:10143000EC019091ED016D810E94F70987FD888193
:1014400088838091F0019091F1016E810E94F709EB
:1014500087FD898189838F81882351F4888188233E
:1014600029F0823029F481E08D83188281E08F8316
:101470008885882361F48981882319F0823039F4C2
:1014800004C081E08E8382E0898381E0888738818F
:101490003F5F898123E08202C0011124380F3A8323
:1014A0009B8180E0391729F081E09295907F932B02
:1014B0009C83DF91CF910895282F30E03F6F220F5A
:1014C000331FEFB7F8948091840090918500AC01B0
:1014D000405C5F4FBC016D5D7A4F809184009091BC
:1014E0008500DA01A81BB90B1A161B06B4F320FFFE
:1014F00002C0579801C0579A4617570729F03695EA
:10150000279545575F4FE9CFEFBF0895EFB7F894A0
:101510004F9B49C016C0209184003091850020580F
:10152000314C04C08FEF9FEF4F9B0BC08091840024
:1015300090918500B901681B790B1616170614F4F3
:10154000F1CFAC0141505040CA010196181619065E
:1015500014F34F5F5F4F19F420E030E826C080910C
:10156000840090918500AC0140565F4F20E030E050
:10157000BC0163597B4F8091840090918500DA0112
:10158000A81BB90B1A161B06B4F389B1369527951B
:1015900090E080789070282B392B4617570729F058
:1015A00045575F4FE8CF20E030E4EFBFC901089511
:1015B000EF92FF920F931F93CF93DF93E82E192F93
:1015C000062FF62E84E20E945C0A802F0E945C0A9D
:1015D0002E2D312FC901EC0104C08991F80E0E9413
:1015E0005C0A9E012E192017C4F38F2D81950E944D
:1015F0005C0ACDB7DEB7E6E00C94BF178F929F92DE
:10160000AF92BF92CF92DF92FF920F931F93CF932F
:10161000DF934C015A01C0E0D0E0C62EDD24C7FCA8
:10162000D09402C0812F182FC5010E94860A9C0108
:101630008070907C892B69F5822FC130D10559F0DB
:10164000C230D105A1F0209779F7243259F7812FC4
:10165000C1E0D0E0E8CF90E0C816D90614F4812F9D
:1016600015C0822FF22EC2E0D0E000E0DCCFF20EF7
:10167000812F8150112331F0F401E00FF11D2083FF
:101680000F5FD1CFFF2011F481E004C0C0E0D0E0B3
:10169000CACF80E0DF91CF911F910F91FF90DF9033
:1016A000CF90BF90AF909F908F9008951F93CF934E
:1016B000DF93EC01142F4BE350E00E94CE1788819A
:1016C000811711F08FEF12C090E020E030E0FE01B2
:1016D000E20FF31F8081980F2F5F3F4F2B333105AF
:1016E000B1F7992311F480E001C08EEFDF91CF9123
:1016F0001F910895DC0190E020E030E0FD01E20F51
:10170000F31F8081980F2F5F3F4F2A333105B1F7C8
:101710009195DA969C93DA97CD014BE350E00E94C5
:10172000DE170895A3E1B0E0E8E9FBE00C94971719
:101730001C0181E0898381E492E09B838A83029685
:101740009D838C8302969F838E83029699878887D8
:1017500002969B878A8702969D878C8702969F8731
:101760008E870296998B888BCE0101969B8B8A8BF4
:10177000D0904102DD0CCC246624EE24FF248701A6
:10178000F0E88F2EFAE19F2EF6E0AF2EB12CE2E0CA
:101790007E2E2C010E94A2009B01AC01DC01CB013A
:1017A0008E199F09A00BB10B88169906AA06BB06D5
:1017B0000CF051C0171424F5872D992787FD9095BB
:1017C000FC01E170F07080FD03C088E097E002C08A
:1017D0008CED95E090931302809312028CED95E0CE
:1017E0009093110280931002EE0FFF1FEE0FFF1F68
:1017F000E753FE4F80809180A280B3807A9429C005
:10180000DD2039F11D1424F46CE271E0A1E003C085
:1018100064ED7EEFAFEF8D2D992787FD9095FC014C
:10182000E170F07080FF03C08CED95E003C0CB0148
:1018300084529A4F9093110280931002EE0FFF1F73
:10184000EE0FFF1FE753FE4F80809180A280B38090
:10185000DA1A79018A0180919002882329F0109286
:1018600090020E94B40702C0662041F08091A2025B
:10187000882309F08CC00E949E096624772009F015
:1018800089CFC1010E94120A882309F483CFF10194
:101890008481843561F0853520F4823509F063C098
:1018A00013C0863559F0883509F05DC02AC0F1E0D3
:1018B000FC1514F0CC2470C0CA946EC086E08C1560
:1018C0000CF468C0C39468C0AC2DBB27A7FDB095CD
:1018D000FD01EE0FFF1FE40DF51D0180F281E02DEB
:1018E0008081282F332727FD30952F5F3F4FAF5240
:1018F000BE4F8C91992787FD909582179307F4F43A
:101900001CC0AC2DBB27A7FDB095FD01EE0FFF1F3E
:10191000E40DF51D0180F281E02D8081282F332711
:1019200027FD309521503040A652BE4F8C9199270B
:1019300087FD9095281739070CF49C01208320E03F
:101940008C2D992787FD9095FC01EE0FFF1FE40D6C
:10195000F51D0180F281E02DD080DD0C222319F0ED
:101960000196782E770C8981823009F013CF80E4BC
:1019700092E060E070E00E947A0B80E492E060E028
:1019800071E00E947A0B6396E2E10C94B31766242F
:10199000639474CFA8E0CA2E21E0D2CFADE8B0E0C6
:1019A000E4EDFCE00C9497170E94A2001B012C01AF
:1019B000DE011196EBEBF1E086E001900D92815093
:1019C000E1F78E010D5E1F4FC8010E94EC099CE1FA
:1019D000E92EF12CEC0EFD1EC70164E00E943306D7
:1019E00089E4C82ED12CCC0EDD1EC60163E00E9416
:1019F00033062092D4023092D5024092D602509201
:101A0000D702CA57DF4F288239824A825B82C65882
:101A1000D040CE57DF4F288239824A825B82C2583B
:101A2000D04042013101C258DF4F288239824A82B8
:101A30005B82CE57D040EB962CAE3DAE4EAE5FAE45
:101A4000EB97EE961FAEEE97ED961FAEED9721E069
:101A5000EC962FAFEC97C657DF4FE882CA58D040BC
:101A6000C557DF4FF882CB58D040C457DF4F0883AB
:101A7000CC58D040C357DF4F1883CD58D0400E9478
:101A8000A2005B016C010E940A01809190028823F0
:101A900099F4D601C501CA57DF4F488159816A813F
:101AA0007B81C658D040841B950BA60BB70B815386
:101AB0009547A040B0405CF1109290020E94B4079C
:101AC0008C8D882309F05EC4C657DF4F8881CA58C1
:101AD000D040C557DF4F9881CB58D0400E940807AF
:101AE0002A968FAD2A97882311F492E001C090E0E6
:101AF00020E08C8D882309F421E0920F90938302DB
:101B000068EC70E070938902609388023BC4EE96A3
:101B10007FADEE97772359F08091A202882339F4A4
:101B20000E9432090E949E09EE961FAEEE97D601E2
:101B3000C501CE57DF4F288139814A815B81C25868
:101B4000D040821B930BA40BB50B81519742A04050
:101B5000B04054F10E94EA052A968FAD2A97882357
:101B6000D9F4CE01875B9F4F0E9464072A968FAD00
:101B70002A97882311F492E001C090E020E08C8D38
:101B8000882309F421E0920F9093830248EC50E0FF
:101B90005093890240938802CE57DF4FA882B982C2
:101BA000CA82DB82C258D040EC965FADEC975523D9
:101BB00009F456C0C457DF4F8881CC58D040C35772
:101BC000DF4F9881CD58D0400E94120A882309F433
:101BD00047C0ED966FADED97E62FFF27E7FDF09537
:101BE000EE54FE4F9F898081981721F0ED961FAE2D
:101BF000ED9707C0ED967FADED977F5FED967FAFD8
:101C0000ED97ED968FADED97E82FFF27E7FDF09567
:101C1000EE54FE4F80818F3F81F4CE0143960E94A7
:101C2000920B2EE088E190E00FB6F894A89580938F
:101C300060000FBE20936000FFCFD601C50182195E
:101C40009309A409B509815C914EA44EB04024F0DB
:101C5000EC961FAEEC9704C0F1E0EC96FFAFEC976A
:101C60008C8D882309F40BCF2A968FAD2A97882371
:101C700009F405CFD601C50186199709A809B90944
:101C800081519742A040B0400CF416C380917D0270
:101C900090917E028130910559F48091F4019091E8
:101CA000F501845C95400CF09BC080E090E00DC095
:101CB000892B09F095C08091F4019091F501855F21
:101CC00095400CF48DC081E090E090937E0280936B
:101CD0007D02892B11F084E001C080E080938302B3
:101CE00068EC70E070938902609388021092B502EC
:101CF0001092B6021092B7021092B8021092C1026E
:101D00001092C2021092C3021092C4021092B90241
:101D10001092BA021092BB021092BC021092C5023D
:101D20001092C6021092C7021092C8021092BD0211
:101D30001092BE021092BF021092C0021092C9020D
:101D40001092CA021092CB021092CC0280914F02E4
:101D500090915002029709F043C0D601C501EB965D
:101D60002CAD3DAD4EAD5FADEB97821B930BA40B3D
:101D7000B50B8152914AA740B0401CF0E7961FAEC8
:101D8000E797E7964FADE7974F5FE7964FAFE79737
:101D9000433004F18091EC019091ED019093140196
:101DA000809313018091F0019091F10190931601BD
:101DB000809315018091F2019091F30190931801A5
:101DC000809317018091EE019091EF0190931A0199
:101DD00080931901EB96ACAEBDAECEAEDFAEEB9705
:101DE000E091EE01F091EF018091EC019091ED0115
:101DF000E80FF91F8091190190911A01E81BF90B66
:101E00008091130190911401E81BF90B4091F001AE
:101E10005091F1018091150190911601481B590BC9
:101E2000A091F201B091F3018091170190911801F6
:101E3000A81BB90B809149028150282F332727FD19
:101E40003095CF019595879597FF03C09095819523
:101E50009F4F022E02C0880F991F0A94E2F761E09B
:101E60008139960714F080E991E060E971E0681B20
:101E7000790B78876F83CA0157FF04C08827992799
:101E8000841B950B022E02C0880F991F0A94E2F75B
:101E900071E08139970714F080E991E060E971E021
:101EA000681B790B7A876987CD01B7FF04C0882743
:101EB00099278A1B9B0BBC0102C0660F771F2A95CE
:101EC000E2F781E06139780714F060E971E010E928
:101ED000612E11E0712E661A770A7C866B8620913E
:101EE000F4013091F50195E02D3D39072CF067E0C4
:101EF0002D3636075CF007C08CED95E0821B930B06
:101F0000815991401CF000E911E00CC085E02D3DA5
:101F1000380724F089010C5D154004C00CED15E074
:101F2000021B130B80907D0290907E0291E0891637
:101F3000910459F08114910409F054C080914D022C
:101F400090914E02029709F04DC080914B02909102
:101F50004C0201979F01082E02C0220F331F0A94E2
:101F6000E2F701963E872D87082E02C0440F551FC9
:101F70000A94E2F7588B4F87AD0102C0440F551FFA
:101F80008A95E2F75A8B498B89819A8197FD05C022
:101F900088279927821B930B01C0C9019093A40243
:101FA0008093A3028B819C812F85388997FD05C082
:101FB00088279927821B930B01C0C9019093A60221
:101FC0008093A5028D819E8197FD03C05095419518
:101FD0005F4F5093A8024093A702E1E08E16910450
:101FE00071F055C01092A4021092A3021092A602A2
:101FF0001092A5021092A8021092A70248C06F8109
:102000007885882777FD8095982F24EF3FEB40E077
:1020100050E00E943B17F9E0959587957795679575
:10202000FA95D1F76093C1027093C2028093C30204
:102030009093C40269857A85882777FD8095982FCB
:102040000E943B17E9E09595879577956795EA9506
:10205000D1F76093C5027093C6028093C702909334
:10206000C802B301882777FD8095982F0E943B17FF
:1020700039E095958795779567953A95D1F760936F
:10208000C9027093CA028093CB029093CC02209134
:1020900024023091250280911E0290911F02281B7C
:1020A000390BF0E220303F0714F02FEF3FE1C90178
:1020B00020EE8030920714F480E090EE9093AA0214
:1020C0008093A9022091260230912702809120025C
:1020D00090912102281B390B40E22030340714F084
:1020E0002FEF3FE1C90150EE2030350714F480E0B6
:1020F00090EE9093AC028093AB0220912802309135
:1021000029028091220290912302281B390B60E260
:102110002030360714F02FEF3FE1C90170EE203078
:10212000370714F480E090EE9093AE028093AD02F6
:10213000892819F067E672E002C064E572E083EA7C
:1021400092E00E943205EE24FF243801882477FCB7
:102150008094982C8701065D1D4FE1E0F0E0EC0FC4
:10216000FD1FEE0DFF1D60817181882777FD809531
:10217000982FF701ED55FD4F22A533A5442737FDD4
:102180004095542F0E943B1727E0959587957795AA
:1021900067952A95D1F7E7E0F0E0EC0FFD1FEE0D13
:1021A000FF1D20813181442737FD4095542F0E9427
:1021B0003B179B01AC01B9E055954795379527959D
:1021C000BA95D1F7C401B3010E943B17A9E09595D8
:1021D000879577956795AA95D1F7F8017183608304
:1021E00022E030E0E20EF31E36E0E316F10409F0DF
:1021F000B1CF2091D30212160CF05CC08091D402B2
:102200009091D502A091D602B091D702B601A50156
:10221000481B590B6A0B7B0BDB01CA0181549D40A3
:10222000A340B0405CF021502093D302A092D4028E
:10223000B092D502C092D602D092D7028091D3023A
:10224000992787FD909540912A0250912B02BC015D
:102250006170707080FF03C026E930E002C02AE69A
:102260003FEF240F351F30932B0220932A02409119
:102270002C0250912D026115710519F026E930E00C
:1022800002C02AE63FEF240F351F30932D02209322
:102290002C0220912E0230912F02672B19F48AE62E
:1022A0009FEF02C086E990E0820F931F90932F0268
:1022B00080932E0235014601D601C501C258DF4F79
:1022C000288139814A815B81CE57D040821B930B94
:1022D000A40BB50B8C59914AA740B0400CF4CFCB5E
:1022E00080915102803839F480910001282F30E02C
:1022F0002058304004C0282F332727FD3095809187
:102300005202803839F480910101482F50E0405842
:10231000504004C0482F552747FD509580915302E7
:10232000803831F48091020190E08058904003C0E1
:10233000992787FD90953A8329835C834B839E83FD
:102340008D83295F3F4F2F30310510F41A82198297
:102350008B819C8107960F9710F41C821B828D81C4
:102360009E8107960F9710F41E821D8280E00E94C6
:102370005C02C258DF4FA882B982CA82DB82CE5784
:10238000D0407DCBCA57DF4FA882B982CA82DB8298
:10239000C658D04041E0EE964FAFEE97BDCBACE5CE
:1023A000B0E0E5EDF1E10C94A1171092800081E01E
:1023B0008093810057985F9848E552E000E06E01F5
:1023C0000894C11CD11C22E0E22EF12CEC0EFD1E63
:1023D000C6016CE50E94FE0A882309F441C0898188
:1023E0008230A9F0833018F4813029F406C083309C
:1023F000B1F08430E9F010E026C0C70160E870E079
:1024000048E050E00E94CE1710E069E01DC0C7010F
:1024100060E870E048E050E00E94DE1713C0C7019A
:1024200060E070E044E00E94560B10E06CE30CC0EA
:10243000C70160E070E00E947A0BC70160E071E0C4
:102440000E947A0B11E061E0898180688983C6016E
:102450000E94D80A01E044EF51E0112309F4B8CFFB
:10246000802FC45ADF4FE8E00C94BD171F931FEF75
:102470001F5FE12FFF27E7FDF095EE0FFF1FE956E5
:10248000FE4F80819181892B69F41F5FE12FFF2727
:10249000E7FDF095EE0FFF1FE956FE4F8081918119
:1024A000892B59F0E12FFF27E7FDF095E755FE4F07
:1024B000808161E00E946C16DBCF1F9108951F920E
:1024C0000F920FB60F9211242F933F934F935F9368
:1024D0006F937F938F939F93AF93BF93CF93DF932C
:1024E000EF93FF93E091D902FF27E7FDF095E755C1
:1024F000FE4F808160E00E94D816E091D802E7FD8F
:102500004BC0C0918400D0918500FF27E7FDF09576
:10251000E755FE4F808161E00E94D8168091D80275
:10252000E82FFF27E7FDF095EE0FFF1FE956FE4F5E
:102530000190F081E02D208131818093D902482FD4
:102540004F5F4093D802E42FFF27E7FDF095EE0F91
:10255000FF1FE956FE4F80819181892B91F4E42F72
:10256000EF5FE093D802FF27E7FDF095EE0FFF1F26
:10257000E956FE4F80819181892B19F48FEF80936A
:10258000D80222503040220F331F2C0F3D1F3093B2
:1025900089002093880009C01092D8021092A202EC
:1025A00080916F008D7F80936F00FF91EF91DF919D
:1025B000CF91BF91AF919F918F917F916F915F91DB
:1025C0004F913F912F910F900FBE0F901F90189534
:1025D000EF92FF920F931F937A018B01882341F0B2
:1025E00083E161E00E94D81682E161E00E94D81682
:1025F0001092B90060E074E284EF90E0A8019701C6
:102600000E945A17205130404040504056954795FF
:10261000379527952093B8001F910F91FF90EF9069
:10262000089581E040E85AE166E070E00E94E81217
:102630000E940C02882349F485E08093840288EC90
:1026400090E090938B0280938A020895EF92FF921C
:102650000F931F93CF93DF93E82EF62E60E00E9436
:102660006C168F2D61E00E946C16C0E0D0E0CE01A8
:102670008170082F8F2D602F0E94D8168E2D0E94FA
:102680000B17112707FD10958017910711F000E037
:1026900005C02196C830D10551F701E08F2D60E0CB
:1026A0000E946C16802FCDB7DEB7E6E00C94BF1702
:1026B000A0E8B0E0EEE5F3E10C94A317259A809131
:1026C0000F0390911003009711F09C0102C023E1C9
:1026D00033E0CE010196821B930B803891054CF4B8
:1026E00084E1809384028EE190E090938B0280934A
:1026F0008A0284B7877F84BF88E10FB6F8948093FD
:102700006000109260000FBE21E030E03093420282
:102710002093410280E8809351028093520280937B
:102720005302309344022093430230934602209395
:102730004502309348022093470230934A02209387
:10274000490283E090E090934C0280934B023093D7
:102750004E0220934D0282E090E0909350028093CD
:102760004F0284EF91E090935502809354021092AF
:102770005B0210925A0290936102809360029093E0
:1027800057028093560210925D0210925C02909361
:1027900063028093620290935902809358021092D0
:1027A0005F0210925E02909365028093640228E0BB
:1027B00020936602909368028093670290936E0262
:1027C00080936D02909374028093730290936A02D7
:1027D000809369029093700280936F0290937602C7
:1027E0008093750290936C0280936B0290937202B7
:1027F00080937102909378028093770220937902FC
:1028000085E064E00E942613882311F400E001C0F3
:1028100007E0CE01039660E870E048E050E00E94D7
:10282000CE17002361F48B81823049F48C819D8125
:10283000AE81BF818E549146AC4BB04071F082E0C6
:102840008B838EE491E6ACEBB0E08C839D83AE830A
:10285000BF83188619861A860860CE010B9660E041
:1028600070E044E00E94560B87FD0260CE018A5B57
:102870009F4F60E071E044E00E94560B87FD0460CA
:1028800083E08093D302E02EFF24C701867090700E
:102890008230910531F08430910579F0892B81F1F6
:1028A00019C08E010A5B1F4FC80160E070E00E94F2
:1028B0007A0B88858F5F88870BC08E01055F1F4F5D
:1028C000C80160E071E00E947A0B89858F5F89877B
:1028D000C80118C084E08093400280E492E060E088
:1028E00070E00E947A0B80E492E060E071E00E9468
:1028F0007A0B8A858F5F8A8789E08093D3020AC02A
:10290000CE010B96A0E4B2E0FC018BE301900D92A6
:102910008150E1F7C7018E709070892B41F0CE0194
:10292000039660E870E048E050E00E94DE17E0FEA9
:1029300007C064E670E080E090E00E940D16F9CFD9
:102940000E94CF11882361F02EE088E190E00FB65D
:10295000F894A895809360000FBE20936000FFCF8D
:102960001092800082E08093810081E080936F006C
:1029700085B5887F85BD8091430290914402823065
:102980009105D1F08330910561F10197F1F580E077
:1029900090E048EE53E020ED37E0FC01E05DFD4FB4
:1029A00051834083FC01E85CFD4F31832083029614
:1029B0008830910591F729C080E090E04CE454E024
:1029C0002CE637E0FC01E05DFD4F51834083FC01C4
:1029D000E85CFD4F3183208302968830910591F7A2
:1029E00014C080E090E042EE54E026ED36E0FC01B9
:1029F000E05DFD4F51834083FC01E85CFD4F318376
:102A0000208302968830910591F70E94FC020E9473
:102A1000150380914102909142029C0121303105C1
:102A2000C9F48091FF01882319F4E0E0F0E002C0CE
:102A3000E2E0F0E020E030E080910002882311F035
:102A400021E030E0E22BF32BEE0FFF1FEF53FE4FA0
:102A50002081318130937C0220937B022530310527
:102A600099F48091FD0129E031E0882329F0309329
:102A70008E0120938D0108C010927A011092790185
:102A800030939502209394028091450290914602E2
:102A9000019759F1109288011092870110928A01D2
:102AA0001092890110928C0110928B0110928E016C
:102AB00010928D018AE092E09093A00180939F0193
:102AC0008AE08093AD018CE092E09093A201809324
:102AD000A10189E08093AE018EE092E09093A40181
:102AE0008093A3018BE08093AF0180917B02809360
:102AF000820288E592E090938702809386020E948A
:102B0000AC020E94C8040E9436120E9411130E9457
:102B1000B4070E943209C058DF4FE6E00C94BF179B
:102B2000CF93DF930E9431160E945813C0E0D0E08B
:102B30000E94CE0C2097E1F30E940000F9CF1F9273
:102B40000F920FB60F9211242F933F938F939F9361
:102B5000AF93BF938091F9029091FA02A091FB028A
:102B6000B091FC023091FD020196A11DB11D232FF1
:102B70002D5F2D3720F02D570196A11DB11D2093FB
:102B8000FD028093F9029093FA02A093FB02B093A6
:102B9000FC028091F5029091F602A091F702B091AB
:102BA000F8020196A11DB11D8093F5029093F602E3
:102BB000A093F702B093F802BF91AF919F918F91CC
:102BC0003F912F910F900FBE0F901F9018959FB7B8
:102BD000F8942091F5023091F6024091F70250915D
:102BE000F80286B5A89B06C08F3F21F02F5F3F4FAC
:102BF0004F4F5F4F9FBF542F432F322F2227280F55
:102C0000311D411D511D82E0220F331F441F551FEE
:102C10008A95D1F7B901CA010895EF92FF920F93F7
:102C20001F93CF93DF937B018C010E94E715EB018B
:102C30000EC00E94E7156C1B7D0B685E7340C8F3E5
:102C40000894E108F10801091109C851DC4FE114A9
:102C5000F1040105110569F7CDB7DEB7E6E00C9484
:102C6000BF17789484B5826084BD84B5816084BDCB
:102C700085B5826085BD85B5816085BDEEE6F0E0F5
:102C8000808181608083E1E8F0E010828081826051
:102C90008083808181608083E0E8F0E080818160D2
:102CA0008083E1EBF0E0808184608083E0EBF0E002
:102CB000808181608083EAE7F0E0808184608083A6
:102CC0008081826080838081816080838081806850
:102CD00080831092C1000895CF93DF93482F50E076
:102CE000CA0186569F4FFC0134914A575F4FFA0143
:102CF0008491882369F190E0880F991FFC01E859BD
:102D0000FF4FA591B491FC01EE58FF4FC591D491AE
:102D1000662351F42FB7F8948C91932F90958923C3
:102D20008C93888189230BC0623061F42FB7F894AB
:102D30008C91932F909589238C938881832B888302
:102D40002FBF06C09FB7F8948C91832B8C939FBFA5
:102D5000DF91CF910895833071F0843028F4813071
:102D6000A1F0823021F514C08630B1F08730D1F067
:102D70008430E9F404C0809180008F7703C0809193
:102D800080008F7D80938000089584B58F7702C086
:102D900084B58F7D84BD08958091B0008F77809336
:102DA000B00008958091B0008F7D8093B0000895A9
:102DB000FF920F931F93F62E482F50E0CA018255C1
:102DC0009F4FFC012491CA0186569F4FFC0114912C
:102DD0004A575F4FFA0104910023C9F0222319F0EA
:102DE000822F0E94AB16E02FF0E0EE0FFF1FEE588F
:102DF000FF4FA591B4919FB7F894FF2021F48C91D7
:102E00001095812302C08C91812B8C939FBF1F91C1
:102E10000F91FF9008950F931F93482F50E0CA0120
:102E200082559F4FFC012491CA0186569F4FFC0199
:102E300004914A575F4FFA011491112319F420E0CD
:102E400030E015C0222319F0822F0E94AB16812F8B
:102E500090E0880F991F84589F4FFC01A591B49171
:102E60008C9120E030E0802311F021E030E0C901B6
:102E70001F910F910895629FD001739FF001829F6F
:102E8000E00DF11D649FE00DF11D929FF00D839FF9
:102E9000F00D749FF00D659FF00D9927729FB00D96
:102EA000E11DF91F639FB00DE11DF91FBD01CF01A9
:102EB00011240895A1E21A2EAA1BBB1BFD010DC00F
:102EC000AA1FBB1FEE1FFF1FA217B307E407F507DA
:102ED00020F0A21BB30BE40BF50B661F771F881FB6
:102EE000991F1A9469F760957095809590959B014C
:102EF000AC01BD01CF01089597FB092E05260ED028
:102F000057FD04D0D7DF0AD0001C38F45095409507
:102F1000309521953F4F4F4F5F4F0895F6F79095AD
:102F20008095709561957F4F8F4F9F4F08952F9299
:102F30003F924F925F926F927F928F929F92AF9249
:102F4000BF92CF92DF92EF92FF920F931F93CF9396
:102F5000DF93CDB7DEB7CA1BDB0B0FB6F894DEBF2D
:102F60000FBECDBF09942A88398848885F846E8453
:102F70007D848C849B84AA84B984C884DF80EE809D
:102F8000FD800C811B81AA81B981CE0FD11D0FB6A6
:102F9000F894DEBF0FBECDBFED010895DC01CB017B
:102FA000FC01F999FECF06C0F2BDE1BDF89A319659
:102FB00000B40D9241505040B8F70895DC01CB01A8
:102FC00003C02D910E94E91741505040D0F7089559
:102FD000262FF999FECF1FBA92BD81BD20BD0FB635
:102FE000F894FA9AF99A0FBE01960895F894FFCFD3
:102FF000FFFFFFDC05DC05DC05DC05E803DC05E89C
:1030000003DC05DC05DC05DC05DC05070105010F3B
:103010000103010B0109010D0111010F010301055C
:103020000107010B0109010D011101030105010F48
:103030000107010B0109010D01110100000001014F
:10304000010201000000000000000000000000FF7D
:10305000010000000000000002000000000000006D
:10306000000000000000000102FC01FD01FE010063
:10307000000000000000000301050107010B010032
:103080000000000000000002020402060208020024
:1030900000000000000000000004050607FFFFFF1D
:1030A000FFFF7889988778899887FF0000000000E3
:1030B000000500040003000200A0860100801A063B
:1030C00000050304030305020202010101010101DD
:0C30D0000101011002120214021602009D
:00000001FF
