:100000000C9463000C948B000C948B000C94940360
:100010000C948B000C94B8030C948B000C948B0004
:100020000C948B000C948B000C9422030C946E1295
:100030000C948B000C94DA000C948B000C948B00C5
:100040000C945D190C948B000C948B000C948B0019
:100050000C948B000C94A0010C948B000C948B00DE
:100060000C9403170C948B00000000002400270060
:100070002A0000000000250028002B0000000000DE
:1000800023002600290004040404040404040202DA
:100090000202020203030303030301020408102007
:1000A0004080010204081020010204081020000012
:1000B0000007000201000003040600000000000029
:1000C0000000AC0AA41511241FBECFEFD4E0DEBFA0
:1000D000CDBF11E0A0E0B1E0E8E3FAE302C0059093
:1000E0000D92AE3FB107D9F713E0AEEFB1E001C01A
:1000F0001D92AA3EB107E1F710E0C6ECD0E004C0C3
:100100002297FE010E94161DC23CD107C9F70E942A
:100110004E190C941A1D0C940000A0E0B0E0E3E925
:10012000F0E00C94E71C7C01EB018A01690109C035
:10013000CE012196F6010995F70181937F010150C7
:10014000104001151105A1F7CDB7DEB7E8E00C941A
:10015000031DA0E0B0E0EFEAF0E00C94E71CEC0136
:100160007B018A01690109C0CE012196F7016191E5
:100170007F01F60109950150104001151105A1F705
:10018000CDB7DEB7E8E00C94031D9C01F999FECFD2
:1001900032BD21BDF89A80B508959C01F999FECF32
:1001A0001FBA32BD21BD60BD0FB6F894FA9AF99A14
:1001B0000FBE08951F920F920FB60F9211248F93C6
:1001C0009F93809198029091990201969093990241
:1001D000809398028091980290919902892B29F43A
:1001E00080919A028F5F80939A029F918F910F90D6
:1001F0000FBE0F901F90189560918400709185003C
:100200002091980230919902E0919A0280918400A5
:10021000909185008627972797FDEECF80919802D1
:10022000909199022817390739F780919A02E817B7
:1002300019F740E050E0FFE0220F331F441F551F25
:10024000FA95D1F78E2F90E0A0E0B0E0BB2786951D
:10025000B795AA2799278827282B392B4A2B5B2B60
:1002600076956795CB01A0E0B0E0282B392B4A2B7F
:100270005B2BB901CA0108959B01AC018091060373
:1002800090910703A0910803B0910903821B930B7F
:10029000A40BB50B181619061A061B060CF44FC052
:1002A00080910A03882301F5E0910B03EF5FE3706F
:1002B000E0930B03FF27E7FDF095E556FD4F8081A6
:1002C000992787FD9095880F991F80930A03205CDA
:1002D0003D4B404F5F4F20930603309307034093FD
:1002E0000803509309030895815080930A0380FF07
:1002F00024C02D9AE0910B03FF27E7FDF095EE0F48
:10030000FF1FE156FD4F80819181AA2797FDA0959F
:10031000BA2F6AE0880F991FAA1FBB1F6A95D1F7F1
:10032000820F931FA41FB51F8093060390930703AA
:10033000A0930803B093090308952D98DBCF089587
:100340001F920F920FB60F9211242F938F939F93AA
:10035000EF93FF9390917C009770E92FF0E0EE0F00
:10036000FF1FE55BFE4F0190F081E02D8091790049
:100370008083292F16C0E22FF0E0EE0FFF1FE55B10
:10038000FE4F80819181892B61F080917C00887F74
:10039000282B20937C0080917A00806480937A00DF
:1003A00003C02F5F283039F7FF91EF919F918F9114
:1003B0002F910F900FBE0F901F901895CF93DF9342
:1003C000ABE4B1E0FD0140E050E061E070E080812D
:1003D0009181892B79F087B1EB01042E02C0CC0FFB
:1003E000DD1F0A94E2F79E012095822387B988B128
:1003F000282328B94F5F5F4F32964630510539F7B1
:1004000080E680937C0010927B008FE880937A00D6
:1004100020E08D919C911197892B61F080917C0057
:10042000887F282B20937C0080917A0080648093C1
:100430007A0004C02F5F1296283059F7DF91CF91D0
:100440000895E7E5F1E040E050E061E070E0808190
:100450009181892B79F034B1CB01042E02C0880F31
:10046000991F0A94E2F7282F2095232324B925B158
:10047000822B85B94F5F5F4F32964830510539F76F
:10048000E7E6F1E040E050E061E070E080819181DA
:10049000892B79F037B1CB01042E02C0880F991F48
:1004A0000A94E2F7282F2095232327B928B1822B1D
:1004B00088B94F5F5F4F32964830510539F7E7E70B
:1004C000F1E040E050E061E070E080819181892BB3
:1004D00079F03AB1CB01042E02C0880F991F0A941B
:1004E000E2F7282F209523232AB92BB1822B8BB931
:1004F0004F5F5F4F32964830510539F7089560E0FD
:1005000070E040E050E0A1E0B0E0362FFA01E95A97
:10051000FE4F0190F081E02D309751F023B1CD01D5
:10052000062E02C0880F991F0A94E2F72823208321
:10053000FA01E959FE4F0190F081E02D309751F01A
:1005400026B1CD01032E02C0880F991F0A94E2F74D
:1005500028232083FA01E958FE4F0190F081E02D15
:10056000309749F029B1CD0102C0880F991F3A9503
:10057000E2F7282320836F5F7F4F4E5F5F4F40314C
:10058000510519F60895A0E0B0E0E9ECF2E00C9412
:10059000E51C00918400109185008091D50393B1F2
:1005A0009093D5037894292F282780958923A7E84D
:1005B000B1E0E6EDF3E060E070E0C22EDD24E82E6D
:1005C000FF2421E0CD91DC911197209779F1C601AC
:1005D000062E02C0959587950A94E2F780FF26C003
:1005E000C701062E02C0959587950A94E2F780FF11
:1005F00003C0118300831AC080819181A801481B28
:10060000590B569547958CE7A82E8CEFB82EA40E63
:10061000B51E81EBA81684E0B80640F459834883E0
:100620008091A802681711F42093A7026F5F7F4F93
:10063000129632966830710529F6CDB7DEB7EAE03A
:100640000C94011D1F920F920FB60F9211242F933D
:100650003F934F935F936F938F939F93EF93FF938A
:1006600020918600309187007894809103039091C7
:100670000403A901481B590B569547953093040371
:10068000209303038BE0493B580758F08091020305
:1006900081508093A8021092020381E080930503A9
:1006A00035C080910503882389F160910203683089
:1006B00068F583E04438580748F188E04533580727
:1006C00028F5262F30E0E0915E02F0915F0232972C
:1006D00093E0EE0FFF1F9A95E1F7E20FF31FEE0F85
:1006E000FF1FE55EFE4F0190F081E02D51834083B6
:1006F0008091A802992787FD90952817390719F44A
:1007000081E08093A7026F5F60930203FF91EF91F6
:100710009F918F916F915F914F913F912F910F908A
:100720000FBE0F901F9018951F920F920FB60F9249
:1007300011242F933F934F935F936F937F938F93E6
:100740009F93AF93BF93EF93FF930E94C302FF91D8
:10075000EF91BF91AF919F918F917F916F915F9139
:100760004F913F912F910F900FBE0F901F901895B2
:100770001F920F920FB60F921124CF92DF92EF9239
:10078000FF920F931F932F933F934F935F936F931A
:100790007F938F939F93AF93BF93CF93DF93EF9309
:1007A000FF93E0908400F09085008091F10299B170
:1007B0009093F1027894292F282780958923A9EA1C
:1007C000B2E0E2EFF2E060E070E0C22EDD24082F3C
:1007D00010E0CD91DC911197209721F1C601062EF2
:1007E00002C0959587950A94E2F780FF1BC0C80167
:1007F000062E02C0959587950A94E2F780FF03C004
:10080000F182E0820FC080819181A701481B590BC2
:1008100056954795CA0184589340815B944010F4E3
:10082000598348836F5F7F4F129632966830710507
:1008300081F6FF91EF91DF91CF91BF91AF919F91A1
:100840008F917F916F915F914F913F912F911F9168
:100850000F91FF90EF90DF90CF900F900FBE0F9011
:100860001F90189580915E0290915F02019771F040
:1008700080916F00806280936F0080918100806C16
:100880008093810083E08093A8020895809168009E
:10089000816080936800E7E8F1E040E050E061E0CB
:1008A00070E080819181892BA1F020916B00CB01B8
:1008B000042E02C0880F991F0A94E2F7282B209378
:1008C0006B0034B1282F2095232324B925B1822B26
:1008D00085B94F5F5F4F32964830510511F781E07F
:1008E0008093A80280916800846080936800E9EAA0
:1008F000F2E040E050E061E070E080819181892B7E
:10090000A1F020916D00CB01042E02C0880F991F29
:100910000A94E2F7282B20936D003AB1282F2095F6
:1009200023232AB92BB1822B8BB94F5F5F4F3296AD
:100930004830510511F70895A6E0B0E0E2EAF4E08E
:100940000C94DD1C7A8369831C012B019E838D83AB
:100950009B012A5F3F4F3C832B83ED81FE81068103
:10096000178180819181081B190B3801882477FC3D
:100970008094982CF10182899389A489B589860D88
:10098000971DA81DB91D268D378D40A151A1AA2400
:10099000BB246501A21AB30AC40AD50A8A159B05AD
:1009A000AC05BD054CF05C016D01281739074A07FD
:1009B0005B0714F459016A01F101A28AB38AC48A5F
:1009C000D58AED81FE8184859585AA2797FDA0951E
:1009D000BA2FA4019301281B390B4A0B5B0BCA01E8
:1009E000B90115870487F20124853585442737FD31
:1009F0004095542F0E94811C7B018C0142E015958B
:100A00000795F794E7944A95D1F7F2012081318157
:100A1000442737FD4095542FC401B3010E94811C27
:100A200033E095958795779567953A95D1F7E60EDA
:100A3000F71E081F191FF20126813781442737FD51
:100A40004095542FC601B5010E94811C26E0959562
:100A50008795779567952A95D1F7E60EF71E081FBB
:100A6000191FE981FA81028804C015950795F7944A
:100A7000E7940A94D2F7ED81FE81F3A6E2A63296BE
:100A8000FE83ED8324E030E0220E331E42E050E08E
:100A9000440E551E8B819C814816590609F05DCF86
:100AA0002696E2E10C94F91CA0E0B0E0EAE5F5E05E
:100AB0000C94E51C7C018C01EB01F70160E070E017
:100AC0002BC02181328188819981281739070CF444
:100AD000C90192838183218532858881998182171A
:100AE00093070CF4C9019287818729913991442792
:100AF00037FD4095542FD8011F96AD90BD90CD90F5
:100B0000DC905297A20EB31EC41ED51E1F96AD9246
:100B1000BD92CD92DC9252979B016F5F7F4F3296D0
:100B20000C5F1F4FD70111968D919C91129728173A
:100B300039073CF2CDB7DEB7EAE00C94011DA0E026
:100B4000B0E0E5EAF5E00C94E71CEC017C0153E22F
:100B5000C52ED12CC80ED91E00E010E011C02BA567
:100B60003CA5442737FD4095542FF70167857089D0
:100B7000818992890E94C21CF601219331936F01F1
:100B800098010F5F1F4F84E090E0E80EF91E898105
:100B90009A81281739071CF3CDB7DEB7E8E00C942B
:100BA000031DA8E0B0E0E7EDF5E00C94E71C8C0134
:100BB00080910502909106029A83898380910902AF
:100BC00090910A029C838B8380910B0290910C027E
:100BD0009E838D83809107029091080298878F836E
:100BE000C801BE016F5F7F4F0E945405D8019B96DC
:100BF0008D919C919C9701969C969C938E939B972C
:100C00008436910509F070C01196ED90FC90129712
:100C10006801F80160E040E050E00CC083859485F5
:100C200023813481821B930B44970CF46F5F4F5FD9
:100C30005F4F32964E155F058CF3862F992787FDFF
:100C400090958E159F05F9F4C8010E949F05F80143
:100C500083A194A1909314018093130185A196A17F
:100C6000909316018093150187A190A59093180188
:100C70008093170181A592A590931A018093190181
:100C800081E0808331C0D8011C9284E090E012960C
:100C90009C938E931197F80140E050E06FEFE62EA1
:100CA0006FE7F62E60E070E80BC0F282E182728797
:100CB0006187D6011F961D921D921D921C9252971C
:100CC0009A014F5F5F4F329684E090E0C80ED91EC4
:100CD000D80111968D919C911297281739072CF302
:100CE0009C961C921E929B972896E8E00C94031DFC
:100CF000A6E0B0E0EEE7F6E00C94E71C8C018091F2
:100D00003D0290913E029A83898380913F029091A7
:100D100040029C838B8380914102909142029E838A
:100D20008D83C801BE016F5F7F4F0E945405F8019B
:100D300083A594A5019694A783A78C52914009F0AE
:100D400064C0F801E180F280D80160E040E050E04A
:100D50000CC08385948523813481821B930BC297B9
:100D60000CF46F5F4F5F5F4F32964E155F058CF34B
:100D7000862F992787FD90958E159F05C9F4C80188
:100D80000E949F05F80183A194A19093380280935B
:100D9000370285A196A190933A028093390287A1E8
:100DA00090A590933C0280933B0281E080832DC00C
:100DB000F801108283E090E092838183680140E033
:100DC00050E07FEFE72E7FE7F72E60E070E80DC080
:100DD0001296FC92EE9211971A967C936E93199745
:100DE000F6011786108A118A128A9A014F5F5F4FA7
:100DF000129684E090E0C80ED91EF801818192819C
:100E0000281739072CF314A613A62696E8E00C94AD
:100E1000031D4091030150910401809103019091C1
:100E200004014817590721F040910502509106022C
:100E3000509306024093050220910501309106016E
:100E400080910501909106012817390721F0209122
:100E5000090230910A0230930A022093090220917C
:100E6000070130910801809107019091080128172E
:100E7000390721F020910B0230910C0230930C02C3
:100E800020930B022091090130910A018091090100
:100E900090910A012817390721F02091070230911B
:100EA0000802309308022093070220910B01309131
:100EB0000C0180910B0190910C012817390721F04A
:100EC00020910D0230910E0230930E0220930D02FC
:100ED00020910D0130910E0180910D0190910E0134
:100EE0002817390721F020910F023091100230931A
:100EF000100220930F0220910F0130911001809178
:100F00000F01909110012817390721F0209111024B
:100F1000309112023093120220931102209111019C
:100F20003091120180911101909112012817390717
:100F300021F0209113023091140230931402209377
:100F400013028091940290919502029721F450939C
:100F50000802409307020895FC0180919402909149
:100F600095028330910579F18430910524F402973C
:100F700009F0B4C007C08430910509F462C0059738
:100F800009F0ACC080819181209105023091060268
:100F9000820F931F90932A0280932902808191816E
:100FA0002091070230910802820F931F9093300224
:100FB00080932F02828193812091090230910A024D
:100FC000820F931F31C04081518180910502909121
:100FD0000602480F591F6281738180910902909126
:100FE0000A02680F791FCB01840F951F9C01B3E0A3
:100FF00035952795BA95E1F795958795280F391F6F
:101000002757314030932A0220932902461B570B61
:10101000CA0133E0959587953A95E1F7559547953F
:10102000840F951F84529A4F90932C0280932B0229
:101030008481958120910B0230910C02820F931FC5
:1010400049C0808191812091050230910602820F72
:10105000931F90932A02809329028081918120918D
:10106000070230910802820F931F90933002809301
:101070002F02628173818091090290910A02680FA8
:10108000791F4481558180910B0290910C02480F89
:10109000591FCA01860F971F9C01B3E0359527950C
:1010A000BA95E1F795958795280F391F2757314055
:1010B00030932C0220932B02461B570BCA01F3E0FE
:1010C00095958795FA95E1F755954795840F951F66
:1010D00084529A4F90932E0280932D028091110298
:1010E0009091120290933202809331028091130208
:1010F00090911402909334028093330280910F02F6
:101100009091100290933602809335020895A8E0E2
:10111000B0E0EDE8F8E00C94EB1C80915C0290915B
:101120005D020397A9F5FE01319688E0DF011D926B
:101130008A95E9F7CF010E94AC07A5EEB1E009E47A
:1011400012E041E552E06D917C911197F801208108
:101150003181FB0180819181281739070CF4C90185
:10116000F80191838083FA0120813181FB01808124
:101170009181821793070CF4C901FA01819391932D
:10118000AF0112960E5F1F4FF1E0AD3EBF07D9F6DB
:1011900083E492E00E94AC0780E090E0FC01EB5118
:1011A000FE4FA081B1814D915C911197FC01E75BED
:1011B000FD4F0190F081E02D4E175F0754F0FC01C8
:1011C000EF5AFD4F20813181FA01241735070CF4C5
:1011D000F901ED93FC93029688309105F9F6289673
:1011E000E4E00C94071D81E08093B9022FB7F894D6
:1011F0008091290290912A0290931C0280931B02F5
:1012000080912B0290912C0290931E0280931D02DC
:1012100080912D0290912E029093200280931F02C4
:1012200080912F02909130029093220280932102AC
:101230008091310290913202909324028093230294
:10124000809133029091340290932602809325027C
:101250008091350290913602909328028093270264
:10126000EFE6F0E0808182608083B19A8091840013
:1012700090918500049690938900809388002FBFF9
:101280000895FC018281838320910502309106023A
:10129000458154E0213B350714F490E00DC0C901AD
:1012A000845195408159914010F491E005C0285037
:1012B00037400CF453C092E0442319F082E0891BBC
:1012C000982F90832091090230910A02468154E0C0
:1012D000213B350714F490E00CC0C90184519540BE
:1012E0008159914010F491E004C028503740C4F176
:1012F00092E0442319F082E0891B982F9183878123
:10130000882351F48081882329F0823029F481E0F8
:101310008583108281E087838085882361F48181C1
:10132000882319F0823039F404C081E0868382E09A
:10133000818381E0808730813F5F818123E0820269
:10134000C0011124380F3283938180E0391729F0CE
:1013500081E09295907F932B948308959081B1CFF3
:101360009181CCCF282F30E03F6F220F331FEFB792
:10137000F8948091840090918500AC01405C5F4FAF
:10138000BC016D5D7A4F8091840090918500DA01F7
:10139000A81BB90B1A161B06B4F320FF02C05798FE
:1013A00001C0579A4617570729F036952795455794
:1013B0005F4FE9CFEFBF0895EFB7F8944F9B49C057
:1013C00016C020918400309185002058314C04C013
:1013D0008FEF9FEF4F9B0BC0809184009091850011
:1013E000B901681B790B1616170614F4F1CFAC017E
:1013F00041505040CA0101961816190614F34F5F68
:101400005F4F19F420E030E826C08091840090916D
:101410008500AC0140565F4F20E030E0BC016359CD
:101420007B4F8091840090918500DA01A81BB90B55
:101430001A161B06B4F389B13695279590E080788B
:101440009070282B392B4617570729F045575F4FC7
:10145000E8CF20E030E4EFBFC9010895EF92FF929A
:101460000F931F93CF93DF93E82E192F062FF62E9D
:1014700084E20E94B209802F0E94B2092E2D312FE2
:10148000C901EC0104C08991F80E0E94B2099E01C5
:101490002E192017C4F38F2D81950E94B209CDB764
:1014A000DEB7E6E00C94051D8F929F92AF92BF923B
:1014B000CF92DF92FF920F931F93CF93DF934C0154
:1014C0005A01C0E0D0E0C62EDD24C7FCD09402C093
:1014D000812F182FC5010E94DC099C018070907C2F
:1014E000892B69F5822FC130D10559F0C230D10561
:1014F000A1F0209779F7243259F7812FC1E0D0E08D
:10150000E8CF90E0C816D90614F4812F15C0822FB9
:10151000F22EC2E0D0E000E0DCCFF20E812F81504D
:10152000112331F0F401E00FF11D20830F5FD1CFC3
:10153000FF2011F481E004C0C0E0D0E0CACF80E019
:10154000DF91CF911F910F91FF90DF90CF90BF90CF
:10155000AF909F908F9008958EEF91E00E94B21807
:1015600008951F93CF93DF93EC01142F4BE350E0CA
:1015700025EC30E00E948D008881811711F08FEFFB
:1015800012C090E020E030E0FE01E20FF31F808106
:10159000980F2F5F3F4F2B333105B1F7992311F48B
:1015A00080E001C08EEFDF91CF911F910895DC01A3
:1015B00040E020E030E0FD01E20FF31F8081480FA2
:1015C0002F5F3F4F2A333105B1F74195DA964C939F
:1015D000DA97CB01BD014BE350E02DEC30E00E94E7
:1015E000A9000895A3E1B0E0E8EFFAE00C94DD1C57
:1015F0001C0181E089838AE592E09B838A830296BD
:101600009D838C8302969F838E8302969987888719
:1016100002969B878A8702969D878C8702969F8772
:101620008E870296998B888BCE0101969B8B8A8B35
:10163000D0905A02DD0CCC246624EE24FF248701CE
:10164000F0E88F2EFAE19F2EF6E0AF2EB12CE2E00B
:101650007E2E2C010E94FC009B01AC01DC01CB0121
:101660008E199F09A00BB10B88169906AA06BB0616
:101670000CF051C0171424F5872D992787FD9095FC
:10168000FC01E170F07080FD03C088E097E002C0CB
:101690008CED95E090932C0280932B028CED95E0DD
:1016A00090932A0280932902EE0FFF1FEE0FFF1F77
:1016B000E553FE4F80809180A280B3807A9429C048
:1016C000DD2039F11D1424F46CE271E0A1E003C0C7
:1016D00064ED7EEFAFEF8D2D992787FD9095FC018E
:1016E000E170F07080FF03C08CED95E003C0CB018A
:1016F00084529A4F90932A0280932902EE0FFF1F83
:10170000EE0FFF1FE553FE4F80809180A280B380D3
:10171000DA1A79018A018091A702882329F01092B0
:10172000A7020E94090702C0662041F08091B90219
:10173000882309F08CC00E94F3086624772009F002
:1017400089CFC1010E944109882309F483CFF101A7
:101750008481843561F0853520F4823509F063C0D9
:1017600013C0863559F0883509F05DC02AC0F1E014
:10177000FC1514F0CC2470C0CA946EC086E08C15A1
:101780000CF468C0C39468C0AC2DBB27A7FDB0950E
:10179000FD01EE0FFF1FE40DF51D0180F281E02D2C
:1017A0008081282F332727FD30952F5F3F4FAD5283
:1017B000BE4F8C91992787FD909582179307F4F47B
:1017C0001CC0AC2DBB27A7FDB095FD01EE0FFF1F80
:1017D000E40DF51D0180F281E02D8081282F332753
:1017E00027FD309521503040A452BE4F8C9199274F
:1017F00087FD9095281739070CF49C01208320E081
:101800008C2D992787FD9095FC01EE0FFF1FE40DAD
:10181000F51D0180F281E02DD080DD0C222319F02E
:101820000196782E770C8981823009F013CF89E5F3
:1018300092E060E070E00E94D70A89E592E060E003
:1018400071E00E94D70A6396E2E10C94F91C6624C9
:10185000639474CFA8E0CA2E21E0D2CFACE5B0E00B
:10186000E4E3FCE00C94E71C1092800081E080939C
:10187000810057985F9844E650E000E06E010894BC
:10188000C11CD11CA2E0EA2EF12CEC0EFD1EC601FB
:101890006CE50E94540A882309F445C0898182308E
:1018A000B9F0833018F4813029F406C08330D1F0C8
:1018B000843009F110E02AC0C70160E870E048E018
:1018C00050E025EC30E00E948D0010E069E01FC080
:1018D00080E890E0B70148E050E02DEC30E00E9455
:1018E000A90013C0C70160E070E044E00E94B10AA3
:1018F00010E06CE30CC0C70160E070E00E94D70A02
:10190000C70160E071E00E94D70A11E061E08981BF
:1019100080688983C6010E942E0A01E044EF51E0ED
:10192000112309F4B4CF802FC45ADF4FE8E00C94A0
:10193000031D82E593E00E943F168EEF91E00E9426
:10194000D7188EEF91E061E00E94B6188EEF91E01B
:1019500063E00E94CC188EEF91E066E00E94C1180F
:101960008EEF91E00E940219882349F485E080936C
:101970009D0288EC90E09093A4028093A3020895C6
:10198000A6E0B0E0E6ECFCE00C94ED1C8EEF91E0FC
:10199000BE016F5F7F4FAE014D5F5F4F9E012B5FBA
:1019A0003F4F0E940A198B819C8190933E02809345
:1019B0003D0249815A815093400240933F022D815C
:1019C0003E813093420220934102809160029091C7
:1019D00061028230910519F00397D1F40DC0309364
:1019E000400220933F0288279927841B950B9093F0
:1019F0004202809341020CC088279927821B930BD7
:101A00009093400280933F025093420240934102E0
:101A10002696E2E00C94091DA9E8B0E0E2E1FDE0C1
:101A20000C94DD1C0E94FC001B012C01DE011196B0
:101A3000EDEBF1E086E001900D928150E1F781E05D
:101A40008C8B8B8B85E08D8B198E188E1B8E1A8E4E
:101A500084E090E09E8F8D8FFE017F96DE019F9641
:101A600040E050E00FEF1FE760E070E809C011832D
:101A70000083718760871D921D921D921D92329680
:101A80009A014F5F5F4F8D8D9E8D281739077CF32C
:101A9000FE01E95BFF4F11821082FE01E75BFF4F01
:101AA00083E090E092838183DF011396BF016D5E36
:101AB0007F4F40E050E06F018FEFE82E8FE7F82E68
:101AC00000E010E80EC01196FC92EE9219961C935D
:101AD0000E931897FB011192119211921192BF016E
:101AE00012969A014F5F5F4FF6018181928128170C
:101AF00039074CF31C8E108214A613A62092EB0219
:101B00003092EC024092ED025092EE02CA57DF4F43
:101B1000288239824A825B82C658D040CE57DF4F36
:101B2000288239824A825B82C258D0408201710188
:101B3000C258DF4F288239824A825B82CE57D0401A
:101B4000EB962CAE3DAE4EAE5FAEEB97EE961FAE73
:101B5000EE97ED961FAEED97F1E0EC96FFAFEC97A8
:101B600008C0C258DF4FA882B982CA82DB82CE5732
:101B7000D0400E94FC005B016C010E943C018091FE
:101B8000A702882399F4D601C501CA57DF4F2881DF
:101B900039814A815B81C658D040821B930BA40BCC
:101BA000B50B81539547A040B0401CF11092A7029D
:101BB0000E9409078C8D882309F05AC4CE014C96E7
:101BC0000E94D1052A968FAD2A97882311F492E0BE
:101BD00001C090E020E08C8D882309F421E0920F71
:101BE00090939C0248EC50E05093A2024093A102D3
:101BF0003FC4EE965FADEE97552359F08091B90240
:101C0000882339F40E9487080E94F308EE961FAEDD
:101C1000EE97D601C501CE57DF4F288139814A8121
:101C20005B81C258D040821B930BA40BB50B815132
:101C30009742A040B04054F10E94C00C2A968FAD4C
:101C40002A978823D9F4CE01875B9F4F0E9478069C
:101C50002A968FAD2A97882311F492E001C090E074
:101C600020E08C8D882309F421E0920F90939C0250
:101C700048EC50E05093A2024093A102CE57DF4FB0
:101C8000A882B982CA82DB82C258D040EC965FAD8E
:101C9000EC97552309F44EC0CE0143960E944109AA
:101CA000882309F447C0ED966FADED97E62FFF2727
:101CB000E7FDF095EC54FE4F9F898081981721F045
:101CC000ED961FAEED9707C0ED967FADED977F5F68
:101CD000ED967FAFED97ED968FADED97E82FFF274F
:101CE000E7FDF095EC54FE4F80818F3F81F4CE01EB
:101CF00043960E94F20A2EE088E190E00FB6F89435
:101D0000A895809360000FBE20936000FFCFD6019E
:101D1000C50182199309A409B509815C914EA44EAD
:101D2000B04024F0EC961FAEEC9704C0F1E0EC96C6
:101D3000FFAFEC978C8D882309F41BCF2A968FADCB
:101D40002A97882309F415CFD601C5018E199F095A
:101D5000A00BB10B81519742A040B0400CF416C3C8
:101D600080919602909197028130910559F480916B
:101D70000D0290910E02845C95400CF09BC080E0B7
:101D800090E00DC0892B09F095C080910D029091D3
:101D90000E02855F95400CF48DC081E090E0909339
:101DA000970280939602892B11F084E001C080E0B5
:101DB00080939C0268EC70E07093A2026093A10291
:101DC0001092CC021092CD021092CE021092CF024D
:101DD0001092D8021092D9021092DA021092DB020D
:101DE0001092D0021092D1021092D2021092D3021D
:101DF0001092DC021092DD021092DE021092DF02DD
:101E00001092D4021092D5021092D6021092D702EC
:101E10001092E0021092E1021092E2021092E302AC
:101E20008091680290916902029709F043C0D6013F
:101E3000C501EB962CAD3DAD4EAD5FADEB97821B72
:101E4000930BA40BB50B8152914AA740B0401CF0F4
:101E5000E7961FAEE797E7964FADE7974F5FE79698
:101E60004FAFE797433004F180910502909106024D
:101E700090931401809313018091090290910A02BA
:101E8000909316018093150180910B0290910C02A2
:101E90009093180180931701809107029091080296
:101EA00090931A0180931901EB96ACAEBDAECEAE05
:101EB000DFAEEB97E0910702F091080280910502F6
:101EC00090910602E80FF91F80911301909114017F
:101ED000E81BF90B8091190190911A01E81BF90B8D
:101EE0004091090250910A028091150190911601CA
:101EF000481B590BA0910B02B0910C028091170165
:101F000090911801A81BB90B809162028150282F73
:101F1000332727FD3095CF019595879597FF03C00F
:101F2000909581959F4F022E02C0880F991F0A94A9
:101F3000E2F761E08139960714F080E991E060E909
:101F400071E0681B790B78876F83CA0157FF04C063
:101F500088279927841B950B022E02C0880F991F92
:101F60000A94E2F771E08139970714F080E991E073
:101F700060E971E0681B790B7A876987CD01B7FF4B
:101F800004C0882799278A1B9B0BBC0102C0660FDF
:101F9000771F2A95E2F781E06139780714F060E94C
:101FA00071E010E9812E11E0912E861A970A9C8625
:101FB0008B8620910D0230910E0295E02D3D390760
:101FC0002CF067E02D3636075CF007C08CED95E00D
:101FD000821B930B815991401CF000E911E00CC069
:101FE00085E02D3D380724F089010C5D154004C0C3
:101FF0000CED15E0021B130BE0909602F090970297
:1020000091E0E916F10459F0E114F10409F054C02B
:102010008091660290916702029709F04DC080910D
:1020200064029091650201979F01082E02C0220F61
:10203000331F0A94E2F701963E872D87082E02C0CF
:10204000440F551F0A94E2F7588B4F87AD0102C029
:10205000440F551F8A95E2F75A8B498B89819A81E3
:1020600097FD05C088279927821B930B01C0C901E2
:102070009093BB028093BA028B819C812F85388913
:1020800097FD05C088279927821B930B01C0C901C2
:102090009093BD028093BC028D819E8197FD03C009
:1020A000509541955F4F5093BF024093BE02E1E0CF
:1020B000EE16F10471F055C01092BB021092BA02F4
:1020C0001092BD021092BC021092BF021092BE028A
:1020D00048C06F817885882777FD8095982F24EFF9
:1020E0003FEB40E050E00E94811CF9E09595879518
:1020F00077956795FA95D1F76093D8027093D902D6
:102100008093DA029093DB0269857A85882777FDD0
:102110008095982F0E94811CE9E095958795779589
:102120006795EA95D1F76093DC027093DD028093A6
:10213000DE029093DF02B401882777FD8095982F07
:102140000E94811C39E095958795779567953A951A
:10215000D1F76093E0027093E1028093E2029093E2
:10216000E30220913D0230913E028091370290912E
:102170003802281B390BF0E220303F0714F02FEF14
:102180003FE1C90120EE8030920714F480E090EE28
:102190009093C1028093C00220913F02309140028F
:1021A0008091390290913A02281B390B40E220308D
:1021B000340714F02FEF3FE1C90150EE203035070E
:1021C00014F480E090EE9093C3028093C2022091B9
:1021D00041023091420280913B0290913C02281BC7
:1021E000390B60E22030360714F02FEF3FE1C901D0
:1021F00070EE2030370714F480E090EE9093C50223
:102200008093C402EF2819F060E872E002C06DE626
:1022100072E08AEB92E00E949C04EE24FF243801D5
:10222000882477FC8094982C87010D5B1D4FE1E09A
:10223000F0E0EC0FFD1FEE0DFF1D6081718188271E
:1022400077FD8095982FF701E654FD4F22A533A521
:10225000442737FD4095542F0E94811C27E0959517
:102260008795779567952A95D1F7E7E0F0E0EC0F31
:10227000FD1FEE0DFF1D20813181442737FD409564
:10228000542F0E94811C9B01AC0189E05595479514
:10229000379527958A95D1F7C401B3010E94811C17
:1022A000B9E09595879577956795BA95D1F7F80137
:1022B0007183608322E030E0E20EF31E36E0E31625
:1022C000F10409F0B1CF2091EA0212160CF05CC0C3
:1022D0008091EB029091EC02A091ED02B091EE02A0
:1022E000B601A501481B590B6A0B7B0BDB01CA0128
:1022F00081549D40A340B0405CF021502093EA02FD
:10230000A092EB02B092EC02C092ED02D092EE02EB
:102310008091EA02992787FD909540914302509160
:102320004402BC016170707080FF03C026E930E098
:1023300002C02AE63FEF240F351F3093440220935A
:10234000430240914502509146026115710519F012
:1023500026E930E002C02AE63FEF240F351F309314
:102360004602209345022091470230914802672B94
:1023700019F48AE69FEF02C086E990E0820F931F6E
:10238000909348028093470286017501D601C501EA
:10239000C258DF4F288139814A815B81CE57D040B6
:1023A000821B930BA40BB50B8C59914AA740B040EC
:1023B0000CF4DFCB80916A02803839F480910001FF
:1023C000282F30E02058304004C0282F332727FD25
:1023D000309580916B02803839F480910101482F4B
:1023E00050E04058504004C0482F552747FD5095B5
:1023F00080916C02803831F48091020190E0805825
:10240000904003C0992787FD90953A8329835C8388
:102410004B839E838D83295F3F4F2F30310510F40E
:102420001A8219828B819C8107960F9710F41C8267
:102430001B828D819E8107960F9710F41E821D824C
:10244000EBE4F1E020E080819181892B61F08091C3
:102450007C00887F282B20937C0080917A00806408
:1024600080937A007ECB2F5F3296283061F779CB4C
:10247000CA57DF4FA882B982CA82DB82C658D040D1
:1024800041E0EE964FAFEE97B9CB1F931FEF1F5F62
:10249000E12FFF27E7FDF095EE0FFF1FE956FE4FF6
:1024A00080819181892B69F41F5FE12FFF27E7FD70
:1024B000F095EE0FFF1FE956FE4F80819181892B29
:1024C00059F0E12FFF27E7FDF095E755FE4F80819A
:1024D00061E00E94471ADBCF1F9108951F920F926F
:1024E0000FB60F9211242F933F934F935F936F93E7
:1024F0007F938F939F93AF93BF93CF93DF93EF938C
:10250000FF93E091F002FF27E7FDF095E755FE4FBE
:10251000808160E00E94861AE091EF02E7FD4BC0E7
:10252000C0918400D0918500FF27E7FDF095E75525
:10253000FE4F808161E00E94861A8091EF02E82FB1
:10254000FF27E7FDF095EE0FFF1FE956FE4F0190C4
:10255000F081E02D208131818093F002482F4F5F80
:102560004093EF02E42FFF27E7FDF095EE0FFF1FEA
:10257000E956FE4F80819181892B91F4E42FEF5F22
:10258000E093EF02FF27E7FDF095EE0FFF1FE956FE
:10259000FE4F80819181892B19F48FEF8093EF0298
:1025A00022503040220F331F2C0F3D1F30938900E3
:1025B0002093880009C01092EF021092B902809116
:1025C0006F008D7F80936F00FF91EF91DF91CF912E
:1025D000BF91AF919F918F917F916F915F914F913B
:1025E0003F912F910F900FBE0F901F901895EF9273
:1025F000FF920F931F93CF93DF93E82EF62E60E0A8
:102600000E94471A8F2D61E00E94471AC0E0D0E077
:10261000CE018170082F8F2D602F0E94861A8E2D7B
:102620000E94DA1A112707FD10958017910711F003
:1026300000E005C02196C830D10551F701E08F2D8B
:1026400060E00E94471A802FCDB7DEB7E6E00C9419
:10265000051DA0E8B0E0EFE2F3E10C94E91C259A37
:102660008091E6039091E703009711F09C0102C06E
:102670002AEE33E0CE010196821B930B8038910540
:102680004CF484E180939D028EE190E09093A4024B
:102690008093A30284B7877F84BF88E10FB6F89444
:1026A00080936000109260000FBE21E030E0309314
:1026B0005B0220935A0280E880936A0280936B0247
:1026C00080936C0230935D0220935C0230935F0232
:1026D00020935E0230936102209360023093630284
:1026E0002093620283E090E09093650280936402FD
:1026F000309367022093660282E090E09093690233
:102700008093680284EF91E090936E0280936D0253
:10271000109274021092730290937A02809379025D
:102720009093700280936F0210927602109275025D
:1027300090937C0280937B0290937202809371024B
:10274000109278021092770290937E0280937D021D
:1027500028E020937F0290938102809380029093DF
:1027600087028093860290938D0280938C029093CF
:1027700083028093820290938902809388029093CF
:102780008F0280938E0290938502809384029093AF
:102790008B0280938A0290939102809390022093FF
:1027A000920285E064E00E94F712882311F400E0B1
:1027B00001C007E0CE01039660E870E048E050E019
:1027C00025EC30E00E948D00002361F48B81823083
:1027D00049F48C819D81AE81BF818E549146AC4B72
:1027E000B04071F082E08B838EE491E6ACEBB0E018
:1027F0008C839D83AE83BF83188619861A860860F2
:10280000CE010B9660E070E044E00E94B10A87FDC3
:102810000260CE018A5B9F4F60E071E044E00E945D
:10282000B10A87FD046083E08093EA02E02EFF2472
:10283000C701867090708230910531F08430910527
:1028400079F0892B81F119C08E010A5B1F4FC801F5
:1028500060E070E00E94D70A88858F5F88870BC090
:102860008E01055F1F4FC80160E071E00E94D70A2A
:1028700089858F5F8987C80118C084E080935902D9
:1028800089E592E060E070E00E94D70A89E592E075
:1028900060E071E00E94D70A8A858F5F8A8789E0AD
:1028A0008093EA020AC0CE010B96A9E5B2E0FC01D2
:1028B0008BE301900D928150E1F7C7018E7090700B
:1028C000892B59F080E890E0BE016D5F7F4F48E0B2
:1028D00050E02DEC30E00E94A900E0FE0BC000E2C9
:1028E00085B1802785B964E670E080E090E00E94C1
:1028F000B319F6CF0E942E0C882361F02EE088E1F8
:1029000090E00FB6F894A895809360000FBE2093D6
:102910006000FFCF1092800082E08093810081E010
:1029200080936F0085B5887F85BD80915C02909112
:102930005D0282309105D1F08330910561F10197FC
:10294000F1F580E090E048EE53E020ED37E0FC0147
:10295000E75BFD4F51834083FC01EF5AFD4F31830C
:10296000208302968830910591F729C080E090E09D
:102970004CE454E02CE637E0FC01E75BFD4F51836B
:102980004083FC01EF5AFD4F31832083029688304B
:10299000910591F714C080E090E042EE54E026EDFE
:1029A00036E0FC01E75BFD4F51834083FC01EF5AA9
:1029B000FD4F3183208302968830910591F70E9464
:1029C00021020E947F0280915A0290915B029C0139
:1029D00021303105C9F480911802882319F4E0E010
:1029E000F0E002C0E2E0F0E020E030E08091190287
:1029F000882311F021E030E0E22BF32BEE0FFF1FD4
:102A0000ED53FE4F20813181309395022093940243
:102A10002530310599F48091160229E031E08823B0
:102A200029F030938E0120938D0108C010927A0115
:102A3000109279013093AC022093AB0280915E0238
:102A400090915F02019759F11092880110928701CD
:102A500010928A011092890110928C0110928B01C0
:102A600010928E0110928D0183E292E09093A0016A
:102A700080939F018AE08093AD0185E292E090937C
:102A8000A2018093A10189E08093AE0187E292E0E8
:102A90009093A4018093A3018BE08093AF01809178
:102AA000940280939B0288E592E09093A002809329
:102AB0009F020E94DE010E9432040E9445120E9481
:102AC000990C0E9409070E948708C058DF4FE6E072
:102AD0000C94051D81E08093510360932E031092A6
:102AE0004F0310925003089520912D0330E0809100
:102AF0002C03281B3109C901089540912C038091B2
:102B00002D03481718F02FEF3FEF0AC0E42FF0E035
:102B1000E45FFC4F8081282F30E04F5F40932C030F
:102B2000C9010895E0912C0380912D03E81718F056
:102B3000EFEFFFEF06C0F0E0E45FFC4F8081E82F8D
:102B4000F0E0CF01089508951092550310925403B8
:102B500088EE93E0A0E0B0E0809356039093570393
:102B6000A0935803B093590381EF91E090935303DE
:102B7000809352030895A0E0B0E0E1ECF5E10C94FD
:102B8000E71C7C016B018A01809151038823A1F02D
:102B9000C0E0D0E00DC0D701ED91FC91D601AC0FA3
:102BA000BD1F0190F081E02DC7016C910995219620
:102BB000C017D10780F304C0CB01642F0E94E81630
:102BC000C801CDB7DEB7E8E00C94031DA1E0B0E08A
:102BD000ECEEF5E10C94ED1CFC016983809151034E
:102BE0008823C9F080915003803238F081E090E072
:102BF0009383828320E030E015C080914F03E82F5B
:102C0000F0E0E15DFC4F998190838F5F80934F03EB
:102C10008093500305C0CE01019661E00E94E81642
:102C200021E030E0C9012196E2E00C94091D0F93E8
:102C3000062F80912E036FE273E04091500321E054
:102C40000E94931610924F0310925003109251035A
:102C50000F91089561E00E9417160895413208F01F
:102C600040E2862F6CE073E00E944A1610922C031B
:102C700080932D03089521E00E942E16089510924E
:102C80002C0310922D0310924F03109250030E94B8
:102C900094180895382F413210F040E042C08091DE
:102CA0005E038823E1F791E090935E032093600335
:102CB0008FEF8093CB03109286034150409387039C
:102CC0004F5F90935F0380915F03330F832B80935B
:102CD0005F0380916103813041F410926103809120
:102CE0005F038093BB0085EC01C085EE8093BC0040
:102CF00080915E038130E1F380918603841710F4A4
:102D00004091860320E030E00AC0FB01E20FF31F90
:102D1000D901AA59BC4F8C9180832F5F3F4F241754
:102D2000A0F3842F08950F931F93582F122F413231
:102D300010F081E04AC080915E038823E1F782E0D1
:102D400080935E03009360038FEF8093CB03109218
:102D5000860340938703A6E6B3E0FB0102C081919E
:102D60008D938E2F861B8417D0F310925F03809172
:102D70005F03550F852B80935F0380916103813042
:102D800041F41092610380915F038093BB0085EC56
:102D900001C085EE8093BC00112321F080915E0379
:102DA0008230E1F38091CB038F3F11F480E00DC0BE
:102DB0008091CB03803211F482E007C08091CB0375
:102DC000803311F084E001C083E01F910F910895DA
:102DD000482F613210F081E0089580915E038430C5
:102DE00011F082E008956093A903A8E8B3E0842F6E
:102DF0009C01F90102C081918D938E2F841B86174F
:102E0000D0F380E008951F920F920FB60F92112415
:102E10002F933F934F935F936F937F938F939F93E2
:102E2000AF93BF93EF93FF938091B90090E0887FB9
:102E300090708036910509F4F2C081369105CCF589
:102E40008832910509F47BC089329105B4F4803150
:102E5000910509F46FC0813191053CF4009709F4A4
:102E600047C1089709F04FC165C08831910509F441
:102E700066C0809709F047C182C08034910509F48B
:102E8000A4C08134910544F48033910509F482C0D3
:102E9000C89709F038C189C08035910509F489C007
:102EA0008835910509F496C08834910509F02BC145
:102EB000AEC08839910509F413C189399105ECF444
:102EC0008837910509F4ABC0893791054CF48836F1
:102ED000910509F4A4C08037910509F014C19FC081
:102EE0008838910509F4FCC08039910509F49DC02A
:102EF0008038910509F007C198C0803B910509F41D
:102F0000C6C0813B91054CF4803A910509F49FC0FD
:102F1000883A910509F0F7C0BAC0803C910509F4E0
:102F2000E3C0883C910509F4DFC0883B910509F0B6
:102F3000EAC0C2C080915F038093BB00CFC0909174
:102F4000860380918703981768F490918603E92F90
:102F5000F0E0EA59FC4F80818093BB009F5F909323
:102F60008603BCC080916003882309F44BC085EDC3
:102F70008093BC008091BC0084FDFCCFC2C080E285
:102F80008093CB0385ED8093BC008091BC0084FDD1
:102F9000FCCFB7C080E38093CB0385ED8093BC006A
:102FA0008091BC0084FDFCCFACC088E38093CB0350
:102FB0009BC0809186039091BB00E82FF0E0EA5916
:102FC000FC4F90838F5F809386039091860380915E
:102FD000870382C0809186039091BB00E82FF0E0C8
:102FE000EA59FC4F90838F5F809386038091600342
:102FF000882341F085ED8093BC008091BC0084FD66
:10300000FCCF7FC081E08093610384EA6EC085EDD0
:103010008093BC008091BC0084FDFCCF72C083E033
:1030200080935E031092CA0359C08091CA03803214
:1030300008F056C08091CA039091BB00E82FF0E0E1
:10304000E655FC4F90838F5F8093CA0347C0809101
:10305000CA03803230F4E091CA03F0E0E655FC4F39
:10306000108285ED8093BC008091BC0084FDFCCF74
:1030700010925E036091CA03E0916403F0916503CE
:103080008AEA93E070E009951092CA032DC084E0AB
:1030900080935E031092A8031092A903E09162034B
:1030A000F091630309958091A903882329F481E0B5
:1030B0008093A903109288039091A803E92FF0E070
:1030C000E857FC4F80818093BB009F5F9093A803DB
:1030D0009091A8038091A903981710F485EC01C082
:1030E00085E88093BC000FC085EC8093BC0009C0CC
:1030F0001092CB0385ED8093BC008091BC0084FDD1
:10310000FCCF10925E03FF91EF91BF91AF919F9121
:103110008F917F916F915F914F913F912F910F9080
:103120000FBE0F901F90189510925E0381E0809360
:1031300060031092610382E161E00E94861A83E1DC
:1031400061E00E94861AE9EBF0E080818E7F808347
:1031500080818D7F808388E48093B80085E48093AC
:10316000BC000895FC0188E6808308950F93FC015C
:10317000062F80816EE342E023E00E94091C0F913C
:1031800008950F93FC01062F808166E142E023E061
:103190000E94091C0F9108950F93FC01062F808156
:1031A00066E144E022E00E94091C0F9108950F930C
:1031B0001F938C0163E00E94CC18C80161E00E945B
:1031C000B6181F910F910895CF92DF92EF92FF9260
:1031D0000F931F936C018C010F5F1F4FE090B201A2
:1031E000F090B301FC01808160E046E026E00E949F
:1031F0004A1CF60181811F910F91FF90EF90DF90A3
:10320000CF9008950E94E41890E0843309F491E08F
:10321000892F08958F929F92AF92BF92CF92DF92A3
:10322000EF92FF920F931F937C016B015A014901AA
:103230009C012F5F3F4F0091B2011091B301FC013F
:1032400080816DE146E00E946F1BF701918180E073
:10325000228130E0822B932BF60191838083F7014A
:10326000938180E0248130E0822B932BF5019183C0
:103270008083F701958180E0268130E0822B932BBB
:10328000F401918380831F910F91FF90EF90DF9065
:10329000CF90BF90AF909F908F900895CF93DF9382
:1032A0000E940C1A0E942913C0E0D0E00E940C0D6D
:1032B0002097E1F30E940000F9CF1F920F920FB602
:1032C0000F9211242F933F938F939F93AF93BF93AC
:1032D0008091D0039091D103A091D203B091D303F8
:1032E0003091D4030196A11DB11D232F2D5F2D37E1
:1032F00020F02D570196A11DB11D2093D40380937A
:10330000D0039093D103A093D203B093D3038091C1
:10331000CC039091CD03A091CE03B091CF03019641
:10332000A11DB11D8093CC039093CD03A093CE0338
:10333000B093CF03BF91AF919F918F913F912F9108
:103340000F900FBE0F901F9018958FB7F894209193
:10335000D0033091D1034091D2035091D3038FBF5A
:10336000B901CA0108959B01AC017FB7F89480911F
:10337000CC039091CD03A091CE03B091CF0366B55D
:10338000A89B05C06F3F19F00196A11DB11D7FBF1D
:10339000BA2FA92F982F8827860F911DA11DB11D27
:1033A00062E0880F991FAA1FBB1F6A95D1F7BC0165
:1033B0002DC0FFB7F8948091CC039091CD03A091DC
:1033C000CE03B091CF03E6B5A89B05C0EF3F19F03F
:1033D0000196A11DB11DFFBFBA2FA92F982F8827D5
:1033E0008E0F911DA11DB11DE2E0880F991FAA1F2C
:1033F000BB1FEA95D1F7861B970B885E9340C8F2F6
:10340000215030404040504068517C4F21153105DB
:103410004105510571F60895789484B5826084BDA4
:1034200084B5816084BD85B5826085BD85B58160C8
:1034300085BDEEE6F0E0808181608083E1E8F0E028
:103440001082808182608083808181608083E0E857
:10345000F0E0808181608083E1EBF0E08081846036
:103460008083E0EBF0E0808181608083EAE7F0E038
:10347000808184608083808182608083808181609C
:1034800080838081806880831092C1000895CF93EB
:10349000DF93482F50E0CA0186569F4FFC013491BC
:1034A0004A575F4FFA018491882369F190E0880FB1
:1034B000991FFC01E859FF4FA591B491FC01EE580A
:1034C000FF4FC591D491662351F42FB7F8948C9196
:1034D000932F909589238C93888189230BC0623028
:1034E00061F42FB7F8948C91932F909589238C9346
:1034F0008881832B88832FBF06C09FB7F8948C9157
:10350000832B8C939FBFDF91CF910895482F50E07C
:10351000CA0182559F4FFC012491CA0186569F4FD4
:10352000FC0194914A575F4FFA013491332309F417
:1035300040C0222351F1233071F0243028F421308F
:10354000A1F0223011F514C02630B1F02730C1F0BF
:103550002430D9F404C0809180008F7703C080911B
:1035600080008F7D8093800010C084B58F7702C06B
:1035700084B58F7D84BD09C08091B0008F7703C072
:103580008091B0008F7D8093B000E32FF0E0EE0FCC
:10359000FF1FEE58FF4FA591B4912FB7F894662303
:1035A00021F48C919095892302C08C91892B8C9366
:1035B0002FBF0895682F70E0CB0182559F4FFC010B
:1035C0002491CB0186569F4FFC0144916A577F4F4F
:1035D000FB019491992319F420E030E03CC02223B0
:1035E00051F1233071F0243028F42130A1F0223041
:1035F00011F514C02630B1F02730C1F02430D9F4D1
:1036000004C0809180008F7703C0809180008F7DFF
:103610008093800010C084B58F7702C084B58F7D01
:1036200084BD09C08091B0008F7703C08091B00045
:103630008F7D8093B000892F90E0880F991F845868
:103640009F4FFC01A591B4918C9120E030E0842340
:1036500011F021E030E0C9010895EF92FF920F933D
:103660001F93CF93DF93582F162FE42E022FF32EA4
:1036700082E593E0652F0E946A1582E593E0612F51
:103680000E94E615202F3F2DC901EC0110E006C075
:1036900082E593E069910E94E6151F5F1E15C0F355
:1036A00082E593E00E942A1690E0882309F491E0D5
:1036B000892FCDB7DEB7E6E00C94051DA1E0B0E0A0
:1036C000E4E6FBE10C94ED1C498341E09E012F5F91
:1036D0003F4F0E942D1B2196E2E00C94091DA5E0AE
:1036E000B0E0E5E7FBE10C94DD1C882E6983942EA5
:1036F0003B832A830E94A5195B016C01FF24EE2401
:10370000292C332428016624772449C082E593E0DC
:10371000682D0E946A1582E593E069810E94E61592
:1037200082E593E00E942A1682E593E0682D0E94CC
:103730006A15A1014E1951094132510514F040E2B8
:1037400050E082E593E0682D0E943B162F2D332731
:1037500027FD30958A819B81280F391F3D832C835B
:1037600082E593E00E947415892BE9F1011511059A
:1037700059F00E94A5196A197B098C099D096415E5
:1037800075058605970578F582E593E00E947D151D
:10379000EC81FD818193FD83EC83F394E1CFE91407
:1037A00008F4B4CF01151105C9F00E94A5196A19D2
:1037B0007B098C099D09980140E050E0621773076E
:1037C0008407950758F02F2D332727FD3095892D35
:1037D00090E02817390714F4FF24FA948F2D2596CA
:1037E000E2E10C94F91C82E593E00E942A16892DEF
:1037F000F0E2F91508F480E2E80ED1CF0F931F93A1
:10380000FA01890141E09F010E946F1B1F910F91F6
:103810000895A1E0B0E0EFE0FCE10C94E81CE82E94
:10382000D62EF42E122F2091B2013091B301AE01A9
:103830004F5F5F4F0E94FE1B882341F1212F30E034
:103840004F2D50E04F5F5F4F421B530B81E090E0E4
:1038500002C0880F991F1A95E2F70197042E02C043
:10386000880F991F0A94E2F7202F30E002C0220F40
:10387000331F4A95E2F7482F40955981452382230B
:10388000482B49838E2D6D2D0E945E1B2196E7E00B
:103890000C94041DA1E0B0E0E0E5FCE10C94E71C11
:1038A000C42ED22E9701AE014F5F5F4F0E94FE1BC8
:1038B000682F882309F18D2D90E04C2D50E04F5F4B
:1038C0005F4F481B590B21E030E002C0220F331F2D
:1038D000DA94E2F721503040042E02C0220F331F49
:1038E0000A94E2F78981822390E002C0959587953A
:1038F0004A95E2F7F8018083862F2196E8E00C9440
:10390000031D629FD001739FF001829FE00DF11DA6
:10391000649FE00DF11D929FF00D839FF00D749F49
:10392000F00D659FF00D9927729FB00DE11DF91FF5
:10393000639FB00DE11DF91FBD01CF011124089552
:10394000A1E21A2EAA1BBB1BFD010DC0AA1FBB1FA3
:10395000EE1FFF1FA217B307E407F50720F0A21B15
:10396000B30BE40BF50B661F771F881F991F1A9482
:1039700069F760957095809590959B01AC01BD01AC
:10398000CF01089597FB092E05260ED057FD04D0D0
:10399000D7DF0AD0001C38F450954095309521951A
:1039A0003F4F4F4F5F4F0895F6F790958095709574
:1039B00061957F4F8F4F9F4F08952F923F924F9267
:1039C0005F926F927F928F929F92AF92BF92CF92AF
:1039D000DF92EF92FF920F931F93CF93DF93CDB7B8
:1039E000DEB7CA1BDB0B0FB6F894DEBF0FBECDBF30
:1039F00009942A88398848885F846E847D848C8401
:103A00009B84AA84B984C884DF80EE80FD800C8109
:103A10001B81AA81B981CE0FD11D0FB6F894DEBFEC
:103A20000FBECDBFED010895EE0FFF1F0590F4917D
:083A3000E02D0994F894FFCF8A
:103A3800FFFFFFDC05DC05DC05DC05E803DC05E849
:103A480003DC05DC05DC05DC05DC05070105010FE9
:103A58000103010B0109010D0111010F010301050A
:103A68000107010B0109010D011101030105010FF6
:103A78000107010B0109010D0111010000000101FD
:103A88000102010000000000000000000000001812
:103A98000200000000000019020000000000000001
:103AA800000000000000001A0215021602170200AA
:103AB800000000000000000301050107010B0100E0
:103AC800000000000000001B021D021F022102006E
:103AD80000000000000000000004050607FFFFFFCB
:103AE800FFFFE8037889988778899887FF000000A6
:103AF8000000000500040003000200A08601008009
:103B08001A0600050304030305020202010101016C
:103B1800010101010129022B022D022F02000000E0
:0E3B280000E615BB1574157D159215A315004A
:00000001FF
